{
  "_format": "hh-sol-artifact-1",
  "contractName": "Marketplace",
  "sourceName": "src/solidity/contracts/Marketplace.sol",
  "abi": [
    {
      "inputs": [
        {
          "internalType": "address",
          "name": "_accountMarketplace",
          "type": "address"
        },
        {
          "internalType": "address",
          "name": "_accountGamerOrganization",
          "type": "address"
        },
        {
          "internalType": "uint256",
          "name": "_feeMarketplacePercent",
          "type": "uint256"
        },
        {
          "internalType": "uint256",
          "name": "_feeGamerOrganizationPercent",
          "type": "uint256"
        },
        {
          "internalType": "uint256",
          "name": "_feeDiamondPercent",
          "type": "uint256"
        },
        {
          "internalType": "uint256",
          "name": "_feeGoldPercent",
          "type": "uint256"
        },
        {
          "internalType": "uint256",
          "name": "_feeSilverPercent",
          "type": "uint256"
        }
      ],
      "stateMutability": "nonpayable",
      "type": "constructor"
    },
    {
      "anonymous": false,
      "inputs": [
        {
          "indexed": false,
          "internalType": "uint256",
          "name": "itemId",
          "type": "uint256"
        },
        {
          "indexed": true,
          "internalType": "address",
          "name": "nft",
          "type": "address"
        },
        {
          "indexed": false,
          "internalType": "uint256",
          "name": "tokenId",
          "type": "uint256"
        },
        {
          "indexed": false,
          "internalType": "uint256",
          "name": "price",
          "type": "uint256"
        },
        {
          "indexed": true,
          "internalType": "address",
          "name": "seller",
          "type": "address"
        },
        {
          "indexed": true,
          "internalType": "address",
          "name": "buyer",
          "type": "address"
        }
      ],
      "name": "Bought",
      "type": "event"
    },
    {
      "anonymous": false,
      "inputs": [
        {
          "indexed": false,
          "internalType": "uint256",
          "name": "itemId",
          "type": "uint256"
        },
        {
          "indexed": true,
          "internalType": "address",
          "name": "nft",
          "type": "address"
        },
        {
          "indexed": false,
          "internalType": "uint256[]",
          "name": "tokenIds",
          "type": "uint256[]"
        },
        {
          "indexed": false,
          "internalType": "uint256[]",
          "name": "prices",
          "type": "uint256[]"
        },
        {
          "indexed": true,
          "internalType": "address",
          "name": "seller",
          "type": "address"
        }
      ],
      "name": "Offered",
      "type": "event"
    },
    {
      "inputs": [],
      "name": "accountGamerOrganization",
      "outputs": [
        {
          "internalType": "address payable",
          "name": "",
          "type": "address"
        }
      ],
      "stateMutability": "view",
      "type": "function"
    },
    {
      "inputs": [],
      "name": "accountMarketplace",
      "outputs": [
        {
          "internalType": "address payable",
          "name": "",
          "type": "address"
        }
      ],
      "stateMutability": "view",
      "type": "function"
    },
    {
      "inputs": [
        {
          "internalType": "uint256",
          "name": "",
          "type": "uint256"
        }
      ],
      "name": "accountsLevels",
      "outputs": [
        {
          "internalType": "address payable",
          "name": "diamond",
          "type": "address"
        },
        {
          "internalType": "address payable",
          "name": "gold",
          "type": "address"
        },
        {
          "internalType": "address payable",
          "name": "silver",
          "type": "address"
        }
      ],
      "stateMutability": "view",
      "type": "function"
    },
    {
      "inputs": [],
      "name": "feeDiamondPercent",
      "outputs": [
        {
          "internalType": "uint256",
          "name": "",
          "type": "uint256"
        }
      ],
      "stateMutability": "view",
      "type": "function"
    },
    {
      "inputs": [],
      "name": "feeGamerOrganizationPercent",
      "outputs": [
        {
          "internalType": "uint256",
          "name": "",
          "type": "uint256"
        }
      ],
      "stateMutability": "view",
      "type": "function"
    },
    {
      "inputs": [],
      "name": "feeGoldPercent",
      "outputs": [
        {
          "internalType": "uint256",
          "name": "",
          "type": "uint256"
        }
      ],
      "stateMutability": "view",
      "type": "function"
    },
    {
      "inputs": [],
      "name": "feeMarketplacePercent",
      "outputs": [
        {
          "internalType": "uint256",
          "name": "",
          "type": "uint256"
        }
      ],
      "stateMutability": "view",
      "type": "function"
    },
    {
      "inputs": [],
      "name": "feeSilverPercent",
      "outputs": [
        {
          "internalType": "uint256",
          "name": "",
          "type": "uint256"
        }
      ],
      "stateMutability": "view",
      "type": "function"
    },
    {
      "inputs": [
        {
          "internalType": "uint256",
          "name": "_itemId",
          "type": "uint256"
        }
      ],
      "name": "getTotalPrice",
      "outputs": [
        {
          "internalType": "uint256",
          "name": "",
          "type": "uint256"
        }
      ],
      "stateMutability": "view",
      "type": "function"
    },
    {
      "inputs": [],
      "name": "itemCount",
      "outputs": [
        {
          "internalType": "uint256",
          "name": "",
          "type": "uint256"
        }
      ],
      "stateMutability": "view",
      "type": "function"
    },
    {
      "inputs": [
        {
          "internalType": "uint256",
          "name": "",
          "type": "uint256"
        }
      ],
      "name": "itemCountOfPurchases",
      "outputs": [
        {
          "internalType": "uint256",
          "name": "",
          "type": "uint256"
        }
      ],
      "stateMutability": "view",
      "type": "function"
    },
    {
      "inputs": [
        {
          "internalType": "uint256",
          "name": "",
          "type": "uint256"
        }
      ],
      "name": "items",
      "outputs": [
        {
          "internalType": "uint256",
          "name": "itemId",
          "type": "uint256"
        },
        {
          "internalType": "contract IERC721",
          "name": "nft",
          "type": "address"
        },
        {
          "internalType": "uint256",
          "name": "tokenId",
          "type": "uint256"
        },
        {
          "internalType": "uint256",
          "name": "price",
          "type": "uint256"
        },
        {
          "internalType": "address payable",
          "name": "seller",
          "type": "address"
        }
      ],
      "stateMutability": "view",
      "type": "function"
    },
    {
      "inputs": [
        {
          "internalType": "contract IERC721",
          "name": "_nft",
          "type": "address"
        },
        {
          "internalType": "uint256[]",
          "name": "_tokensId",
          "type": "uint256[]"
        },
        {
          "internalType": "uint256[]",
          "name": "_prices",
          "type": "uint256[]"
        }
      ],
      "name": "makeItem",
      "outputs": [],
      "stateMutability": "nonpayable",
      "type": "function"
    },
    {
      "inputs": [
        {
          "internalType": "uint256",
          "name": "_itemId",
          "type": "uint256"
        }
      ],
      "name": "purchaseItem",
      "outputs": [],
      "stateMutability": "payable",
      "type": "function"
    }
  ],
  "bytecode": "0x6101606040523480156200001257600080fd5b506040516200271138038062002711833981810160405281019062000038919062000155565b600160008190555033600160006101000a81548173ffffffffffffffffffffffffffffffffffffffff021916908373ffffffffffffffffffffffffffffffffffffffff1602179055508673ffffffffffffffffffffffffffffffffffffffff1660808173ffffffffffffffffffffffffffffffffffffffff1660601b815250508573ffffffffffffffffffffffffffffffffffffffff1660a08173ffffffffffffffffffffffffffffffffffffffff1660601b815250508460c081815250508360e081815250508261010081815250508161012081815250508061014081815250505050505050505062000274565b600081519050620001388162000240565b92915050565b6000815190506200014f816200025a565b92915050565b600080600080600080600060e0888a0312156200017157600080fd5b6000620001818a828b0162000127565b9750506020620001948a828b0162000127565b9650506040620001a78a828b016200013e565b9550506060620001ba8a828b016200013e565b9450506080620001cd8a828b016200013e565b93505060a0620001e08a828b016200013e565b92505060c0620001f38a828b016200013e565b91505092959891949750929550565b60006200020f8262000216565b9050919050565b600073ffffffffffffffffffffffffffffffffffffffff82169050919050565b6000819050919050565b6200024b8162000202565b81146200025757600080fd5b50565b620002658162000236565b81146200027157600080fd5b50565b60805160601c60a05160601c60c05160e0516101005161012051610140516123b0620003616000396000818161098c01528181610b4801528181611432015281816114dc015261158601526000818161091a01528181610ae101528181610b690152818161127f015261132901526000818161086c01528181610aa501528181610b0201528181610b8a015261117601526000818161082401528181610a41015261107301526000818161096201528181610a6d0152610fdf015260008181610848015261103601526000818161067a0152818161078c0152818161093e0152610fa201526123b06000f3fe6080604052600436106100dd5760003560e01c80634dd0274e1161007f57806385de5ecc1161005957806385de5ecc146102b4578063bfb231d2146102df578063ca7dd37514610320578063d38ea5bf1461035d576100dd565b80634dd0274e14610233578063662fc0881461025e5780636bfb0d0114610289576100dd565b80631f5044a7116100bb5780631f5044a714610173578063239bbf5b1461019e5780633b1d198c146101c9578063427a0b2214610208576100dd565b806308a31216146100e25780630c0010331461011f578063158cb02a14610148575b600080fd5b3480156100ee57600080fd5b5061010960048036038101906101049190611a3a565b610379565b6040516101169190611dca565b60405180910390f35b34801561012b57600080fd5b50610146600480360381019061014191906119bb565b610391565b005b34801561015457600080fd5b5061015d610822565b60405161016a9190611dca565b60405180910390f35b34801561017f57600080fd5b50610188610846565b6040516101959190611c2f565b60405180910390f35b3480156101aa57600080fd5b506101b361086a565b6040516101c09190611dca565b60405180910390f35b3480156101d557600080fd5b506101f060048036038101906101eb9190611a3a565b61088e565b6040516101ff93929190611c4a565b60405180910390f35b34801561021457600080fd5b5061021d610918565b60405161022a9190611dca565b60405180910390f35b34801561023f57600080fd5b5061024861093c565b6040516102559190611c2f565b60405180910390f35b34801561026a57600080fd5b50610273610960565b6040516102809190611dca565b60405180910390f35b34801561029557600080fd5b5061029e610984565b6040516102ab9190611dca565b60405180910390f35b3480156102c057600080fd5b506102c961098a565b6040516102d69190611dca565b60405180910390f35b3480156102eb57600080fd5b5061030660048036038101906103019190611a3a565b6109ae565b604051610317959493929190611e2a565b60405180910390f35b34801561032c57600080fd5b5061034760048036038101906103429190611a3a565b610a24565b6040516103549190611dca565b60405180910390f35b61037760048036038101906103729190611a3a565b610c10565b005b60036020528060005260406000206000915090505481565b600260005414156103d7576040517f08c379a00000000000000000000000000000000000000000000000000000000081526004016103ce90611daa565b60405180910390fd5b60026000819055506000825111610423576040517f08c379a000000000000000000000000000000000000000000000000000000000815260040161041a90611d6a565b60405180910390fd5b8051825114610467576040517f08c379a000000000000000000000000000000000000000000000000000000000815260040161045e90611d8a565b60405180910390fd5b60005b82518110156107895760008282815181106104ae577f4e487b7100000000000000000000000000000000000000000000000000000000600052603260045260246000fd5b6020026020010151116104f6576040517f08c379a00000000000000000000000000000000000000000000000000000000081526004016104ed90611d0a565b60405180910390fd5b6002600081548092919061050990612123565b91905055508373ffffffffffffffffffffffffffffffffffffffff166323b872dd3330868581518110610565577f4e487b7100000000000000000000000000000000000000000000000000000000600052603260045260246000fd5b60200260200101516040518463ffffffff1660e01b815260040161058b93929190611c81565b600060405180830381600087803b1580156105a557600080fd5b505af11580156105b9573d6000803e3d6000fd5b505050506040518060a0016040528060025481526020018573ffffffffffffffffffffffffffffffffffffffff168152602001848381518110610625577f4e487b7100000000000000000000000000000000000000000000000000000000600052603260045260246000fd5b6020026020010151815260200183838151811061066b577f4e487b7100000000000000000000000000000000000000000000000000000000600052603260045260246000fd5b602002602001015181526020017f000000000000000000000000000000000000000000000000000000000000000073ffffffffffffffffffffffffffffffffffffffff168152506004600060025481526020019081526020016000206000820151816000015560208201518160010160006101000a81548173ffffffffffffffffffffffffffffffffffffffff021916908373ffffffffffffffffffffffffffffffffffffffff160217905550604082015181600201556060820151816003015560808201518160040160006101000a81548173ffffffffffffffffffffffffffffffffffffffff021916908373ffffffffffffffffffffffffffffffffffffffff160217905550905050808061078190612123565b91505061046a565b507f000000000000000000000000000000000000000000000000000000000000000073ffffffffffffffffffffffffffffffffffffffff168373ffffffffffffffffffffffffffffffffffffffff167fa7a25a41bf2dd955eec8125fce9de171ecd45961064d3c59d983c026cbbcfd80600254858560405161080d93929190611de5565b60405180910390a36001600081905550505050565b7f000000000000000000000000000000000000000000000000000000000000000081565b7f000000000000000000000000000000000000000000000000000000000000000081565b7f000000000000000000000000000000000000000000000000000000000000000081565b60056020528060005260406000206000915090508060000160009054906101000a900473ffffffffffffffffffffffffffffffffffffffff16908060010160009054906101000a900473ffffffffffffffffffffffffffffffffffffffff16908060020160009054906101000a900473ffffffffffffffffffffffffffffffffffffffff16905083565b7f000000000000000000000000000000000000000000000000000000000000000081565b7f000000000000000000000000000000000000000000000000000000000000000081565b7f000000000000000000000000000000000000000000000000000000000000000081565b60025481565b7f000000000000000000000000000000000000000000000000000000000000000081565b60046020528060005260406000206000915090508060000154908060010160009054906101000a900473ffffffffffffffffffffffffffffffffffffffff16908060020154908060030154908060040160009054906101000a900473ffffffffffffffffffffffffffffffffffffffff16905085565b6000806003600084815260200190815260200160002054905060007f000000000000000000000000000000000000000000000000000000000000000090506000821115610a9a577f000000000000000000000000000000000000000000000000000000000000000081610a979190611f5a565b90505b6003821415610ad6577f000000000000000000000000000000000000000000000000000000000000000081610acf9190611f5a565b9050610bcd565b6004821415610b3d577f00000000000000000000000000000000000000000000000000000000000000007f0000000000000000000000000000000000000000000000000000000000000000610b2b9190611f5a565b81610b369190611f5a565b9050610bcc565b6005821415610bcb577f00000000000000000000000000000000000000000000000000000000000000007f00000000000000000000000000000000000000000000000000000000000000007f0000000000000000000000000000000000000000000000000000000000000000610bb39190611f5a565b610bbd9190611f5a565b81610bc89190611f5a565b90505b5b5b6064816064610bdc9190611f5a565b6004600087815260200190815260200160002060030154610bfd9190611fe1565b610c079190611fb0565b92505050919050565b60026000541415610c56576040517f08c379a0000000000000000000000000000000000000000000000000000000008152600401610c4d90611daa565b60405180910390fd5b60026000819055506000610c6982610a24565b9050600082118015610c7d57506002548211155b610cbc576040517f08c379a0000000000000000000000000000000000000000000000000000000008152600401610cb390611d4a565b60405180910390fd5b80341015610cff576040517f08c379a0000000000000000000000000000000000000000000000000000000008152600401610cf690611d2a565b60405180910390fd5b600060036000848152602001908152602001600020541415610db457610d5a6040518060400160405280601381526020017f415349474e4f20554e204449414d4f4e443a20000000000000000000000000008152503361177b565b336005600084815260200190815260200160002060000160006101000a81548173ffffffffffffffffffffffffffffffffffffffff021916908373ffffffffffffffffffffffffffffffffffffffff160217905550610f1a565b600160036000848152602001908152602001600020541415610e6857610e0e6040518060400160405280600e81526020017f415349474e4f20554e20474f4c44000000000000000000000000000000000000815250611817565b336005600084815260200190815260200160002060010160006101000a81548173ffffffffffffffffffffffffffffffffffffffff021916908373ffffffffffffffffffffffffffffffffffffffff160217905550610f19565b600260036000848152602001908152602001600020541415610f1857610ec26040518060400160405280601081526020017f415349474e4f20554e2053494c56455200000000000000000000000000000000815250611817565b336005600084815260200190815260200160002060020160006101000a81548173ffffffffffffffffffffffffffffffffffffffff021916908373ffffffffffffffffffffffffffffffffffffffff1602179055505b5b5b60006004600084815260200190815260200160002090508060040160009054906101000a900473ffffffffffffffffffffffffffffffffffffffff1673ffffffffffffffffffffffffffffffffffffffff166108fc82600301549081150290604051600060405180830381858888f19350505050158015610f9f573d6000803e3d6000fd5b507f000000000000000000000000000000000000000000000000000000000000000073ffffffffffffffffffffffffffffffffffffffff166108fc6110087f000000000000000000000000000000000000000000000000000000000000000084600301546118b0565b9081150290604051600060405180830381858888f19350505050158015611033573d6000803e3d6000fd5b507f000000000000000000000000000000000000000000000000000000000000000073ffffffffffffffffffffffffffffffffffffffff166108fc61109c7f000000000000000000000000000000000000000000000000000000000000000084600301546118b0565b9081150290604051600060405180830381858888f193505050501580156110c7573d6000803e3d6000fd5b5060038060008581526020019081526020016000205414156111d0576111216040518060400160405280601c81526020017f534520454a454355544f20454c2049462044454c204449414d4f4e4400000000815250611817565b6005600084815260200190815260200160002060000160009054906101000a900473ffffffffffffffffffffffffffffffffffffffff1673ffffffffffffffffffffffffffffffffffffffff166108fc61119f7f000000000000000000000000000000000000000000000000000000000000000084600301546118b0565b9081150290604051600060405180830381858888f193505050501580156111ca573d6000803e3d6000fd5b506115de565b6004600360008581526020019081526020016000205414156113835761122a6040518060400160405280601981526020017f534520454a454355544f20454c2049462044454c20474f4c4400000000000000815250611817565b6005600084815260200190815260200160002060000160009054906101000a900473ffffffffffffffffffffffffffffffffffffffff1673ffffffffffffffffffffffffffffffffffffffff166108fc6112a87f000000000000000000000000000000000000000000000000000000000000000084600301546118b0565b9081150290604051600060405180830381858888f193505050501580156112d3573d6000803e3d6000fd5b506005600084815260200190815260200160002060010160009054906101000a900473ffffffffffffffffffffffffffffffffffffffff1673ffffffffffffffffffffffffffffffffffffffff166108fc6113527f000000000000000000000000000000000000000000000000000000000000000084600301546118b0565b9081150290604051600060405180830381858888f1935050505015801561137d573d6000803e3d6000fd5b506115dd565b6005600360008581526020019081526020016000205414156115dc576113dd6040518060400160405280601b81526020017f534520454a454355544f20454c2049462044454c2053494c5645520000000000815250611817565b6005600084815260200190815260200160002060000160009054906101000a900473ffffffffffffffffffffffffffffffffffffffff1673ffffffffffffffffffffffffffffffffffffffff166108fc61145b7f000000000000000000000000000000000000000000000000000000000000000084600301546118b0565b9081150290604051600060405180830381858888f19350505050158015611486573d6000803e3d6000fd5b506005600084815260200190815260200160002060010160009054906101000a900473ffffffffffffffffffffffffffffffffffffffff1673ffffffffffffffffffffffffffffffffffffffff166108fc6115057f000000000000000000000000000000000000000000000000000000000000000084600301546118b0565b9081150290604051600060405180830381858888f19350505050158015611530573d6000803e3d6000fd5b506005600084815260200190815260200160002060020160009054906101000a900473ffffffffffffffffffffffffffffffffffffffff1673ffffffffffffffffffffffffffffffffffffffff166108fc6115af7f000000000000000000000000000000000000000000000000000000000000000084600301546118b0565b9081150290604051600060405180830381858888f193505050501580156115da573d6000803e3d6000fd5b505b5b5b60036000848152602001908152602001600020600081548092919061160290612123565b91905055508060010160009054906101000a900473ffffffffffffffffffffffffffffffffffffffff1673ffffffffffffffffffffffffffffffffffffffff166323b872dd303384600201546040518463ffffffff1660e01b815260040161166c93929190611c81565b600060405180830381600087803b15801561168657600080fd5b505af115801561169a573d6000803e3d6000fd5b505050503373ffffffffffffffffffffffffffffffffffffffff168160040160009054906101000a900473ffffffffffffffffffffffffffffffffffffffff1673ffffffffffffffffffffffffffffffffffffffff168260010160009054906101000a900473ffffffffffffffffffffffffffffffffffffffff1673ffffffffffffffffffffffffffffffffffffffff167f8b4c9c8a607d67b321582dd8461041b1dc2ceeca70c8b7f37f8e02095cf2e76d868560020154866003015460405161176693929190611e7d565b60405180910390a45050600160008190555050565b6118138282604051602401611791929190611cda565b6040516020818303038152906040527f319af333000000000000000000000000000000000000000000000000000000007bffffffffffffffffffffffffffffffffffffffffffffffffffffffff19166020820180517bffffffffffffffffffffffffffffffffffffffffffffffffffffffff83818316178352505050506118d2565b5050565b6118ad8160405160240161182b9190611cb8565b6040516020818303038152906040527f41304fac000000000000000000000000000000000000000000000000000000007bffffffffffffffffffffffffffffffffffffffffffffffffffffffff19166020820180517bffffffffffffffffffffffffffffffffffffffffffffffffffffffff83818316178352505050506118d2565b50565b6000606482846118c09190611fe1565b6118ca9190611fb0565b905092915050565b60008151905060006a636f6e736f6c652e6c6f679050602083016000808483855afa5050505050565b600061190e61190984611ed9565b611eb4565b9050808382526020820190508285602086028201111561192d57600080fd5b60005b8581101561195d578161194388826119a6565b845260208401935060208301925050600181019050611930565b5050509392505050565b600082601f83011261197857600080fd5b81356119888482602086016118fb565b91505092915050565b6000813590506119a08161234c565b92915050565b6000813590506119b581612363565b92915050565b6000806000606084860312156119d057600080fd5b60006119de86828701611991565b935050602084013567ffffffffffffffff8111156119fb57600080fd5b611a0786828701611967565b925050604084013567ffffffffffffffff811115611a2457600080fd5b611a3086828701611967565b9150509250925092565b600060208284031215611a4c57600080fd5b6000611a5a848285016119a6565b91505092915050565b6000611a6f8383611c11565b60208301905092915050565b611a848161204d565b82525050565b611a938161203b565b82525050565b6000611aa482611f15565b611aae8185611f38565b9350611ab983611f05565b8060005b83811015611aea578151611ad18882611a63565b9750611adc83611f2b565b925050600181019050611abd565b5085935050505092915050565b611b008161209b565b82525050565b6000611b1182611f20565b611b1b8185611f49565b9350611b2b8185602086016120bf565b611b34816121f9565b840191505092915050565b6000611b4c601f83611f49565b9150611b578261220a565b602082019050919050565b6000611b6f603383611f49565b9150611b7a82612233565b604082019050919050565b6000611b92601283611f49565b9150611b9d82612282565b602082019050919050565b6000611bb5601c83611f49565b9150611bc0826122ab565b602082019050919050565b6000611bd8603783611f49565b9150611be3826122d4565b604082019050919050565b6000611bfb601f83611f49565b9150611c0682612323565b602082019050919050565b611c1a81612091565b82525050565b611c2981612091565b82525050565b6000602082019050611c446000830184611a7b565b92915050565b6000606082019050611c5f6000830186611a7b565b611c6c6020830185611a7b565b611c796040830184611a7b565b949350505050565b6000606082019050611c966000830186611a8a565b611ca36020830185611a8a565b611cb06040830184611c20565b949350505050565b60006020820190508181036000830152611cd28184611b06565b905092915050565b60006040820190508181036000830152611cf48185611b06565b9050611d036020830184611a8a565b9392505050565b60006020820190508181036000830152611d2381611b3f565b9050919050565b60006020820190508181036000830152611d4381611b62565b9050919050565b60006020820190508181036000830152611d6381611b85565b9050919050565b60006020820190508181036000830152611d8381611ba8565b9050919050565b60006020820190508181036000830152611da381611bcb565b9050919050565b60006020820190508181036000830152611dc381611bee565b9050919050565b6000602082019050611ddf6000830184611c20565b92915050565b6000606082019050611dfa6000830186611c20565b8181036020830152611e0c8185611a99565b90508181036040830152611e208184611a99565b9050949350505050565b600060a082019050611e3f6000830188611c20565b611e4c6020830187611af7565b611e596040830186611c20565b611e666060830185611c20565b611e736080830184611a7b565b9695505050505050565b6000606082019050611e926000830186611c20565b611e9f6020830185611c20565b611eac6040830184611c20565b949350505050565b6000611ebe611ecf565b9050611eca82826120f2565b919050565b6000604051905090565b600067ffffffffffffffff821115611ef457611ef36121ca565b5b602082029050602081019050919050565b6000819050602082019050919050565b600081519050919050565b600081519050919050565b6000602082019050919050565b600082825260208201905092915050565b600082825260208201905092915050565b6000611f6582612091565b9150611f7083612091565b9250827fffffffffffffffffffffffffffffffffffffffffffffffffffffffffffffffff03821115611fa557611fa461216c565b5b828201905092915050565b6000611fbb82612091565b9150611fc683612091565b925082611fd657611fd561219b565b5b828204905092915050565b6000611fec82612091565b9150611ff783612091565b9250817fffffffffffffffffffffffffffffffffffffffffffffffffffffffffffffffff04831182151516156120305761202f61216c565b5b828202905092915050565b600061204682612071565b9050919050565b600061205882612071565b9050919050565b600061206a8261203b565b9050919050565b600073ffffffffffffffffffffffffffffffffffffffff82169050919050565b6000819050919050565b60006120a6826120ad565b9050919050565b60006120b882612071565b9050919050565b60005b838110156120dd5780820151818401526020810190506120c2565b838111156120ec576000848401525b50505050565b6120fb826121f9565b810181811067ffffffffffffffff8211171561211a576121196121ca565b5b80604052505050565b600061212e82612091565b91507fffffffffffffffffffffffffffffffffffffffffffffffffffffffffffffffff8214156121615761216061216c565b5b600182019050919050565b7f4e487b7100000000000000000000000000000000000000000000000000000000600052601160045260246000fd5b7f4e487b7100000000000000000000000000000000000000000000000000000000600052601260045260246000fd5b7f4e487b7100000000000000000000000000000000000000000000000000000000600052604160045260246000fd5b6000601f19601f8301169050919050565b7f5072696365206d7573742062652067726561746572207468616e207a65726f00600082015250565b7f6e6f7420656e6f75676820657468657220746f20636f766572206974656d207060008201527f7269636520616e64206d61726b65742066656500000000000000000000000000602082015250565b7f6974656d20646f65736e27742065786973740000000000000000000000000000600082015250565b7f5468657265206973206e6f20746f6b656e7320746f2063726561746500000000600082015250565b7f546f6b656e7320616e6420707269636573206d7573742068617665207468652060008201527f73616d6520616d6f756e74206f6620656c656d656e7473000000000000000000602082015250565b7f5265656e7472616e637947756172643a207265656e7472616e742063616c6c00600082015250565b6123558161205f565b811461236057600080fd5b50565b61236c81612091565b811461237757600080fd5b5056fea2646970667358221220b6b489786a5cf9ff08af61f0aee2e70d8e4a5a340ea2f447d782b2a53bb8a95764736f6c63430008040033",
  "linkReferences": {},
  "deployedLinkReferences": {}
}