{
  "_format": "hh-sol-artifact-1",
  "contractName": "Marketplace",
  "sourceName": "src/solidity/contracts/Marketplace.sol",
  "abi": [
    {
      "inputs": [
        {
          "internalType": "address",
          "name": "_accountOwnerMarketplace",
          "type": "address"
        },
        {
          "internalType": "address",
          "name": "_accountGamerOrganization",
          "type": "address"
        },
        {
          "internalType": "uint256",
          "name": "_feeMarketplacePercent",
          "type": "uint256"
        },
        {
          "internalType": "uint256",
          "name": "_feeGamerOrganizationPercent",
          "type": "uint256"
        },
        {
          "internalType": "uint256",
          "name": "_feeDiamondPercent",
          "type": "uint256"
        },
        {
          "internalType": "uint256",
          "name": "_feeGoldPercent",
          "type": "uint256"
        },
        {
          "internalType": "uint256",
          "name": "_feeSilverPercent",
          "type": "uint256"
        }
      ],
      "stateMutability": "nonpayable",
      "type": "constructor"
    },
    {
      "anonymous": false,
      "inputs": [
        {
          "indexed": false,
          "internalType": "uint256",
          "name": "itemId",
          "type": "uint256"
        },
        {
          "indexed": true,
          "internalType": "address",
          "name": "nft",
          "type": "address"
        },
        {
          "indexed": false,
          "internalType": "uint256",
          "name": "tokenId",
          "type": "uint256"
        },
        {
          "indexed": false,
          "internalType": "uint256",
          "name": "price",
          "type": "uint256"
        },
        {
          "indexed": true,
          "internalType": "address",
          "name": "seller",
          "type": "address"
        },
        {
          "indexed": true,
          "internalType": "address",
          "name": "buyer",
          "type": "address"
        }
      ],
      "name": "Bought",
      "type": "event"
    },
    {
      "anonymous": false,
      "inputs": [
        {
          "indexed": false,
          "internalType": "uint256",
          "name": "itemId",
          "type": "uint256"
        },
        {
          "indexed": true,
          "internalType": "address",
          "name": "nft",
          "type": "address"
        },
        {
          "indexed": false,
          "internalType": "uint256[]",
          "name": "tokenIds",
          "type": "uint256[]"
        },
        {
          "indexed": false,
          "internalType": "uint256[]",
          "name": "prices",
          "type": "uint256[]"
        },
        {
          "indexed": true,
          "internalType": "address",
          "name": "seller",
          "type": "address"
        }
      ],
      "name": "Offered",
      "type": "event"
    },
    {
      "anonymous": false,
      "inputs": [
        {
          "indexed": false,
          "internalType": "uint256",
          "name": "itemId",
          "type": "uint256"
        },
        {
          "indexed": false,
          "internalType": "uint256",
          "name": "tokenId",
          "type": "uint256"
        },
        {
          "indexed": false,
          "internalType": "uint256",
          "name": "price",
          "type": "uint256"
        },
        {
          "indexed": true,
          "internalType": "address",
          "name": "seller",
          "type": "address"
        }
      ],
      "name": "Published",
      "type": "event"
    },
    {
      "inputs": [],
      "name": "accountGamerOrganization",
      "outputs": [
        {
          "internalType": "address payable",
          "name": "",
          "type": "address"
        }
      ],
      "stateMutability": "view",
      "type": "function"
    },
    {
      "inputs": [],
      "name": "accountOwnerMarketplace",
      "outputs": [
        {
          "internalType": "address payable",
          "name": "",
          "type": "address"
        }
      ],
      "stateMutability": "view",
      "type": "function"
    },
    {
      "inputs": [
        {
          "internalType": "uint256",
          "name": "",
          "type": "uint256"
        }
      ],
      "name": "accountsLevels",
      "outputs": [
        {
          "internalType": "address payable",
          "name": "diamond",
          "type": "address"
        },
        {
          "internalType": "address payable",
          "name": "gold",
          "type": "address"
        },
        {
          "internalType": "address payable",
          "name": "silver",
          "type": "address"
        }
      ],
      "stateMutability": "view",
      "type": "function"
    },
    {
      "inputs": [],
      "name": "feeDiamondPercent",
      "outputs": [
        {
          "internalType": "uint256",
          "name": "",
          "type": "uint256"
        }
      ],
      "stateMutability": "view",
      "type": "function"
    },
    {
      "inputs": [],
      "name": "feeGamerOrganizationPercent",
      "outputs": [
        {
          "internalType": "uint256",
          "name": "",
          "type": "uint256"
        }
      ],
      "stateMutability": "view",
      "type": "function"
    },
    {
      "inputs": [],
      "name": "feeGoldPercent",
      "outputs": [
        {
          "internalType": "uint256",
          "name": "",
          "type": "uint256"
        }
      ],
      "stateMutability": "view",
      "type": "function"
    },
    {
      "inputs": [],
      "name": "feeMarketplacePercent",
      "outputs": [
        {
          "internalType": "uint256",
          "name": "",
          "type": "uint256"
        }
      ],
      "stateMutability": "view",
      "type": "function"
    },
    {
      "inputs": [],
      "name": "feeSilverPercent",
      "outputs": [
        {
          "internalType": "uint256",
          "name": "",
          "type": "uint256"
        }
      ],
      "stateMutability": "view",
      "type": "function"
    },
    {
      "inputs": [
        {
          "internalType": "uint256",
          "name": "_itemId",
          "type": "uint256"
        }
      ],
      "name": "getTotalPrice",
      "outputs": [
        {
          "internalType": "uint256",
          "name": "",
          "type": "uint256"
        }
      ],
      "stateMutability": "view",
      "type": "function"
    },
    {
      "inputs": [],
      "name": "itemCount",
      "outputs": [
        {
          "internalType": "uint256",
          "name": "",
          "type": "uint256"
        }
      ],
      "stateMutability": "view",
      "type": "function"
    },
    {
      "inputs": [
        {
          "internalType": "uint256",
          "name": "",
          "type": "uint256"
        }
      ],
      "name": "itemCountOfPurchases",
      "outputs": [
        {
          "internalType": "uint256",
          "name": "",
          "type": "uint256"
        }
      ],
      "stateMutability": "view",
      "type": "function"
    },
    {
      "inputs": [
        {
          "internalType": "uint256",
          "name": "",
          "type": "uint256"
        }
      ],
      "name": "items",
      "outputs": [
        {
          "internalType": "uint256",
          "name": "itemId",
          "type": "uint256"
        },
        {
          "internalType": "contract IERC721",
          "name": "nft",
          "type": "address"
        },
        {
          "internalType": "uint256",
          "name": "tokenId",
          "type": "uint256"
        },
        {
          "internalType": "uint256",
          "name": "price",
          "type": "uint256"
        },
        {
          "internalType": "address payable",
          "name": "seller",
          "type": "address"
        },
        {
          "internalType": "bool",
          "name": "onSale",
          "type": "bool"
        }
      ],
      "stateMutability": "view",
      "type": "function"
    },
    {
      "inputs": [
        {
          "internalType": "contract IERC721",
          "name": "_nft",
          "type": "address"
        },
        {
          "internalType": "uint256[]",
          "name": "_tokensId",
          "type": "uint256[]"
        },
        {
          "internalType": "uint256[]",
          "name": "_prices",
          "type": "uint256[]"
        }
      ],
      "name": "makeItem",
      "outputs": [],
      "stateMutability": "nonpayable",
      "type": "function"
    },
    {
      "inputs": [
        {
          "internalType": "contract IERC721",
          "name": "_nft",
          "type": "address"
        },
        {
          "internalType": "uint256",
          "name": "_tokenId",
          "type": "uint256"
        },
        {
          "internalType": "uint256",
          "name": "_price",
          "type": "uint256"
        }
      ],
      "name": "publishItem",
      "outputs": [],
      "stateMutability": "nonpayable",
      "type": "function"
    },
    {
      "inputs": [
        {
          "internalType": "uint256",
          "name": "_itemId",
          "type": "uint256"
        }
      ],
      "name": "purchaseItem",
      "outputs": [],
      "stateMutability": "payable",
      "type": "function"
    }
  ],
  "bytecode": "0x6101606040523480156200001257600080fd5b5060405162002a3138038062002a31833981810160405281019062000038919062000155565b600160008190555086600160006101000a81548173ffffffffffffffffffffffffffffffffffffffff021916908373ffffffffffffffffffffffffffffffffffffffff1602179055508673ffffffffffffffffffffffffffffffffffffffff1660808173ffffffffffffffffffffffffffffffffffffffff1660601b815250508573ffffffffffffffffffffffffffffffffffffffff1660a08173ffffffffffffffffffffffffffffffffffffffff1660601b815250508460c081815250508360e081815250508261010081815250508161012081815250508061014081815250505050505050505062000274565b600081519050620001388162000240565b92915050565b6000815190506200014f816200025a565b92915050565b600080600080600080600060e0888a0312156200017157600080fd5b6000620001818a828b0162000127565b9750506020620001948a828b0162000127565b9650506040620001a78a828b016200013e565b9550506060620001ba8a828b016200013e565b9450506080620001cd8a828b016200013e565b93505060a0620001e08a828b016200013e565b92505060c0620001f38a828b016200013e565b91505092959891949750929550565b60006200020f8262000216565b9050919050565b600073ffffffffffffffffffffffffffffffffffffffff82169050919050565b6000819050919050565b6200024b8162000202565b81146200025757600080fd5b50565b620002658162000236565b81146200027157600080fd5b50565b60805160601c60a05160601c60c05160e0516101005161012051610140516126c96200036860003960008181610a4001528181610e1f01528181611712015281816117bc01526118660152600081816109f201528181610db801528181610e400152818161159d015261164701526000818161094401528181610d7c01528181610dd901528181610e6101526114d20152600081816108fc01528181610d18015261140d015260008181610a1601528181610d44015261137901526000818161092001526113d00152600081816105bc01528181610729015281816108640152818161133c0152611a7801526126c96000f3fe6080604052600436106100e85760003560e01c8063662fc0881161008a578063bfb231d211610059578063bfb231d2146102e8578063ca7dd3751461032a578063d38ea5bf14610367578063e3ab781b14610383576100e8565b8063662fc0881461023e5780636bfb0d011461026957806385de5ecc146102945780639e555090146102bf576100e8565b80631f5044a7116100c65780631f5044a71461017e578063239bbf5b146101a95780633b1d198c146101d4578063427a0b2214610213576100e8565b806308a31216146100ed5780630c0010331461012a578063158cb02a14610153575b600080fd5b3480156100f957600080fd5b50610114600480360381019061010f9190611c88565b6103ae565b6040516101219190612068565b60405180910390f35b34801561013657600080fd5b50610151600480360381019061014c9190611bba565b6103c6565b005b34801561015f57600080fd5b506101686108fa565b6040516101759190612068565b60405180910390f35b34801561018a57600080fd5b5061019361091e565b6040516101a09190611ea8565b60405180910390f35b3480156101b557600080fd5b506101be610942565b6040516101cb9190612068565b60405180910390f35b3480156101e057600080fd5b506101fb60048036038101906101f69190611c88565b610966565b60405161020a93929190611ec3565b60405180910390f35b34801561021f57600080fd5b506102286109f0565b6040516102359190612068565b60405180910390f35b34801561024a57600080fd5b50610253610a14565b6040516102609190612068565b60405180910390f35b34801561027557600080fd5b5061027e610a38565b60405161028b9190612068565b60405180910390f35b3480156102a057600080fd5b506102a9610a3e565b6040516102b69190612068565b60405180910390f35b3480156102cb57600080fd5b506102e660048036038101906102e19190611c39565b610a62565b005b3480156102f457600080fd5b5061030f600480360381019061030a9190611c88565b610c72565b604051610321969594939291906120c8565b60405180910390f35b34801561033657600080fd5b50610351600480360381019061034c9190611c88565b610cfb565b60405161035e9190612068565b60405180910390f35b610381600480360381019061037c9190611c88565b610ee7565b005b34801561038f57600080fd5b50610398611a76565b6040516103a59190611ea8565b60405180910390f35b60036020528060005260406000206000915090505481565b600160009054906101000a900473ffffffffffffffffffffffffffffffffffffffff1673ffffffffffffffffffffffffffffffffffffffff163373ffffffffffffffffffffffffffffffffffffffff161461042057600080fd5b60026000541415610466576040517f08c379a000000000000000000000000000000000000000000000000000000000815260040161045d90612048565b60405180910390fd5b600260008190555060008251116104b2576040517f08c379a00000000000000000000000000000000000000000000000000000000081526004016104a990612008565b60405180910390fd5b80518251146104f6576040517f08c379a00000000000000000000000000000000000000000000000000000000081526004016104ed90612028565b60405180910390fd5b60005b825181101561086157600082828151811061053d577f4e487b7100000000000000000000000000000000000000000000000000000000600052603260045260246000fd5b602002602001015111610585576040517f08c379a000000000000000000000000000000000000000000000000000000000815260040161057c90611f68565b60405180910390fd5b60026000815480929190610598906123d3565b91905055508373ffffffffffffffffffffffffffffffffffffffff166323b872dd337f0000000000000000000000000000000000000000000000000000000000000000868581518110610614577f4e487b7100000000000000000000000000000000000000000000000000000000600052603260045260246000fd5b60200260200101516040518463ffffffff1660e01b815260040161063a93929190611f31565b600060405180830381600087803b15801561065457600080fd5b505af1158015610668573d6000803e3d6000fd5b505050506040518060c0016040528060025481526020018573ffffffffffffffffffffffffffffffffffffffff1681526020018483815181106106d4577f4e487b7100000000000000000000000000000000000000000000000000000000600052603260045260246000fd5b6020026020010151815260200183838151811061071a577f4e487b7100000000000000000000000000000000000000000000000000000000600052603260045260246000fd5b602002602001015181526020017f000000000000000000000000000000000000000000000000000000000000000073ffffffffffffffffffffffffffffffffffffffff168152602001600115158152506004600060025481526020019081526020016000206000820151816000015560208201518160010160006101000a81548173ffffffffffffffffffffffffffffffffffffffff021916908373ffffffffffffffffffffffffffffffffffffffff160217905550604082015181600201556060820151816003015560808201518160040160006101000a81548173ffffffffffffffffffffffffffffffffffffffff021916908373ffffffffffffffffffffffffffffffffffffffff16021790555060a08201518160040160146101000a81548160ff0219169083151502179055509050508080610859906123d3565b9150506104f9565b507f000000000000000000000000000000000000000000000000000000000000000073ffffffffffffffffffffffffffffffffffffffff168373ffffffffffffffffffffffffffffffffffffffff167fa7a25a41bf2dd955eec8125fce9de171ecd45961064d3c59d983c026cbbcfd8060025485856040516108e593929190612083565b60405180910390a36001600081905550505050565b7f000000000000000000000000000000000000000000000000000000000000000081565b7f000000000000000000000000000000000000000000000000000000000000000081565b7f000000000000000000000000000000000000000000000000000000000000000081565b60056020528060005260406000206000915090508060000160009054906101000a900473ffffffffffffffffffffffffffffffffffffffff16908060010160009054906101000a900473ffffffffffffffffffffffffffffffffffffffff16908060020160009054906101000a900473ffffffffffffffffffffffffffffffffffffffff16905083565b7f000000000000000000000000000000000000000000000000000000000000000081565b7f000000000000000000000000000000000000000000000000000000000000000081565b60025481565b7f000000000000000000000000000000000000000000000000000000000000000081565b60026000541415610aa8576040517f08c379a0000000000000000000000000000000000000000000000000000000008152600401610a9f90612048565b60405180910390fd5b60026000819055508273ffffffffffffffffffffffffffffffffffffffff16636352211e836040518263ffffffff1660e01b8152600401610ae99190612068565b60206040518083038186803b158015610b0157600080fd5b505afa158015610b15573d6000803e3d6000fd5b505050506040513d601f19601f82011682018060405250810190610b399190611b91565b73ffffffffffffffffffffffffffffffffffffffff163373ffffffffffffffffffffffffffffffffffffffff1614610b7057600080fd5b60008111610bb3576040517f08c379a0000000000000000000000000000000000000000000000000000000008152600401610baa90611f68565b60405180910390fd5b80600460008481526020019081526020016000206003018190555060016004600084815260200190815260200160002060040160146101000a81548160ff0219169083151502179055503373ffffffffffffffffffffffffffffffffffffffff167f342e849466ccf2dfb594dafa5f75bbf8f84cc6fa4e0c6ca1620bfcaeeabc623260046000858152602001908152602001600020600001548484604051610c5d93929190612129565b60405180910390a26001600081905550505050565b60046020528060005260406000206000915090508060000154908060010160009054906101000a900473ffffffffffffffffffffffffffffffffffffffff16908060020154908060030154908060040160009054906101000a900473ffffffffffffffffffffffffffffffffffffffff16908060040160149054906101000a900460ff16905086565b6000806003600084815260200190815260200160002054905060007f000000000000000000000000000000000000000000000000000000000000000090506000821115610d71577f000000000000000000000000000000000000000000000000000000000000000081610d6e91906121fb565b90505b6003821415610dad577f000000000000000000000000000000000000000000000000000000000000000081610da691906121fb565b9050610ea4565b6004821415610e14577f00000000000000000000000000000000000000000000000000000000000000007f0000000000000000000000000000000000000000000000000000000000000000610e0291906121fb565b81610e0d91906121fb565b9050610ea3565b6005821415610ea2577f00000000000000000000000000000000000000000000000000000000000000007f00000000000000000000000000000000000000000000000000000000000000007f0000000000000000000000000000000000000000000000000000000000000000610e8a91906121fb565b610e9491906121fb565b81610e9f91906121fb565b90505b5b5b6064816064610eb391906121fb565b6004600087815260200190815260200160002060030154610ed49190612282565b610ede9190612251565b92505050919050565b60026000541415610f2d576040517f08c379a0000000000000000000000000000000000000000000000000000000008152600401610f2490612048565b60405180910390fd5b60026000819055506000610f4082610cfb565b9050600082118015610f5457506002548211155b610f93576040517f08c379a0000000000000000000000000000000000000000000000000000000008152600401610f8a90611fe8565b60405180910390fd5b80341015610fd6576040517f08c379a0000000000000000000000000000000000000000000000000000000008152600401610fcd90611fa8565b60405180910390fd5b600115156004600084815260200190815260200160002060040160149054906101000a900460ff16151514611040576040517f08c379a000000000000000000000000000000000000000000000000000000000815260040161103790611fc8565b60405180910390fd5b3373ffffffffffffffffffffffffffffffffffffffff166004600084815260200190815260200160002060040160009054906101000a900473ffffffffffffffffffffffffffffffffffffffff1673ffffffffffffffffffffffffffffffffffffffff1614156110e5576040517f08c379a00000000000000000000000000000000000000000000000000000000081526004016110dc90611f88565b60405180910390fd5b60006003600084815260200190815260200160002054141561115b57336005600084815260200190815260200160002060000160006101000a81548173ffffffffffffffffffffffffffffffffffffffff021916908373ffffffffffffffffffffffffffffffffffffffff160217905550611245565b6001600360008481526020019081526020016000205414156111d157336005600084815260200190815260200160002060010160006101000a81548173ffffffffffffffffffffffffffffffffffffffff021916908373ffffffffffffffffffffffffffffffffffffffff160217905550611244565b60026003600084815260200190815260200160002054141561124357336005600084815260200190815260200160002060020160006101000a81548173ffffffffffffffffffffffffffffffffffffffff021916908373ffffffffffffffffffffffffffffffffffffffff1602179055505b5b5b600060046000848152602001908152602001600020905060008160040160009054906101000a900473ffffffffffffffffffffffffffffffffffffffff1690508160040160009054906101000a900473ffffffffffffffffffffffffffffffffffffffff1673ffffffffffffffffffffffffffffffffffffffff166108fc83600301549081150290604051600060405180830381858888f193505050501580156112f3573d6000803e3d6000fd5b5060008260040160146101000a81548160ff021916908315150217905550600360008581526020019081526020016000206000815480929190611335906123d3565b91905055507f000000000000000000000000000000000000000000000000000000000000000073ffffffffffffffffffffffffffffffffffffffff166108fc6113a27f00000000000000000000000000000000000000000000000000000000000000008560030154611a9a565b9081150290604051600060405180830381858888f193505050501580156113cd573d6000803e3d6000fd5b507f000000000000000000000000000000000000000000000000000000000000000073ffffffffffffffffffffffffffffffffffffffff166108fc6114367f00000000000000000000000000000000000000000000000000000000000000008560030154611a9a565b9081150290604051600060405180830381858888f19350505050158015611461573d6000803e3d6000fd5b50600380600086815260200190815260200160002054141561152c576005600085815260200190815260200160002060000160009054906101000a900473ffffffffffffffffffffffffffffffffffffffff1673ffffffffffffffffffffffffffffffffffffffff166108fc6114fb7f00000000000000000000000000000000000000000000000000000000000000008560030154611a9a565b9081150290604051600060405180830381858888f19350505050158015611526573d6000803e3d6000fd5b506118be565b6004600360008681526020019081526020016000205414156116a1576005600085815260200190815260200160002060000160009054906101000a900473ffffffffffffffffffffffffffffffffffffffff1673ffffffffffffffffffffffffffffffffffffffff166108fc6115c67f00000000000000000000000000000000000000000000000000000000000000008560030154611a9a565b9081150290604051600060405180830381858888f193505050501580156115f1573d6000803e3d6000fd5b506005600085815260200190815260200160002060010160009054906101000a900473ffffffffffffffffffffffffffffffffffffffff1673ffffffffffffffffffffffffffffffffffffffff166108fc6116707f00000000000000000000000000000000000000000000000000000000000000008560030154611a9a565b9081150290604051600060405180830381858888f1935050505015801561169b573d6000803e3d6000fd5b506118bd565b6005600360008681526020019081526020016000205414156118bc576005600085815260200190815260200160002060000160009054906101000a900473ffffffffffffffffffffffffffffffffffffffff1673ffffffffffffffffffffffffffffffffffffffff166108fc61173b7f00000000000000000000000000000000000000000000000000000000000000008560030154611a9a565b9081150290604051600060405180830381858888f19350505050158015611766573d6000803e3d6000fd5b506005600085815260200190815260200160002060010160009054906101000a900473ffffffffffffffffffffffffffffffffffffffff1673ffffffffffffffffffffffffffffffffffffffff166108fc6117e57f00000000000000000000000000000000000000000000000000000000000000008560030154611a9a565b9081150290604051600060405180830381858888f19350505050158015611810573d6000803e3d6000fd5b506005600085815260200190815260200160002060020160009054906101000a900473ffffffffffffffffffffffffffffffffffffffff1673ffffffffffffffffffffffffffffffffffffffff166108fc61188f7f00000000000000000000000000000000000000000000000000000000000000008560030154611a9a565b9081150290604051600060405180830381858888f193505050501580156118ba573d6000803e3d6000fd5b505b5b5b8160010160009054906101000a900473ffffffffffffffffffffffffffffffffffffffff1673ffffffffffffffffffffffffffffffffffffffff166323b872dd8360040160009054906101000a900473ffffffffffffffffffffffffffffffffffffffff163385600201546040518463ffffffff1660e01b815260040161194793929190611efa565b600060405180830381600087803b15801561196157600080fd5b505af1158015611975573d6000803e3d6000fd5b50505050338260040160006101000a81548173ffffffffffffffffffffffffffffffffffffffff021916908373ffffffffffffffffffffffffffffffffffffffff1602179055503373ffffffffffffffffffffffffffffffffffffffff168173ffffffffffffffffffffffffffffffffffffffff168360010160009054906101000a900473ffffffffffffffffffffffffffffffffffffffff1673ffffffffffffffffffffffffffffffffffffffff167f8b4c9c8a607d67b321582dd8461041b1dc2ceeca70c8b7f37f8e02095cf2e76d8786600201548760030154604051611a6093929190612129565b60405180910390a4505050600160008190555050565b7f000000000000000000000000000000000000000000000000000000000000000081565b600060648284611aaa9190612282565b611ab49190612251565b905092915050565b6000611acf611aca84612185565b612160565b90508083825260208201905082856020860282011115611aee57600080fd5b60005b85811015611b1e5781611b048882611b7c565b845260208401935060208301925050600181019050611af1565b5050509392505050565b600081519050611b378161264e565b92915050565b600082601f830112611b4e57600080fd5b8135611b5e848260208601611abc565b91505092915050565b600081359050611b7681612665565b92915050565b600081359050611b8b8161267c565b92915050565b600060208284031215611ba357600080fd5b6000611bb184828501611b28565b91505092915050565b600080600060608486031215611bcf57600080fd5b6000611bdd86828701611b67565b935050602084013567ffffffffffffffff811115611bfa57600080fd5b611c0686828701611b3d565b925050604084013567ffffffffffffffff811115611c2357600080fd5b611c2f86828701611b3d565b9150509250925092565b600080600060608486031215611c4e57600080fd5b6000611c5c86828701611b67565b9350506020611c6d86828701611b7c565b9250506040611c7e86828701611b7c565b9150509250925092565b600060208284031215611c9a57600080fd5b6000611ca884828501611b7c565b91505092915050565b6000611cbd8383611e8a565b60208301905092915050565b611cd281612348565b82525050565b611ce1816122ee565b82525050565b611cf0816122dc565b82525050565b6000611d01826121c1565b611d0b81856121d9565b9350611d16836121b1565b8060005b83811015611d47578151611d2e8882611cb1565b9750611d39836121cc565b925050600181019050611d1a565b5085935050505092915050565b611d5d81612300565b82525050565b611d6c8161235a565b82525050565b6000611d7f601f836121ea565b9150611d8a826124ba565b602082019050919050565b6000611da26020836121ea565b9150611dad826124e3565b602082019050919050565b6000611dc56033836121ea565b9150611dd08261250c565b604082019050919050565b6000611de86012836121ea565b9150611df38261255b565b602082019050919050565b6000611e0b6012836121ea565b9150611e1682612584565b602082019050919050565b6000611e2e601c836121ea565b9150611e39826125ad565b602082019050919050565b6000611e516037836121ea565b9150611e5c826125d6565b604082019050919050565b6000611e74601f836121ea565b9150611e7f82612625565b602082019050919050565b611e938161233e565b82525050565b611ea28161233e565b82525050565b6000602082019050611ebd6000830184611cd8565b92915050565b6000606082019050611ed86000830186611cd8565b611ee56020830185611cd8565b611ef26040830184611cd8565b949350505050565b6000606082019050611f0f6000830186611cc9565b611f1c6020830185611ce7565b611f296040830184611e99565b949350505050565b6000606082019050611f466000830186611ce7565b611f536020830185611cc9565b611f606040830184611e99565b949350505050565b60006020820190508181036000830152611f8181611d72565b9050919050565b60006020820190508181036000830152611fa181611d95565b9050919050565b60006020820190508181036000830152611fc181611db8565b9050919050565b60006020820190508181036000830152611fe181611ddb565b9050919050565b6000602082019050818103600083015261200181611dfe565b9050919050565b6000602082019050818103600083015261202181611e21565b9050919050565b6000602082019050818103600083015261204181611e44565b9050919050565b6000602082019050818103600083015261206181611e67565b9050919050565b600060208201905061207d6000830184611e99565b92915050565b60006060820190506120986000830186611e99565b81810360208301526120aa8185611cf6565b905081810360408301526120be8184611cf6565b9050949350505050565b600060c0820190506120dd6000830189611e99565b6120ea6020830188611d63565b6120f76040830187611e99565b6121046060830186611e99565b6121116080830185611cd8565b61211e60a0830184611d54565b979650505050505050565b600060608201905061213e6000830186611e99565b61214b6020830185611e99565b6121586040830184611e99565b949350505050565b600061216a61217b565b905061217682826123a2565b919050565b6000604051905090565b600067ffffffffffffffff8211156121a05761219f61247a565b5b602082029050602081019050919050565b6000819050602082019050919050565b600081519050919050565b6000602082019050919050565b600082825260208201905092915050565b600082825260208201905092915050565b60006122068261233e565b91506122118361233e565b9250827fffffffffffffffffffffffffffffffffffffffffffffffffffffffffffffffff038211156122465761224561241c565b5b828201905092915050565b600061225c8261233e565b91506122678361233e565b9250826122775761227661244b565b5b828204905092915050565b600061228d8261233e565b91506122988361233e565b9250817fffffffffffffffffffffffffffffffffffffffffffffffffffffffffffffffff04831182151516156122d1576122d061241c565b5b828202905092915050565b60006122e78261231e565b9050919050565b60006122f98261231e565b9050919050565b60008115159050919050565b6000612317826122dc565b9050919050565b600073ffffffffffffffffffffffffffffffffffffffff82169050919050565b6000819050919050565b60006123538261237e565b9050919050565b60006123658261236c565b9050919050565b60006123778261231e565b9050919050565b600061238982612390565b9050919050565b600061239b8261231e565b9050919050565b6123ab826124a9565b810181811067ffffffffffffffff821117156123ca576123c961247a565b5b80604052505050565b60006123de8261233e565b91507fffffffffffffffffffffffffffffffffffffffffffffffffffffffffffffffff8214156124115761241061241c565b5b600182019050919050565b7f4e487b7100000000000000000000000000000000000000000000000000000000600052601160045260246000fd5b7f4e487b7100000000000000000000000000000000000000000000000000000000600052601260045260246000fd5b7f4e487b7100000000000000000000000000000000000000000000000000000000600052604160045260246000fd5b6000601f19601f8301169050919050565b7f5072696365206d7573742062652067726561746572207468616e207a65726f00600082015250565b7f4f776e6572732063616e277420627579207468656972206f776e206974656d73600082015250565b7f6e6f7420656e6f75676820657468657220746f20636f766572206974656d207060008201527f7269636520616e64206d61726b65742066656500000000000000000000000000602082015250565b7f4974656d2069736e2774206f6e2073616c650000000000000000000000000000600082015250565b7f6974656d20646f65736e27742065786973740000000000000000000000000000600082015250565b7f5468657265206973206e6f20746f6b656e7320746f2063726561746500000000600082015250565b7f546f6b656e7320616e6420707269636573206d7573742068617665207468652060008201527f73616d6520616d6f756e74206f6620656c656d656e7473000000000000000000602082015250565b7f5265656e7472616e637947756172643a207265656e7472616e742063616c6c00600082015250565b612657816122dc565b811461266257600080fd5b50565b61266e8161230c565b811461267957600080fd5b50565b6126858161233e565b811461269057600080fd5b5056fea26469706673582212205f8ca70b472ce7ea74585b1b6a99215b3fd5d8c7042c6dce1b4370319eaed6bc64736f6c63430008040033",
  "linkReferences": {},
  "deployedLinkReferences": {}
}