{
  "_format": "hh-sol-artifact-1",
  "contractName": "Marketplace",
  "sourceName": "src/solidity/contracts/Marketplace.sol",
  "abi": [
    {
      "inputs": [
        {
          "internalType": "address",
          "name": "_accountOwnerMarketplace",
          "type": "address"
        },
        {
          "internalType": "address",
          "name": "_accountGamerOrganization",
          "type": "address"
        },
        {
          "internalType": "uint256",
          "name": "_feeMarketplacePercent",
          "type": "uint256"
        },
        {
          "internalType": "uint256",
          "name": "_feeGamerOrganizationPercent",
          "type": "uint256"
        },
        {
          "internalType": "uint256",
          "name": "_feeDiamondPercent",
          "type": "uint256"
        },
        {
          "internalType": "uint256",
          "name": "_feeGoldPercent",
          "type": "uint256"
        },
        {
          "internalType": "uint256",
          "name": "_feeSilverPercent",
          "type": "uint256"
        }
      ],
      "stateMutability": "nonpayable",
      "type": "constructor"
    },
    {
      "anonymous": false,
      "inputs": [
        {
          "indexed": false,
          "internalType": "uint256",
          "name": "itemId",
          "type": "uint256"
        },
        {
          "indexed": true,
          "internalType": "address",
          "name": "nft",
          "type": "address"
        },
        {
          "indexed": false,
          "internalType": "uint256",
          "name": "tokenId",
          "type": "uint256"
        },
        {
          "indexed": false,
          "internalType": "uint256",
          "name": "price",
          "type": "uint256"
        },
        {
          "indexed": true,
          "internalType": "address",
          "name": "seller",
          "type": "address"
        },
        {
          "indexed": true,
          "internalType": "address",
          "name": "buyer",
          "type": "address"
        }
      ],
      "name": "Bought",
      "type": "event"
    },
    {
      "anonymous": false,
      "inputs": [
        {
          "indexed": false,
          "internalType": "uint256",
          "name": "itemId",
          "type": "uint256"
        },
        {
          "indexed": true,
          "internalType": "address",
          "name": "nft",
          "type": "address"
        },
        {
          "indexed": false,
          "internalType": "uint256[]",
          "name": "tokenIds",
          "type": "uint256[]"
        },
        {
          "indexed": false,
          "internalType": "uint256[]",
          "name": "prices",
          "type": "uint256[]"
        },
        {
          "indexed": true,
          "internalType": "address",
          "name": "seller",
          "type": "address"
        }
      ],
      "name": "Offered",
      "type": "event"
    },
    {
      "anonymous": false,
      "inputs": [
        {
          "indexed": false,
          "internalType": "uint256",
          "name": "itemId",
          "type": "uint256"
        },
        {
          "indexed": false,
          "internalType": "uint256",
          "name": "tokenId",
          "type": "uint256"
        },
        {
          "indexed": false,
          "internalType": "uint256",
          "name": "price",
          "type": "uint256"
        },
        {
          "indexed": true,
          "internalType": "address",
          "name": "seller",
          "type": "address"
        }
      ],
      "name": "Published",
      "type": "event"
    },
    {
      "inputs": [],
      "name": "accountGamerOrganization",
      "outputs": [
        {
          "internalType": "address payable",
          "name": "",
          "type": "address"
        }
      ],
      "stateMutability": "view",
      "type": "function"
    },
    {
      "inputs": [],
      "name": "accountOwnerMarketplace",
      "outputs": [
        {
          "internalType": "address payable",
          "name": "",
          "type": "address"
        }
      ],
      "stateMutability": "view",
      "type": "function"
    },
    {
      "inputs": [
        {
          "internalType": "uint256",
          "name": "",
          "type": "uint256"
        }
      ],
      "name": "accountsLevels",
      "outputs": [
        {
          "internalType": "address payable",
          "name": "diamond",
          "type": "address"
        },
        {
          "internalType": "address payable",
          "name": "gold",
          "type": "address"
        },
        {
          "internalType": "address payable",
          "name": "silver",
          "type": "address"
        }
      ],
      "stateMutability": "view",
      "type": "function"
    },
    {
      "inputs": [],
      "name": "feeDiamondPercent",
      "outputs": [
        {
          "internalType": "uint256",
          "name": "",
          "type": "uint256"
        }
      ],
      "stateMutability": "view",
      "type": "function"
    },
    {
      "inputs": [],
      "name": "feeGamerOrganizationPercent",
      "outputs": [
        {
          "internalType": "uint256",
          "name": "",
          "type": "uint256"
        }
      ],
      "stateMutability": "view",
      "type": "function"
    },
    {
      "inputs": [],
      "name": "feeGoldPercent",
      "outputs": [
        {
          "internalType": "uint256",
          "name": "",
          "type": "uint256"
        }
      ],
      "stateMutability": "view",
      "type": "function"
    },
    {
      "inputs": [],
      "name": "feeMarketplacePercent",
      "outputs": [
        {
          "internalType": "uint256",
          "name": "",
          "type": "uint256"
        }
      ],
      "stateMutability": "view",
      "type": "function"
    },
    {
      "inputs": [],
      "name": "feeSilverPercent",
      "outputs": [
        {
          "internalType": "uint256",
          "name": "",
          "type": "uint256"
        }
      ],
      "stateMutability": "view",
      "type": "function"
    },
    {
      "inputs": [
        {
          "internalType": "uint256",
          "name": "_itemId",
          "type": "uint256"
        }
      ],
      "name": "getTotalPrice",
      "outputs": [
        {
          "internalType": "uint256",
          "name": "",
          "type": "uint256"
        }
      ],
      "stateMutability": "view",
      "type": "function"
    },
    {
      "inputs": [],
      "name": "itemCount",
      "outputs": [
        {
          "internalType": "uint256",
          "name": "",
          "type": "uint256"
        }
      ],
      "stateMutability": "view",
      "type": "function"
    },
    {
      "inputs": [
        {
          "internalType": "uint256",
          "name": "",
          "type": "uint256"
        }
      ],
      "name": "itemCountOfPurchases",
      "outputs": [
        {
          "internalType": "uint256",
          "name": "",
          "type": "uint256"
        }
      ],
      "stateMutability": "view",
      "type": "function"
    },
    {
      "inputs": [
        {
          "internalType": "uint256",
          "name": "",
          "type": "uint256"
        }
      ],
      "name": "items",
      "outputs": [
        {
          "internalType": "uint256",
          "name": "itemId",
          "type": "uint256"
        },
        {
          "internalType": "contract IERC721",
          "name": "nft",
          "type": "address"
        },
        {
          "internalType": "uint256",
          "name": "tokenId",
          "type": "uint256"
        },
        {
          "internalType": "uint256",
          "name": "price",
          "type": "uint256"
        },
        {
          "internalType": "address payable",
          "name": "seller",
          "type": "address"
        },
        {
          "internalType": "bool",
          "name": "onSale",
          "type": "bool"
        }
      ],
      "stateMutability": "view",
      "type": "function"
    },
    {
      "inputs": [
        {
          "internalType": "contract IERC721",
          "name": "_nft",
          "type": "address"
        },
        {
          "internalType": "contract NFT",
          "name": "_nftAddress",
          "type": "address"
        },
        {
          "internalType": "string[]",
          "name": "_tokenURIS",
          "type": "string[]"
        },
        {
          "internalType": "uint256[]",
          "name": "_prices",
          "type": "uint256[]"
        }
      ],
      "name": "makeItem",
      "outputs": [],
      "stateMutability": "nonpayable",
      "type": "function"
    },
    {
      "inputs": [
        {
          "internalType": "contract IERC721",
          "name": "_nft",
          "type": "address"
        },
        {
          "internalType": "uint256",
          "name": "_tokenId",
          "type": "uint256"
        },
        {
          "internalType": "uint256",
          "name": "_price",
          "type": "uint256"
        }
      ],
      "name": "publishItem",
      "outputs": [],
      "stateMutability": "nonpayable",
      "type": "function"
    },
    {
      "inputs": [
        {
          "internalType": "uint256",
          "name": "_itemId",
          "type": "uint256"
        }
      ],
      "name": "purchaseItem",
      "outputs": [],
      "stateMutability": "payable",
      "type": "function"
    }
  ],
  "bytecode": "0x6101606040523480156200001257600080fd5b5060405162002e5138038062002e51833981810160405281019062000038919062000155565b600160008190555086600160006101000a81548173ffffffffffffffffffffffffffffffffffffffff021916908373ffffffffffffffffffffffffffffffffffffffff1602179055508673ffffffffffffffffffffffffffffffffffffffff1660808173ffffffffffffffffffffffffffffffffffffffff1660601b815250508573ffffffffffffffffffffffffffffffffffffffff1660a08173ffffffffffffffffffffffffffffffffffffffff1660601b815250508460c081815250508360e081815250508261010081815250508161012081815250508061014081815250505050505050505062000274565b600081519050620001388162000240565b92915050565b6000815190506200014f816200025a565b92915050565b600080600080600080600060e0888a0312156200017157600080fd5b6000620001818a828b0162000127565b9750506020620001948a828b0162000127565b9650506040620001a78a828b016200013e565b9550506060620001ba8a828b016200013e565b9450506080620001cd8a828b016200013e565b93505060a0620001e08a828b016200013e565b92505060c0620001f38a828b016200013e565b91505092959891949750929550565b60006200020f8262000216565b9050919050565b600073ffffffffffffffffffffffffffffffffffffffff82169050919050565b6000819050919050565b6200024b8162000202565b81146200025757600080fd5b50565b620002658162000236565b81146200027157600080fd5b50565b60805160601c60a05160601c60c05160e051610100516101205161014051612ae9620003686000396000818161050c01528181610ec6015281816117900152818161183a01526118e40152600081816104be01528181610e5f01528181610ee70152818161161b01526116c501526000818161041001528181610e2301528181610e8001528181610f0801526115500152600081816103c801528181610dbf015261148b0152600081816104e201528181610deb01526113f70152600081816103ec015261144e0152600081816109d901528181610b4601528181610c81015281816113ba0152611ad60152612ae96000f3fe6080604052600436106100e85760003560e01c80636bfb0d011161008a578063bfb231d211610059578063bfb231d2146102e8578063ca7dd3751461032a578063d38ea5bf14610367578063e3ab781b14610383576100e8565b80636bfb0d011461024057806385de5ecc1461026b5780639e555090146102965780639efa02a6146102bf576100e8565b8063239bbf5b116100c6578063239bbf5b146101805780633b1d198c146101ab578063427a0b22146101ea578063662fc08814610215576100e8565b806308a31216146100ed578063158cb02a1461012a5780631f5044a714610155575b600080fd5b3480156100f957600080fd5b50610114600480360381019061010f9190611f13565b6103ae565b6040516101219190612394565b60405180910390f35b34801561013657600080fd5b5061013f6103c6565b60405161014c9190612394565b60405180910390f35b34801561016157600080fd5b5061016a6103ea565b60405161017791906121d2565b60405180910390f35b34801561018c57600080fd5b5061019561040e565b6040516101a29190612394565b60405180910390f35b3480156101b757600080fd5b506101d260048036038101906101cd9190611f13565b610432565b6040516101e1939291906121ed565b60405180910390f35b3480156101f657600080fd5b506101ff6104bc565b60405161020c9190612394565b60405180910390f35b34801561022157600080fd5b5061022a6104e0565b6040516102379190612394565b60405180910390f35b34801561024c57600080fd5b50610255610504565b6040516102629190612394565b60405180910390f35b34801561027757600080fd5b5061028061050a565b60405161028d9190612394565b60405180910390f35b3480156102a257600080fd5b506102bd60048036038101906102b89190611ec4565b61052e565b005b3480156102cb57600080fd5b506102e660048036038101906102e19190611e31565b610793565b005b3480156102f457600080fd5b5061030f600480360381019061030a9190611f13565b610d19565b604051610321969594939291906123f4565b60405180910390f35b34801561033657600080fd5b50610351600480360381019061034c9190611f13565b610da2565b60405161035e9190612394565b60405180910390f35b610381600480360381019061037c9190611f13565b610f8e565b005b34801561038f57600080fd5b50610398611ad4565b6040516103a591906121d2565b60405180910390f35b60036020528060005260406000206000915090505481565b7f000000000000000000000000000000000000000000000000000000000000000081565b7f000000000000000000000000000000000000000000000000000000000000000081565b7f000000000000000000000000000000000000000000000000000000000000000081565b60056020528060005260406000206000915090508060000160009054906101000a900473ffffffffffffffffffffffffffffffffffffffff16908060010160009054906101000a900473ffffffffffffffffffffffffffffffffffffffff16908060020160009054906101000a900473ffffffffffffffffffffffffffffffffffffffff16905083565b7f000000000000000000000000000000000000000000000000000000000000000081565b7f000000000000000000000000000000000000000000000000000000000000000081565b60025481565b7f000000000000000000000000000000000000000000000000000000000000000081565b60026000541415610574576040517f08c379a000000000000000000000000000000000000000000000000000000000815260040161056b90612374565b60405180910390fd5b60026000819055508273ffffffffffffffffffffffffffffffffffffffff16636352211e836040518263ffffffff1660e01b81526004016105b59190612394565b60206040518083038186803b1580156105cd57600080fd5b505afa1580156105e1573d6000803e3d6000fd5b505050506040513d601f19601f820116820180604052508101906106059190611dc7565b73ffffffffffffffffffffffffffffffffffffffff163373ffffffffffffffffffffffffffffffffffffffff161461063c57600080fd5b6000811161067f576040517f08c379a0000000000000000000000000000000000000000000000000000000008152600401610676906122b4565b60405180910390fd5b336004600084815260200190815260200160002060040160006101000a81548173ffffffffffffffffffffffffffffffffffffffff021916908373ffffffffffffffffffffffffffffffffffffffff16021790555080600460008481526020019081526020016000206003018190555060016004600084815260200190815260200160002060040160146101000a81548160ff0219169083151502179055503373ffffffffffffffffffffffffffffffffffffffff167f342e849466ccf2dfb594dafa5f75bbf8f84cc6fa4e0c6ca1620bfcaeeabc62326004600085815260200190815260200160002060000154848460405161077e93929190612455565b60405180910390a26001600081905550505050565b600160009054906101000a900473ffffffffffffffffffffffffffffffffffffffff1673ffffffffffffffffffffffffffffffffffffffff163373ffffffffffffffffffffffffffffffffffffffff16146107ed57600080fd5b60026000541415610833576040517f08c379a000000000000000000000000000000000000000000000000000000000815260040161082a90612374565b60405180910390fd5b6002600081905550600082511161087f576040517f08c379a000000000000000000000000000000000000000000000000000000000815260040161087690612354565b60405180910390fd5b60008373ffffffffffffffffffffffffffffffffffffffff16635768f271846040518263ffffffff1660e01b81526004016108ba9190612292565b600060405180830381600087803b1580156108d457600080fd5b505af11580156108e8573d6000803e3d6000fd5b505050506040513d6000823e3d601f19601f820116820180604052508101906109119190611df0565b905060005b8151811015610c7e57600083828151811061095a577f4e487b7100000000000000000000000000000000000000000000000000000000600052603260045260246000fd5b6020026020010151116109a2576040517f08c379a0000000000000000000000000000000000000000000000000000000008152600401610999906122b4565b60405180910390fd5b600260008154809291906109b590612805565b91905055508573ffffffffffffffffffffffffffffffffffffffff166323b872dd307f0000000000000000000000000000000000000000000000000000000000000000858581518110610a31577f4e487b7100000000000000000000000000000000000000000000000000000000600052603260045260246000fd5b60200260200101516040518463ffffffff1660e01b8152600401610a579392919061225b565b600060405180830381600087803b158015610a7157600080fd5b505af1158015610a85573d6000803e3d6000fd5b505050506040518060c0016040528060025481526020018773ffffffffffffffffffffffffffffffffffffffff168152602001838381518110610af1577f4e487b7100000000000000000000000000000000000000000000000000000000600052603260045260246000fd5b60200260200101518152602001848381518110610b37577f4e487b7100000000000000000000000000000000000000000000000000000000600052603260045260246000fd5b602002602001015181526020017f000000000000000000000000000000000000000000000000000000000000000073ffffffffffffffffffffffffffffffffffffffff168152602001600115158152506004600060025481526020019081526020016000206000820151816000015560208201518160010160006101000a81548173ffffffffffffffffffffffffffffffffffffffff021916908373ffffffffffffffffffffffffffffffffffffffff160217905550604082015181600201556060820151816003015560808201518160040160006101000a81548173ffffffffffffffffffffffffffffffffffffffff021916908373ffffffffffffffffffffffffffffffffffffffff16021790555060a08201518160040160146101000a81548160ff0219169083151502179055509050508080610c7690612805565b915050610916565b507f000000000000000000000000000000000000000000000000000000000000000073ffffffffffffffffffffffffffffffffffffffff168573ffffffffffffffffffffffffffffffffffffffff167fa7a25a41bf2dd955eec8125fce9de171ecd45961064d3c59d983c026cbbcfd806002548486604051610d02939291906123af565b60405180910390a350600160008190555050505050565b60046020528060005260406000206000915090508060000154908060010160009054906101000a900473ffffffffffffffffffffffffffffffffffffffff16908060020154908060030154908060040160009054906101000a900473ffffffffffffffffffffffffffffffffffffffff16908060040160149054906101000a900460ff16905086565b6000806003600084815260200190815260200160002054905060007f000000000000000000000000000000000000000000000000000000000000000090506000821115610e18577f000000000000000000000000000000000000000000000000000000000000000081610e1591906125d9565b90505b6003821415610e54577f000000000000000000000000000000000000000000000000000000000000000081610e4d91906125d9565b9050610f4b565b6004821415610ebb577f00000000000000000000000000000000000000000000000000000000000000007f0000000000000000000000000000000000000000000000000000000000000000610ea991906125d9565b81610eb491906125d9565b9050610f4a565b6005821415610f49577f00000000000000000000000000000000000000000000000000000000000000007f00000000000000000000000000000000000000000000000000000000000000007f0000000000000000000000000000000000000000000000000000000000000000610f3191906125d9565b610f3b91906125d9565b81610f4691906125d9565b90505b5b5b6064816064610f5a91906125d9565b6004600087815260200190815260200160002060030154610f7b9190612660565b610f85919061262f565b92505050919050565b60026000541415610fd4576040517f08c379a0000000000000000000000000000000000000000000000000000000008152600401610fcb90612374565b60405180910390fd5b60026000819055506000610fe782610da2565b9050600082118015610ffb57506002548211155b61103a576040517f08c379a000000000000000000000000000000000000000000000000000000000815260040161103190612334565b60405180910390fd5b8034101561107d576040517f08c379a0000000000000000000000000000000000000000000000000000000008152600401611074906122f4565b60405180910390fd5b600115156004600084815260200190815260200160002060040160149054906101000a900460ff161515146110e7576040517f08c379a00000000000000000000000000000000000000000000000000000000081526004016110de90612314565b60405180910390fd5b3373ffffffffffffffffffffffffffffffffffffffff166004600084815260200190815260200160002060040160009054906101000a900473ffffffffffffffffffffffffffffffffffffffff1673ffffffffffffffffffffffffffffffffffffffff16141561118c576040517f08c379a0000000000000000000000000000000000000000000000000000000008152600401611183906122d4565b60405180910390fd5b60006003600084815260200190815260200160002054141561120257336005600084815260200190815260200160002060000160006101000a81548173ffffffffffffffffffffffffffffffffffffffff021916908373ffffffffffffffffffffffffffffffffffffffff1602179055506112ec565b60016003600084815260200190815260200160002054141561127857336005600084815260200190815260200160002060010160006101000a81548173ffffffffffffffffffffffffffffffffffffffff021916908373ffffffffffffffffffffffffffffffffffffffff1602179055506112eb565b6002600360008481526020019081526020016000205414156112ea57336005600084815260200190815260200160002060020160006101000a81548173ffffffffffffffffffffffffffffffffffffffff021916908373ffffffffffffffffffffffffffffffffffffffff1602179055505b5b5b60006004600084815260200190815260200160002090508060040160009054906101000a900473ffffffffffffffffffffffffffffffffffffffff1673ffffffffffffffffffffffffffffffffffffffff166108fc82600301549081150290604051600060405180830381858888f19350505050158015611371573d6000803e3d6000fd5b5060008160040160146101000a81548160ff0219169083151502179055506003600084815260200190815260200160002060008154809291906113b390612805565b91905055507f000000000000000000000000000000000000000000000000000000000000000073ffffffffffffffffffffffffffffffffffffffff166108fc6114207f00000000000000000000000000000000000000000000000000000000000000008460030154611af8565b9081150290604051600060405180830381858888f1935050505015801561144b573d6000803e3d6000fd5b507f000000000000000000000000000000000000000000000000000000000000000073ffffffffffffffffffffffffffffffffffffffff166108fc6114b47f00000000000000000000000000000000000000000000000000000000000000008460030154611af8565b9081150290604051600060405180830381858888f193505050501580156114df573d6000803e3d6000fd5b5060038060008581526020019081526020016000205414156115aa576005600084815260200190815260200160002060000160009054906101000a900473ffffffffffffffffffffffffffffffffffffffff1673ffffffffffffffffffffffffffffffffffffffff166108fc6115797f00000000000000000000000000000000000000000000000000000000000000008460030154611af8565b9081150290604051600060405180830381858888f193505050501580156115a4573d6000803e3d6000fd5b5061193c565b60046003600085815260200190815260200160002054141561171f576005600084815260200190815260200160002060000160009054906101000a900473ffffffffffffffffffffffffffffffffffffffff1673ffffffffffffffffffffffffffffffffffffffff166108fc6116447f00000000000000000000000000000000000000000000000000000000000000008460030154611af8565b9081150290604051600060405180830381858888f1935050505015801561166f573d6000803e3d6000fd5b506005600084815260200190815260200160002060010160009054906101000a900473ffffffffffffffffffffffffffffffffffffffff1673ffffffffffffffffffffffffffffffffffffffff166108fc6116ee7f00000000000000000000000000000000000000000000000000000000000000008460030154611af8565b9081150290604051600060405180830381858888f19350505050158015611719573d6000803e3d6000fd5b5061193b565b60056003600085815260200190815260200160002054141561193a576005600084815260200190815260200160002060000160009054906101000a900473ffffffffffffffffffffffffffffffffffffffff1673ffffffffffffffffffffffffffffffffffffffff166108fc6117b97f00000000000000000000000000000000000000000000000000000000000000008460030154611af8565b9081150290604051600060405180830381858888f193505050501580156117e4573d6000803e3d6000fd5b506005600084815260200190815260200160002060010160009054906101000a900473ffffffffffffffffffffffffffffffffffffffff1673ffffffffffffffffffffffffffffffffffffffff166108fc6118637f00000000000000000000000000000000000000000000000000000000000000008460030154611af8565b9081150290604051600060405180830381858888f1935050505015801561188e573d6000803e3d6000fd5b506005600084815260200190815260200160002060020160009054906101000a900473ffffffffffffffffffffffffffffffffffffffff1673ffffffffffffffffffffffffffffffffffffffff166108fc61190d7f00000000000000000000000000000000000000000000000000000000000000008460030154611af8565b9081150290604051600060405180830381858888f19350505050158015611938573d6000803e3d6000fd5b505b5b5b8060010160009054906101000a900473ffffffffffffffffffffffffffffffffffffffff1673ffffffffffffffffffffffffffffffffffffffff166323b872dd8260040160009054906101000a900473ffffffffffffffffffffffffffffffffffffffff163384600201546040518463ffffffff1660e01b81526004016119c593929190612224565b600060405180830381600087803b1580156119df57600080fd5b505af11580156119f3573d6000803e3d6000fd5b505050503373ffffffffffffffffffffffffffffffffffffffff168160040160009054906101000a900473ffffffffffffffffffffffffffffffffffffffff1673ffffffffffffffffffffffffffffffffffffffff168260010160009054906101000a900473ffffffffffffffffffffffffffffffffffffffff1673ffffffffffffffffffffffffffffffffffffffff167f8b4c9c8a607d67b321582dd8461041b1dc2ceeca70c8b7f37f8e02095cf2e76d8685600201548660030154604051611abf93929190612455565b60405180910390a45050600160008190555050565b7f000000000000000000000000000000000000000000000000000000000000000081565b600060648284611b089190612660565b611b12919061262f565b905092915050565b6000611b2d611b28846124b1565b61248c565b90508083825260208201905082856020860282011115611b4c57600080fd5b60005b85811015611b9657813567ffffffffffffffff811115611b6e57600080fd5b808601611b7b8982611d73565b85526020850194506020840193505050600181019050611b4f565b5050509392505050565b6000611bb3611bae846124dd565b61248c565b90508083825260208201905082856020860282011115611bd257600080fd5b60005b85811015611c025781611be88882611d9d565b845260208401935060208301925050600181019050611bd5565b5050509392505050565b6000611c1f611c1a846124dd565b61248c565b90508083825260208201905082856020860282011115611c3e57600080fd5b60005b85811015611c6e5781611c548882611db2565b845260208401935060208301925050600181019050611c41565b5050509392505050565b6000611c8b611c8684612509565b61248c565b905082815260208101848484011115611ca357600080fd5b611cae848285612792565b509392505050565b600081519050611cc581612a57565b92915050565b600082601f830112611cdc57600080fd5b8135611cec848260208601611b1a565b91505092915050565b600082601f830112611d0657600080fd5b8135611d16848260208601611ba0565b91505092915050565b600082601f830112611d3057600080fd5b8151611d40848260208601611c0c565b91505092915050565b600081359050611d5881612a6e565b92915050565b600081359050611d6d81612a85565b92915050565b600082601f830112611d8457600080fd5b8135611d94848260208601611c78565b91505092915050565b600081359050611dac81612a9c565b92915050565b600081519050611dc181612a9c565b92915050565b600060208284031215611dd957600080fd5b6000611de784828501611cb6565b91505092915050565b600060208284031215611e0257600080fd5b600082015167ffffffffffffffff811115611e1c57600080fd5b611e2884828501611d1f565b91505092915050565b60008060008060808587031215611e4757600080fd5b6000611e5587828801611d49565b9450506020611e6687828801611d5e565b935050604085013567ffffffffffffffff811115611e8357600080fd5b611e8f87828801611ccb565b925050606085013567ffffffffffffffff811115611eac57600080fd5b611eb887828801611cf5565b91505092959194509250565b600080600060608486031215611ed957600080fd5b6000611ee786828701611d49565b9350506020611ef886828701611d9d565b9250506040611f0986828701611d9d565b9150509250925092565b600060208284031215611f2557600080fd5b6000611f3384828501611d9d565b91505092915050565b6000611f488383612086565b905092915050565b6000611f5c83836121b4565b60208301905092915050565b611f7181612738565b82525050565b611f80816126cc565b82525050565b611f8f816126ba565b82525050565b6000611fa08261255a565b611faa8185612595565b935083602082028501611fbc8561253a565b8060005b85811015611ff85784840389528151611fd98582611f3c565b9450611fe48361257b565b925060208a01995050600181019050611fc0565b50829750879550505050505092915050565b600061201582612565565b61201f81856125a6565b935061202a8361254a565b8060005b8381101561205b5781516120428882611f50565b975061204d83612588565b92505060018101905061202e565b5085935050505092915050565b612071816126de565b82525050565b6120808161274a565b82525050565b600061209182612570565b61209b81856125b7565b93506120ab8185602086016127a1565b6120b4816128db565b840191505092915050565b60006120cc601f836125c8565b91506120d7826128ec565b602082019050919050565b60006120ef6020836125c8565b91506120fa82612915565b602082019050919050565b60006121126033836125c8565b915061211d8261293e565b604082019050919050565b60006121356012836125c8565b91506121408261298d565b602082019050919050565b60006121586012836125c8565b9150612163826129b6565b602082019050919050565b600061217b6021836125c8565b9150612186826129df565b604082019050919050565b600061219e601f836125c8565b91506121a982612a2e565b602082019050919050565b6121bd8161272e565b82525050565b6121cc8161272e565b82525050565b60006020820190506121e76000830184611f77565b92915050565b60006060820190506122026000830186611f77565b61220f6020830185611f77565b61221c6040830184611f77565b949350505050565b60006060820190506122396000830186611f68565b6122466020830185611f86565b61225360408301846121c3565b949350505050565b60006060820190506122706000830186611f86565b61227d6020830185611f68565b61228a60408301846121c3565b949350505050565b600060208201905081810360008301526122ac8184611f95565b905092915050565b600060208201905081810360008301526122cd816120bf565b9050919050565b600060208201905081810360008301526122ed816120e2565b9050919050565b6000602082019050818103600083015261230d81612105565b9050919050565b6000602082019050818103600083015261232d81612128565b9050919050565b6000602082019050818103600083015261234d8161214b565b9050919050565b6000602082019050818103600083015261236d8161216e565b9050919050565b6000602082019050818103600083015261238d81612191565b9050919050565b60006020820190506123a960008301846121c3565b92915050565b60006060820190506123c460008301866121c3565b81810360208301526123d6818561200a565b905081810360408301526123ea818461200a565b9050949350505050565b600060c08201905061240960008301896121c3565b6124166020830188612077565b61242360408301876121c3565b61243060608301866121c3565b61243d6080830185611f77565b61244a60a0830184612068565b979650505050505050565b600060608201905061246a60008301866121c3565b61247760208301856121c3565b61248460408301846121c3565b949350505050565b60006124966124a7565b90506124a282826127d4565b919050565b6000604051905090565b600067ffffffffffffffff8211156124cc576124cb6128ac565b5b602082029050602081019050919050565b600067ffffffffffffffff8211156124f8576124f76128ac565b5b602082029050602081019050919050565b600067ffffffffffffffff821115612524576125236128ac565b5b61252d826128db565b9050602081019050919050565b6000819050602082019050919050565b6000819050602082019050919050565b600081519050919050565b600081519050919050565b600081519050919050565b6000602082019050919050565b6000602082019050919050565b600082825260208201905092915050565b600082825260208201905092915050565b600082825260208201905092915050565b600082825260208201905092915050565b60006125e48261272e565b91506125ef8361272e565b9250827fffffffffffffffffffffffffffffffffffffffffffffffffffffffffffffffff038211156126245761262361284e565b5b828201905092915050565b600061263a8261272e565b91506126458361272e565b9250826126555761265461287d565b5b828204905092915050565b600061266b8261272e565b91506126768361272e565b9250817fffffffffffffffffffffffffffffffffffffffffffffffffffffffffffffffff04831182151516156126af576126ae61284e565b5b828202905092915050565b60006126c58261270e565b9050919050565b60006126d78261270e565b9050919050565b60008115159050919050565b60006126f5826126ba565b9050919050565b6000612707826126ba565b9050919050565b600073ffffffffffffffffffffffffffffffffffffffff82169050919050565b6000819050919050565b60006127438261276e565b9050919050565b60006127558261275c565b9050919050565b60006127678261270e565b9050919050565b600061277982612780565b9050919050565b600061278b8261270e565b9050919050565b82818337600083830152505050565b60005b838110156127bf5780820151818401526020810190506127a4565b838111156127ce576000848401525b50505050565b6127dd826128db565b810181811067ffffffffffffffff821117156127fc576127fb6128ac565b5b80604052505050565b60006128108261272e565b91507fffffffffffffffffffffffffffffffffffffffffffffffffffffffffffffffff8214156128435761284261284e565b5b600182019050919050565b7f4e487b7100000000000000000000000000000000000000000000000000000000600052601160045260246000fd5b7f4e487b7100000000000000000000000000000000000000000000000000000000600052601260045260246000fd5b7f4e487b7100000000000000000000000000000000000000000000000000000000600052604160045260246000fd5b6000601f19601f8301169050919050565b7f5072696365206d7573742062652067726561746572207468616e207a65726f00600082015250565b7f4f776e6572732063616e277420627579207468656972206f776e206974656d73600082015250565b7f6e6f7420656e6f75676820657468657220746f20636f766572206974656d207060008201527f7269636520616e64206d61726b65742066656500000000000000000000000000602082015250565b7f4974656d2069736e2774206f6e2073616c650000000000000000000000000000600082015250565b7f6974656d20646f65736e27742065786973740000000000000000000000000000600082015250565b7f7468657265206973206e6f20746f6b656e73205572697320746f20637265617460008201527f6500000000000000000000000000000000000000000000000000000000000000602082015250565b7f5265656e7472616e637947756172643a207265656e7472616e742063616c6c00600082015250565b612a60816126ba565b8114612a6b57600080fd5b50565b612a77816126ea565b8114612a8257600080fd5b50565b612a8e816126fc565b8114612a9957600080fd5b50565b612aa58161272e565b8114612ab057600080fd5b5056fea264697066735822122017b8e64d12902412e5c413c6c241c6520ad1e10028e24a67eb8ee6e2d31c4bf664736f6c63430008040033",
  "linkReferences": {},
  "deployedLinkReferences": {}
}