{
  "_format": "hh-sol-artifact-1",
  "contractName": "Marketplace",
  "sourceName": "src/solidity/contracts/Marketplace.sol",
  "abi": [
    {
      "inputs": [
        {
          "internalType": "address",
          "name": "_accountOwnerMarketplace",
          "type": "address"
        },
        {
          "internalType": "address",
          "name": "_accountGamerOrganization",
          "type": "address"
        },
        {
          "internalType": "uint256",
          "name": "_feeMarketplacePercent",
          "type": "uint256"
        },
        {
          "internalType": "uint256",
          "name": "_feeGamerOrganizationPercent",
          "type": "uint256"
        },
        {
          "internalType": "uint256",
          "name": "_feeDiamondPercent",
          "type": "uint256"
        },
        {
          "internalType": "uint256",
          "name": "_feeGoldPercent",
          "type": "uint256"
        },
        {
          "internalType": "uint256",
          "name": "_feeSilverPercent",
          "type": "uint256"
        }
      ],
      "stateMutability": "nonpayable",
      "type": "constructor"
    },
    {
      "anonymous": false,
      "inputs": [
        {
          "indexed": false,
          "internalType": "uint256",
          "name": "itemId",
          "type": "uint256"
        },
        {
          "indexed": true,
          "internalType": "address",
          "name": "nft",
          "type": "address"
        },
        {
          "indexed": false,
          "internalType": "uint256",
          "name": "tokenId",
          "type": "uint256"
        },
        {
          "indexed": false,
          "internalType": "uint256",
          "name": "price",
          "type": "uint256"
        },
        {
          "indexed": true,
          "internalType": "address",
          "name": "seller",
          "type": "address"
        },
        {
          "indexed": true,
          "internalType": "address",
          "name": "buyer",
          "type": "address"
        }
      ],
      "name": "Bought",
      "type": "event"
    },
    {
      "anonymous": false,
      "inputs": [
        {
          "indexed": false,
          "internalType": "uint256",
          "name": "itemId",
          "type": "uint256"
        },
        {
          "indexed": true,
          "internalType": "address",
          "name": "nft",
          "type": "address"
        },
        {
          "indexed": false,
          "internalType": "uint256[]",
          "name": "tokenIds",
          "type": "uint256[]"
        },
        {
          "indexed": false,
          "internalType": "uint256[]",
          "name": "prices",
          "type": "uint256[]"
        },
        {
          "indexed": true,
          "internalType": "address",
          "name": "seller",
          "type": "address"
        }
      ],
      "name": "Offered",
      "type": "event"
    },
    {
      "anonymous": false,
      "inputs": [
        {
          "indexed": false,
          "internalType": "uint256",
          "name": "itemId",
          "type": "uint256"
        },
        {
          "indexed": false,
          "internalType": "uint256",
          "name": "tokenId",
          "type": "uint256"
        },
        {
          "indexed": false,
          "internalType": "uint256",
          "name": "price",
          "type": "uint256"
        },
        {
          "indexed": true,
          "internalType": "address",
          "name": "seller",
          "type": "address"
        }
      ],
      "name": "Published",
      "type": "event"
    },
    {
      "inputs": [],
      "name": "accountGamerOrganization",
      "outputs": [
        {
          "internalType": "address payable",
          "name": "",
          "type": "address"
        }
      ],
      "stateMutability": "view",
      "type": "function"
    },
    {
      "inputs": [],
      "name": "accountOwnerMarketplace",
      "outputs": [
        {
          "internalType": "address payable",
          "name": "",
          "type": "address"
        }
      ],
      "stateMutability": "view",
      "type": "function"
    },
    {
      "inputs": [
        {
          "internalType": "uint256",
          "name": "",
          "type": "uint256"
        }
      ],
      "name": "accountsLevels",
      "outputs": [
        {
          "internalType": "address payable",
          "name": "diamond",
          "type": "address"
        },
        {
          "internalType": "address payable",
          "name": "gold",
          "type": "address"
        },
        {
          "internalType": "address payable",
          "name": "silver",
          "type": "address"
        }
      ],
      "stateMutability": "view",
      "type": "function"
    },
    {
      "inputs": [],
      "name": "feeDiamondPercent",
      "outputs": [
        {
          "internalType": "uint256",
          "name": "",
          "type": "uint256"
        }
      ],
      "stateMutability": "view",
      "type": "function"
    },
    {
      "inputs": [],
      "name": "feeGamerOrganizationPercent",
      "outputs": [
        {
          "internalType": "uint256",
          "name": "",
          "type": "uint256"
        }
      ],
      "stateMutability": "view",
      "type": "function"
    },
    {
      "inputs": [],
      "name": "feeGoldPercent",
      "outputs": [
        {
          "internalType": "uint256",
          "name": "",
          "type": "uint256"
        }
      ],
      "stateMutability": "view",
      "type": "function"
    },
    {
      "inputs": [],
      "name": "feeMarketplacePercent",
      "outputs": [
        {
          "internalType": "uint256",
          "name": "",
          "type": "uint256"
        }
      ],
      "stateMutability": "view",
      "type": "function"
    },
    {
      "inputs": [],
      "name": "feeSilverPercent",
      "outputs": [
        {
          "internalType": "uint256",
          "name": "",
          "type": "uint256"
        }
      ],
      "stateMutability": "view",
      "type": "function"
    },
    {
      "inputs": [
        {
          "internalType": "uint256",
          "name": "_itemId",
          "type": "uint256"
        }
      ],
      "name": "getTotalPrice",
      "outputs": [
        {
          "internalType": "uint256",
          "name": "",
          "type": "uint256"
        }
      ],
      "stateMutability": "view",
      "type": "function"
    },
    {
      "inputs": [],
      "name": "itemCount",
      "outputs": [
        {
          "internalType": "uint256",
          "name": "",
          "type": "uint256"
        }
      ],
      "stateMutability": "view",
      "type": "function"
    },
    {
      "inputs": [
        {
          "internalType": "uint256",
          "name": "",
          "type": "uint256"
        }
      ],
      "name": "itemCountOfPurchases",
      "outputs": [
        {
          "internalType": "uint256",
          "name": "",
          "type": "uint256"
        }
      ],
      "stateMutability": "view",
      "type": "function"
    },
    {
      "inputs": [
        {
          "internalType": "uint256",
          "name": "",
          "type": "uint256"
        }
      ],
      "name": "items",
      "outputs": [
        {
          "internalType": "uint256",
          "name": "itemId",
          "type": "uint256"
        },
        {
          "internalType": "contract IERC721",
          "name": "nft",
          "type": "address"
        },
        {
          "internalType": "uint256",
          "name": "tokenId",
          "type": "uint256"
        },
        {
          "internalType": "uint256",
          "name": "price",
          "type": "uint256"
        },
        {
          "internalType": "string",
          "name": "nick",
          "type": "string"
        },
        {
          "internalType": "string",
          "name": "team",
          "type": "string"
        },
        {
          "internalType": "address payable",
          "name": "seller",
          "type": "address"
        },
        {
          "internalType": "bool",
          "name": "onSale",
          "type": "bool"
        }
      ],
      "stateMutability": "view",
      "type": "function"
    },
    {
      "inputs": [
        {
          "internalType": "contract IERC721",
          "name": "_nft",
          "type": "address"
        },
        {
          "internalType": "address",
          "name": "_nftAddress",
          "type": "address"
        },
        {
          "internalType": "string[]",
          "name": "_tokenURIS",
          "type": "string[]"
        },
        {
          "internalType": "uint256[]",
          "name": "_prices",
          "type": "uint256[]"
        },
        {
          "internalType": "string[]",
          "name": "_nicks",
          "type": "string[]"
        },
        {
          "internalType": "string[]",
          "name": "_teams",
          "type": "string[]"
        }
      ],
      "name": "makeItem",
      "outputs": [],
      "stateMutability": "nonpayable",
      "type": "function"
    },
    {
      "inputs": [
        {
          "internalType": "contract IERC721",
          "name": "_nft",
          "type": "address"
        },
        {
          "internalType": "uint256",
          "name": "_tokenId",
          "type": "uint256"
        },
        {
          "internalType": "uint256",
          "name": "_price",
          "type": "uint256"
        }
      ],
      "name": "publishItem",
      "outputs": [],
      "stateMutability": "nonpayable",
      "type": "function"
    },
    {
      "inputs": [
        {
          "internalType": "uint256",
          "name": "_itemId",
          "type": "uint256"
        }
      ],
      "name": "purchaseItem",
      "outputs": [],
      "stateMutability": "payable",
      "type": "function"
    }
  ],
  "bytecode": "0x6101606040523480156200001257600080fd5b50604051620037a4380380620037a4833981810160405281019062000038919062000155565b600160008190555086600160006101000a81548173ffffffffffffffffffffffffffffffffffffffff021916908373ffffffffffffffffffffffffffffffffffffffff1602179055508673ffffffffffffffffffffffffffffffffffffffff1660808173ffffffffffffffffffffffffffffffffffffffff1660601b815250508573ffffffffffffffffffffffffffffffffffffffff1660a08173ffffffffffffffffffffffffffffffffffffffff1660601b815250508460c081815250508360e081815250508261010081815250508161012081815250508061014081815250505050505050505062000274565b600081519050620001388162000240565b92915050565b6000815190506200014f816200025a565b92915050565b600080600080600080600060e0888a0312156200017157600080fd5b6000620001818a828b0162000127565b9750506020620001948a828b0162000127565b9650506040620001a78a828b016200013e565b9550506060620001ba8a828b016200013e565b9450506080620001cd8a828b016200013e565b93505060a0620001e08a828b016200013e565b92505060c0620001f38a828b016200013e565b91505092959891949750929550565b60006200020f8262000216565b9050919050565b600073ffffffffffffffffffffffffffffffffffffffff82169050919050565b6000819050919050565b6200024b8162000202565b81146200025757600080fd5b50565b620002658162000236565b81146200027157600080fd5b50565b60805160601c60a05160601c60c05160e05161010051610120516101405161343c6200036860003960008181610e83015281816113d301528181611c9d01528181611d470152611df10152600081816104c00152818161136c015281816113f401528181611b280152611bd2015260008181610412015281816113300152818161138d015281816114150152611a5d0152600081816103ca015281816112cc01526119980152600081816104e4015281816112f801526119040152600081816103ee015261195b015260008181610a7601528181610c7001528181610de5015281816118c70152611fe3015261343c6000f3fe6080604052600436106100e85760003560e01c80636bfb0d011161008a578063bfb231d211610059578063bfb231d2146102e8578063ca7dd3751461032c578063d38ea5bf14610369578063e3ab781b14610385576100e8565b80636bfb0d0114610240578063790802021461026b57806385de5ecc146102945780639e555090146102bf576100e8565b8063239bbf5b116100c6578063239bbf5b146101805780633b1d198c146101ab578063427a0b22146101ea578063662fc08814610215576100e8565b806308a31216146100ed578063158cb02a1461012a5780631f5044a714610155575b600080fd5b3480156100f957600080fd5b50610114600480360381019061010f919061267a565b6103b0565b6040516101219190612c1f565b60405180910390f35b34801561013657600080fd5b5061013f6103c8565b60405161014c9190612c1f565b60405180910390f35b34801561016157600080fd5b5061016a6103ec565b60405161017791906129dd565b60405180910390f35b34801561018c57600080fd5b50610195610410565b6040516101a29190612c1f565b60405180910390f35b3480156101b757600080fd5b506101d260048036038101906101cd919061267a565b610434565b6040516101e1939291906129f8565b60405180910390f35b3480156101f657600080fd5b506101ff6104be565b60405161020c9190612c1f565b60405180910390f35b34801561022157600080fd5b5061022a6104e2565b6040516102379190612c1f565b60405180910390f35b34801561024c57600080fd5b50610255610506565b6040516102629190612c1f565b60405180910390f35b34801561027757600080fd5b50610292600480360381019061028d9190612542565b61050c565b005b3480156102a057600080fd5b506102a9610e81565b6040516102b69190612c1f565b60405180910390f35b3480156102cb57600080fd5b506102e660048036038101906102e1919061262b565b610ea5565b005b3480156102f457600080fd5b5061030f600480360381019061030a919061267a565b61110a565b604051610323989796959493929190612c7f565b60405180910390f35b34801561033857600080fd5b50610353600480360381019061034e919061267a565b6112af565b6040516103609190612c1f565b60405180910390f35b610383600480360381019061037e919061267a565b61149b565b005b34801561039157600080fd5b5061039a611fe1565b6040516103a791906129dd565b60405180910390f35b60036020528060005260406000206000915090505481565b7f000000000000000000000000000000000000000000000000000000000000000081565b7f000000000000000000000000000000000000000000000000000000000000000081565b7f000000000000000000000000000000000000000000000000000000000000000081565b60056020528060005260406000206000915090508060000160009054906101000a900473ffffffffffffffffffffffffffffffffffffffff16908060010160009054906101000a900473ffffffffffffffffffffffffffffffffffffffff16908060020160009054906101000a900473ffffffffffffffffffffffffffffffffffffffff16905083565b7f000000000000000000000000000000000000000000000000000000000000000081565b7f000000000000000000000000000000000000000000000000000000000000000081565b60025481565b600160009054906101000a900473ffffffffffffffffffffffffffffffffffffffff1673ffffffffffffffffffffffffffffffffffffffff163373ffffffffffffffffffffffffffffffffffffffff161461056657600080fd5b600260005414156105ac576040517f08c379a00000000000000000000000000000000000000000000000000000000081526004016105a390612bff565b60405180910390fd5b600260008190555060008451116105f8576040517f08c379a00000000000000000000000000000000000000000000000000000000081526004016105ef90612bdf565b60405180910390fd5b6000808673ffffffffffffffffffffffffffffffffffffffff16635768f27160e01b8760405160240161062b9190612a9d565b604051602081830303815290604052907bffffffffffffffffffffffffffffffffffffffffffffffffffffffff19166020820180517bffffffffffffffffffffffffffffffffffffffffffffffffffffffff838183161783525050505060405161069591906129c6565b600060405180830381855af49150503d80600081146106d0576040519150601f19603f3d011682016040523d82523d6000602084013e6106d5565b606091505b50915091508161071a576040517f08c379a000000000000000000000000000000000000000000000000000000000815260040161071190612b7f565b60405180910390fd5b6000818060200190518101906107309190612501565b90506107726040518060400160405280601281526020017f5f746f6b656e7349642e6c656e6774683a2000000000000000000000000000008152508251612005565b6107f26040518060400160405280600e81526020017f5f746f6b656e7349645b305d3a20000000000000000000000000000000000000815250826000815181106107e5577f4e487b7100000000000000000000000000000000000000000000000000000000600052603260045260246000fd5b6020026020010151612005565b6108726040518060400160405280600e81526020017f5f746f6b656e7349645b315d3a2000000000000000000000000000000000000081525082600181518110610865577f4e487b7100000000000000000000000000000000000000000000000000000000600052603260045260246000fd5b6020026020010151612005565b6108f26040518060400160405280600e81526020017f5f746f6b656e7349645b325d3a20000000000000000000000000000000000000815250826002815181106108e5577f4e487b7100000000000000000000000000000000000000000000000000000000600052603260045260246000fd5b6020026020010151612005565b60005b8151811015610de2576000878281518110610939577f4e487b7100000000000000000000000000000000000000000000000000000000600052603260045260246000fd5b602002602001015111610981576040517f08c379a000000000000000000000000000000000000000000000000000000000815260040161097890612b1f565b60405180910390fd5b610a006040518060400160405280600b81526020017f5f746f6b656e7349643a200000000000000000000000000000000000000000008152508383815181106109f3577f4e487b7100000000000000000000000000000000000000000000000000000000600052603260045260246000fd5b6020026020010151612005565b60026000815480929190610a13906130f1565b9190505550610a576040518060400160405280601b81526020017f6d73672e73656e64657220656e204d41524b4554504c4143453a200000000000815250336120a1565b8973ffffffffffffffffffffffffffffffffffffffff166323b872dd337f0000000000000000000000000000000000000000000000000000000000000000858581518110610ace577f4e487b7100000000000000000000000000000000000000000000000000000000600052603260045260246000fd5b60200260200101516040518463ffffffff1660e01b8152600401610af493929190612a66565b600060405180830381600087803b158015610b0e57600080fd5b505af1158015610b22573d6000803e3d6000fd5b5050505060405180610100016040528060025481526020018b73ffffffffffffffffffffffffffffffffffffffff168152602001838381518110610b8f577f4e487b7100000000000000000000000000000000000000000000000000000000600052603260045260246000fd5b60200260200101518152602001888381518110610bd5577f4e487b7100000000000000000000000000000000000000000000000000000000600052603260045260246000fd5b60200260200101518152602001878381518110610c1b577f4e487b7100000000000000000000000000000000000000000000000000000000600052603260045260246000fd5b60200260200101518152602001868381518110610c61577f4e487b7100000000000000000000000000000000000000000000000000000000600052603260045260246000fd5b602002602001015181526020017f000000000000000000000000000000000000000000000000000000000000000073ffffffffffffffffffffffffffffffffffffffff168152602001600115158152506004600060025481526020019081526020016000206000820151816000015560208201518160010160006101000a81548173ffffffffffffffffffffffffffffffffffffffff021916908373ffffffffffffffffffffffffffffffffffffffff16021790555060408201518160020155606082015181600301556080820151816004019080519060200190610d47929190612188565b5060a0820151816005019080519060200190610d64929190612188565b5060c08201518160060160006101000a81548173ffffffffffffffffffffffffffffffffffffffff021916908373ffffffffffffffffffffffffffffffffffffffff16021790555060e08201518160060160146101000a81548160ff0219169083151502179055509050508080610dda906130f1565b9150506108f5565b507f000000000000000000000000000000000000000000000000000000000000000073ffffffffffffffffffffffffffffffffffffffff168973ffffffffffffffffffffffffffffffffffffffff167fa7a25a41bf2dd955eec8125fce9de171ecd45961064d3c59d983c026cbbcfd80600254848a604051610e6693929190612c3a565b60405180910390a35050506001600081905550505050505050565b7f000000000000000000000000000000000000000000000000000000000000000081565b60026000541415610eeb576040517f08c379a0000000000000000000000000000000000000000000000000000000008152600401610ee290612bff565b60405180910390fd5b60026000819055508273ffffffffffffffffffffffffffffffffffffffff16636352211e836040518263ffffffff1660e01b8152600401610f2c9190612c1f565b60206040518083038186803b158015610f4457600080fd5b505afa158015610f58573d6000803e3d6000fd5b505050506040513d601f19601f82011682018060405250810190610f7c91906124d8565b73ffffffffffffffffffffffffffffffffffffffff163373ffffffffffffffffffffffffffffffffffffffff1614610fb357600080fd5b60008111610ff6576040517f08c379a0000000000000000000000000000000000000000000000000000000008152600401610fed90612b1f565b60405180910390fd5b336004600084815260200190815260200160002060060160006101000a81548173ffffffffffffffffffffffffffffffffffffffff021916908373ffffffffffffffffffffffffffffffffffffffff16021790555080600460008481526020019081526020016000206003018190555060016004600084815260200190815260200160002060060160146101000a81548160ff0219169083151502179055503373ffffffffffffffffffffffffffffffffffffffff167f342e849466ccf2dfb594dafa5f75bbf8f84cc6fa4e0c6ca1620bfcaeeabc6232600460008581526020019081526020016000206000015484846040516110f593929190612d0b565b60405180910390a26001600081905550505050565b60046020528060005260406000206000915090508060000154908060010160009054906101000a900473ffffffffffffffffffffffffffffffffffffffff16908060020154908060030154908060040180546111659061308e565b80601f01602080910402602001604051908101604052809291908181526020018280546111919061308e565b80156111de5780601f106111b3576101008083540402835291602001916111de565b820191906000526020600020905b8154815290600101906020018083116111c157829003601f168201915b5050505050908060050180546111f39061308e565b80601f016020809104026020016040519081016040528092919081815260200182805461121f9061308e565b801561126c5780601f106112415761010080835404028352916020019161126c565b820191906000526020600020905b81548152906001019060200180831161124f57829003601f168201915b5050505050908060060160009054906101000a900473ffffffffffffffffffffffffffffffffffffffff16908060060160149054906101000a900460ff16905088565b6000806003600084815260200190815260200160002054905060007f000000000000000000000000000000000000000000000000000000000000000090506000821115611325577f0000000000000000000000000000000000000000000000000000000000000000816113229190612ea5565b90505b6003821415611361577f00000000000000000000000000000000000000000000000000000000000000008161135a9190612ea5565b9050611458565b60048214156113c8577f00000000000000000000000000000000000000000000000000000000000000007f00000000000000000000000000000000000000000000000000000000000000006113b69190612ea5565b816113c19190612ea5565b9050611457565b6005821415611456577f00000000000000000000000000000000000000000000000000000000000000007f00000000000000000000000000000000000000000000000000000000000000007f000000000000000000000000000000000000000000000000000000000000000061143e9190612ea5565b6114489190612ea5565b816114539190612ea5565b90505b5b5b60648160646114679190612ea5565b60046000878152602001908152602001600020600301546114889190612f2c565b6114929190612efb565b92505050919050565b600260005414156114e1576040517f08c379a00000000000000000000000000000000000000000000000000000000081526004016114d890612bff565b60405180910390fd5b600260008190555060006114f4826112af565b905060008211801561150857506002548211155b611547576040517f08c379a000000000000000000000000000000000000000000000000000000000815260040161153e90612bbf565b60405180910390fd5b8034101561158a576040517f08c379a000000000000000000000000000000000000000000000000000000000815260040161158190612b5f565b60405180910390fd5b600115156004600084815260200190815260200160002060060160149054906101000a900460ff161515146115f4576040517f08c379a00000000000000000000000000000000000000000000000000000000081526004016115eb90612b9f565b60405180910390fd5b3373ffffffffffffffffffffffffffffffffffffffff166004600084815260200190815260200160002060060160009054906101000a900473ffffffffffffffffffffffffffffffffffffffff1673ffffffffffffffffffffffffffffffffffffffff161415611699576040517f08c379a000000000000000000000000000000000000000000000000000000000815260040161169090612b3f565b60405180910390fd5b60006003600084815260200190815260200160002054141561170f57336005600084815260200190815260200160002060000160006101000a81548173ffffffffffffffffffffffffffffffffffffffff021916908373ffffffffffffffffffffffffffffffffffffffff1602179055506117f9565b60016003600084815260200190815260200160002054141561178557336005600084815260200190815260200160002060010160006101000a81548173ffffffffffffffffffffffffffffffffffffffff021916908373ffffffffffffffffffffffffffffffffffffffff1602179055506117f8565b6002600360008481526020019081526020016000205414156117f757336005600084815260200190815260200160002060020160006101000a81548173ffffffffffffffffffffffffffffffffffffffff021916908373ffffffffffffffffffffffffffffffffffffffff1602179055505b5b5b60006004600084815260200190815260200160002090508060060160009054906101000a900473ffffffffffffffffffffffffffffffffffffffff1673ffffffffffffffffffffffffffffffffffffffff166108fc82600301549081150290604051600060405180830381858888f1935050505015801561187e573d6000803e3d6000fd5b5060008160060160146101000a81548160ff0219169083151502179055506003600084815260200190815260200160002060008154809291906118c0906130f1565b91905055507f000000000000000000000000000000000000000000000000000000000000000073ffffffffffffffffffffffffffffffffffffffff166108fc61192d7f0000000000000000000000000000000000000000000000000000000000000000846003015461213d565b9081150290604051600060405180830381858888f19350505050158015611958573d6000803e3d6000fd5b507f000000000000000000000000000000000000000000000000000000000000000073ffffffffffffffffffffffffffffffffffffffff166108fc6119c17f0000000000000000000000000000000000000000000000000000000000000000846003015461213d565b9081150290604051600060405180830381858888f193505050501580156119ec573d6000803e3d6000fd5b506003806000858152602001908152602001600020541415611ab7576005600084815260200190815260200160002060000160009054906101000a900473ffffffffffffffffffffffffffffffffffffffff1673ffffffffffffffffffffffffffffffffffffffff166108fc611a867f0000000000000000000000000000000000000000000000000000000000000000846003015461213d565b9081150290604051600060405180830381858888f19350505050158015611ab1573d6000803e3d6000fd5b50611e49565b600460036000858152602001908152602001600020541415611c2c576005600084815260200190815260200160002060000160009054906101000a900473ffffffffffffffffffffffffffffffffffffffff1673ffffffffffffffffffffffffffffffffffffffff166108fc611b517f0000000000000000000000000000000000000000000000000000000000000000846003015461213d565b9081150290604051600060405180830381858888f19350505050158015611b7c573d6000803e3d6000fd5b506005600084815260200190815260200160002060010160009054906101000a900473ffffffffffffffffffffffffffffffffffffffff1673ffffffffffffffffffffffffffffffffffffffff166108fc611bfb7f0000000000000000000000000000000000000000000000000000000000000000846003015461213d565b9081150290604051600060405180830381858888f19350505050158015611c26573d6000803e3d6000fd5b50611e48565b600560036000858152602001908152602001600020541415611e47576005600084815260200190815260200160002060000160009054906101000a900473ffffffffffffffffffffffffffffffffffffffff1673ffffffffffffffffffffffffffffffffffffffff166108fc611cc67f0000000000000000000000000000000000000000000000000000000000000000846003015461213d565b9081150290604051600060405180830381858888f19350505050158015611cf1573d6000803e3d6000fd5b506005600084815260200190815260200160002060010160009054906101000a900473ffffffffffffffffffffffffffffffffffffffff1673ffffffffffffffffffffffffffffffffffffffff166108fc611d707f0000000000000000000000000000000000000000000000000000000000000000846003015461213d565b9081150290604051600060405180830381858888f19350505050158015611d9b573d6000803e3d6000fd5b506005600084815260200190815260200160002060020160009054906101000a900473ffffffffffffffffffffffffffffffffffffffff1673ffffffffffffffffffffffffffffffffffffffff166108fc611e1a7f0000000000000000000000000000000000000000000000000000000000000000846003015461213d565b9081150290604051600060405180830381858888f19350505050158015611e45573d6000803e3d6000fd5b505b5b5b8060010160009054906101000a900473ffffffffffffffffffffffffffffffffffffffff1673ffffffffffffffffffffffffffffffffffffffff166323b872dd8260060160009054906101000a900473ffffffffffffffffffffffffffffffffffffffff163384600201546040518463ffffffff1660e01b8152600401611ed293929190612a2f565b600060405180830381600087803b158015611eec57600080fd5b505af1158015611f00573d6000803e3d6000fd5b505050503373ffffffffffffffffffffffffffffffffffffffff168160060160009054906101000a900473ffffffffffffffffffffffffffffffffffffffff1673ffffffffffffffffffffffffffffffffffffffff168260010160009054906101000a900473ffffffffffffffffffffffffffffffffffffffff1673ffffffffffffffffffffffffffffffffffffffff167f8b4c9c8a607d67b321582dd8461041b1dc2ceeca70c8b7f37f8e02095cf2e76d8685600201548660030154604051611fcc93929190612d0b565b60405180910390a45050600160008190555050565b7f000000000000000000000000000000000000000000000000000000000000000081565b61209d828260405160240161201b929190612aef565b6040516020818303038152906040527f9710a9d0000000000000000000000000000000000000000000000000000000007bffffffffffffffffffffffffffffffffffffffffffffffffffffffff19166020820180517bffffffffffffffffffffffffffffffffffffffffffffffffffffffff838183161783525050505061215f565b5050565b61213982826040516024016120b7929190612abf565b6040516020818303038152906040527f319af333000000000000000000000000000000000000000000000000000000007bffffffffffffffffffffffffffffffffffffffffffffffffffffffff19166020820180517bffffffffffffffffffffffffffffffffffffffffffffffffffffffff838183161783525050505061215f565b5050565b60006064828461214d9190612f2c565b6121579190612efb565b905092915050565b60008151905060006a636f6e736f6c652e6c6f679050602083016000808483855afa5050505050565b8280546121949061308e565b90600052602060002090601f0160209004810192826121b657600085556121fd565b82601f106121cf57805160ff19168380011785556121fd565b828001600101855582156121fd579182015b828111156121fc5782518255916020019190600101906121e1565b5b50905061220a919061220e565b5090565b5b8082111561222757600081600090555060010161220f565b5090565b600061223e61223984612d67565b612d42565b9050808382526020820190508285602086028201111561225d57600080fd5b60005b858110156122a757813567ffffffffffffffff81111561227f57600080fd5b80860161228c8982612484565b85526020850194506020840193505050600181019050612260565b5050509392505050565b60006122c46122bf84612d93565b612d42565b905080838252602082019050828560208602820111156122e357600080fd5b60005b8581101561231357816122f988826124ae565b8452602084019350602083019250506001810190506122e6565b5050509392505050565b600061233061232b84612d93565b612d42565b9050808382526020820190508285602086028201111561234f57600080fd5b60005b8581101561237f578161236588826124c3565b845260208401935060208301925050600181019050612352565b5050509392505050565b600061239c61239784612dbf565b612d42565b9050828152602081018484840111156123b457600080fd5b6123bf84828561304c565b509392505050565b6000813590506123d6816133c1565b92915050565b6000815190506123eb816133c1565b92915050565b600082601f83011261240257600080fd5b813561241284826020860161222b565b91505092915050565b600082601f83011261242c57600080fd5b813561243c8482602086016122b1565b91505092915050565b600082601f83011261245657600080fd5b815161246684826020860161231d565b91505092915050565b60008135905061247e816133d8565b92915050565b600082601f83011261249557600080fd5b81356124a5848260208601612389565b91505092915050565b6000813590506124bd816133ef565b92915050565b6000815190506124d2816133ef565b92915050565b6000602082840312156124ea57600080fd5b60006124f8848285016123dc565b91505092915050565b60006020828403121561251357600080fd5b600082015167ffffffffffffffff81111561252d57600080fd5b61253984828501612445565b91505092915050565b60008060008060008060c0878903121561255b57600080fd5b600061256989828a0161246f565b965050602061257a89828a016123c7565b955050604087013567ffffffffffffffff81111561259757600080fd5b6125a389828a016123f1565b945050606087013567ffffffffffffffff8111156125c057600080fd5b6125cc89828a0161241b565b935050608087013567ffffffffffffffff8111156125e957600080fd5b6125f589828a016123f1565b92505060a087013567ffffffffffffffff81111561261257600080fd5b61261e89828a016123f1565b9150509295509295509295565b60008060006060848603121561264057600080fd5b600061264e8682870161246f565b935050602061265f868287016124ae565b9250506040612670868287016124ae565b9150509250925092565b60006020828403121561268c57600080fd5b600061269a848285016124ae565b91505092915050565b60006126af838361281e565b905092915050565b60006126c383836129a8565b60208301905092915050565b6126d881612ff2565b82525050565b6126e781612f98565b82525050565b6126f681612f86565b82525050565b600061270782612e10565b6127118185612e56565b93508360208202850161272385612df0565b8060005b8581101561275f578484038952815161274085826126a3565b945061274b83612e3c565b925060208a01995050600181019050612727565b50829750879550505050505092915050565b600061277c82612e1b565b6127868185612e67565b935061279183612e00565b8060005b838110156127c25781516127a988826126b7565b97506127b483612e49565b925050600181019050612795565b5085935050505092915050565b6127d881612faa565b82525050565b60006127e982612e26565b6127f38185612e78565b935061280381856020860161305b565b80840191505092915050565b61281881613004565b82525050565b600061282982612e31565b6128338185612e83565b935061284381856020860161305b565b61284c816131f6565b840191505092915050565b600061286282612e31565b61286c8185612e94565b935061287c81856020860161305b565b612885816131f6565b840191505092915050565b600061289d601f83612e94565b91506128a882613207565b602082019050919050565b60006128c0602083612e94565b91506128cb82613230565b602082019050919050565b60006128e3603383612e94565b91506128ee82613259565b604082019050919050565b6000612906602383612e94565b9150612911826132a8565b604082019050919050565b6000612929601283612e94565b9150612934826132f7565b602082019050919050565b600061294c601283612e94565b915061295782613320565b602082019050919050565b600061296f602183612e94565b915061297a82613349565b604082019050919050565b6000612992601f83612e94565b915061299d82613398565b602082019050919050565b6129b181612fe8565b82525050565b6129c081612fe8565b82525050565b60006129d282846127de565b915081905092915050565b60006020820190506129f260008301846126de565b92915050565b6000606082019050612a0d60008301866126de565b612a1a60208301856126de565b612a2760408301846126de565b949350505050565b6000606082019050612a4460008301866126cf565b612a5160208301856126ed565b612a5e60408301846129b7565b949350505050565b6000606082019050612a7b60008301866126ed565b612a8860208301856126cf565b612a9560408301846129b7565b949350505050565b60006020820190508181036000830152612ab781846126fc565b905092915050565b60006040820190508181036000830152612ad98185612857565b9050612ae860208301846126ed565b9392505050565b60006040820190508181036000830152612b098185612857565b9050612b1860208301846129b7565b9392505050565b60006020820190508181036000830152612b3881612890565b9050919050565b60006020820190508181036000830152612b58816128b3565b9050919050565b60006020820190508181036000830152612b78816128d6565b9050919050565b60006020820190508181036000830152612b98816128f9565b9050919050565b60006020820190508181036000830152612bb88161291c565b9050919050565b60006020820190508181036000830152612bd88161293f565b9050919050565b60006020820190508181036000830152612bf881612962565b9050919050565b60006020820190508181036000830152612c1881612985565b9050919050565b6000602082019050612c3460008301846129b7565b92915050565b6000606082019050612c4f60008301866129b7565b8181036020830152612c618185612771565b90508181036040830152612c758184612771565b9050949350505050565b600061010082019050612c95600083018b6129b7565b612ca2602083018a61280f565b612caf60408301896129b7565b612cbc60608301886129b7565b8181036080830152612cce8187612857565b905081810360a0830152612ce28186612857565b9050612cf160c08301856126de565b612cfe60e08301846127cf565b9998505050505050505050565b6000606082019050612d2060008301866129b7565b612d2d60208301856129b7565b612d3a60408301846129b7565b949350505050565b6000612d4c612d5d565b9050612d5882826130c0565b919050565b6000604051905090565b600067ffffffffffffffff821115612d8257612d816131c7565b5b602082029050602081019050919050565b600067ffffffffffffffff821115612dae57612dad6131c7565b5b602082029050602081019050919050565b600067ffffffffffffffff821115612dda57612dd96131c7565b5b612de3826131f6565b9050602081019050919050565b6000819050602082019050919050565b6000819050602082019050919050565b600081519050919050565b600081519050919050565b600081519050919050565b600081519050919050565b6000602082019050919050565b6000602082019050919050565b600082825260208201905092915050565b600082825260208201905092915050565b600081905092915050565b600082825260208201905092915050565b600082825260208201905092915050565b6000612eb082612fe8565b9150612ebb83612fe8565b9250827fffffffffffffffffffffffffffffffffffffffffffffffffffffffffffffffff03821115612ef057612eef61313a565b5b828201905092915050565b6000612f0682612fe8565b9150612f1183612fe8565b925082612f2157612f20613169565b5b828204905092915050565b6000612f3782612fe8565b9150612f4283612fe8565b9250817fffffffffffffffffffffffffffffffffffffffffffffffffffffffffffffffff0483118215151615612f7b57612f7a61313a565b5b828202905092915050565b6000612f9182612fc8565b9050919050565b6000612fa382612fc8565b9050919050565b60008115159050919050565b6000612fc182612f86565b9050919050565b600073ffffffffffffffffffffffffffffffffffffffff82169050919050565b6000819050919050565b6000612ffd82613028565b9050919050565b600061300f82613016565b9050919050565b600061302182612fc8565b9050919050565b60006130338261303a565b9050919050565b600061304582612fc8565b9050919050565b82818337600083830152505050565b60005b8381101561307957808201518184015260208101905061305e565b83811115613088576000848401525b50505050565b600060028204905060018216806130a657607f821691505b602082108114156130ba576130b9613198565b5b50919050565b6130c9826131f6565b810181811067ffffffffffffffff821117156130e8576130e76131c7565b5b80604052505050565b60006130fc82612fe8565b91507fffffffffffffffffffffffffffffffffffffffffffffffffffffffffffffffff82141561312f5761312e61313a565b5b600182019050919050565b7f4e487b7100000000000000000000000000000000000000000000000000000000600052601160045260246000fd5b7f4e487b7100000000000000000000000000000000000000000000000000000000600052601260045260246000fd5b7f4e487b7100000000000000000000000000000000000000000000000000000000600052602260045260246000fd5b7f4e487b7100000000000000000000000000000000000000000000000000000000600052604160045260246000fd5b6000601f19601f8301169050919050565b7f5072696365206d7573742062652067726561746572207468616e207a65726f00600082015250565b7f4f776e6572732063616e277420627579207468656972206f776e206974656d73600082015250565b7f6e6f7420656e6f75676820657468657220746f20636f766572206974656d207060008201527f7269636520616e64206d61726b65742066656500000000000000000000000000602082015250565b7f64656c656761746563616c6c20746f204e465420436f6e74726163742066616960008201527f6c65640000000000000000000000000000000000000000000000000000000000602082015250565b7f4974656d2069736e2774206f6e2073616c650000000000000000000000000000600082015250565b7f6974656d20646f65736e27742065786973740000000000000000000000000000600082015250565b7f7468657265206973206e6f20746f6b656e73205572697320746f20637265617460008201527f6500000000000000000000000000000000000000000000000000000000000000602082015250565b7f5265656e7472616e637947756172643a207265656e7472616e742063616c6c00600082015250565b6133ca81612f86565b81146133d557600080fd5b50565b6133e181612fb6565b81146133ec57600080fd5b50565b6133f881612fe8565b811461340357600080fd5b5056fea26469706673582212208f4d7b66ee6218a13be82732dfc59952aa14b38dcd66e0a301d24117356ea67064736f6c63430008040033",
  "linkReferences": {},
  "deployedLinkReferences": {}
}