{
  "_format": "hh-sol-artifact-1",
  "contractName": "Marketplace",
  "sourceName": "src/solidity/contracts/Marketplace.sol",
  "abi": [
    {
      "inputs": [
        {
          "internalType": "address",
          "name": "_accountOwnerMarketplace",
          "type": "address"
        },
        {
          "internalType": "address",
          "name": "_accountGamerOrganization",
          "type": "address"
        },
        {
          "internalType": "uint256",
          "name": "_feeMarketplacePercent",
          "type": "uint256"
        },
        {
          "internalType": "uint256",
          "name": "_feeGamerOrganizationPercent",
          "type": "uint256"
        },
        {
          "internalType": "uint256",
          "name": "_feeDiamondPercent",
          "type": "uint256"
        },
        {
          "internalType": "uint256",
          "name": "_feeGoldPercent",
          "type": "uint256"
        },
        {
          "internalType": "uint256",
          "name": "_feeSilverPercent",
          "type": "uint256"
        }
      ],
      "stateMutability": "nonpayable",
      "type": "constructor"
    },
    {
      "anonymous": false,
      "inputs": [
        {
          "indexed": false,
          "internalType": "uint256",
          "name": "itemId",
          "type": "uint256"
        },
        {
          "indexed": true,
          "internalType": "address",
          "name": "nft",
          "type": "address"
        },
        {
          "indexed": false,
          "internalType": "uint256",
          "name": "tokenId",
          "type": "uint256"
        },
        {
          "indexed": false,
          "internalType": "uint256",
          "name": "price",
          "type": "uint256"
        },
        {
          "indexed": true,
          "internalType": "address",
          "name": "seller",
          "type": "address"
        },
        {
          "indexed": true,
          "internalType": "address",
          "name": "buyer",
          "type": "address"
        }
      ],
      "name": "Bought",
      "type": "event"
    },
    {
      "anonymous": false,
      "inputs": [
        {
          "indexed": false,
          "internalType": "uint256",
          "name": "itemId",
          "type": "uint256"
        },
        {
          "indexed": true,
          "internalType": "address",
          "name": "nft",
          "type": "address"
        },
        {
          "indexed": false,
          "internalType": "uint256[]",
          "name": "tokenIds",
          "type": "uint256[]"
        },
        {
          "indexed": false,
          "internalType": "uint256[]",
          "name": "prices",
          "type": "uint256[]"
        },
        {
          "indexed": true,
          "internalType": "address",
          "name": "seller",
          "type": "address"
        }
      ],
      "name": "Offered",
      "type": "event"
    },
    {
      "anonymous": false,
      "inputs": [
        {
          "indexed": false,
          "internalType": "uint256",
          "name": "itemId",
          "type": "uint256"
        },
        {
          "indexed": false,
          "internalType": "uint256",
          "name": "tokenId",
          "type": "uint256"
        },
        {
          "indexed": false,
          "internalType": "uint256",
          "name": "price",
          "type": "uint256"
        },
        {
          "indexed": true,
          "internalType": "address",
          "name": "seller",
          "type": "address"
        }
      ],
      "name": "Published",
      "type": "event"
    },
    {
      "inputs": [],
      "name": "accountGamerOrganization",
      "outputs": [
        {
          "internalType": "address payable",
          "name": "",
          "type": "address"
        }
      ],
      "stateMutability": "view",
      "type": "function"
    },
    {
      "inputs": [],
      "name": "accountOwnerMarketplace",
      "outputs": [
        {
          "internalType": "address payable",
          "name": "",
          "type": "address"
        }
      ],
      "stateMutability": "view",
      "type": "function"
    },
    {
      "inputs": [
        {
          "internalType": "uint256",
          "name": "",
          "type": "uint256"
        }
      ],
      "name": "accountsLevels",
      "outputs": [
        {
          "internalType": "address payable",
          "name": "diamond",
          "type": "address"
        },
        {
          "internalType": "address payable",
          "name": "gold",
          "type": "address"
        },
        {
          "internalType": "address payable",
          "name": "silver",
          "type": "address"
        }
      ],
      "stateMutability": "view",
      "type": "function"
    },
    {
      "inputs": [],
      "name": "feeDiamondPercent",
      "outputs": [
        {
          "internalType": "uint256",
          "name": "",
          "type": "uint256"
        }
      ],
      "stateMutability": "view",
      "type": "function"
    },
    {
      "inputs": [],
      "name": "feeGamerOrganizationPercent",
      "outputs": [
        {
          "internalType": "uint256",
          "name": "",
          "type": "uint256"
        }
      ],
      "stateMutability": "view",
      "type": "function"
    },
    {
      "inputs": [],
      "name": "feeGoldPercent",
      "outputs": [
        {
          "internalType": "uint256",
          "name": "",
          "type": "uint256"
        }
      ],
      "stateMutability": "view",
      "type": "function"
    },
    {
      "inputs": [],
      "name": "feeMarketplacePercent",
      "outputs": [
        {
          "internalType": "uint256",
          "name": "",
          "type": "uint256"
        }
      ],
      "stateMutability": "view",
      "type": "function"
    },
    {
      "inputs": [],
      "name": "feeSilverPercent",
      "outputs": [
        {
          "internalType": "uint256",
          "name": "",
          "type": "uint256"
        }
      ],
      "stateMutability": "view",
      "type": "function"
    },
    {
      "inputs": [
        {
          "internalType": "uint256",
          "name": "_itemId",
          "type": "uint256"
        }
      ],
      "name": "getTotalPrice",
      "outputs": [
        {
          "internalType": "uint256",
          "name": "",
          "type": "uint256"
        }
      ],
      "stateMutability": "view",
      "type": "function"
    },
    {
      "inputs": [],
      "name": "itemCount",
      "outputs": [
        {
          "internalType": "uint256",
          "name": "",
          "type": "uint256"
        }
      ],
      "stateMutability": "view",
      "type": "function"
    },
    {
      "inputs": [
        {
          "internalType": "uint256",
          "name": "",
          "type": "uint256"
        }
      ],
      "name": "itemCountOfPurchases",
      "outputs": [
        {
          "internalType": "uint256",
          "name": "",
          "type": "uint256"
        }
      ],
      "stateMutability": "view",
      "type": "function"
    },
    {
      "inputs": [
        {
          "internalType": "uint256",
          "name": "",
          "type": "uint256"
        }
      ],
      "name": "items",
      "outputs": [
        {
          "internalType": "uint256",
          "name": "itemId",
          "type": "uint256"
        },
        {
          "internalType": "contract IERC721",
          "name": "nft",
          "type": "address"
        },
        {
          "internalType": "uint256",
          "name": "tokenId",
          "type": "uint256"
        },
        {
          "internalType": "uint256",
          "name": "price",
          "type": "uint256"
        },
        {
          "internalType": "string",
          "name": "nick",
          "type": "string"
        },
        {
          "internalType": "string",
          "name": "team",
          "type": "string"
        },
        {
          "internalType": "address payable",
          "name": "seller",
          "type": "address"
        },
        {
          "internalType": "bool",
          "name": "onSale",
          "type": "bool"
        }
      ],
      "stateMutability": "view",
      "type": "function"
    },
    {
      "inputs": [
        {
          "internalType": "contract IERC721",
          "name": "_nft",
          "type": "address"
        },
        {
          "internalType": "contract NFT",
          "name": "_nftAddress",
          "type": "address"
        },
        {
          "internalType": "string[]",
          "name": "_tokenURIS",
          "type": "string[]"
        },
        {
          "internalType": "uint256[]",
          "name": "_prices",
          "type": "uint256[]"
        },
        {
          "internalType": "string[]",
          "name": "_nicks",
          "type": "string[]"
        },
        {
          "internalType": "string[]",
          "name": "_teams",
          "type": "string[]"
        }
      ],
      "name": "makeItem",
      "outputs": [],
      "stateMutability": "nonpayable",
      "type": "function"
    },
    {
      "inputs": [
        {
          "internalType": "contract IERC721",
          "name": "_nft",
          "type": "address"
        },
        {
          "internalType": "uint256",
          "name": "_tokenId",
          "type": "uint256"
        },
        {
          "internalType": "uint256",
          "name": "_price",
          "type": "uint256"
        }
      ],
      "name": "publishItem",
      "outputs": [],
      "stateMutability": "nonpayable",
      "type": "function"
    },
    {
      "inputs": [
        {
          "internalType": "uint256",
          "name": "_itemId",
          "type": "uint256"
        }
      ],
      "name": "purchaseItem",
      "outputs": [],
      "stateMutability": "payable",
      "type": "function"
    }
  ],
  "bytecode": "0x6101606040523480156200001257600080fd5b50604051620031f6380380620031f6833981810160405281019062000038919062000155565b600160008190555086600160006101000a81548173ffffffffffffffffffffffffffffffffffffffff021916908373ffffffffffffffffffffffffffffffffffffffff1602179055508673ffffffffffffffffffffffffffffffffffffffff1660808173ffffffffffffffffffffffffffffffffffffffff1660601b815250508573ffffffffffffffffffffffffffffffffffffffff1660a08173ffffffffffffffffffffffffffffffffffffffff1660601b815250508460c081815250508360e081815250508261010081815250508161012081815250508061014081815250505050505050505062000274565b600081519050620001388162000240565b92915050565b6000815190506200014f816200025a565b92915050565b600080600080600080600060e0888a0312156200017157600080fd5b6000620001818a828b0162000127565b9750506020620001948a828b0162000127565b9650506040620001a78a828b016200013e565b9550506060620001ba8a828b016200013e565b9450506080620001cd8a828b016200013e565b93505060a0620001e08a828b016200013e565b92505060c0620001f38a828b016200013e565b91505092959891949750929550565b60006200020f8262000216565b9050919050565b600073ffffffffffffffffffffffffffffffffffffffff82169050919050565b6000819050919050565b6200024b8162000202565b81146200025757600080fd5b50565b620002658162000236565b81146200027157600080fd5b50565b60805160601c60a05160601c60c05160e051610100516101205161014051612e8e6200036860003960008181610b5d015281816110ad0152818161197701528181611a210152611acb0152600081816104c001528181611046015281816110ce0152818161180201526118ac0152600081816104120152818161100a01528181611067015281816110ef01526117370152600081816103ca01528181610fa601526116720152600081816104e401528181610fd201526115de0152600081816103ee01526116350152600081816107520152818161094c01528181610ac1015281816115a10152611cbd0152612e8e6000f3fe6080604052600436106100e85760003560e01c80636bfb0d011161008a578063bfb231d211610059578063bfb231d2146102e8578063ca7dd3751461032c578063d38ea5bf14610369578063e3ab781b14610385576100e8565b80636bfb0d0114610240578063790802021461026b57806385de5ecc146102945780639e555090146102bf576100e8565b8063239bbf5b116100c6578063239bbf5b146101805780633b1d198c146101ab578063427a0b22146101ea578063662fc08814610215576100e8565b806308a31216146100ed578063158cb02a1461012a5780631f5044a714610155575b600080fd5b3480156100f957600080fd5b50610114600480360381019061010f91906121f3565b6103b0565b60405161012191906126ad565b60405180910390f35b34801561013657600080fd5b5061013f6103c8565b60405161014c91906126ad565b60405180910390f35b34801561016157600080fd5b5061016a6103ec565b60405161017791906124eb565b60405180910390f35b34801561018c57600080fd5b50610195610410565b6040516101a291906126ad565b60405180910390f35b3480156101b757600080fd5b506101d260048036038101906101cd91906121f3565b610434565b6040516101e193929190612506565b60405180910390f35b3480156101f657600080fd5b506101ff6104be565b60405161020c91906126ad565b60405180910390f35b34801561022157600080fd5b5061022a6104e2565b60405161023791906126ad565b60405180910390f35b34801561024c57600080fd5b50610255610506565b60405161026291906126ad565b60405180910390f35b34801561027757600080fd5b50610292600480360381019061028d91906120bb565b61050c565b005b3480156102a057600080fd5b506102a9610b5b565b6040516102b691906126ad565b60405180910390f35b3480156102cb57600080fd5b506102e660048036038101906102e191906121a4565b610b7f565b005b3480156102f457600080fd5b5061030f600480360381019061030a91906121f3565b610de4565b60405161032398979695949392919061270d565b60405180910390f35b34801561033857600080fd5b50610353600480360381019061034e91906121f3565b610f89565b60405161036091906126ad565b60405180910390f35b610383600480360381019061037e91906121f3565b611175565b005b34801561039157600080fd5b5061039a611cbb565b6040516103a791906124eb565b60405180910390f35b60036020528060005260406000206000915090505481565b7f000000000000000000000000000000000000000000000000000000000000000081565b7f000000000000000000000000000000000000000000000000000000000000000081565b7f000000000000000000000000000000000000000000000000000000000000000081565b60056020528060005260406000206000915090508060000160009054906101000a900473ffffffffffffffffffffffffffffffffffffffff16908060010160009054906101000a900473ffffffffffffffffffffffffffffffffffffffff16908060020160009054906101000a900473ffffffffffffffffffffffffffffffffffffffff16905083565b7f000000000000000000000000000000000000000000000000000000000000000081565b7f000000000000000000000000000000000000000000000000000000000000000081565b60025481565b600160009054906101000a900473ffffffffffffffffffffffffffffffffffffffff1673ffffffffffffffffffffffffffffffffffffffff163373ffffffffffffffffffffffffffffffffffffffff161461056657600080fd5b600260005414156105ac576040517f08c379a00000000000000000000000000000000000000000000000000000000081526004016105a39061268d565b60405180910390fd5b600260008190555060008451116105f8576040517f08c379a00000000000000000000000000000000000000000000000000000000081526004016105ef9061266d565b60405180910390fd5b60008573ffffffffffffffffffffffffffffffffffffffff16635768f271866040518263ffffffff1660e01b815260040161063391906125ab565b600060405180830381600087803b15801561064d57600080fd5b505af1158015610661573d6000803e3d6000fd5b505050506040513d6000823e3d601f19601f8201168201806040525081019061068a919061207a565b905060005b8151811015610abe5760008582815181106106d3577f4e487b7100000000000000000000000000000000000000000000000000000000600052603260045260246000fd5b60200260200101511161071b576040517f08c379a0000000000000000000000000000000000000000000000000000000008152600401610712906125cd565b60405180910390fd5b6002600081548092919061072e90612b7b565b91905055508773ffffffffffffffffffffffffffffffffffffffff166323b872dd307f00000000000000000000000000000000000000000000000000000000000000008585815181106107aa577f4e487b7100000000000000000000000000000000000000000000000000000000600052603260045260246000fd5b60200260200101516040518463ffffffff1660e01b81526004016107d093929190612574565b600060405180830381600087803b1580156107ea57600080fd5b505af11580156107fe573d6000803e3d6000fd5b5050505060405180610100016040528060025481526020018973ffffffffffffffffffffffffffffffffffffffff16815260200183838151811061086b577f4e487b7100000000000000000000000000000000000000000000000000000000600052603260045260246000fd5b602002602001015181526020018683815181106108b1577f4e487b7100000000000000000000000000000000000000000000000000000000600052603260045260246000fd5b602002602001015181526020018583815181106108f7577f4e487b7100000000000000000000000000000000000000000000000000000000600052603260045260246000fd5b6020026020010151815260200184838151811061093d577f4e487b7100000000000000000000000000000000000000000000000000000000600052603260045260246000fd5b602002602001015181526020017f000000000000000000000000000000000000000000000000000000000000000073ffffffffffffffffffffffffffffffffffffffff168152602001600115158152506004600060025481526020019081526020016000206000820151816000015560208201518160010160006101000a81548173ffffffffffffffffffffffffffffffffffffffff021916908373ffffffffffffffffffffffffffffffffffffffff16021790555060408201518160020155606082015181600301556080820151816004019080519060200190610a23929190611d01565b5060a0820151816005019080519060200190610a40929190611d01565b5060c08201518160060160006101000a81548173ffffffffffffffffffffffffffffffffffffffff021916908373ffffffffffffffffffffffffffffffffffffffff16021790555060e08201518160060160146101000a81548160ff0219169083151502179055509050508080610ab690612b7b565b91505061068f565b507f000000000000000000000000000000000000000000000000000000000000000073ffffffffffffffffffffffffffffffffffffffff168773ffffffffffffffffffffffffffffffffffffffff167fa7a25a41bf2dd955eec8125fce9de171ecd45961064d3c59d983c026cbbcfd806002548488604051610b42939291906126c8565b60405180910390a3506001600081905550505050505050565b7f000000000000000000000000000000000000000000000000000000000000000081565b60026000541415610bc5576040517f08c379a0000000000000000000000000000000000000000000000000000000008152600401610bbc9061268d565b60405180910390fd5b60026000819055508273ffffffffffffffffffffffffffffffffffffffff16636352211e836040518263ffffffff1660e01b8152600401610c0691906126ad565b60206040518083038186803b158015610c1e57600080fd5b505afa158015610c32573d6000803e3d6000fd5b505050506040513d601f19601f82011682018060405250810190610c569190612051565b73ffffffffffffffffffffffffffffffffffffffff163373ffffffffffffffffffffffffffffffffffffffff1614610c8d57600080fd5b60008111610cd0576040517f08c379a0000000000000000000000000000000000000000000000000000000008152600401610cc7906125cd565b60405180910390fd5b336004600084815260200190815260200160002060060160006101000a81548173ffffffffffffffffffffffffffffffffffffffff021916908373ffffffffffffffffffffffffffffffffffffffff16021790555080600460008481526020019081526020016000206003018190555060016004600084815260200190815260200160002060060160146101000a81548160ff0219169083151502179055503373ffffffffffffffffffffffffffffffffffffffff167f342e849466ccf2dfb594dafa5f75bbf8f84cc6fa4e0c6ca1620bfcaeeabc623260046000858152602001908152602001600020600001548484604051610dcf93929190612799565b60405180910390a26001600081905550505050565b60046020528060005260406000206000915090508060000154908060010160009054906101000a900473ffffffffffffffffffffffffffffffffffffffff1690806002015490806003015490806004018054610e3f90612b18565b80601f0160208091040260200160405190810160405280929190818152602001828054610e6b90612b18565b8015610eb85780601f10610e8d57610100808354040283529160200191610eb8565b820191906000526020600020905b815481529060010190602001808311610e9b57829003601f168201915b505050505090806005018054610ecd90612b18565b80601f0160208091040260200160405190810160405280929190818152602001828054610ef990612b18565b8015610f465780601f10610f1b57610100808354040283529160200191610f46565b820191906000526020600020905b815481529060010190602001808311610f2957829003601f168201915b5050505050908060060160009054906101000a900473ffffffffffffffffffffffffffffffffffffffff16908060060160149054906101000a900460ff16905088565b6000806003600084815260200190815260200160002054905060007f000000000000000000000000000000000000000000000000000000000000000090506000821115610fff577f000000000000000000000000000000000000000000000000000000000000000081610ffc919061291d565b90505b600382141561103b577f000000000000000000000000000000000000000000000000000000000000000081611034919061291d565b9050611132565b60048214156110a2577f00000000000000000000000000000000000000000000000000000000000000007f0000000000000000000000000000000000000000000000000000000000000000611090919061291d565b8161109b919061291d565b9050611131565b6005821415611130577f00000000000000000000000000000000000000000000000000000000000000007f00000000000000000000000000000000000000000000000000000000000000007f0000000000000000000000000000000000000000000000000000000000000000611118919061291d565b611122919061291d565b8161112d919061291d565b90505b5b5b6064816064611141919061291d565b600460008781526020019081526020016000206003015461116291906129a4565b61116c9190612973565b92505050919050565b600260005414156111bb576040517f08c379a00000000000000000000000000000000000000000000000000000000081526004016111b29061268d565b60405180910390fd5b600260008190555060006111ce82610f89565b90506000821180156111e257506002548211155b611221576040517f08c379a00000000000000000000000000000000000000000000000000000000081526004016112189061264d565b60405180910390fd5b80341015611264576040517f08c379a000000000000000000000000000000000000000000000000000000000815260040161125b9061260d565b60405180910390fd5b600115156004600084815260200190815260200160002060060160149054906101000a900460ff161515146112ce576040517f08c379a00000000000000000000000000000000000000000000000000000000081526004016112c59061262d565b60405180910390fd5b3373ffffffffffffffffffffffffffffffffffffffff166004600084815260200190815260200160002060060160009054906101000a900473ffffffffffffffffffffffffffffffffffffffff1673ffffffffffffffffffffffffffffffffffffffff161415611373576040517f08c379a000000000000000000000000000000000000000000000000000000000815260040161136a906125ed565b60405180910390fd5b6000600360008481526020019081526020016000205414156113e957336005600084815260200190815260200160002060000160006101000a81548173ffffffffffffffffffffffffffffffffffffffff021916908373ffffffffffffffffffffffffffffffffffffffff1602179055506114d3565b60016003600084815260200190815260200160002054141561145f57336005600084815260200190815260200160002060010160006101000a81548173ffffffffffffffffffffffffffffffffffffffff021916908373ffffffffffffffffffffffffffffffffffffffff1602179055506114d2565b6002600360008481526020019081526020016000205414156114d157336005600084815260200190815260200160002060020160006101000a81548173ffffffffffffffffffffffffffffffffffffffff021916908373ffffffffffffffffffffffffffffffffffffffff1602179055505b5b5b60006004600084815260200190815260200160002090508060060160009054906101000a900473ffffffffffffffffffffffffffffffffffffffff1673ffffffffffffffffffffffffffffffffffffffff166108fc82600301549081150290604051600060405180830381858888f19350505050158015611558573d6000803e3d6000fd5b5060008160060160146101000a81548160ff02191690831515021790555060036000848152602001908152602001600020600081548092919061159a90612b7b565b91905055507f000000000000000000000000000000000000000000000000000000000000000073ffffffffffffffffffffffffffffffffffffffff166108fc6116077f00000000000000000000000000000000000000000000000000000000000000008460030154611cdf565b9081150290604051600060405180830381858888f19350505050158015611632573d6000803e3d6000fd5b507f000000000000000000000000000000000000000000000000000000000000000073ffffffffffffffffffffffffffffffffffffffff166108fc61169b7f00000000000000000000000000000000000000000000000000000000000000008460030154611cdf565b9081150290604051600060405180830381858888f193505050501580156116c6573d6000803e3d6000fd5b506003806000858152602001908152602001600020541415611791576005600084815260200190815260200160002060000160009054906101000a900473ffffffffffffffffffffffffffffffffffffffff1673ffffffffffffffffffffffffffffffffffffffff166108fc6117607f00000000000000000000000000000000000000000000000000000000000000008460030154611cdf565b9081150290604051600060405180830381858888f1935050505015801561178b573d6000803e3d6000fd5b50611b23565b600460036000858152602001908152602001600020541415611906576005600084815260200190815260200160002060000160009054906101000a900473ffffffffffffffffffffffffffffffffffffffff1673ffffffffffffffffffffffffffffffffffffffff166108fc61182b7f00000000000000000000000000000000000000000000000000000000000000008460030154611cdf565b9081150290604051600060405180830381858888f19350505050158015611856573d6000803e3d6000fd5b506005600084815260200190815260200160002060010160009054906101000a900473ffffffffffffffffffffffffffffffffffffffff1673ffffffffffffffffffffffffffffffffffffffff166108fc6118d57f00000000000000000000000000000000000000000000000000000000000000008460030154611cdf565b9081150290604051600060405180830381858888f19350505050158015611900573d6000803e3d6000fd5b50611b22565b600560036000858152602001908152602001600020541415611b21576005600084815260200190815260200160002060000160009054906101000a900473ffffffffffffffffffffffffffffffffffffffff1673ffffffffffffffffffffffffffffffffffffffff166108fc6119a07f00000000000000000000000000000000000000000000000000000000000000008460030154611cdf565b9081150290604051600060405180830381858888f193505050501580156119cb573d6000803e3d6000fd5b506005600084815260200190815260200160002060010160009054906101000a900473ffffffffffffffffffffffffffffffffffffffff1673ffffffffffffffffffffffffffffffffffffffff166108fc611a4a7f00000000000000000000000000000000000000000000000000000000000000008460030154611cdf565b9081150290604051600060405180830381858888f19350505050158015611a75573d6000803e3d6000fd5b506005600084815260200190815260200160002060020160009054906101000a900473ffffffffffffffffffffffffffffffffffffffff1673ffffffffffffffffffffffffffffffffffffffff166108fc611af47f00000000000000000000000000000000000000000000000000000000000000008460030154611cdf565b9081150290604051600060405180830381858888f19350505050158015611b1f573d6000803e3d6000fd5b505b5b5b8060010160009054906101000a900473ffffffffffffffffffffffffffffffffffffffff1673ffffffffffffffffffffffffffffffffffffffff166323b872dd8260060160009054906101000a900473ffffffffffffffffffffffffffffffffffffffff163384600201546040518463ffffffff1660e01b8152600401611bac9392919061253d565b600060405180830381600087803b158015611bc657600080fd5b505af1158015611bda573d6000803e3d6000fd5b505050503373ffffffffffffffffffffffffffffffffffffffff168160060160009054906101000a900473ffffffffffffffffffffffffffffffffffffffff1673ffffffffffffffffffffffffffffffffffffffff168260010160009054906101000a900473ffffffffffffffffffffffffffffffffffffffff1673ffffffffffffffffffffffffffffffffffffffff167f8b4c9c8a607d67b321582dd8461041b1dc2ceeca70c8b7f37f8e02095cf2e76d8685600201548660030154604051611ca693929190612799565b60405180910390a45050600160008190555050565b7f000000000000000000000000000000000000000000000000000000000000000081565b600060648284611cef91906129a4565b611cf99190612973565b905092915050565b828054611d0d90612b18565b90600052602060002090601f016020900481019282611d2f5760008555611d76565b82601f10611d4857805160ff1916838001178555611d76565b82800160010185558215611d76579182015b82811115611d75578251825591602001919060010190611d5a565b5b509050611d839190611d87565b5090565b5b80821115611da0576000816000905550600101611d88565b5090565b6000611db7611db2846127f5565b6127d0565b90508083825260208201905082856020860282011115611dd657600080fd5b60005b85811015611e2057813567ffffffffffffffff811115611df857600080fd5b808601611e058982611ffd565b85526020850194506020840193505050600181019050611dd9565b5050509392505050565b6000611e3d611e3884612821565b6127d0565b90508083825260208201905082856020860282011115611e5c57600080fd5b60005b85811015611e8c5781611e728882612027565b845260208401935060208301925050600181019050611e5f565b5050509392505050565b6000611ea9611ea484612821565b6127d0565b90508083825260208201905082856020860282011115611ec857600080fd5b60005b85811015611ef85781611ede888261203c565b845260208401935060208301925050600181019050611ecb565b5050509392505050565b6000611f15611f108461284d565b6127d0565b905082815260208101848484011115611f2d57600080fd5b611f38848285612ad6565b509392505050565b600081519050611f4f81612dfc565b92915050565b600082601f830112611f6657600080fd5b8135611f76848260208601611da4565b91505092915050565b600082601f830112611f9057600080fd5b8135611fa0848260208601611e2a565b91505092915050565b600082601f830112611fba57600080fd5b8151611fca848260208601611e96565b91505092915050565b600081359050611fe281612e13565b92915050565b600081359050611ff781612e2a565b92915050565b600082601f83011261200e57600080fd5b813561201e848260208601611f02565b91505092915050565b60008135905061203681612e41565b92915050565b60008151905061204b81612e41565b92915050565b60006020828403121561206357600080fd5b600061207184828501611f40565b91505092915050565b60006020828403121561208c57600080fd5b600082015167ffffffffffffffff8111156120a657600080fd5b6120b284828501611fa9565b91505092915050565b60008060008060008060c087890312156120d457600080fd5b60006120e289828a01611fd3565b96505060206120f389828a01611fe8565b955050604087013567ffffffffffffffff81111561211057600080fd5b61211c89828a01611f55565b945050606087013567ffffffffffffffff81111561213957600080fd5b61214589828a01611f7f565b935050608087013567ffffffffffffffff81111561216257600080fd5b61216e89828a01611f55565b92505060a087013567ffffffffffffffff81111561218b57600080fd5b61219789828a01611f55565b9150509295509295509295565b6000806000606084860312156121b957600080fd5b60006121c786828701611fd3565b93505060206121d886828701612027565b92505060406121e986828701612027565b9150509250925092565b60006020828403121561220557600080fd5b600061221384828501612027565b91505092915050565b60006122288383612366565b905092915050565b600061223c83836124cd565b60208301905092915050565b61225181612a7c565b82525050565b61226081612a10565b82525050565b61226f816129fe565b82525050565b60006122808261289e565b61228a81856128d9565b93508360208202850161229c8561287e565b8060005b858110156122d857848403895281516122b9858261221c565b94506122c4836128bf565b925060208a019950506001810190506122a0565b50829750879550505050505092915050565b60006122f5826128a9565b6122ff81856128ea565b935061230a8361288e565b8060005b8381101561233b5781516123228882612230565b975061232d836128cc565b92505060018101905061230e565b5085935050505092915050565b61235181612a22565b82525050565b61236081612a8e565b82525050565b6000612371826128b4565b61237b81856128fb565b935061238b818560208601612ae5565b61239481612c80565b840191505092915050565b60006123aa826128b4565b6123b4818561290c565b93506123c4818560208601612ae5565b6123cd81612c80565b840191505092915050565b60006123e5601f8361290c565b91506123f082612c91565b602082019050919050565b600061240860208361290c565b915061241382612cba565b602082019050919050565b600061242b60338361290c565b915061243682612ce3565b604082019050919050565b600061244e60128361290c565b915061245982612d32565b602082019050919050565b600061247160128361290c565b915061247c82612d5b565b602082019050919050565b600061249460218361290c565b915061249f82612d84565b604082019050919050565b60006124b7601f8361290c565b91506124c282612dd3565b602082019050919050565b6124d681612a72565b82525050565b6124e581612a72565b82525050565b60006020820190506125006000830184612257565b92915050565b600060608201905061251b6000830186612257565b6125286020830185612257565b6125356040830184612257565b949350505050565b60006060820190506125526000830186612248565b61255f6020830185612266565b61256c60408301846124dc565b949350505050565b60006060820190506125896000830186612266565b6125966020830185612248565b6125a360408301846124dc565b949350505050565b600060208201905081810360008301526125c58184612275565b905092915050565b600060208201905081810360008301526125e6816123d8565b9050919050565b60006020820190508181036000830152612606816123fb565b9050919050565b600060208201905081810360008301526126268161241e565b9050919050565b6000602082019050818103600083015261264681612441565b9050919050565b6000602082019050818103600083015261266681612464565b9050919050565b6000602082019050818103600083015261268681612487565b9050919050565b600060208201905081810360008301526126a6816124aa565b9050919050565b60006020820190506126c260008301846124dc565b92915050565b60006060820190506126dd60008301866124dc565b81810360208301526126ef81856122ea565b9050818103604083015261270381846122ea565b9050949350505050565b600061010082019050612723600083018b6124dc565b612730602083018a612357565b61273d60408301896124dc565b61274a60608301886124dc565b818103608083015261275c818761239f565b905081810360a0830152612770818661239f565b905061277f60c0830185612257565b61278c60e0830184612348565b9998505050505050505050565b60006060820190506127ae60008301866124dc565b6127bb60208301856124dc565b6127c860408301846124dc565b949350505050565b60006127da6127eb565b90506127e68282612b4a565b919050565b6000604051905090565b600067ffffffffffffffff8211156128105761280f612c51565b5b602082029050602081019050919050565b600067ffffffffffffffff82111561283c5761283b612c51565b5b602082029050602081019050919050565b600067ffffffffffffffff82111561286857612867612c51565b5b61287182612c80565b9050602081019050919050565b6000819050602082019050919050565b6000819050602082019050919050565b600081519050919050565b600081519050919050565b600081519050919050565b6000602082019050919050565b6000602082019050919050565b600082825260208201905092915050565b600082825260208201905092915050565b600082825260208201905092915050565b600082825260208201905092915050565b600061292882612a72565b915061293383612a72565b9250827fffffffffffffffffffffffffffffffffffffffffffffffffffffffffffffffff0382111561296857612967612bc4565b5b828201905092915050565b600061297e82612a72565b915061298983612a72565b92508261299957612998612bf3565b5b828204905092915050565b60006129af82612a72565b91506129ba83612a72565b9250817fffffffffffffffffffffffffffffffffffffffffffffffffffffffffffffffff04831182151516156129f3576129f2612bc4565b5b828202905092915050565b6000612a0982612a52565b9050919050565b6000612a1b82612a52565b9050919050565b60008115159050919050565b6000612a39826129fe565b9050919050565b6000612a4b826129fe565b9050919050565b600073ffffffffffffffffffffffffffffffffffffffff82169050919050565b6000819050919050565b6000612a8782612ab2565b9050919050565b6000612a9982612aa0565b9050919050565b6000612aab82612a52565b9050919050565b6000612abd82612ac4565b9050919050565b6000612acf82612a52565b9050919050565b82818337600083830152505050565b60005b83811015612b03578082015181840152602081019050612ae8565b83811115612b12576000848401525b50505050565b60006002820490506001821680612b3057607f821691505b60208210811415612b4457612b43612c22565b5b50919050565b612b5382612c80565b810181811067ffffffffffffffff82111715612b7257612b71612c51565b5b80604052505050565b6000612b8682612a72565b91507fffffffffffffffffffffffffffffffffffffffffffffffffffffffffffffffff821415612bb957612bb8612bc4565b5b600182019050919050565b7f4e487b7100000000000000000000000000000000000000000000000000000000600052601160045260246000fd5b7f4e487b7100000000000000000000000000000000000000000000000000000000600052601260045260246000fd5b7f4e487b7100000000000000000000000000000000000000000000000000000000600052602260045260246000fd5b7f4e487b7100000000000000000000000000000000000000000000000000000000600052604160045260246000fd5b6000601f19601f8301169050919050565b7f5072696365206d7573742062652067726561746572207468616e207a65726f00600082015250565b7f4f776e6572732063616e277420627579207468656972206f776e206974656d73600082015250565b7f6e6f7420656e6f75676820657468657220746f20636f766572206974656d207060008201527f7269636520616e64206d61726b65742066656500000000000000000000000000602082015250565b7f4974656d2069736e2774206f6e2073616c650000000000000000000000000000600082015250565b7f6974656d20646f65736e27742065786973740000000000000000000000000000600082015250565b7f7468657265206973206e6f20746f6b656e73205572697320746f20637265617460008201527f6500000000000000000000000000000000000000000000000000000000000000602082015250565b7f5265656e7472616e637947756172643a207265656e7472616e742063616c6c00600082015250565b612e05816129fe565b8114612e1057600080fd5b50565b612e1c81612a2e565b8114612e2757600080fd5b50565b612e3381612a40565b8114612e3e57600080fd5b50565b612e4a81612a72565b8114612e5557600080fd5b5056fea2646970667358221220af63aab80dd0ad923159ece9aca7130beafbf6549998c223600af2043523ec4f64736f6c63430008040033",
  "linkReferences": {},
  "deployedLinkReferences": {}
}