{
  "_format": "hh-sol-artifact-1",
  "contractName": "Marketplace",
  "sourceName": "src/solidity/contracts/Marketplace.sol",
  "abi": [
    {
      "inputs": [
        {
          "internalType": "address",
          "name": "_accountMarketplace",
          "type": "address"
        },
        {
          "internalType": "address",
          "name": "_accountGamerOrganization",
          "type": "address"
        },
        {
          "internalType": "uint256",
          "name": "_feeMarketplacePercent",
          "type": "uint256"
        },
        {
          "internalType": "uint256",
          "name": "_feeGamerOrganizationPercent",
          "type": "uint256"
        },
        {
          "internalType": "uint256",
          "name": "_feeDiamondPercent",
          "type": "uint256"
        },
        {
          "internalType": "uint256",
          "name": "_feeGoldPercent",
          "type": "uint256"
        },
        {
          "internalType": "uint256",
          "name": "_feeSilverPercent",
          "type": "uint256"
        }
      ],
      "stateMutability": "nonpayable",
      "type": "constructor"
    },
    {
      "anonymous": false,
      "inputs": [
        {
          "indexed": false,
          "internalType": "uint256",
          "name": "itemId",
          "type": "uint256"
        },
        {
          "indexed": true,
          "internalType": "address",
          "name": "nft",
          "type": "address"
        },
        {
          "indexed": false,
          "internalType": "uint256",
          "name": "tokenId",
          "type": "uint256"
        },
        {
          "indexed": false,
          "internalType": "uint256",
          "name": "price",
          "type": "uint256"
        },
        {
          "indexed": true,
          "internalType": "address",
          "name": "seller",
          "type": "address"
        },
        {
          "indexed": true,
          "internalType": "address",
          "name": "buyer",
          "type": "address"
        }
      ],
      "name": "Bought",
      "type": "event"
    },
    {
      "anonymous": false,
      "inputs": [
        {
          "indexed": false,
          "internalType": "uint256",
          "name": "itemId",
          "type": "uint256"
        },
        {
          "indexed": true,
          "internalType": "address",
          "name": "nft",
          "type": "address"
        },
        {
          "indexed": false,
          "internalType": "uint256[]",
          "name": "tokenIds",
          "type": "uint256[]"
        },
        {
          "indexed": false,
          "internalType": "uint256[]",
          "name": "prices",
          "type": "uint256[]"
        },
        {
          "indexed": true,
          "internalType": "address",
          "name": "seller",
          "type": "address"
        }
      ],
      "name": "Offered",
      "type": "event"
    },
    {
      "anonymous": false,
      "inputs": [
        {
          "indexed": false,
          "internalType": "uint256",
          "name": "itemId",
          "type": "uint256"
        },
        {
          "indexed": false,
          "internalType": "uint256",
          "name": "tokenId",
          "type": "uint256"
        },
        {
          "indexed": false,
          "internalType": "uint256",
          "name": "price",
          "type": "uint256"
        },
        {
          "indexed": true,
          "internalType": "address",
          "name": "seller",
          "type": "address"
        }
      ],
      "name": "Published",
      "type": "event"
    },
    {
      "inputs": [],
      "name": "accountGamerOrganization",
      "outputs": [
        {
          "internalType": "address payable",
          "name": "",
          "type": "address"
        }
      ],
      "stateMutability": "view",
      "type": "function"
    },
    {
      "inputs": [],
      "name": "accountMarketplace",
      "outputs": [
        {
          "internalType": "address payable",
          "name": "",
          "type": "address"
        }
      ],
      "stateMutability": "view",
      "type": "function"
    },
    {
      "inputs": [
        {
          "internalType": "uint256",
          "name": "",
          "type": "uint256"
        }
      ],
      "name": "accountsLevels",
      "outputs": [
        {
          "internalType": "address payable",
          "name": "diamond",
          "type": "address"
        },
        {
          "internalType": "address payable",
          "name": "gold",
          "type": "address"
        },
        {
          "internalType": "address payable",
          "name": "silver",
          "type": "address"
        }
      ],
      "stateMutability": "view",
      "type": "function"
    },
    {
      "inputs": [],
      "name": "feeDiamondPercent",
      "outputs": [
        {
          "internalType": "uint256",
          "name": "",
          "type": "uint256"
        }
      ],
      "stateMutability": "view",
      "type": "function"
    },
    {
      "inputs": [],
      "name": "feeGamerOrganizationPercent",
      "outputs": [
        {
          "internalType": "uint256",
          "name": "",
          "type": "uint256"
        }
      ],
      "stateMutability": "view",
      "type": "function"
    },
    {
      "inputs": [],
      "name": "feeGoldPercent",
      "outputs": [
        {
          "internalType": "uint256",
          "name": "",
          "type": "uint256"
        }
      ],
      "stateMutability": "view",
      "type": "function"
    },
    {
      "inputs": [],
      "name": "feeMarketplacePercent",
      "outputs": [
        {
          "internalType": "uint256",
          "name": "",
          "type": "uint256"
        }
      ],
      "stateMutability": "view",
      "type": "function"
    },
    {
      "inputs": [],
      "name": "feeSilverPercent",
      "outputs": [
        {
          "internalType": "uint256",
          "name": "",
          "type": "uint256"
        }
      ],
      "stateMutability": "view",
      "type": "function"
    },
    {
      "inputs": [
        {
          "internalType": "uint256",
          "name": "_itemId",
          "type": "uint256"
        }
      ],
      "name": "getTotalPrice",
      "outputs": [
        {
          "internalType": "uint256",
          "name": "",
          "type": "uint256"
        }
      ],
      "stateMutability": "view",
      "type": "function"
    },
    {
      "inputs": [],
      "name": "itemCount",
      "outputs": [
        {
          "internalType": "uint256",
          "name": "",
          "type": "uint256"
        }
      ],
      "stateMutability": "view",
      "type": "function"
    },
    {
      "inputs": [
        {
          "internalType": "uint256",
          "name": "",
          "type": "uint256"
        }
      ],
      "name": "itemCountOfPurchases",
      "outputs": [
        {
          "internalType": "uint256",
          "name": "",
          "type": "uint256"
        }
      ],
      "stateMutability": "view",
      "type": "function"
    },
    {
      "inputs": [
        {
          "internalType": "uint256",
          "name": "",
          "type": "uint256"
        }
      ],
      "name": "items",
      "outputs": [
        {
          "internalType": "uint256",
          "name": "itemId",
          "type": "uint256"
        },
        {
          "internalType": "contract IERC721",
          "name": "nft",
          "type": "address"
        },
        {
          "internalType": "uint256",
          "name": "tokenId",
          "type": "uint256"
        },
        {
          "internalType": "uint256",
          "name": "price",
          "type": "uint256"
        },
        {
          "internalType": "address payable",
          "name": "seller",
          "type": "address"
        },
        {
          "internalType": "bool",
          "name": "onSale",
          "type": "bool"
        }
      ],
      "stateMutability": "view",
      "type": "function"
    },
    {
      "inputs": [
        {
          "internalType": "contract IERC721",
          "name": "_nft",
          "type": "address"
        },
        {
          "internalType": "uint256[]",
          "name": "_tokensId",
          "type": "uint256[]"
        },
        {
          "internalType": "uint256[]",
          "name": "_prices",
          "type": "uint256[]"
        }
      ],
      "name": "makeItem",
      "outputs": [],
      "stateMutability": "nonpayable",
      "type": "function"
    },
    {
      "inputs": [
        {
          "internalType": "contract IERC721",
          "name": "_nft",
          "type": "address"
        },
        {
          "internalType": "uint256",
          "name": "_tokenId",
          "type": "uint256"
        },
        {
          "internalType": "uint256",
          "name": "_price",
          "type": "uint256"
        }
      ],
      "name": "publishItem",
      "outputs": [],
      "stateMutability": "nonpayable",
      "type": "function"
    },
    {
      "inputs": [
        {
          "internalType": "uint256",
          "name": "_itemId",
          "type": "uint256"
        }
      ],
      "name": "purchaseItem",
      "outputs": [],
      "stateMutability": "payable",
      "type": "function"
    }
  ],
  "bytecode": "0x6101606040523480156200001257600080fd5b5060405162002e2238038062002e22833981810160405281019062000038919062000155565b600160008190555033600160006101000a81548173ffffffffffffffffffffffffffffffffffffffff021916908373ffffffffffffffffffffffffffffffffffffffff1602179055508673ffffffffffffffffffffffffffffffffffffffff1660808173ffffffffffffffffffffffffffffffffffffffff1660601b815250508573ffffffffffffffffffffffffffffffffffffffff1660a08173ffffffffffffffffffffffffffffffffffffffff1660601b815250508460c081815250508360e081815250508261010081815250508161012081815250508061014081815250505050505050505062000274565b600081519050620001388162000240565b92915050565b6000815190506200014f816200025a565b92915050565b600080600080600080600060e0888a0312156200017157600080fd5b6000620001818a828b0162000127565b9750506020620001948a828b0162000127565b9650506040620001a78a828b016200013e565b9550506060620001ba8a828b016200013e565b9450506080620001cd8a828b016200013e565b93505060a0620001e08a828b016200013e565b92505060c0620001f38a828b016200013e565b91505092959891949750929550565b60006200020f8262000216565b9050919050565b600073ffffffffffffffffffffffffffffffffffffffff82169050919050565b6000819050919050565b6200024b8162000202565b81146200025757600080fd5b50565b620002658162000236565b81146200027157600080fd5b50565b60805160601c60a05160601c60c05160e051610100516101205161014051612aba6200036860003960008181610a0a01528181610de90152818161175a0152818161180401526118ae01526000818161099801528181610d8201528181610e0a015281816115a701526116510152600081816108ea01528181610d4601528181610da301528181610e2b015261149e0152600081816108a201528181610ce2015261139b0152600081816109e001528181610d0e01526113070152600081816108c6015261135e015260008181610562015281816106cf0152818161080a015281816109bc01526112ca0152612aba6000f3fe6080604052600436106100e85760003560e01c80634dd0274e1161008a5780639e555090116100595780639e555090146102ea578063bfb231d214610313578063ca7dd37514610355578063d38ea5bf14610392576100e8565b80634dd0274e1461023e578063662fc088146102695780636bfb0d011461029457806385de5ecc146102bf576100e8565b80631f5044a7116100c65780631f5044a71461017e578063239bbf5b146101a95780633b1d198c146101d4578063427a0b2214610213576100e8565b806308a31216146100ed5780630c0010331461012a578063158cb02a14610153575b600080fd5b3480156100f957600080fd5b50610114600480360381019061010f9190611fe0565b6103ae565b6040516101219190612432565b60405180910390f35b34801561013657600080fd5b50610151600480360381019061014c9190611f12565b6103c6565b005b34801561015f57600080fd5b506101686108a0565b6040516101759190612432565b60405180910390f35b34801561018a57600080fd5b506101936108c4565b6040516101a09190612225565b60405180910390f35b3480156101b557600080fd5b506101be6108e8565b6040516101cb9190612432565b60405180910390f35b3480156101e057600080fd5b506101fb60048036038101906101f69190611fe0565b61090c565b60405161020a93929190612240565b60405180910390f35b34801561021f57600080fd5b50610228610996565b6040516102359190612432565b60405180910390f35b34801561024a57600080fd5b506102536109ba565b6040516102609190612225565b60405180910390f35b34801561027557600080fd5b5061027e6109de565b60405161028b9190612432565b60405180910390f35b3480156102a057600080fd5b506102a9610a02565b6040516102b69190612432565b60405180910390f35b3480156102cb57600080fd5b506102d4610a08565b6040516102e19190612432565b60405180910390f35b3480156102f657600080fd5b50610311600480360381019061030c9190611f91565b610a2c565b005b34801561031f57600080fd5b5061033a60048036038101906103359190611fe0565b610c3c565b60405161034c96959493929190612492565b60405180910390f35b34801561036157600080fd5b5061037c60048036038101906103779190611fe0565b610cc5565b6040516103899190612432565b60405180910390f35b6103ac60048036038101906103a79190611fe0565b610eb1565b005b60036020528060005260406000206000915090505481565b6002600054141561040c576040517f08c379a000000000000000000000000000000000000000000000000000000000815260040161040390612412565b60405180910390fd5b60026000819055506000825111610458576040517f08c379a000000000000000000000000000000000000000000000000000000000815260040161044f906123d2565b60405180910390fd5b805182511461049c576040517f08c379a0000000000000000000000000000000000000000000000000000000008152600401610493906123f2565b60405180910390fd5b60005b82518110156108075760008282815181106104e3577f4e487b7100000000000000000000000000000000000000000000000000000000600052603260045260246000fd5b60200260200101511161052b576040517f08c379a000000000000000000000000000000000000000000000000000000000815260040161052290612352565b60405180910390fd5b6002600081548092919061053e906127ed565b91905055508373ffffffffffffffffffffffffffffffffffffffff166323b872dd337f00000000000000000000000000000000000000000000000000000000000000008685815181106105ba577f4e487b7100000000000000000000000000000000000000000000000000000000600052603260045260246000fd5b60200260200101516040518463ffffffff1660e01b81526004016105e0939291906122ae565b600060405180830381600087803b1580156105fa57600080fd5b505af115801561060e573d6000803e3d6000fd5b505050506040518060c0016040528060025481526020018573ffffffffffffffffffffffffffffffffffffffff16815260200184838151811061067a577f4e487b7100000000000000000000000000000000000000000000000000000000600052603260045260246000fd5b602002602001015181526020018383815181106106c0577f4e487b7100000000000000000000000000000000000000000000000000000000600052603260045260246000fd5b602002602001015181526020017f000000000000000000000000000000000000000000000000000000000000000073ffffffffffffffffffffffffffffffffffffffff168152602001600115158152506004600060025481526020019081526020016000206000820151816000015560208201518160010160006101000a81548173ffffffffffffffffffffffffffffffffffffffff021916908373ffffffffffffffffffffffffffffffffffffffff160217905550604082015181600201556060820151816003015560808201518160040160006101000a81548173ffffffffffffffffffffffffffffffffffffffff021916908373ffffffffffffffffffffffffffffffffffffffff16021790555060a08201518160040160146101000a81548160ff02191690831515021790555090505080806107ff906127ed565b91505061049f565b507f000000000000000000000000000000000000000000000000000000000000000073ffffffffffffffffffffffffffffffffffffffff168373ffffffffffffffffffffffffffffffffffffffff167fa7a25a41bf2dd955eec8125fce9de171ecd45961064d3c59d983c026cbbcfd80600254858560405161088b9392919061244d565b60405180910390a36001600081905550505050565b7f000000000000000000000000000000000000000000000000000000000000000081565b7f000000000000000000000000000000000000000000000000000000000000000081565b7f000000000000000000000000000000000000000000000000000000000000000081565b60056020528060005260406000206000915090508060000160009054906101000a900473ffffffffffffffffffffffffffffffffffffffff16908060010160009054906101000a900473ffffffffffffffffffffffffffffffffffffffff16908060020160009054906101000a900473ffffffffffffffffffffffffffffffffffffffff16905083565b7f000000000000000000000000000000000000000000000000000000000000000081565b7f000000000000000000000000000000000000000000000000000000000000000081565b7f000000000000000000000000000000000000000000000000000000000000000081565b60025481565b7f000000000000000000000000000000000000000000000000000000000000000081565b60026000541415610a72576040517f08c379a0000000000000000000000000000000000000000000000000000000008152600401610a6990612412565b60405180910390fd5b60026000819055508273ffffffffffffffffffffffffffffffffffffffff16636352211e836040518263ffffffff1660e01b8152600401610ab39190612432565b60206040518083038186803b158015610acb57600080fd5b505afa158015610adf573d6000803e3d6000fd5b505050506040513d601f19601f82011682018060405250810190610b039190611ee9565b73ffffffffffffffffffffffffffffffffffffffff163373ffffffffffffffffffffffffffffffffffffffff1614610b3a57600080fd5b60008111610b7d576040517f08c379a0000000000000000000000000000000000000000000000000000000008152600401610b7490612352565b60405180910390fd5b80600460008481526020019081526020016000206003018190555060016004600084815260200190815260200160002060040160146101000a81548160ff0219169083151502179055503373ffffffffffffffffffffffffffffffffffffffff167f342e849466ccf2dfb594dafa5f75bbf8f84cc6fa4e0c6ca1620bfcaeeabc623260046000858152602001908152602001600020600001548484604051610c27939291906124f3565b60405180910390a26001600081905550505050565b60046020528060005260406000206000915090508060000154908060010160009054906101000a900473ffffffffffffffffffffffffffffffffffffffff16908060020154908060030154908060040160009054906101000a900473ffffffffffffffffffffffffffffffffffffffff16908060040160149054906101000a900460ff16905086565b6000806003600084815260200190815260200160002054905060007f000000000000000000000000000000000000000000000000000000000000000090506000821115610d3b577f000000000000000000000000000000000000000000000000000000000000000081610d3891906125d0565b90505b6003821415610d77577f000000000000000000000000000000000000000000000000000000000000000081610d7091906125d0565b9050610e6e565b6004821415610dde577f00000000000000000000000000000000000000000000000000000000000000007f0000000000000000000000000000000000000000000000000000000000000000610dcc91906125d0565b81610dd791906125d0565b9050610e6d565b6005821415610e6c577f00000000000000000000000000000000000000000000000000000000000000007f00000000000000000000000000000000000000000000000000000000000000007f0000000000000000000000000000000000000000000000000000000000000000610e5491906125d0565b610e5e91906125d0565b81610e6991906125d0565b90505b5b5b6064816064610e7d91906125d0565b6004600087815260200190815260200160002060030154610e9e9190612657565b610ea89190612626565b92505050919050565b60026000541415610ef7576040517f08c379a0000000000000000000000000000000000000000000000000000000008152600401610eee90612412565b60405180910390fd5b60026000819055506000610f0a82610cc5565b9050600082118015610f1e57506002548211155b610f5d576040517f08c379a0000000000000000000000000000000000000000000000000000000008152600401610f54906123b2565b60405180910390fd5b80341015610fa0576040517f08c379a0000000000000000000000000000000000000000000000000000000008152600401610f9790612372565b60405180910390fd5b600115156004600084815260200190815260200160002060040160149054906101000a900460ff1615151461100a576040517f08c379a000000000000000000000000000000000000000000000000000000000815260040161100190612392565b60405180910390fd5b6000600360008481526020019081526020016000205414156110bf576110656040518060400160405280601381526020017f415349474e4f20554e204449414d4f4e443a200000000000000000000000000081525033611c94565b336005600084815260200190815260200160002060000160006101000a81548173ffffffffffffffffffffffffffffffffffffffff021916908373ffffffffffffffffffffffffffffffffffffffff160217905550611225565b600160036000848152602001908152602001600020541415611173576111196040518060400160405280600e81526020017f415349474e4f20554e20474f4c44000000000000000000000000000000000000815250611d30565b336005600084815260200190815260200160002060010160006101000a81548173ffffffffffffffffffffffffffffffffffffffff021916908373ffffffffffffffffffffffffffffffffffffffff160217905550611224565b600260036000848152602001908152602001600020541415611223576111cd6040518060400160405280601081526020017f415349474e4f20554e2053494c56455200000000000000000000000000000000815250611d30565b336005600084815260200190815260200160002060020160006101000a81548173ffffffffffffffffffffffffffffffffffffffff021916908373ffffffffffffffffffffffffffffffffffffffff1602179055505b5b5b60006004600084815260200190815260200160002090508060040160009054906101000a900473ffffffffffffffffffffffffffffffffffffffff1673ffffffffffffffffffffffffffffffffffffffff166108fc82600301549081150290604051600060405180830381858888f193505050501580156112aa573d6000803e3d6000fd5b5060008160040160146101000a81548160ff0219169083151502179055507f000000000000000000000000000000000000000000000000000000000000000073ffffffffffffffffffffffffffffffffffffffff166108fc6113307f00000000000000000000000000000000000000000000000000000000000000008460030154611dc9565b9081150290604051600060405180830381858888f1935050505015801561135b573d6000803e3d6000fd5b507f000000000000000000000000000000000000000000000000000000000000000073ffffffffffffffffffffffffffffffffffffffff166108fc6113c47f00000000000000000000000000000000000000000000000000000000000000008460030154611dc9565b9081150290604051600060405180830381858888f193505050501580156113ef573d6000803e3d6000fd5b5060038060008581526020019081526020016000205414156114f8576114496040518060400160405280601c81526020017f534520454a454355544f20454c2049462044454c204449414d4f4e4400000000815250611d30565b6005600084815260200190815260200160002060000160009054906101000a900473ffffffffffffffffffffffffffffffffffffffff1673ffffffffffffffffffffffffffffffffffffffff166108fc6114c77f00000000000000000000000000000000000000000000000000000000000000008460030154611dc9565b9081150290604051600060405180830381858888f193505050501580156114f2573d6000803e3d6000fd5b50611906565b6004600360008581526020019081526020016000205414156116ab576115526040518060400160405280601981526020017f534520454a454355544f20454c2049462044454c20474f4c4400000000000000815250611d30565b6005600084815260200190815260200160002060000160009054906101000a900473ffffffffffffffffffffffffffffffffffffffff1673ffffffffffffffffffffffffffffffffffffffff166108fc6115d07f00000000000000000000000000000000000000000000000000000000000000008460030154611dc9565b9081150290604051600060405180830381858888f193505050501580156115fb573d6000803e3d6000fd5b506005600084815260200190815260200160002060010160009054906101000a900473ffffffffffffffffffffffffffffffffffffffff1673ffffffffffffffffffffffffffffffffffffffff166108fc61167a7f00000000000000000000000000000000000000000000000000000000000000008460030154611dc9565b9081150290604051600060405180830381858888f193505050501580156116a5573d6000803e3d6000fd5b50611905565b600560036000858152602001908152602001600020541415611904576117056040518060400160405280601b81526020017f534520454a454355544f20454c2049462044454c2053494c5645520000000000815250611d30565b6005600084815260200190815260200160002060000160009054906101000a900473ffffffffffffffffffffffffffffffffffffffff1673ffffffffffffffffffffffffffffffffffffffff166108fc6117837f00000000000000000000000000000000000000000000000000000000000000008460030154611dc9565b9081150290604051600060405180830381858888f193505050501580156117ae573d6000803e3d6000fd5b506005600084815260200190815260200160002060010160009054906101000a900473ffffffffffffffffffffffffffffffffffffffff1673ffffffffffffffffffffffffffffffffffffffff166108fc61182d7f00000000000000000000000000000000000000000000000000000000000000008460030154611dc9565b9081150290604051600060405180830381858888f19350505050158015611858573d6000803e3d6000fd5b506005600084815260200190815260200160002060020160009054906101000a900473ffffffffffffffffffffffffffffffffffffffff1673ffffffffffffffffffffffffffffffffffffffff166108fc6118d77f00000000000000000000000000000000000000000000000000000000000000008460030154611dc9565b9081150290604051600060405180830381858888f19350505050158015611902573d6000803e3d6000fd5b505b5b5b60036000848152602001908152602001600020600081548092919061192a906127ed565b919050555061196e6040518060400160405280601481526020017f5b5645525d616464726573732874686973293a2000000000000000000000000081525030611c94565b6119d16040518060400160405280601281526020017f5b5645525d6974656d2e73656c6c65723a2000000000000000000000000000008152508260040160009054906101000a900473ffffffffffffffffffffffffffffffffffffffff16611c94565b611a106040518060400160405280601181526020017f5b5645525d6d73672e73656e6465723a2000000000000000000000000000000081525033611c94565b611afc6040518060400160405280601281526020017f5b5645525d6e66742e6f776e65724f663a2000000000000000000000000000008152508260010160009054906101000a900473ffffffffffffffffffffffffffffffffffffffff1673ffffffffffffffffffffffffffffffffffffffff16636352211e60016040518263ffffffff1660e01b8152600401611aa791906122e5565b60206040518083038186803b158015611abf57600080fd5b505afa158015611ad3573d6000803e3d6000fd5b505050506040513d601f19601f82011682018060405250810190611af79190611ee9565b611c94565b8060010160009054906101000a900473ffffffffffffffffffffffffffffffffffffffff1673ffffffffffffffffffffffffffffffffffffffff166323b872dd8260040160009054906101000a900473ffffffffffffffffffffffffffffffffffffffff163384600201546040518463ffffffff1660e01b8152600401611b8593929190612277565b600060405180830381600087803b158015611b9f57600080fd5b505af1158015611bb3573d6000803e3d6000fd5b505050503373ffffffffffffffffffffffffffffffffffffffff168160040160009054906101000a900473ffffffffffffffffffffffffffffffffffffffff1673ffffffffffffffffffffffffffffffffffffffff168260010160009054906101000a900473ffffffffffffffffffffffffffffffffffffffff1673ffffffffffffffffffffffffffffffffffffffff167f8b4c9c8a607d67b321582dd8461041b1dc2ceeca70c8b7f37f8e02095cf2e76d8685600201548660030154604051611c7f939291906124f3565b60405180910390a45050600160008190555050565b611d2c8282604051602401611caa929190612322565b6040516020818303038152906040527f319af333000000000000000000000000000000000000000000000000000000007bffffffffffffffffffffffffffffffffffffffffffffffffffffffff19166020820180517bffffffffffffffffffffffffffffffffffffffffffffffffffffffff8381831617835250505050611deb565b5050565b611dc681604051602401611d449190612300565b6040516020818303038152906040527f41304fac000000000000000000000000000000000000000000000000000000007bffffffffffffffffffffffffffffffffffffffffffffffffffffffff19166020820180517bffffffffffffffffffffffffffffffffffffffffffffffffffffffff8381831617835250505050611deb565b50565b600060648284611dd99190612657565b611de39190612626565b905092915050565b60008151905060006a636f6e736f6c652e6c6f679050602083016000808483855afa5050505050565b6000611e27611e228461254f565b61252a565b90508083825260208201905082856020860282011115611e4657600080fd5b60005b85811015611e765781611e5c8882611ed4565b845260208401935060208301925050600181019050611e49565b5050509392505050565b600081519050611e8f81612a3f565b92915050565b600082601f830112611ea657600080fd5b8135611eb6848260208601611e14565b91505092915050565b600081359050611ece81612a56565b92915050565b600081359050611ee381612a6d565b92915050565b600060208284031215611efb57600080fd5b6000611f0984828501611e80565b91505092915050565b600080600060608486031215611f2757600080fd5b6000611f3586828701611ebf565b935050602084013567ffffffffffffffff811115611f5257600080fd5b611f5e86828701611e95565b925050604084013567ffffffffffffffff811115611f7b57600080fd5b611f8786828701611e95565b9150509250925092565b600080600060608486031215611fa657600080fd5b6000611fb486828701611ebf565b9350506020611fc586828701611ed4565b9250506040611fd686828701611ed4565b9150509250925092565b600060208284031215611ff257600080fd5b600061200084828501611ed4565b91505092915050565b60006120158383612207565b60208301905092915050565b61202a8161271d565b82525050565b612039816126c3565b82525050565b612048816126b1565b82525050565b60006120598261258b565b61206381856125ae565b935061206e8361257b565b8060005b8381101561209f5781516120868882612009565b9750612091836125a1565b925050600181019050612072565b5085935050505092915050565b6120b5816126d5565b82525050565b6120c48161272f565b82525050565b6120d381612753565b82525050565b60006120e482612596565b6120ee81856125bf565b93506120fe818560208601612789565b612107816128c3565b840191505092915050565b600061211f601f836125bf565b915061212a826128d4565b602082019050919050565b60006121426033836125bf565b915061214d826128fd565b604082019050919050565b60006121656012836125bf565b91506121708261294c565b602082019050919050565b60006121886012836125bf565b915061219382612975565b602082019050919050565b60006121ab601c836125bf565b91506121b68261299e565b602082019050919050565b60006121ce6037836125bf565b91506121d9826129c7565b604082019050919050565b60006121f1601f836125bf565b91506121fc82612a16565b602082019050919050565b61221081612713565b82525050565b61221f81612713565b82525050565b600060208201905061223a6000830184612030565b92915050565b60006060820190506122556000830186612030565b6122626020830185612030565b61226f6040830184612030565b949350505050565b600060608201905061228c6000830186612021565b612299602083018561203f565b6122a66040830184612216565b949350505050565b60006060820190506122c3600083018661203f565b6122d06020830185612021565b6122dd6040830184612216565b949350505050565b60006020820190506122fa60008301846120ca565b92915050565b6000602082019050818103600083015261231a81846120d9565b905092915050565b6000604082019050818103600083015261233c81856120d9565b905061234b602083018461203f565b9392505050565b6000602082019050818103600083015261236b81612112565b9050919050565b6000602082019050818103600083015261238b81612135565b9050919050565b600060208201905081810360008301526123ab81612158565b9050919050565b600060208201905081810360008301526123cb8161217b565b9050919050565b600060208201905081810360008301526123eb8161219e565b9050919050565b6000602082019050818103600083015261240b816121c1565b9050919050565b6000602082019050818103600083015261242b816121e4565b9050919050565b60006020820190506124476000830184612216565b92915050565b60006060820190506124626000830186612216565b8181036020830152612474818561204e565b90508181036040830152612488818461204e565b9050949350505050565b600060c0820190506124a76000830189612216565b6124b460208301886120bb565b6124c16040830187612216565b6124ce6060830186612216565b6124db6080830185612030565b6124e860a08301846120ac565b979650505050505050565b60006060820190506125086000830186612216565b6125156020830185612216565b6125226040830184612216565b949350505050565b6000612534612545565b905061254082826127bc565b919050565b6000604051905090565b600067ffffffffffffffff82111561256a57612569612894565b5b602082029050602081019050919050565b6000819050602082019050919050565b600081519050919050565b600081519050919050565b6000602082019050919050565b600082825260208201905092915050565b600082825260208201905092915050565b60006125db82612713565b91506125e683612713565b9250827fffffffffffffffffffffffffffffffffffffffffffffffffffffffffffffffff0382111561261b5761261a612836565b5b828201905092915050565b600061263182612713565b915061263c83612713565b92508261264c5761264b612865565b5b828204905092915050565b600061266282612713565b915061266d83612713565b9250817fffffffffffffffffffffffffffffffffffffffffffffffffffffffffffffffff04831182151516156126a6576126a5612836565b5b828202905092915050565b60006126bc826126f3565b9050919050565b60006126ce826126f3565b9050919050565b60008115159050919050565b60006126ec826126b1565b9050919050565b600073ffffffffffffffffffffffffffffffffffffffff82169050919050565b6000819050919050565b600061272882612765565b9050919050565b600061273a82612741565b9050919050565b600061274c826126f3565b9050919050565b600061275e82612713565b9050919050565b600061277082612777565b9050919050565b6000612782826126f3565b9050919050565b60005b838110156127a757808201518184015260208101905061278c565b838111156127b6576000848401525b50505050565b6127c5826128c3565b810181811067ffffffffffffffff821117156127e4576127e3612894565b5b80604052505050565b60006127f882612713565b91507fffffffffffffffffffffffffffffffffffffffffffffffffffffffffffffffff82141561282b5761282a612836565b5b600182019050919050565b7f4e487b7100000000000000000000000000000000000000000000000000000000600052601160045260246000fd5b7f4e487b7100000000000000000000000000000000000000000000000000000000600052601260045260246000fd5b7f4e487b7100000000000000000000000000000000000000000000000000000000600052604160045260246000fd5b6000601f19601f8301169050919050565b7f5072696365206d7573742062652067726561746572207468616e207a65726f00600082015250565b7f6e6f7420656e6f75676820657468657220746f20636f766572206974656d207060008201527f7269636520616e64206d61726b65742066656500000000000000000000000000602082015250565b7f4974656d2069736e2774206f6e2073616c650000000000000000000000000000600082015250565b7f6974656d20646f65736e27742065786973740000000000000000000000000000600082015250565b7f5468657265206973206e6f20746f6b656e7320746f2063726561746500000000600082015250565b7f546f6b656e7320616e6420707269636573206d7573742068617665207468652060008201527f73616d6520616d6f756e74206f6620656c656d656e7473000000000000000000602082015250565b7f5265656e7472616e637947756172643a207265656e7472616e742063616c6c00600082015250565b612a48816126b1565b8114612a5357600080fd5b50565b612a5f816126e1565b8114612a6a57600080fd5b50565b612a7681612713565b8114612a8157600080fd5b5056fea2646970667358221220c40e5de0e2abf2000473b66acf238541c64e3e466e04ce83a399ad74790f8d1664736f6c63430008040033",
  "linkReferences": {},
  "deployedLinkReferences": {}
}