{
  "_format": "hh-sol-artifact-1",
  "contractName": "Marketplace",
  "sourceName": "src/solidity/contracts/Marketplace.sol",
  "abi": [
    {
      "inputs": [
        {
          "internalType": "address",
          "name": "_accountOwnerMarketplace",
          "type": "address"
        },
        {
          "internalType": "address",
          "name": "_accountGamerOrganization",
          "type": "address"
        },
        {
          "internalType": "uint256",
          "name": "_feeMarketplacePercent",
          "type": "uint256"
        },
        {
          "internalType": "uint256",
          "name": "_feeGamerOrganizationPercent",
          "type": "uint256"
        },
        {
          "internalType": "uint256",
          "name": "_feeDiamondPercent",
          "type": "uint256"
        },
        {
          "internalType": "uint256",
          "name": "_feeGoldPercent",
          "type": "uint256"
        },
        {
          "internalType": "uint256",
          "name": "_feeSilverPercent",
          "type": "uint256"
        }
      ],
      "stateMutability": "nonpayable",
      "type": "constructor"
    },
    {
      "anonymous": false,
      "inputs": [
        {
          "indexed": false,
          "internalType": "uint256",
          "name": "itemId",
          "type": "uint256"
        },
        {
          "indexed": true,
          "internalType": "address",
          "name": "nft",
          "type": "address"
        },
        {
          "indexed": false,
          "internalType": "uint256",
          "name": "tokenId",
          "type": "uint256"
        },
        {
          "indexed": false,
          "internalType": "uint256",
          "name": "price",
          "type": "uint256"
        },
        {
          "indexed": true,
          "internalType": "address",
          "name": "seller",
          "type": "address"
        },
        {
          "indexed": true,
          "internalType": "address",
          "name": "buyer",
          "type": "address"
        }
      ],
      "name": "Bought",
      "type": "event"
    },
    {
      "anonymous": false,
      "inputs": [
        {
          "indexed": false,
          "internalType": "uint256",
          "name": "itemId",
          "type": "uint256"
        },
        {
          "indexed": true,
          "internalType": "address",
          "name": "nft",
          "type": "address"
        },
        {
          "indexed": false,
          "internalType": "uint256[]",
          "name": "tokenIds",
          "type": "uint256[]"
        },
        {
          "indexed": false,
          "internalType": "uint256[]",
          "name": "prices",
          "type": "uint256[]"
        },
        {
          "indexed": true,
          "internalType": "address",
          "name": "seller",
          "type": "address"
        }
      ],
      "name": "Offered",
      "type": "event"
    },
    {
      "anonymous": false,
      "inputs": [
        {
          "indexed": false,
          "internalType": "uint256",
          "name": "itemId",
          "type": "uint256"
        },
        {
          "indexed": false,
          "internalType": "uint256",
          "name": "tokenId",
          "type": "uint256"
        },
        {
          "indexed": false,
          "internalType": "uint256",
          "name": "price",
          "type": "uint256"
        },
        {
          "indexed": true,
          "internalType": "address",
          "name": "seller",
          "type": "address"
        }
      ],
      "name": "Published",
      "type": "event"
    },
    {
      "inputs": [],
      "name": "accountGamerOrganization",
      "outputs": [
        {
          "internalType": "address payable",
          "name": "",
          "type": "address"
        }
      ],
      "stateMutability": "view",
      "type": "function"
    },
    {
      "inputs": [],
      "name": "accountOwnerMarketplace",
      "outputs": [
        {
          "internalType": "address payable",
          "name": "",
          "type": "address"
        }
      ],
      "stateMutability": "view",
      "type": "function"
    },
    {
      "inputs": [
        {
          "internalType": "uint256",
          "name": "",
          "type": "uint256"
        }
      ],
      "name": "accountsLevels",
      "outputs": [
        {
          "internalType": "address payable",
          "name": "diamond",
          "type": "address"
        },
        {
          "internalType": "address payable",
          "name": "gold",
          "type": "address"
        },
        {
          "internalType": "address payable",
          "name": "silver",
          "type": "address"
        }
      ],
      "stateMutability": "view",
      "type": "function"
    },
    {
      "inputs": [],
      "name": "feeDiamondPercent",
      "outputs": [
        {
          "internalType": "uint256",
          "name": "",
          "type": "uint256"
        }
      ],
      "stateMutability": "view",
      "type": "function"
    },
    {
      "inputs": [],
      "name": "feeGamerOrganizationPercent",
      "outputs": [
        {
          "internalType": "uint256",
          "name": "",
          "type": "uint256"
        }
      ],
      "stateMutability": "view",
      "type": "function"
    },
    {
      "inputs": [],
      "name": "feeGoldPercent",
      "outputs": [
        {
          "internalType": "uint256",
          "name": "",
          "type": "uint256"
        }
      ],
      "stateMutability": "view",
      "type": "function"
    },
    {
      "inputs": [],
      "name": "feeMarketplacePercent",
      "outputs": [
        {
          "internalType": "uint256",
          "name": "",
          "type": "uint256"
        }
      ],
      "stateMutability": "view",
      "type": "function"
    },
    {
      "inputs": [],
      "name": "feeSilverPercent",
      "outputs": [
        {
          "internalType": "uint256",
          "name": "",
          "type": "uint256"
        }
      ],
      "stateMutability": "view",
      "type": "function"
    },
    {
      "inputs": [
        {
          "internalType": "uint256",
          "name": "_itemId",
          "type": "uint256"
        }
      ],
      "name": "getTotalPrice",
      "outputs": [
        {
          "internalType": "uint256",
          "name": "",
          "type": "uint256"
        }
      ],
      "stateMutability": "view",
      "type": "function"
    },
    {
      "inputs": [],
      "name": "itemCount",
      "outputs": [
        {
          "internalType": "uint256",
          "name": "",
          "type": "uint256"
        }
      ],
      "stateMutability": "view",
      "type": "function"
    },
    {
      "inputs": [
        {
          "internalType": "uint256",
          "name": "",
          "type": "uint256"
        }
      ],
      "name": "itemCountOfPurchases",
      "outputs": [
        {
          "internalType": "uint256",
          "name": "",
          "type": "uint256"
        }
      ],
      "stateMutability": "view",
      "type": "function"
    },
    {
      "inputs": [
        {
          "internalType": "uint256",
          "name": "",
          "type": "uint256"
        }
      ],
      "name": "items",
      "outputs": [
        {
          "internalType": "uint256",
          "name": "itemId",
          "type": "uint256"
        },
        {
          "internalType": "contract IERC721",
          "name": "nft",
          "type": "address"
        },
        {
          "internalType": "uint256",
          "name": "tokenId",
          "type": "uint256"
        },
        {
          "internalType": "uint256",
          "name": "price",
          "type": "uint256"
        },
        {
          "internalType": "address payable",
          "name": "seller",
          "type": "address"
        },
        {
          "internalType": "bool",
          "name": "onSale",
          "type": "bool"
        }
      ],
      "stateMutability": "view",
      "type": "function"
    },
    {
      "inputs": [
        {
          "internalType": "contract IERC721",
          "name": "_nft",
          "type": "address"
        },
        {
          "internalType": "uint256[]",
          "name": "_tokensId",
          "type": "uint256[]"
        },
        {
          "internalType": "uint256[]",
          "name": "_prices",
          "type": "uint256[]"
        }
      ],
      "name": "makeItem",
      "outputs": [],
      "stateMutability": "nonpayable",
      "type": "function"
    },
    {
      "inputs": [
        {
          "internalType": "contract IERC721",
          "name": "_nft",
          "type": "address"
        },
        {
          "internalType": "uint256",
          "name": "_tokenId",
          "type": "uint256"
        },
        {
          "internalType": "uint256",
          "name": "_price",
          "type": "uint256"
        }
      ],
      "name": "publishItem",
      "outputs": [],
      "stateMutability": "nonpayable",
      "type": "function"
    },
    {
      "inputs": [
        {
          "internalType": "uint256",
          "name": "_itemId",
          "type": "uint256"
        }
      ],
      "name": "purchaseItem",
      "outputs": [],
      "stateMutability": "payable",
      "type": "function"
    }
  ],
  "bytecode": "0x6101606040523480156200001257600080fd5b5060405162002a3d38038062002a3d833981810160405281019062000038919062000155565b600160008190555086600160006101000a81548173ffffffffffffffffffffffffffffffffffffffff021916908373ffffffffffffffffffffffffffffffffffffffff1602179055508673ffffffffffffffffffffffffffffffffffffffff1660808173ffffffffffffffffffffffffffffffffffffffff1660601b815250508573ffffffffffffffffffffffffffffffffffffffff1660a08173ffffffffffffffffffffffffffffffffffffffff1660601b815250508460c081815250508360e081815250508261010081815250508161012081815250508061014081815250505050505050505062000274565b600081519050620001388162000240565b92915050565b6000815190506200014f816200025a565b92915050565b600080600080600080600060e0888a0312156200017157600080fd5b6000620001818a828b0162000127565b9750506020620001948a828b0162000127565b9650506040620001a78a828b016200013e565b9550506060620001ba8a828b016200013e565b9450506080620001cd8a828b016200013e565b93505060a0620001e08a828b016200013e565b92505060c0620001f38a828b016200013e565b91505092959891949750929550565b60006200020f8262000216565b9050919050565b600073ffffffffffffffffffffffffffffffffffffffff82169050919050565b6000819050919050565b6200024b8162000202565b81146200025757600080fd5b50565b620002658162000236565b81146200027157600080fd5b50565b60805160601c60a05160601c60c05160e0516101005161012051610140516126d56200036860003960008181610a4001528181610e740152818161173e015281816117e801526118920152600081816109f201528181610e0d01528181610e95015281816115c9015261167301526000818161094401528181610dd101528181610e2e01528181610eb601526114fe0152600081816108fc01528181610d6d0152611439015260008181610a1601528181610d9901526113a501526000818161092001526113fc0152600081816105bc0152818161072901528181610864015281816113680152611a8401526126d56000f3fe6080604052600436106100e85760003560e01c8063662fc0881161008a578063bfb231d211610059578063bfb231d2146102e8578063ca7dd3751461032a578063d38ea5bf14610367578063e3ab781b14610383576100e8565b8063662fc0881461023e5780636bfb0d011461026957806385de5ecc146102945780639e555090146102bf576100e8565b80631f5044a7116100c65780631f5044a71461017e578063239bbf5b146101a95780633b1d198c146101d4578063427a0b2214610213576100e8565b806308a31216146100ed5780630c0010331461012a578063158cb02a14610153575b600080fd5b3480156100f957600080fd5b50610114600480360381019061010f9190611c94565b6103ae565b6040516101219190612074565b60405180910390f35b34801561013657600080fd5b50610151600480360381019061014c9190611bc6565b6103c6565b005b34801561015f57600080fd5b506101686108fa565b6040516101759190612074565b60405180910390f35b34801561018a57600080fd5b5061019361091e565b6040516101a09190611eb4565b60405180910390f35b3480156101b557600080fd5b506101be610942565b6040516101cb9190612074565b60405180910390f35b3480156101e057600080fd5b506101fb60048036038101906101f69190611c94565b610966565b60405161020a93929190611ecf565b60405180910390f35b34801561021f57600080fd5b506102286109f0565b6040516102359190612074565b60405180910390f35b34801561024a57600080fd5b50610253610a14565b6040516102609190612074565b60405180910390f35b34801561027557600080fd5b5061027e610a38565b60405161028b9190612074565b60405180910390f35b3480156102a057600080fd5b506102a9610a3e565b6040516102b69190612074565b60405180910390f35b3480156102cb57600080fd5b506102e660048036038101906102e19190611c45565b610a62565b005b3480156102f457600080fd5b5061030f600480360381019061030a9190611c94565b610cc7565b604051610321969594939291906120d4565b60405180910390f35b34801561033657600080fd5b50610351600480360381019061034c9190611c94565b610d50565b60405161035e9190612074565b60405180910390f35b610381600480360381019061037c9190611c94565b610f3c565b005b34801561038f57600080fd5b50610398611a82565b6040516103a59190611eb4565b60405180910390f35b60036020528060005260406000206000915090505481565b600160009054906101000a900473ffffffffffffffffffffffffffffffffffffffff1673ffffffffffffffffffffffffffffffffffffffff163373ffffffffffffffffffffffffffffffffffffffff161461042057600080fd5b60026000541415610466576040517f08c379a000000000000000000000000000000000000000000000000000000000815260040161045d90612054565b60405180910390fd5b600260008190555060008251116104b2576040517f08c379a00000000000000000000000000000000000000000000000000000000081526004016104a990612014565b60405180910390fd5b80518251146104f6576040517f08c379a00000000000000000000000000000000000000000000000000000000081526004016104ed90612034565b60405180910390fd5b60005b825181101561086157600082828151811061053d577f4e487b7100000000000000000000000000000000000000000000000000000000600052603260045260246000fd5b602002602001015111610585576040517f08c379a000000000000000000000000000000000000000000000000000000000815260040161057c90611f74565b60405180910390fd5b60026000815480929190610598906123df565b91905055508373ffffffffffffffffffffffffffffffffffffffff166323b872dd337f0000000000000000000000000000000000000000000000000000000000000000868581518110610614577f4e487b7100000000000000000000000000000000000000000000000000000000600052603260045260246000fd5b60200260200101516040518463ffffffff1660e01b815260040161063a93929190611f3d565b600060405180830381600087803b15801561065457600080fd5b505af1158015610668573d6000803e3d6000fd5b505050506040518060c0016040528060025481526020018573ffffffffffffffffffffffffffffffffffffffff1681526020018483815181106106d4577f4e487b7100000000000000000000000000000000000000000000000000000000600052603260045260246000fd5b6020026020010151815260200183838151811061071a577f4e487b7100000000000000000000000000000000000000000000000000000000600052603260045260246000fd5b602002602001015181526020017f000000000000000000000000000000000000000000000000000000000000000073ffffffffffffffffffffffffffffffffffffffff168152602001600115158152506004600060025481526020019081526020016000206000820151816000015560208201518160010160006101000a81548173ffffffffffffffffffffffffffffffffffffffff021916908373ffffffffffffffffffffffffffffffffffffffff160217905550604082015181600201556060820151816003015560808201518160040160006101000a81548173ffffffffffffffffffffffffffffffffffffffff021916908373ffffffffffffffffffffffffffffffffffffffff16021790555060a08201518160040160146101000a81548160ff0219169083151502179055509050508080610859906123df565b9150506104f9565b507f000000000000000000000000000000000000000000000000000000000000000073ffffffffffffffffffffffffffffffffffffffff168373ffffffffffffffffffffffffffffffffffffffff167fa7a25a41bf2dd955eec8125fce9de171ecd45961064d3c59d983c026cbbcfd8060025485856040516108e59392919061208f565b60405180910390a36001600081905550505050565b7f000000000000000000000000000000000000000000000000000000000000000081565b7f000000000000000000000000000000000000000000000000000000000000000081565b7f000000000000000000000000000000000000000000000000000000000000000081565b60056020528060005260406000206000915090508060000160009054906101000a900473ffffffffffffffffffffffffffffffffffffffff16908060010160009054906101000a900473ffffffffffffffffffffffffffffffffffffffff16908060020160009054906101000a900473ffffffffffffffffffffffffffffffffffffffff16905083565b7f000000000000000000000000000000000000000000000000000000000000000081565b7f000000000000000000000000000000000000000000000000000000000000000081565b60025481565b7f000000000000000000000000000000000000000000000000000000000000000081565b60026000541415610aa8576040517f08c379a0000000000000000000000000000000000000000000000000000000008152600401610a9f90612054565b60405180910390fd5b60026000819055508273ffffffffffffffffffffffffffffffffffffffff16636352211e836040518263ffffffff1660e01b8152600401610ae99190612074565b60206040518083038186803b158015610b0157600080fd5b505afa158015610b15573d6000803e3d6000fd5b505050506040513d601f19601f82011682018060405250810190610b399190611b9d565b73ffffffffffffffffffffffffffffffffffffffff163373ffffffffffffffffffffffffffffffffffffffff1614610b7057600080fd5b60008111610bb3576040517f08c379a0000000000000000000000000000000000000000000000000000000008152600401610baa90611f74565b60405180910390fd5b336004600084815260200190815260200160002060040160006101000a81548173ffffffffffffffffffffffffffffffffffffffff021916908373ffffffffffffffffffffffffffffffffffffffff16021790555080600460008481526020019081526020016000206003018190555060016004600084815260200190815260200160002060040160146101000a81548160ff0219169083151502179055503373ffffffffffffffffffffffffffffffffffffffff167f342e849466ccf2dfb594dafa5f75bbf8f84cc6fa4e0c6ca1620bfcaeeabc623260046000858152602001908152602001600020600001548484604051610cb293929190612135565b60405180910390a26001600081905550505050565b60046020528060005260406000206000915090508060000154908060010160009054906101000a900473ffffffffffffffffffffffffffffffffffffffff16908060020154908060030154908060040160009054906101000a900473ffffffffffffffffffffffffffffffffffffffff16908060040160149054906101000a900460ff16905086565b6000806003600084815260200190815260200160002054905060007f000000000000000000000000000000000000000000000000000000000000000090506000821115610dc6577f000000000000000000000000000000000000000000000000000000000000000081610dc39190612207565b90505b6003821415610e02577f000000000000000000000000000000000000000000000000000000000000000081610dfb9190612207565b9050610ef9565b6004821415610e69577f00000000000000000000000000000000000000000000000000000000000000007f0000000000000000000000000000000000000000000000000000000000000000610e579190612207565b81610e629190612207565b9050610ef8565b6005821415610ef7577f00000000000000000000000000000000000000000000000000000000000000007f00000000000000000000000000000000000000000000000000000000000000007f0000000000000000000000000000000000000000000000000000000000000000610edf9190612207565b610ee99190612207565b81610ef49190612207565b90505b5b5b6064816064610f089190612207565b6004600087815260200190815260200160002060030154610f29919061228e565b610f33919061225d565b92505050919050565b60026000541415610f82576040517f08c379a0000000000000000000000000000000000000000000000000000000008152600401610f7990612054565b60405180910390fd5b60026000819055506000610f9582610d50565b9050600082118015610fa957506002548211155b610fe8576040517f08c379a0000000000000000000000000000000000000000000000000000000008152600401610fdf90611ff4565b60405180910390fd5b8034101561102b576040517f08c379a000000000000000000000000000000000000000000000000000000000815260040161102290611fb4565b60405180910390fd5b600115156004600084815260200190815260200160002060040160149054906101000a900460ff16151514611095576040517f08c379a000000000000000000000000000000000000000000000000000000000815260040161108c90611fd4565b60405180910390fd5b3373ffffffffffffffffffffffffffffffffffffffff166004600084815260200190815260200160002060040160009054906101000a900473ffffffffffffffffffffffffffffffffffffffff1673ffffffffffffffffffffffffffffffffffffffff16141561113a576040517f08c379a000000000000000000000000000000000000000000000000000000000815260040161113190611f94565b60405180910390fd5b6000600360008481526020019081526020016000205414156111b057336005600084815260200190815260200160002060000160006101000a81548173ffffffffffffffffffffffffffffffffffffffff021916908373ffffffffffffffffffffffffffffffffffffffff16021790555061129a565b60016003600084815260200190815260200160002054141561122657336005600084815260200190815260200160002060010160006101000a81548173ffffffffffffffffffffffffffffffffffffffff021916908373ffffffffffffffffffffffffffffffffffffffff160217905550611299565b60026003600084815260200190815260200160002054141561129857336005600084815260200190815260200160002060020160006101000a81548173ffffffffffffffffffffffffffffffffffffffff021916908373ffffffffffffffffffffffffffffffffffffffff1602179055505b5b5b60006004600084815260200190815260200160002090508060040160009054906101000a900473ffffffffffffffffffffffffffffffffffffffff1673ffffffffffffffffffffffffffffffffffffffff166108fc82600301549081150290604051600060405180830381858888f1935050505015801561131f573d6000803e3d6000fd5b5060008160040160146101000a81548160ff021916908315150217905550600360008481526020019081526020016000206000815480929190611361906123df565b91905055507f000000000000000000000000000000000000000000000000000000000000000073ffffffffffffffffffffffffffffffffffffffff166108fc6113ce7f00000000000000000000000000000000000000000000000000000000000000008460030154611aa6565b9081150290604051600060405180830381858888f193505050501580156113f9573d6000803e3d6000fd5b507f000000000000000000000000000000000000000000000000000000000000000073ffffffffffffffffffffffffffffffffffffffff166108fc6114627f00000000000000000000000000000000000000000000000000000000000000008460030154611aa6565b9081150290604051600060405180830381858888f1935050505015801561148d573d6000803e3d6000fd5b506003806000858152602001908152602001600020541415611558576005600084815260200190815260200160002060000160009054906101000a900473ffffffffffffffffffffffffffffffffffffffff1673ffffffffffffffffffffffffffffffffffffffff166108fc6115277f00000000000000000000000000000000000000000000000000000000000000008460030154611aa6565b9081150290604051600060405180830381858888f19350505050158015611552573d6000803e3d6000fd5b506118ea565b6004600360008581526020019081526020016000205414156116cd576005600084815260200190815260200160002060000160009054906101000a900473ffffffffffffffffffffffffffffffffffffffff1673ffffffffffffffffffffffffffffffffffffffff166108fc6115f27f00000000000000000000000000000000000000000000000000000000000000008460030154611aa6565b9081150290604051600060405180830381858888f1935050505015801561161d573d6000803e3d6000fd5b506005600084815260200190815260200160002060010160009054906101000a900473ffffffffffffffffffffffffffffffffffffffff1673ffffffffffffffffffffffffffffffffffffffff166108fc61169c7f00000000000000000000000000000000000000000000000000000000000000008460030154611aa6565b9081150290604051600060405180830381858888f193505050501580156116c7573d6000803e3d6000fd5b506118e9565b6005600360008581526020019081526020016000205414156118e8576005600084815260200190815260200160002060000160009054906101000a900473ffffffffffffffffffffffffffffffffffffffff1673ffffffffffffffffffffffffffffffffffffffff166108fc6117677f00000000000000000000000000000000000000000000000000000000000000008460030154611aa6565b9081150290604051600060405180830381858888f19350505050158015611792573d6000803e3d6000fd5b506005600084815260200190815260200160002060010160009054906101000a900473ffffffffffffffffffffffffffffffffffffffff1673ffffffffffffffffffffffffffffffffffffffff166108fc6118117f00000000000000000000000000000000000000000000000000000000000000008460030154611aa6565b9081150290604051600060405180830381858888f1935050505015801561183c573d6000803e3d6000fd5b506005600084815260200190815260200160002060020160009054906101000a900473ffffffffffffffffffffffffffffffffffffffff1673ffffffffffffffffffffffffffffffffffffffff166108fc6118bb7f00000000000000000000000000000000000000000000000000000000000000008460030154611aa6565b9081150290604051600060405180830381858888f193505050501580156118e6573d6000803e3d6000fd5b505b5b5b8060010160009054906101000a900473ffffffffffffffffffffffffffffffffffffffff1673ffffffffffffffffffffffffffffffffffffffff166323b872dd8260040160009054906101000a900473ffffffffffffffffffffffffffffffffffffffff163384600201546040518463ffffffff1660e01b815260040161197393929190611f06565b600060405180830381600087803b15801561198d57600080fd5b505af11580156119a1573d6000803e3d6000fd5b505050503373ffffffffffffffffffffffffffffffffffffffff168160040160009054906101000a900473ffffffffffffffffffffffffffffffffffffffff1673ffffffffffffffffffffffffffffffffffffffff168260010160009054906101000a900473ffffffffffffffffffffffffffffffffffffffff1673ffffffffffffffffffffffffffffffffffffffff167f8b4c9c8a607d67b321582dd8461041b1dc2ceeca70c8b7f37f8e02095cf2e76d8685600201548660030154604051611a6d93929190612135565b60405180910390a45050600160008190555050565b7f000000000000000000000000000000000000000000000000000000000000000081565b600060648284611ab6919061228e565b611ac0919061225d565b905092915050565b6000611adb611ad684612191565b61216c565b90508083825260208201905082856020860282011115611afa57600080fd5b60005b85811015611b2a5781611b108882611b88565b845260208401935060208301925050600181019050611afd565b5050509392505050565b600081519050611b438161265a565b92915050565b600082601f830112611b5a57600080fd5b8135611b6a848260208601611ac8565b91505092915050565b600081359050611b8281612671565b92915050565b600081359050611b9781612688565b92915050565b600060208284031215611baf57600080fd5b6000611bbd84828501611b34565b91505092915050565b600080600060608486031215611bdb57600080fd5b6000611be986828701611b73565b935050602084013567ffffffffffffffff811115611c0657600080fd5b611c1286828701611b49565b925050604084013567ffffffffffffffff811115611c2f57600080fd5b611c3b86828701611b49565b9150509250925092565b600080600060608486031215611c5a57600080fd5b6000611c6886828701611b73565b9350506020611c7986828701611b88565b9250506040611c8a86828701611b88565b9150509250925092565b600060208284031215611ca657600080fd5b6000611cb484828501611b88565b91505092915050565b6000611cc98383611e96565b60208301905092915050565b611cde81612354565b82525050565b611ced816122fa565b82525050565b611cfc816122e8565b82525050565b6000611d0d826121cd565b611d1781856121e5565b9350611d22836121bd565b8060005b83811015611d53578151611d3a8882611cbd565b9750611d45836121d8565b925050600181019050611d26565b5085935050505092915050565b611d698161230c565b82525050565b611d7881612366565b82525050565b6000611d8b601f836121f6565b9150611d96826124c6565b602082019050919050565b6000611dae6020836121f6565b9150611db9826124ef565b602082019050919050565b6000611dd16033836121f6565b9150611ddc82612518565b604082019050919050565b6000611df46012836121f6565b9150611dff82612567565b602082019050919050565b6000611e176012836121f6565b9150611e2282612590565b602082019050919050565b6000611e3a601c836121f6565b9150611e45826125b9565b602082019050919050565b6000611e5d6037836121f6565b9150611e68826125e2565b604082019050919050565b6000611e80601f836121f6565b9150611e8b82612631565b602082019050919050565b611e9f8161234a565b82525050565b611eae8161234a565b82525050565b6000602082019050611ec96000830184611ce4565b92915050565b6000606082019050611ee46000830186611ce4565b611ef16020830185611ce4565b611efe6040830184611ce4565b949350505050565b6000606082019050611f1b6000830186611cd5565b611f286020830185611cf3565b611f356040830184611ea5565b949350505050565b6000606082019050611f526000830186611cf3565b611f5f6020830185611cd5565b611f6c6040830184611ea5565b949350505050565b60006020820190508181036000830152611f8d81611d7e565b9050919050565b60006020820190508181036000830152611fad81611da1565b9050919050565b60006020820190508181036000830152611fcd81611dc4565b9050919050565b60006020820190508181036000830152611fed81611de7565b9050919050565b6000602082019050818103600083015261200d81611e0a565b9050919050565b6000602082019050818103600083015261202d81611e2d565b9050919050565b6000602082019050818103600083015261204d81611e50565b9050919050565b6000602082019050818103600083015261206d81611e73565b9050919050565b60006020820190506120896000830184611ea5565b92915050565b60006060820190506120a46000830186611ea5565b81810360208301526120b68185611d02565b905081810360408301526120ca8184611d02565b9050949350505050565b600060c0820190506120e96000830189611ea5565b6120f66020830188611d6f565b6121036040830187611ea5565b6121106060830186611ea5565b61211d6080830185611ce4565b61212a60a0830184611d60565b979650505050505050565b600060608201905061214a6000830186611ea5565b6121576020830185611ea5565b6121646040830184611ea5565b949350505050565b6000612176612187565b905061218282826123ae565b919050565b6000604051905090565b600067ffffffffffffffff8211156121ac576121ab612486565b5b602082029050602081019050919050565b6000819050602082019050919050565b600081519050919050565b6000602082019050919050565b600082825260208201905092915050565b600082825260208201905092915050565b60006122128261234a565b915061221d8361234a565b9250827fffffffffffffffffffffffffffffffffffffffffffffffffffffffffffffffff0382111561225257612251612428565b5b828201905092915050565b60006122688261234a565b91506122738361234a565b92508261228357612282612457565b5b828204905092915050565b60006122998261234a565b91506122a48361234a565b9250817fffffffffffffffffffffffffffffffffffffffffffffffffffffffffffffffff04831182151516156122dd576122dc612428565b5b828202905092915050565b60006122f38261232a565b9050919050565b60006123058261232a565b9050919050565b60008115159050919050565b6000612323826122e8565b9050919050565b600073ffffffffffffffffffffffffffffffffffffffff82169050919050565b6000819050919050565b600061235f8261238a565b9050919050565b600061237182612378565b9050919050565b60006123838261232a565b9050919050565b60006123958261239c565b9050919050565b60006123a78261232a565b9050919050565b6123b7826124b5565b810181811067ffffffffffffffff821117156123d6576123d5612486565b5b80604052505050565b60006123ea8261234a565b91507fffffffffffffffffffffffffffffffffffffffffffffffffffffffffffffffff82141561241d5761241c612428565b5b600182019050919050565b7f4e487b7100000000000000000000000000000000000000000000000000000000600052601160045260246000fd5b7f4e487b7100000000000000000000000000000000000000000000000000000000600052601260045260246000fd5b7f4e487b7100000000000000000000000000000000000000000000000000000000600052604160045260246000fd5b6000601f19601f8301169050919050565b7f5072696365206d7573742062652067726561746572207468616e207a65726f00600082015250565b7f4f776e6572732063616e277420627579207468656972206f776e206974656d73600082015250565b7f6e6f7420656e6f75676820657468657220746f20636f766572206974656d207060008201527f7269636520616e64206d61726b65742066656500000000000000000000000000602082015250565b7f4974656d2069736e2774206f6e2073616c650000000000000000000000000000600082015250565b7f6974656d20646f65736e27742065786973740000000000000000000000000000600082015250565b7f5468657265206973206e6f20746f6b656e7320746f2063726561746500000000600082015250565b7f546f6b656e7320616e6420707269636573206d7573742068617665207468652060008201527f73616d6520616d6f756e74206f6620656c656d656e7473000000000000000000602082015250565b7f5265656e7472616e637947756172643a207265656e7472616e742063616c6c00600082015250565b612663816122e8565b811461266e57600080fd5b50565b61267a81612318565b811461268557600080fd5b50565b6126918161234a565b811461269c57600080fd5b5056fea2646970667358221220435006e3774c41ec40b0132e8f9a233ba86bdbd52a195a215132ff240fbb54e664736f6c63430008040033",
  "linkReferences": {},
  "deployedLinkReferences": {}
}