{
  "_format": "hh-sol-artifact-1",
  "contractName": "Marketplace",
  "sourceName": "src/solidity/contracts/Marketplace.sol",
  "abi": [
    {
      "inputs": [
        {
          "internalType": "address",
          "name": "_accountOwnerMarketplace",
          "type": "address"
        },
        {
          "internalType": "address",
          "name": "_accountGamerOrganization",
          "type": "address"
        },
        {
          "internalType": "uint256",
          "name": "_feeMarketplacePercent",
          "type": "uint256"
        },
        {
          "internalType": "uint256",
          "name": "_feeGamerOrganizationPercent",
          "type": "uint256"
        },
        {
          "internalType": "uint256",
          "name": "_feeDiamondPercent",
          "type": "uint256"
        },
        {
          "internalType": "uint256",
          "name": "_feeGoldPercent",
          "type": "uint256"
        },
        {
          "internalType": "uint256",
          "name": "_feeSilverPercent",
          "type": "uint256"
        }
      ],
      "stateMutability": "nonpayable",
      "type": "constructor"
    },
    {
      "anonymous": false,
      "inputs": [
        {
          "indexed": false,
          "internalType": "uint256",
          "name": "itemId",
          "type": "uint256"
        },
        {
          "indexed": true,
          "internalType": "address",
          "name": "nft",
          "type": "address"
        },
        {
          "indexed": false,
          "internalType": "uint256",
          "name": "tokenId",
          "type": "uint256"
        },
        {
          "indexed": false,
          "internalType": "uint256",
          "name": "price",
          "type": "uint256"
        },
        {
          "indexed": true,
          "internalType": "address",
          "name": "seller",
          "type": "address"
        },
        {
          "indexed": true,
          "internalType": "address",
          "name": "buyer",
          "type": "address"
        }
      ],
      "name": "Bought",
      "type": "event"
    },
    {
      "anonymous": false,
      "inputs": [
        {
          "indexed": false,
          "internalType": "uint256",
          "name": "itemId",
          "type": "uint256"
        },
        {
          "indexed": true,
          "internalType": "address",
          "name": "nft",
          "type": "address"
        },
        {
          "indexed": false,
          "internalType": "uint256[]",
          "name": "tokenIds",
          "type": "uint256[]"
        },
        {
          "indexed": false,
          "internalType": "uint256[]",
          "name": "prices",
          "type": "uint256[]"
        },
        {
          "indexed": true,
          "internalType": "address",
          "name": "seller",
          "type": "address"
        }
      ],
      "name": "Offered",
      "type": "event"
    },
    {
      "anonymous": false,
      "inputs": [
        {
          "indexed": false,
          "internalType": "uint256",
          "name": "itemId",
          "type": "uint256"
        },
        {
          "indexed": false,
          "internalType": "uint256",
          "name": "tokenId",
          "type": "uint256"
        },
        {
          "indexed": false,
          "internalType": "uint256",
          "name": "price",
          "type": "uint256"
        },
        {
          "indexed": true,
          "internalType": "address",
          "name": "seller",
          "type": "address"
        }
      ],
      "name": "Published",
      "type": "event"
    },
    {
      "inputs": [],
      "name": "accountGamerOrganization",
      "outputs": [
        {
          "internalType": "address payable",
          "name": "",
          "type": "address"
        }
      ],
      "stateMutability": "view",
      "type": "function"
    },
    {
      "inputs": [],
      "name": "accountOwnerMarketplace",
      "outputs": [
        {
          "internalType": "address payable",
          "name": "",
          "type": "address"
        }
      ],
      "stateMutability": "view",
      "type": "function"
    },
    {
      "inputs": [
        {
          "internalType": "uint256",
          "name": "",
          "type": "uint256"
        }
      ],
      "name": "accountsLevels",
      "outputs": [
        {
          "internalType": "address payable",
          "name": "diamond",
          "type": "address"
        },
        {
          "internalType": "address payable",
          "name": "gold",
          "type": "address"
        },
        {
          "internalType": "address payable",
          "name": "silver",
          "type": "address"
        }
      ],
      "stateMutability": "view",
      "type": "function"
    },
    {
      "inputs": [],
      "name": "feeDiamondPercent",
      "outputs": [
        {
          "internalType": "uint256",
          "name": "",
          "type": "uint256"
        }
      ],
      "stateMutability": "view",
      "type": "function"
    },
    {
      "inputs": [],
      "name": "feeGamerOrganizationPercent",
      "outputs": [
        {
          "internalType": "uint256",
          "name": "",
          "type": "uint256"
        }
      ],
      "stateMutability": "view",
      "type": "function"
    },
    {
      "inputs": [],
      "name": "feeGoldPercent",
      "outputs": [
        {
          "internalType": "uint256",
          "name": "",
          "type": "uint256"
        }
      ],
      "stateMutability": "view",
      "type": "function"
    },
    {
      "inputs": [],
      "name": "feeMarketplacePercent",
      "outputs": [
        {
          "internalType": "uint256",
          "name": "",
          "type": "uint256"
        }
      ],
      "stateMutability": "view",
      "type": "function"
    },
    {
      "inputs": [],
      "name": "feeSilverPercent",
      "outputs": [
        {
          "internalType": "uint256",
          "name": "",
          "type": "uint256"
        }
      ],
      "stateMutability": "view",
      "type": "function"
    },
    {
      "inputs": [
        {
          "internalType": "uint256",
          "name": "_itemId",
          "type": "uint256"
        }
      ],
      "name": "getTotalPrice",
      "outputs": [
        {
          "internalType": "uint256",
          "name": "",
          "type": "uint256"
        }
      ],
      "stateMutability": "view",
      "type": "function"
    },
    {
      "inputs": [],
      "name": "itemCount",
      "outputs": [
        {
          "internalType": "uint256",
          "name": "",
          "type": "uint256"
        }
      ],
      "stateMutability": "view",
      "type": "function"
    },
    {
      "inputs": [
        {
          "internalType": "uint256",
          "name": "",
          "type": "uint256"
        }
      ],
      "name": "itemCountOfPurchases",
      "outputs": [
        {
          "internalType": "uint256",
          "name": "",
          "type": "uint256"
        }
      ],
      "stateMutability": "view",
      "type": "function"
    },
    {
      "inputs": [
        {
          "internalType": "uint256",
          "name": "",
          "type": "uint256"
        }
      ],
      "name": "items",
      "outputs": [
        {
          "internalType": "uint256",
          "name": "itemId",
          "type": "uint256"
        },
        {
          "internalType": "contract IERC721",
          "name": "nft",
          "type": "address"
        },
        {
          "internalType": "uint256",
          "name": "tokenId",
          "type": "uint256"
        },
        {
          "internalType": "uint256",
          "name": "price",
          "type": "uint256"
        },
        {
          "internalType": "address payable",
          "name": "seller",
          "type": "address"
        },
        {
          "internalType": "bool",
          "name": "onSale",
          "type": "bool"
        }
      ],
      "stateMutability": "view",
      "type": "function"
    },
    {
      "inputs": [
        {
          "internalType": "contract IERC721",
          "name": "_nft",
          "type": "address"
        },
        {
          "internalType": "contract NFT",
          "name": "_nftAddress",
          "type": "address"
        },
        {
          "internalType": "string[]",
          "name": "_tokenURIS",
          "type": "string[]"
        },
        {
          "internalType": "uint256[]",
          "name": "_prices",
          "type": "uint256[]"
        }
      ],
      "name": "makeItem",
      "outputs": [],
      "stateMutability": "nonpayable",
      "type": "function"
    },
    {
      "inputs": [
        {
          "internalType": "contract IERC721",
          "name": "_nft",
          "type": "address"
        },
        {
          "internalType": "uint256",
          "name": "_tokenId",
          "type": "uint256"
        },
        {
          "internalType": "uint256",
          "name": "_price",
          "type": "uint256"
        }
      ],
      "name": "publishItem",
      "outputs": [],
      "stateMutability": "nonpayable",
      "type": "function"
    },
    {
      "inputs": [
        {
          "internalType": "uint256",
          "name": "_itemId",
          "type": "uint256"
        }
      ],
      "name": "purchaseItem",
      "outputs": [],
      "stateMutability": "payable",
      "type": "function"
    }
  ],
  "bytecode": "0x6101606040523480156200001257600080fd5b5060405162002e3838038062002e38833981810160405281019062000038919062000155565b600160008190555086600160006101000a81548173ffffffffffffffffffffffffffffffffffffffff021916908373ffffffffffffffffffffffffffffffffffffffff1602179055508673ffffffffffffffffffffffffffffffffffffffff1660808173ffffffffffffffffffffffffffffffffffffffff1660601b815250508573ffffffffffffffffffffffffffffffffffffffff1660a08173ffffffffffffffffffffffffffffffffffffffff1660601b815250508460c081815250508360e081815250508261010081815250508161012081815250508061014081815250505050505050505062000274565b600081519050620001388162000240565b92915050565b6000815190506200014f816200025a565b92915050565b600080600080600080600060e0888a0312156200017157600080fd5b6000620001818a828b0162000127565b9750506020620001948a828b0162000127565b9650506040620001a78a828b016200013e565b9550506060620001ba8a828b016200013e565b9450506080620001cd8a828b016200013e565b93505060a0620001e08a828b016200013e565b92505060c0620001f38a828b016200013e565b91505092959891949750929550565b60006200020f8262000216565b9050919050565b600073ffffffffffffffffffffffffffffffffffffffff82169050919050565b6000819050919050565b6200024b8162000202565b81146200025757600080fd5b50565b620002658162000236565b81146200027157600080fd5b50565b60805160601c60a05160601c60c05160e051610100516101205161014051612ad0620003686000396000818161050c01528181610e64015281816117570152818161180101526118ab0152600081816104be01528181610dfd01528181610e85015281816115e2015261168c01526000818161041001528181610dc101528181610e1e01528181610ea601526115170152600081816103c801528181610d8b01526114520152600081816104e201528181610d6a01526113be0152600081816103ec015261141501526000818161098401528181610af101528181610c2c015281816113810152611abd0152612ad06000f3fe6080604052600436106100e85760003560e01c80636bfb0d011161008a578063bfb231d211610059578063bfb231d2146102e8578063ca7dd3751461032a578063d38ea5bf14610367578063e3ab781b14610383576100e8565b80636bfb0d011461024057806385de5ecc1461026b5780639e555090146102965780639efa02a6146102bf576100e8565b8063239bbf5b116100c6578063239bbf5b146101805780633b1d198c146101ab578063427a0b22146101ea578063662fc08814610215576100e8565b806308a31216146100ed578063158cb02a1461012a5780631f5044a714610155575b600080fd5b3480156100f957600080fd5b50610114600480360381019061010f9190611efa565b6103ae565b604051610121919061237b565b60405180910390f35b34801561013657600080fd5b5061013f6103c6565b60405161014c919061237b565b60405180910390f35b34801561016157600080fd5b5061016a6103ea565b60405161017791906121b9565b60405180910390f35b34801561018c57600080fd5b5061019561040e565b6040516101a2919061237b565b60405180910390f35b3480156101b757600080fd5b506101d260048036038101906101cd9190611efa565b610432565b6040516101e1939291906121d4565b60405180910390f35b3480156101f657600080fd5b506101ff6104bc565b60405161020c919061237b565b60405180910390f35b34801561022157600080fd5b5061022a6104e0565b604051610237919061237b565b60405180910390f35b34801561024c57600080fd5b50610255610504565b604051610262919061237b565b60405180910390f35b34801561027757600080fd5b5061028061050a565b60405161028d919061237b565b60405180910390f35b3480156102a257600080fd5b506102bd60048036038101906102b89190611eab565b61052e565b005b3480156102cb57600080fd5b506102e660048036038101906102e19190611e18565b61073e565b005b3480156102f457600080fd5b5061030f600480360381019061030a9190611efa565b610cc4565b604051610321969594939291906123db565b60405180910390f35b34801561033657600080fd5b50610351600480360381019061034c9190611efa565b610d4d565b60405161035e919061237b565b60405180910390f35b610381600480360381019061037c9190611efa565b610f2c565b005b34801561038f57600080fd5b50610398611abb565b6040516103a591906121b9565b60405180910390f35b60036020528060005260406000206000915090505481565b7f000000000000000000000000000000000000000000000000000000000000000081565b7f000000000000000000000000000000000000000000000000000000000000000081565b7f000000000000000000000000000000000000000000000000000000000000000081565b60056020528060005260406000206000915090508060000160009054906101000a900473ffffffffffffffffffffffffffffffffffffffff16908060010160009054906101000a900473ffffffffffffffffffffffffffffffffffffffff16908060020160009054906101000a900473ffffffffffffffffffffffffffffffffffffffff16905083565b7f000000000000000000000000000000000000000000000000000000000000000081565b7f000000000000000000000000000000000000000000000000000000000000000081565b60025481565b7f000000000000000000000000000000000000000000000000000000000000000081565b60026000541415610574576040517f08c379a000000000000000000000000000000000000000000000000000000000815260040161056b9061235b565b60405180910390fd5b60026000819055508273ffffffffffffffffffffffffffffffffffffffff16636352211e836040518263ffffffff1660e01b81526004016105b5919061237b565b60206040518083038186803b1580156105cd57600080fd5b505afa1580156105e1573d6000803e3d6000fd5b505050506040513d601f19601f820116820180604052508101906106059190611dae565b73ffffffffffffffffffffffffffffffffffffffff163373ffffffffffffffffffffffffffffffffffffffff161461063c57600080fd5b6000811161067f576040517f08c379a00000000000000000000000000000000000000000000000000000000081526004016106769061229b565b60405180910390fd5b80600460008481526020019081526020016000206003018190555060016004600084815260200190815260200160002060040160146101000a81548160ff0219169083151502179055503373ffffffffffffffffffffffffffffffffffffffff167f342e849466ccf2dfb594dafa5f75bbf8f84cc6fa4e0c6ca1620bfcaeeabc6232600460008581526020019081526020016000206000015484846040516107299392919061243c565b60405180910390a26001600081905550505050565b600160009054906101000a900473ffffffffffffffffffffffffffffffffffffffff1673ffffffffffffffffffffffffffffffffffffffff163373ffffffffffffffffffffffffffffffffffffffff161461079857600080fd5b600260005414156107de576040517f08c379a00000000000000000000000000000000000000000000000000000000081526004016107d59061235b565b60405180910390fd5b6002600081905550600082511161082a576040517f08c379a00000000000000000000000000000000000000000000000000000000081526004016108219061233b565b60405180910390fd5b60008373ffffffffffffffffffffffffffffffffffffffff16635768f271846040518263ffffffff1660e01b81526004016108659190612279565b600060405180830381600087803b15801561087f57600080fd5b505af1158015610893573d6000803e3d6000fd5b505050506040513d6000823e3d601f19601f820116820180604052508101906108bc9190611dd7565b905060005b8151811015610c29576000838281518110610905577f4e487b7100000000000000000000000000000000000000000000000000000000600052603260045260246000fd5b60200260200101511161094d576040517f08c379a00000000000000000000000000000000000000000000000000000000081526004016109449061229b565b60405180910390fd5b60026000815480929190610960906127ec565b91905055508573ffffffffffffffffffffffffffffffffffffffff166323b872dd307f00000000000000000000000000000000000000000000000000000000000000008585815181106109dc577f4e487b7100000000000000000000000000000000000000000000000000000000600052603260045260246000fd5b60200260200101516040518463ffffffff1660e01b8152600401610a0293929190612242565b600060405180830381600087803b158015610a1c57600080fd5b505af1158015610a30573d6000803e3d6000fd5b505050506040518060c0016040528060025481526020018773ffffffffffffffffffffffffffffffffffffffff168152602001838381518110610a9c577f4e487b7100000000000000000000000000000000000000000000000000000000600052603260045260246000fd5b60200260200101518152602001848381518110610ae2577f4e487b7100000000000000000000000000000000000000000000000000000000600052603260045260246000fd5b602002602001015181526020017f000000000000000000000000000000000000000000000000000000000000000073ffffffffffffffffffffffffffffffffffffffff168152602001600115158152506004600060025481526020019081526020016000206000820151816000015560208201518160010160006101000a81548173ffffffffffffffffffffffffffffffffffffffff021916908373ffffffffffffffffffffffffffffffffffffffff160217905550604082015181600201556060820151816003015560808201518160040160006101000a81548173ffffffffffffffffffffffffffffffffffffffff021916908373ffffffffffffffffffffffffffffffffffffffff16021790555060a08201518160040160146101000a81548160ff0219169083151502179055509050508080610c21906127ec565b9150506108c1565b507f000000000000000000000000000000000000000000000000000000000000000073ffffffffffffffffffffffffffffffffffffffff168573ffffffffffffffffffffffffffffffffffffffff167fa7a25a41bf2dd955eec8125fce9de171ecd45961064d3c59d983c026cbbcfd806002548486604051610cad93929190612396565b60405180910390a350600160008190555050505050565b60046020528060005260406000206000915090508060000154908060010160009054906101000a900473ffffffffffffffffffffffffffffffffffffffff16908060020154908060030154908060040160009054906101000a900473ffffffffffffffffffffffffffffffffffffffff16908060040160149054906101000a900460ff16905086565b6000806003600084815260200190815260200160002054905060007f00000000000000000000000000000000000000000000000000000000000000007f0000000000000000000000000000000000000000000000000000000000000000610db491906125c0565b90506002821415610df2577f000000000000000000000000000000000000000000000000000000000000000081610deb91906125c0565b9050610ee9565b6003821415610e59577f00000000000000000000000000000000000000000000000000000000000000007f0000000000000000000000000000000000000000000000000000000000000000610e4791906125c0565b81610e5291906125c0565b9050610ee8565b6004821415610ee7577f00000000000000000000000000000000000000000000000000000000000000007f00000000000000000000000000000000000000000000000000000000000000007f0000000000000000000000000000000000000000000000000000000000000000610ecf91906125c0565b610ed991906125c0565b81610ee491906125c0565b90505b5b5b6064816064610ef891906125c0565b6004600087815260200190815260200160002060030154610f199190612647565b610f239190612616565b92505050919050565b60026000541415610f72576040517f08c379a0000000000000000000000000000000000000000000000000000000008152600401610f699061235b565b60405180910390fd5b60026000819055506000610f8582610d4d565b9050600082118015610f9957506002548211155b610fd8576040517f08c379a0000000000000000000000000000000000000000000000000000000008152600401610fcf9061231b565b60405180910390fd5b8034101561101b576040517f08c379a0000000000000000000000000000000000000000000000000000000008152600401611012906122db565b60405180910390fd5b600115156004600084815260200190815260200160002060040160149054906101000a900460ff16151514611085576040517f08c379a000000000000000000000000000000000000000000000000000000000815260040161107c906122fb565b60405180910390fd5b3373ffffffffffffffffffffffffffffffffffffffff166004600084815260200190815260200160002060040160009054906101000a900473ffffffffffffffffffffffffffffffffffffffff1673ffffffffffffffffffffffffffffffffffffffff16141561112a576040517f08c379a0000000000000000000000000000000000000000000000000000000008152600401611121906122bb565b60405180910390fd5b6000600360008481526020019081526020016000205414156111a057336005600084815260200190815260200160002060000160006101000a81548173ffffffffffffffffffffffffffffffffffffffff021916908373ffffffffffffffffffffffffffffffffffffffff16021790555061128a565b60016003600084815260200190815260200160002054141561121657336005600084815260200190815260200160002060010160006101000a81548173ffffffffffffffffffffffffffffffffffffffff021916908373ffffffffffffffffffffffffffffffffffffffff160217905550611289565b60026003600084815260200190815260200160002054141561128857336005600084815260200190815260200160002060020160006101000a81548173ffffffffffffffffffffffffffffffffffffffff021916908373ffffffffffffffffffffffffffffffffffffffff1602179055505b5b5b600060046000848152602001908152602001600020905060008160040160009054906101000a900473ffffffffffffffffffffffffffffffffffffffff1690508160040160009054906101000a900473ffffffffffffffffffffffffffffffffffffffff1673ffffffffffffffffffffffffffffffffffffffff166108fc83600301549081150290604051600060405180830381858888f19350505050158015611338573d6000803e3d6000fd5b5060008260040160146101000a81548160ff02191690831515021790555060036000858152602001908152602001600020600081548092919061137a906127ec565b91905055507f000000000000000000000000000000000000000000000000000000000000000073ffffffffffffffffffffffffffffffffffffffff166108fc6113e77f00000000000000000000000000000000000000000000000000000000000000008560030154611adf565b9081150290604051600060405180830381858888f19350505050158015611412573d6000803e3d6000fd5b507f000000000000000000000000000000000000000000000000000000000000000073ffffffffffffffffffffffffffffffffffffffff166108fc61147b7f00000000000000000000000000000000000000000000000000000000000000008560030154611adf565b9081150290604051600060405180830381858888f193505050501580156114a6573d6000803e3d6000fd5b506003806000868152602001908152602001600020541415611571576005600085815260200190815260200160002060000160009054906101000a900473ffffffffffffffffffffffffffffffffffffffff1673ffffffffffffffffffffffffffffffffffffffff166108fc6115407f00000000000000000000000000000000000000000000000000000000000000008560030154611adf565b9081150290604051600060405180830381858888f1935050505015801561156b573d6000803e3d6000fd5b50611903565b6004600360008681526020019081526020016000205414156116e6576005600085815260200190815260200160002060000160009054906101000a900473ffffffffffffffffffffffffffffffffffffffff1673ffffffffffffffffffffffffffffffffffffffff166108fc61160b7f00000000000000000000000000000000000000000000000000000000000000008560030154611adf565b9081150290604051600060405180830381858888f19350505050158015611636573d6000803e3d6000fd5b506005600085815260200190815260200160002060010160009054906101000a900473ffffffffffffffffffffffffffffffffffffffff1673ffffffffffffffffffffffffffffffffffffffff166108fc6116b57f00000000000000000000000000000000000000000000000000000000000000008560030154611adf565b9081150290604051600060405180830381858888f193505050501580156116e0573d6000803e3d6000fd5b50611902565b600560036000868152602001908152602001600020541415611901576005600085815260200190815260200160002060000160009054906101000a900473ffffffffffffffffffffffffffffffffffffffff1673ffffffffffffffffffffffffffffffffffffffff166108fc6117807f00000000000000000000000000000000000000000000000000000000000000008560030154611adf565b9081150290604051600060405180830381858888f193505050501580156117ab573d6000803e3d6000fd5b506005600085815260200190815260200160002060010160009054906101000a900473ffffffffffffffffffffffffffffffffffffffff1673ffffffffffffffffffffffffffffffffffffffff166108fc61182a7f00000000000000000000000000000000000000000000000000000000000000008560030154611adf565b9081150290604051600060405180830381858888f19350505050158015611855573d6000803e3d6000fd5b506005600085815260200190815260200160002060020160009054906101000a900473ffffffffffffffffffffffffffffffffffffffff1673ffffffffffffffffffffffffffffffffffffffff166108fc6118d47f00000000000000000000000000000000000000000000000000000000000000008560030154611adf565b9081150290604051600060405180830381858888f193505050501580156118ff573d6000803e3d6000fd5b505b5b5b8160010160009054906101000a900473ffffffffffffffffffffffffffffffffffffffff1673ffffffffffffffffffffffffffffffffffffffff166323b872dd8360040160009054906101000a900473ffffffffffffffffffffffffffffffffffffffff163385600201546040518463ffffffff1660e01b815260040161198c9392919061220b565b600060405180830381600087803b1580156119a657600080fd5b505af11580156119ba573d6000803e3d6000fd5b50505050338260040160006101000a81548173ffffffffffffffffffffffffffffffffffffffff021916908373ffffffffffffffffffffffffffffffffffffffff1602179055503373ffffffffffffffffffffffffffffffffffffffff168173ffffffffffffffffffffffffffffffffffffffff168360010160009054906101000a900473ffffffffffffffffffffffffffffffffffffffff1673ffffffffffffffffffffffffffffffffffffffff167f8b4c9c8a607d67b321582dd8461041b1dc2ceeca70c8b7f37f8e02095cf2e76d8786600201548760030154604051611aa59392919061243c565b60405180910390a4505050600160008190555050565b7f000000000000000000000000000000000000000000000000000000000000000081565b600060648284611aef9190612647565b611af99190612616565b905092915050565b6000611b14611b0f84612498565b612473565b90508083825260208201905082856020860282011115611b3357600080fd5b60005b85811015611b7d57813567ffffffffffffffff811115611b5557600080fd5b808601611b628982611d5a565b85526020850194506020840193505050600181019050611b36565b5050509392505050565b6000611b9a611b95846124c4565b612473565b90508083825260208201905082856020860282011115611bb957600080fd5b60005b85811015611be95781611bcf8882611d84565b845260208401935060208301925050600181019050611bbc565b5050509392505050565b6000611c06611c01846124c4565b612473565b90508083825260208201905082856020860282011115611c2557600080fd5b60005b85811015611c555781611c3b8882611d99565b845260208401935060208301925050600181019050611c28565b5050509392505050565b6000611c72611c6d846124f0565b612473565b905082815260208101848484011115611c8a57600080fd5b611c95848285612779565b509392505050565b600081519050611cac81612a3e565b92915050565b600082601f830112611cc357600080fd5b8135611cd3848260208601611b01565b91505092915050565b600082601f830112611ced57600080fd5b8135611cfd848260208601611b87565b91505092915050565b600082601f830112611d1757600080fd5b8151611d27848260208601611bf3565b91505092915050565b600081359050611d3f81612a55565b92915050565b600081359050611d5481612a6c565b92915050565b600082601f830112611d6b57600080fd5b8135611d7b848260208601611c5f565b91505092915050565b600081359050611d9381612a83565b92915050565b600081519050611da881612a83565b92915050565b600060208284031215611dc057600080fd5b6000611dce84828501611c9d565b91505092915050565b600060208284031215611de957600080fd5b600082015167ffffffffffffffff811115611e0357600080fd5b611e0f84828501611d06565b91505092915050565b60008060008060808587031215611e2e57600080fd5b6000611e3c87828801611d30565b9450506020611e4d87828801611d45565b935050604085013567ffffffffffffffff811115611e6a57600080fd5b611e7687828801611cb2565b925050606085013567ffffffffffffffff811115611e9357600080fd5b611e9f87828801611cdc565b91505092959194509250565b600080600060608486031215611ec057600080fd5b6000611ece86828701611d30565b9350506020611edf86828701611d84565b9250506040611ef086828701611d84565b9150509250925092565b600060208284031215611f0c57600080fd5b6000611f1a84828501611d84565b91505092915050565b6000611f2f838361206d565b905092915050565b6000611f43838361219b565b60208301905092915050565b611f588161271f565b82525050565b611f67816126b3565b82525050565b611f76816126a1565b82525050565b6000611f8782612541565b611f91818561257c565b935083602082028501611fa385612521565b8060005b85811015611fdf5784840389528151611fc08582611f23565b9450611fcb83612562565b925060208a01995050600181019050611fa7565b50829750879550505050505092915050565b6000611ffc8261254c565b612006818561258d565b935061201183612531565b8060005b838110156120425781516120298882611f37565b97506120348361256f565b925050600181019050612015565b5085935050505092915050565b612058816126c5565b82525050565b61206781612731565b82525050565b600061207882612557565b612082818561259e565b9350612092818560208601612788565b61209b816128c2565b840191505092915050565b60006120b3601f836125af565b91506120be826128d3565b602082019050919050565b60006120d66020836125af565b91506120e1826128fc565b602082019050919050565b60006120f96033836125af565b915061210482612925565b604082019050919050565b600061211c6012836125af565b915061212782612974565b602082019050919050565b600061213f6012836125af565b915061214a8261299d565b602082019050919050565b60006121626021836125af565b915061216d826129c6565b604082019050919050565b6000612185601f836125af565b915061219082612a15565b602082019050919050565b6121a481612715565b82525050565b6121b381612715565b82525050565b60006020820190506121ce6000830184611f5e565b92915050565b60006060820190506121e96000830186611f5e565b6121f66020830185611f5e565b6122036040830184611f5e565b949350505050565b60006060820190506122206000830186611f4f565b61222d6020830185611f6d565b61223a60408301846121aa565b949350505050565b60006060820190506122576000830186611f6d565b6122646020830185611f4f565b61227160408301846121aa565b949350505050565b600060208201905081810360008301526122938184611f7c565b905092915050565b600060208201905081810360008301526122b4816120a6565b9050919050565b600060208201905081810360008301526122d4816120c9565b9050919050565b600060208201905081810360008301526122f4816120ec565b9050919050565b600060208201905081810360008301526123148161210f565b9050919050565b6000602082019050818103600083015261233481612132565b9050919050565b6000602082019050818103600083015261235481612155565b9050919050565b6000602082019050818103600083015261237481612178565b9050919050565b600060208201905061239060008301846121aa565b92915050565b60006060820190506123ab60008301866121aa565b81810360208301526123bd8185611ff1565b905081810360408301526123d18184611ff1565b9050949350505050565b600060c0820190506123f060008301896121aa565b6123fd602083018861205e565b61240a60408301876121aa565b61241760608301866121aa565b6124246080830185611f5e565b61243160a083018461204f565b979650505050505050565b600060608201905061245160008301866121aa565b61245e60208301856121aa565b61246b60408301846121aa565b949350505050565b600061247d61248e565b905061248982826127bb565b919050565b6000604051905090565b600067ffffffffffffffff8211156124b3576124b2612893565b5b602082029050602081019050919050565b600067ffffffffffffffff8211156124df576124de612893565b5b602082029050602081019050919050565b600067ffffffffffffffff82111561250b5761250a612893565b5b612514826128c2565b9050602081019050919050565b6000819050602082019050919050565b6000819050602082019050919050565b600081519050919050565b600081519050919050565b600081519050919050565b6000602082019050919050565b6000602082019050919050565b600082825260208201905092915050565b600082825260208201905092915050565b600082825260208201905092915050565b600082825260208201905092915050565b60006125cb82612715565b91506125d683612715565b9250827fffffffffffffffffffffffffffffffffffffffffffffffffffffffffffffffff0382111561260b5761260a612835565b5b828201905092915050565b600061262182612715565b915061262c83612715565b92508261263c5761263b612864565b5b828204905092915050565b600061265282612715565b915061265d83612715565b9250817fffffffffffffffffffffffffffffffffffffffffffffffffffffffffffffffff048311821515161561269657612695612835565b5b828202905092915050565b60006126ac826126f5565b9050919050565b60006126be826126f5565b9050919050565b60008115159050919050565b60006126dc826126a1565b9050919050565b60006126ee826126a1565b9050919050565b600073ffffffffffffffffffffffffffffffffffffffff82169050919050565b6000819050919050565b600061272a82612755565b9050919050565b600061273c82612743565b9050919050565b600061274e826126f5565b9050919050565b600061276082612767565b9050919050565b6000612772826126f5565b9050919050565b82818337600083830152505050565b60005b838110156127a657808201518184015260208101905061278b565b838111156127b5576000848401525b50505050565b6127c4826128c2565b810181811067ffffffffffffffff821117156127e3576127e2612893565b5b80604052505050565b60006127f782612715565b91507fffffffffffffffffffffffffffffffffffffffffffffffffffffffffffffffff82141561282a57612829612835565b5b600182019050919050565b7f4e487b7100000000000000000000000000000000000000000000000000000000600052601160045260246000fd5b7f4e487b7100000000000000000000000000000000000000000000000000000000600052601260045260246000fd5b7f4e487b7100000000000000000000000000000000000000000000000000000000600052604160045260246000fd5b6000601f19601f8301169050919050565b7f5072696365206d7573742062652067726561746572207468616e207a65726f00600082015250565b7f4f776e6572732063616e277420627579207468656972206f776e206974656d73600082015250565b7f6e6f7420656e6f75676820657468657220746f20636f766572206974656d207060008201527f7269636520616e64206d61726b65742066656500000000000000000000000000602082015250565b7f4974656d2069736e2774206f6e2073616c650000000000000000000000000000600082015250565b7f6974656d20646f65736e27742065786973740000000000000000000000000000600082015250565b7f7468657265206973206e6f20746f6b656e73205572697320746f20637265617460008201527f6500000000000000000000000000000000000000000000000000000000000000602082015250565b7f5265656e7472616e637947756172643a207265656e7472616e742063616c6c00600082015250565b612a47816126a1565b8114612a5257600080fd5b50565b612a5e816126d1565b8114612a6957600080fd5b50565b612a75816126e3565b8114612a8057600080fd5b50565b612a8c81612715565b8114612a9757600080fd5b5056fea26469706673582212209a93316f6b475f6cb8f8836abd7a0b38f347291cc8c0239ac4b811fa7857b87664736f6c63430008040033",
  "linkReferences": {},
  "deployedLinkReferences": {}
}