{
  "_format": "hh-sol-artifact-1",
  "contractName": "NFT",
  "sourceName": "src/solidity/contracts/NFT.sol",
  "abi": [
    {
      "inputs": [
        {
          "internalType": "address",
          "name": "_owner",
          "type": "address"
        }
      ],
      "stateMutability": "nonpayable",
      "type": "constructor"
    },
    {
      "anonymous": false,
      "inputs": [
        {
          "indexed": true,
          "internalType": "address",
          "name": "owner",
          "type": "address"
        },
        {
          "indexed": true,
          "internalType": "address",
          "name": "approved",
          "type": "address"
        },
        {
          "indexed": true,
          "internalType": "uint256",
          "name": "tokenId",
          "type": "uint256"
        }
      ],
      "name": "Approval",
      "type": "event"
    },
    {
      "anonymous": false,
      "inputs": [
        {
          "indexed": true,
          "internalType": "address",
          "name": "owner",
          "type": "address"
        },
        {
          "indexed": true,
          "internalType": "address",
          "name": "operator",
          "type": "address"
        },
        {
          "indexed": false,
          "internalType": "bool",
          "name": "approved",
          "type": "bool"
        }
      ],
      "name": "ApprovalForAll",
      "type": "event"
    },
    {
      "anonymous": false,
      "inputs": [
        {
          "indexed": true,
          "internalType": "address",
          "name": "from",
          "type": "address"
        },
        {
          "indexed": true,
          "internalType": "address",
          "name": "to",
          "type": "address"
        },
        {
          "indexed": true,
          "internalType": "uint256",
          "name": "tokenId",
          "type": "uint256"
        }
      ],
      "name": "Transfer",
      "type": "event"
    },
    {
      "inputs": [
        {
          "internalType": "address",
          "name": "to",
          "type": "address"
        },
        {
          "internalType": "uint256",
          "name": "tokenId",
          "type": "uint256"
        }
      ],
      "name": "approve",
      "outputs": [],
      "stateMutability": "nonpayable",
      "type": "function"
    },
    {
      "inputs": [
        {
          "internalType": "address",
          "name": "owner",
          "type": "address"
        }
      ],
      "name": "balanceOf",
      "outputs": [
        {
          "internalType": "uint256",
          "name": "",
          "type": "uint256"
        }
      ],
      "stateMutability": "view",
      "type": "function"
    },
    {
      "inputs": [
        {
          "internalType": "uint256",
          "name": "tokenId",
          "type": "uint256"
        }
      ],
      "name": "getApproved",
      "outputs": [
        {
          "internalType": "address",
          "name": "",
          "type": "address"
        }
      ],
      "stateMutability": "view",
      "type": "function"
    },
    {
      "inputs": [
        {
          "internalType": "address",
          "name": "owner",
          "type": "address"
        },
        {
          "internalType": "address",
          "name": "operator",
          "type": "address"
        }
      ],
      "name": "isApprovedForAll",
      "outputs": [
        {
          "internalType": "bool",
          "name": "",
          "type": "bool"
        }
      ],
      "stateMutability": "view",
      "type": "function"
    },
    {
      "inputs": [
        {
          "internalType": "string[]",
          "name": "_tokenURIS",
          "type": "string[]"
        },
        {
          "internalType": "address",
          "name": "_marketplaceContract",
          "type": "address"
        }
      ],
      "name": "mint",
      "outputs": [
        {
          "internalType": "uint256[]",
          "name": "",
          "type": "uint256[]"
        }
      ],
      "stateMutability": "nonpayable",
      "type": "function"
    },
    {
      "inputs": [],
      "name": "name",
      "outputs": [
        {
          "internalType": "string",
          "name": "",
          "type": "string"
        }
      ],
      "stateMutability": "view",
      "type": "function"
    },
    {
      "inputs": [
        {
          "internalType": "uint256",
          "name": "tokenId",
          "type": "uint256"
        }
      ],
      "name": "ownerOf",
      "outputs": [
        {
          "internalType": "address",
          "name": "",
          "type": "address"
        }
      ],
      "stateMutability": "view",
      "type": "function"
    },
    {
      "inputs": [
        {
          "internalType": "address",
          "name": "from",
          "type": "address"
        },
        {
          "internalType": "address",
          "name": "to",
          "type": "address"
        },
        {
          "internalType": "uint256",
          "name": "tokenId",
          "type": "uint256"
        }
      ],
      "name": "safeTransferFrom",
      "outputs": [],
      "stateMutability": "nonpayable",
      "type": "function"
    },
    {
      "inputs": [
        {
          "internalType": "address",
          "name": "from",
          "type": "address"
        },
        {
          "internalType": "address",
          "name": "to",
          "type": "address"
        },
        {
          "internalType": "uint256",
          "name": "tokenId",
          "type": "uint256"
        },
        {
          "internalType": "bytes",
          "name": "_data",
          "type": "bytes"
        }
      ],
      "name": "safeTransferFrom",
      "outputs": [],
      "stateMutability": "nonpayable",
      "type": "function"
    },
    {
      "inputs": [
        {
          "internalType": "address",
          "name": "operator",
          "type": "address"
        },
        {
          "internalType": "bool",
          "name": "approved",
          "type": "bool"
        }
      ],
      "name": "setApprovalForAll",
      "outputs": [],
      "stateMutability": "nonpayable",
      "type": "function"
    },
    {
      "inputs": [
        {
          "internalType": "bytes4",
          "name": "interfaceId",
          "type": "bytes4"
        }
      ],
      "name": "supportsInterface",
      "outputs": [
        {
          "internalType": "bool",
          "name": "",
          "type": "bool"
        }
      ],
      "stateMutability": "view",
      "type": "function"
    },
    {
      "inputs": [],
      "name": "symbol",
      "outputs": [
        {
          "internalType": "string",
          "name": "",
          "type": "string"
        }
      ],
      "stateMutability": "view",
      "type": "function"
    },
    {
      "inputs": [],
      "name": "tokenId",
      "outputs": [
        {
          "internalType": "uint256",
          "name": "",
          "type": "uint256"
        }
      ],
      "stateMutability": "view",
      "type": "function"
    },
    {
      "inputs": [
        {
          "internalType": "uint256",
          "name": "tokenId",
          "type": "uint256"
        }
      ],
      "name": "tokenURI",
      "outputs": [
        {
          "internalType": "string",
          "name": "",
          "type": "string"
        }
      ],
      "stateMutability": "view",
      "type": "function"
    },
    {
      "inputs": [
        {
          "internalType": "address",
          "name": "from",
          "type": "address"
        },
        {
          "internalType": "address",
          "name": "to",
          "type": "address"
        },
        {
          "internalType": "uint256",
          "name": "tokenId",
          "type": "uint256"
        }
      ],
      "name": "transferFrom",
      "outputs": [],
      "stateMutability": "nonpayable",
      "type": "function"
    }
  ],
  "bytecode": "0x60806040523480156200001157600080fd5b5060405162003234380380620032348339818101604052810190620000379190620001e6565b6040518060400160405280600b81526020017f47616d65722043617264730000000000000000000000000000000000000000008152506040518060400160405280600381526020017f45544800000000000000000000000000000000000000000000000000000000008152508160009080519060200190620000bb9291906200011f565b508060019080519060200190620000d49291906200011f565b50505080600860006101000a81548173ffffffffffffffffffffffffffffffffffffffff021916908373ffffffffffffffffffffffffffffffffffffffff16021790555050620002c5565b8280546200012d9062000246565b90600052602060002090601f0160209004810192826200015157600085556200019d565b82601f106200016c57805160ff19168380011785556200019d565b828001600101855582156200019d579182015b828111156200019c5782518255916020019190600101906200017f565b5b509050620001ac9190620001b0565b5090565b5b80821115620001cb576000816000905550600101620001b1565b5090565b600081519050620001e081620002ab565b92915050565b600060208284031215620001f957600080fd5b60006200020984828501620001cf565b91505092915050565b60006200021f8262000226565b9050919050565b600073ffffffffffffffffffffffffffffffffffffffff82169050919050565b600060028204905060018216806200025f57607f821691505b602082108114156200027657620002756200027c565b5b50919050565b7f4e487b7100000000000000000000000000000000000000000000000000000000600052602260045260246000fd5b620002b68162000212565b8114620002c257600080fd5b50565b612f5f80620002d56000396000f3fe608060405234801561001057600080fd5b50600436106100f55760003560e01c80636352211e11610097578063b22c421f11610066578063b22c421f14610284578063b88d4fde146102b4578063c87b56dd146102d0578063e985e9c514610300576100f5565b80636352211e146101ea57806370a082311461021a57806395d89b411461024a578063a22cb46514610268576100f5565b8063095ea7b3116100d3578063095ea7b31461017857806317d70f7c1461019457806323b872dd146101b257806342842e0e146101ce576100f5565b806301ffc9a7146100fa57806306fdde031461012a578063081812fc14610148575b600080fd5b610114600480360381019061010f9190611f00565b610330565b60405161012191906123ad565b60405180910390f35b610132610412565b60405161013f91906123c8565b60405180910390f35b610162600480360381019061015d9190611f52565b6104a4565b60405161016f9190612324565b60405180910390f35b610192600480360381019061018d9190611e70565b610529565b005b61019c610641565b6040516101a991906125ea565b60405180910390f35b6101cc60048036038101906101c79190611d6a565b610647565b005b6101e860048036038101906101e39190611d6a565b6106a7565b005b61020460048036038101906101ff9190611f52565b6106c7565b6040516102119190612324565b60405180910390f35b610234600480360381019061022f9190611d05565b610779565b60405161024191906125ea565b60405180910390f35b610252610831565b60405161025f91906123c8565b60405180910390f35b610282600480360381019061027d9190611e34565b6108c3565b005b61029e60048036038101906102999190611eac565b6108d9565b6040516102ab919061238b565b60405180910390f35b6102ce60048036038101906102c99190611db9565b610a96565b005b6102ea60048036038101906102e59190611f52565b610af8565b6040516102f791906123c8565b60405180910390f35b61031a60048036038101906103159190611d2e565b610c4a565b60405161032791906123ad565b60405180910390f35b60007f80ac58cd000000000000000000000000000000000000000000000000000000007bffffffffffffffffffffffffffffffffffffffffffffffffffffffff1916827bffffffffffffffffffffffffffffffffffffffffffffffffffffffff191614806103fb57507f5b5e139f000000000000000000000000000000000000000000000000000000007bffffffffffffffffffffffffffffffffffffffffffffffffffffffff1916827bffffffffffffffffffffffffffffffffffffffffffffffffffffffff1916145b8061040b575061040a82610cde565b5b9050919050565b606060008054610421906128a5565b80601f016020809104026020016040519081016040528092919081815260200182805461044d906128a5565b801561049a5780601f1061046f5761010080835404028352916020019161049a565b820191906000526020600020905b81548152906001019060200180831161047d57829003601f168201915b5050505050905090565b60006104af82610d48565b6104ee576040517f08c379a00000000000000000000000000000000000000000000000000000000081526004016104e59061256a565b60405180910390fd5b6004600083815260200190815260200160002060009054906101000a900473ffffffffffffffffffffffffffffffffffffffff169050919050565b6000610534826106c7565b90508073ffffffffffffffffffffffffffffffffffffffff168373ffffffffffffffffffffffffffffffffffffffff1614156105a5576040517f08c379a000000000000000000000000000000000000000000000000000000000815260040161059c906125aa565b60405180910390fd5b8073ffffffffffffffffffffffffffffffffffffffff166105c4610db4565b73ffffffffffffffffffffffffffffffffffffffff1614806105f357506105f2816105ed610db4565b610c4a565b5b610632576040517f08c379a0000000000000000000000000000000000000000000000000000000008152600401610629906124aa565b60405180910390fd5b61063c8383610dbc565b505050565b60075481565b610658610652610db4565b82610e75565b610697576040517f08c379a000000000000000000000000000000000000000000000000000000000815260040161068e906125ca565b60405180910390fd5b6106a2838383610f53565b505050565b6106c283838360405180602001604052806000815250610a96565b505050565b6000806002600084815260200190815260200160002060009054906101000a900473ffffffffffffffffffffffffffffffffffffffff169050600073ffffffffffffffffffffffffffffffffffffffff168173ffffffffffffffffffffffffffffffffffffffff161415610770576040517f08c379a0000000000000000000000000000000000000000000000000000000008152600401610767906124ea565b60405180910390fd5b80915050919050565b60008073ffffffffffffffffffffffffffffffffffffffff168273ffffffffffffffffffffffffffffffffffffffff1614156107ea576040517f08c379a00000000000000000000000000000000000000000000000000000000081526004016107e1906124ca565b60405180910390fd5b600360008373ffffffffffffffffffffffffffffffffffffffff1673ffffffffffffffffffffffffffffffffffffffff168152602001908152602001600020549050919050565b606060018054610840906128a5565b80601f016020809104026020016040519081016040528092919081815260200182805461086c906128a5565b80156108b95780601f1061088e576101008083540402835291602001916108b9565b820191906000526020600020905b81548152906001019060200180831161089c57829003601f168201915b5050505050905090565b6108d56108ce610db4565b83836111ba565b5050565b6060600860009054906101000a900473ffffffffffffffffffffffffffffffffffffffff1673ffffffffffffffffffffffffffffffffffffffff163373ffffffffffffffffffffffffffffffffffffffff161461093557600080fd5b6000835167ffffffffffffffff811115610978577f4e487b7100000000000000000000000000000000000000000000000000000000600052604160045260246000fd5b6040519080825280602002602001820160405280156109a65781602001602082028036833780820191505090505b50905060005b8451811015610a8b57600760008154809291906109c890612908565b91905055506109d933600754611327565b610a25600754868381518110610a18577f4e487b7100000000000000000000000000000000000000000000000000000000600052603260045260246000fd5b6020026020010151611345565b600754828281518110610a61577f4e487b7100000000000000000000000000000000000000000000000000000000600052603260045260246000fd5b602002602001018181525050610a788460016108c3565b8080610a8390612908565b9150506109ac565b508091505092915050565b610aa7610aa1610db4565b83610e75565b610ae6576040517f08c379a0000000000000000000000000000000000000000000000000000000008152600401610add906125ca565b60405180910390fd5b610af2848484846113b9565b50505050565b6060610b0382610d48565b610b42576040517f08c379a0000000000000000000000000000000000000000000000000000000008152600401610b399061254a565b60405180910390fd5b6000600660008481526020019081526020016000208054610b62906128a5565b80601f0160208091040260200160405190810160405280929190818152602001828054610b8e906128a5565b8015610bdb5780601f10610bb057610100808354040283529160200191610bdb565b820191906000526020600020905b815481529060010190602001808311610bbe57829003601f168201915b505050505090506000610bec611415565b9050600081511415610c02578192505050610c45565b600082511115610c37578082604051602001610c1f929190612300565b60405160208183030381529060405292505050610c45565b610c408461142c565b925050505b919050565b6000600560008473ffffffffffffffffffffffffffffffffffffffff1673ffffffffffffffffffffffffffffffffffffffff16815260200190815260200160002060008373ffffffffffffffffffffffffffffffffffffffff1673ffffffffffffffffffffffffffffffffffffffff16815260200190815260200160002060009054906101000a900460ff16905092915050565b60007f01ffc9a7000000000000000000000000000000000000000000000000000000007bffffffffffffffffffffffffffffffffffffffffffffffffffffffff1916827bffffffffffffffffffffffffffffffffffffffffffffffffffffffff1916149050919050565b60008073ffffffffffffffffffffffffffffffffffffffff166002600084815260200190815260200160002060009054906101000a900473ffffffffffffffffffffffffffffffffffffffff1673ffffffffffffffffffffffffffffffffffffffff1614159050919050565b600033905090565b816004600083815260200190815260200160002060006101000a81548173ffffffffffffffffffffffffffffffffffffffff021916908373ffffffffffffffffffffffffffffffffffffffff160217905550808273ffffffffffffffffffffffffffffffffffffffff16610e2f836106c7565b73ffffffffffffffffffffffffffffffffffffffff167f8c5be1e5ebec7d5bd14f71427d1e84f3dd0314c0f7b2291e5b200ac8c7c3b92560405160405180910390a45050565b6000610e8082610d48565b610ebf576040517f08c379a0000000000000000000000000000000000000000000000000000000008152600401610eb69061248a565b60405180910390fd5b6000610eca836106c7565b90508073ffffffffffffffffffffffffffffffffffffffff168473ffffffffffffffffffffffffffffffffffffffff161480610f0c5750610f0b8185610c4a565b5b80610f4a57508373ffffffffffffffffffffffffffffffffffffffff16610f32846104a4565b73ffffffffffffffffffffffffffffffffffffffff16145b91505092915050565b8273ffffffffffffffffffffffffffffffffffffffff16610f73826106c7565b73ffffffffffffffffffffffffffffffffffffffff1614610fc9576040517f08c379a0000000000000000000000000000000000000000000000000000000008152600401610fc09061240a565b60405180910390fd5b600073ffffffffffffffffffffffffffffffffffffffff168273ffffffffffffffffffffffffffffffffffffffff161415611039576040517f08c379a00000000000000000000000000000000000000000000000000000000081526004016110309061244a565b60405180910390fd5b6110448383836114d3565b61104f600082610dbc565b6001600360008573ffffffffffffffffffffffffffffffffffffffff1673ffffffffffffffffffffffffffffffffffffffff168152602001908152602001600020600082825461109f91906127bb565b925050819055506001600360008473ffffffffffffffffffffffffffffffffffffffff1673ffffffffffffffffffffffffffffffffffffffff16815260200190815260200160002060008282546110f69190612734565b92505081905550816002600083815260200190815260200160002060006101000a81548173ffffffffffffffffffffffffffffffffffffffff021916908373ffffffffffffffffffffffffffffffffffffffff160217905550808273ffffffffffffffffffffffffffffffffffffffff168473ffffffffffffffffffffffffffffffffffffffff167fddf252ad1be2c89b69c2b068fc378daa952ba7f163c4a11628f55a4df523b3ef60405160405180910390a46111b58383836114d8565b505050565b8173ffffffffffffffffffffffffffffffffffffffff168373ffffffffffffffffffffffffffffffffffffffff161415611229576040517f08c379a00000000000000000000000000000000000000000000000000000000081526004016112209061246a565b60405180910390fd5b80600560008573ffffffffffffffffffffffffffffffffffffffff1673ffffffffffffffffffffffffffffffffffffffff16815260200190815260200160002060008473ffffffffffffffffffffffffffffffffffffffff1673ffffffffffffffffffffffffffffffffffffffff16815260200190815260200160002060006101000a81548160ff0219169083151502179055508173ffffffffffffffffffffffffffffffffffffffff168373ffffffffffffffffffffffffffffffffffffffff167f17307eab39ab6107e8899845ad3d59bd9653f200f220920489ca2b5937696c318360405161131a91906123ad565b60405180910390a3505050565b6113418282604051806020016040528060008152506114dd565b5050565b61134e82610d48565b61138d576040517f08c379a00000000000000000000000000000000000000000000000000000000081526004016113849061250a565b60405180910390fd5b806006600084815260200190815260200160002090805190602001906113b4929190611a79565b505050565b6113c4848484610f53565b6113d084848484611538565b61140f576040517f08c379a0000000000000000000000000000000000000000000000000000000008152600401611406906123ea565b60405180910390fd5b50505050565b606060405180602001604052806000815250905090565b606061143782610d48565b611476576040517f08c379a000000000000000000000000000000000000000000000000000000000815260040161146d9061258a565b60405180910390fd5b6000611480611415565b905060008151116114a057604051806020016040528060008152506114cb565b806114aa846116cf565b6040516020016114bb929190612300565b6040516020818303038152906040525b915050919050565b505050565b505050565b6114e7838361187c565b6114f46000848484611538565b611533576040517f08c379a000000000000000000000000000000000000000000000000000000000815260040161152a906123ea565b60405180910390fd5b505050565b60006115598473ffffffffffffffffffffffffffffffffffffffff16611a56565b156116c2578373ffffffffffffffffffffffffffffffffffffffff1663150b7a02611582610db4565b8786866040518563ffffffff1660e01b81526004016115a4949392919061233f565b602060405180830381600087803b1580156115be57600080fd5b505af19250505080156115ef57506040513d601f19601f820116820180604052508101906115ec9190611f29565b60015b611672573d806000811461161f576040519150601f19603f3d011682016040523d82523d6000602084013e611624565b606091505b5060008151141561166a576040517f08c379a0000000000000000000000000000000000000000000000000000000008152600401611661906123ea565b60405180910390fd5b805181602001fd5b63150b7a0260e01b7bffffffffffffffffffffffffffffffffffffffffffffffffffffffff1916817bffffffffffffffffffffffffffffffffffffffffffffffffffffffff1916149150506116c7565b600190505b949350505050565b60606000821415611717576040518060400160405280600181526020017f30000000000000000000000000000000000000000000000000000000000000008152509050611877565b600082905060005b6000821461174957808061173290612908565b915050600a82611742919061278a565b915061171f565b60008167ffffffffffffffff81111561178b577f4e487b7100000000000000000000000000000000000000000000000000000000600052604160045260246000fd5b6040519080825280601f01601f1916602001820160405280156117bd5781602001600182028036833780820191505090505b5090505b60008514611870576001826117d691906127bb565b9150600a856117e59190612951565b60306117f19190612734565b60f81b81838151811061182d577f4e487b7100000000000000000000000000000000000000000000000000000000600052603260045260246000fd5b60200101907effffffffffffffffffffffffffffffffffffffffffffffffffffffffffffff1916908160001a905350600a85611869919061278a565b94506117c1565b8093505050505b919050565b600073ffffffffffffffffffffffffffffffffffffffff168273ffffffffffffffffffffffffffffffffffffffff1614156118ec576040517f08c379a00000000000000000000000000000000000000000000000000000000081526004016118e39061252a565b60405180910390fd5b6118f581610d48565b15611935576040517f08c379a000000000000000000000000000000000000000000000000000000000815260040161192c9061242a565b60405180910390fd5b611941600083836114d3565b6001600360008473ffffffffffffffffffffffffffffffffffffffff1673ffffffffffffffffffffffffffffffffffffffff16815260200190815260200160002060008282546119919190612734565b92505081905550816002600083815260200190815260200160002060006101000a81548173ffffffffffffffffffffffffffffffffffffffff021916908373ffffffffffffffffffffffffffffffffffffffff160217905550808273ffffffffffffffffffffffffffffffffffffffff16600073ffffffffffffffffffffffffffffffffffffffff167fddf252ad1be2c89b69c2b068fc378daa952ba7f163c4a11628f55a4df523b3ef60405160405180910390a4611a52600083836114d8565b5050565b6000808273ffffffffffffffffffffffffffffffffffffffff163b119050919050565b828054611a85906128a5565b90600052602060002090601f016020900481019282611aa75760008555611aee565b82601f10611ac057805160ff1916838001178555611aee565b82800160010185558215611aee579182015b82811115611aed578251825591602001919060010190611ad2565b5b509050611afb9190611aff565b5090565b5b80821115611b18576000816000905550600101611b00565b5090565b6000611b2f611b2a8461262a565b612605565b90508083825260208201905082856020860282011115611b4e57600080fd5b60005b85811015611b9857813567ffffffffffffffff811115611b7057600080fd5b808601611b7d8982611cc6565b85526020850194506020840193505050600181019050611b51565b5050509392505050565b6000611bb5611bb084612656565b612605565b905082815260208101848484011115611bcd57600080fd5b611bd8848285612863565b509392505050565b6000611bf3611bee84612687565b612605565b905082815260208101848484011115611c0b57600080fd5b611c16848285612863565b509392505050565b600081359050611c2d81612ecd565b92915050565b600082601f830112611c4457600080fd5b8135611c54848260208601611b1c565b91505092915050565b600081359050611c6c81612ee4565b92915050565b600081359050611c8181612efb565b92915050565b600081519050611c9681612efb565b92915050565b600082601f830112611cad57600080fd5b8135611cbd848260208601611ba2565b91505092915050565b600082601f830112611cd757600080fd5b8135611ce7848260208601611be0565b91505092915050565b600081359050611cff81612f12565b92915050565b600060208284031215611d1757600080fd5b6000611d2584828501611c1e565b91505092915050565b60008060408385031215611d4157600080fd5b6000611d4f85828601611c1e565b9250506020611d6085828601611c1e565b9150509250929050565b600080600060608486031215611d7f57600080fd5b6000611d8d86828701611c1e565b9350506020611d9e86828701611c1e565b9250506040611daf86828701611cf0565b9150509250925092565b60008060008060808587031215611dcf57600080fd5b6000611ddd87828801611c1e565b9450506020611dee87828801611c1e565b9350506040611dff87828801611cf0565b925050606085013567ffffffffffffffff811115611e1c57600080fd5b611e2887828801611c9c565b91505092959194509250565b60008060408385031215611e4757600080fd5b6000611e5585828601611c1e565b9250506020611e6685828601611c5d565b9150509250929050565b60008060408385031215611e8357600080fd5b6000611e9185828601611c1e565b9250506020611ea285828601611cf0565b9150509250929050565b60008060408385031215611ebf57600080fd5b600083013567ffffffffffffffff811115611ed957600080fd5b611ee585828601611c33565b9250506020611ef685828601611c1e565b9150509250929050565b600060208284031215611f1257600080fd5b6000611f2084828501611c72565b91505092915050565b600060208284031215611f3b57600080fd5b6000611f4984828501611c87565b91505092915050565b600060208284031215611f6457600080fd5b6000611f7284828501611cf0565b91505092915050565b6000611f8783836122e2565b60208301905092915050565b611f9c816127ef565b82525050565b6000611fad826126c8565b611fb781856126f6565b9350611fc2836126b8565b8060005b83811015611ff3578151611fda8882611f7b565b9750611fe5836126e9565b925050600181019050611fc6565b5085935050505092915050565b61200981612801565b82525050565b600061201a826126d3565b6120248185612707565b9350612034818560208601612872565b61203d81612a3e565b840191505092915050565b6000612053826126de565b61205d8185612718565b935061206d818560208601612872565b61207681612a3e565b840191505092915050565b600061208c826126de565b6120968185612729565b93506120a6818560208601612872565b80840191505092915050565b60006120bf603283612718565b91506120ca82612a4f565b604082019050919050565b60006120e2602583612718565b91506120ed82612a9e565b604082019050919050565b6000612105601c83612718565b915061211082612aed565b602082019050919050565b6000612128602483612718565b915061213382612b16565b604082019050919050565b600061214b601983612718565b915061215682612b65565b602082019050919050565b600061216e602c83612718565b915061217982612b8e565b604082019050919050565b6000612191603883612718565b915061219c82612bdd565b604082019050919050565b60006121b4602a83612718565b91506121bf82612c2c565b604082019050919050565b60006121d7602983612718565b91506121e282612c7b565b604082019050919050565b60006121fa602e83612718565b915061220582612cca565b604082019050919050565b600061221d602083612718565b915061222882612d19565b602082019050919050565b6000612240603183612718565b915061224b82612d42565b604082019050919050565b6000612263602c83612718565b915061226e82612d91565b604082019050919050565b6000612286602f83612718565b915061229182612de0565b604082019050919050565b60006122a9602183612718565b91506122b482612e2f565b604082019050919050565b60006122cc603183612718565b91506122d782612e7e565b604082019050919050565b6122eb81612859565b82525050565b6122fa81612859565b82525050565b600061230c8285612081565b91506123188284612081565b91508190509392505050565b60006020820190506123396000830184611f93565b92915050565b60006080820190506123546000830187611f93565b6123616020830186611f93565b61236e60408301856122f1565b8181036060830152612380818461200f565b905095945050505050565b600060208201905081810360008301526123a58184611fa2565b905092915050565b60006020820190506123c26000830184612000565b92915050565b600060208201905081810360008301526123e28184612048565b905092915050565b60006020820190508181036000830152612403816120b2565b9050919050565b60006020820190508181036000830152612423816120d5565b9050919050565b60006020820190508181036000830152612443816120f8565b9050919050565b600060208201905081810360008301526124638161211b565b9050919050565b600060208201905081810360008301526124838161213e565b9050919050565b600060208201905081810360008301526124a381612161565b9050919050565b600060208201905081810360008301526124c381612184565b9050919050565b600060208201905081810360008301526124e3816121a7565b9050919050565b60006020820190508181036000830152612503816121ca565b9050919050565b60006020820190508181036000830152612523816121ed565b9050919050565b6000602082019050818103600083015261254381612210565b9050919050565b6000602082019050818103600083015261256381612233565b9050919050565b6000602082019050818103600083015261258381612256565b9050919050565b600060208201905081810360008301526125a381612279565b9050919050565b600060208201905081810360008301526125c38161229c565b9050919050565b600060208201905081810360008301526125e3816122bf565b9050919050565b60006020820190506125ff60008301846122f1565b92915050565b600061260f612620565b905061261b82826128d7565b919050565b6000604051905090565b600067ffffffffffffffff82111561264557612644612a0f565b5b602082029050602081019050919050565b600067ffffffffffffffff82111561267157612670612a0f565b5b61267a82612a3e565b9050602081019050919050565b600067ffffffffffffffff8211156126a2576126a1612a0f565b5b6126ab82612a3e565b9050602081019050919050565b6000819050602082019050919050565b600081519050919050565b600081519050919050565b600081519050919050565b6000602082019050919050565b600082825260208201905092915050565b600082825260208201905092915050565b600082825260208201905092915050565b600081905092915050565b600061273f82612859565b915061274a83612859565b9250827fffffffffffffffffffffffffffffffffffffffffffffffffffffffffffffffff0382111561277f5761277e612982565b5b828201905092915050565b600061279582612859565b91506127a083612859565b9250826127b0576127af6129b1565b5b828204905092915050565b60006127c682612859565b91506127d183612859565b9250828210156127e4576127e3612982565b5b828203905092915050565b60006127fa82612839565b9050919050565b60008115159050919050565b60007fffffffff0000000000000000000000000000000000000000000000000000000082169050919050565b600073ffffffffffffffffffffffffffffffffffffffff82169050919050565b6000819050919050565b82818337600083830152505050565b60005b83811015612890578082015181840152602081019050612875565b8381111561289f576000848401525b50505050565b600060028204905060018216806128bd57607f821691505b602082108114156128d1576128d06129e0565b5b50919050565b6128e082612a3e565b810181811067ffffffffffffffff821117156128ff576128fe612a0f565b5b80604052505050565b600061291382612859565b91507fffffffffffffffffffffffffffffffffffffffffffffffffffffffffffffffff82141561294657612945612982565b5b600182019050919050565b600061295c82612859565b915061296783612859565b925082612977576129766129b1565b5b828206905092915050565b7f4e487b7100000000000000000000000000000000000000000000000000000000600052601160045260246000fd5b7f4e487b7100000000000000000000000000000000000000000000000000000000600052601260045260246000fd5b7f4e487b7100000000000000000000000000000000000000000000000000000000600052602260045260246000fd5b7f4e487b7100000000000000000000000000000000000000000000000000000000600052604160045260246000fd5b6000601f19601f8301169050919050565b7f4552433732313a207472616e7366657220746f206e6f6e20455243373231526560008201527f63656976657220696d706c656d656e7465720000000000000000000000000000602082015250565b7f4552433732313a207472616e736665722066726f6d20696e636f72726563742060008201527f6f776e6572000000000000000000000000000000000000000000000000000000602082015250565b7f4552433732313a20746f6b656e20616c7265616479206d696e74656400000000600082015250565b7f4552433732313a207472616e7366657220746f20746865207a65726f2061646460008201527f7265737300000000000000000000000000000000000000000000000000000000602082015250565b7f4552433732313a20617070726f766520746f2063616c6c657200000000000000600082015250565b7f4552433732313a206f70657261746f7220717565727920666f72206e6f6e657860008201527f697374656e7420746f6b656e0000000000000000000000000000000000000000602082015250565b7f4552433732313a20617070726f76652063616c6c6572206973206e6f74206f7760008201527f6e6572206e6f7220617070726f76656420666f7220616c6c0000000000000000602082015250565b7f4552433732313a2062616c616e636520717565727920666f7220746865207a6560008201527f726f206164647265737300000000000000000000000000000000000000000000602082015250565b7f4552433732313a206f776e657220717565727920666f72206e6f6e657869737460008201527f656e7420746f6b656e0000000000000000000000000000000000000000000000602082015250565b7f45524337323155524953746f726167653a2055524920736574206f66206e6f6e60008201527f6578697374656e7420746f6b656e000000000000000000000000000000000000602082015250565b7f4552433732313a206d696e7420746f20746865207a65726f2061646472657373600082015250565b7f45524337323155524953746f726167653a2055524920717565727920666f722060008201527f6e6f6e6578697374656e7420746f6b656e000000000000000000000000000000602082015250565b7f4552433732313a20617070726f76656420717565727920666f72206e6f6e657860008201527f697374656e7420746f6b656e0000000000000000000000000000000000000000602082015250565b7f4552433732314d657461646174613a2055524920717565727920666f72206e6f60008201527f6e6578697374656e7420746f6b656e0000000000000000000000000000000000602082015250565b7f4552433732313a20617070726f76616c20746f2063757272656e74206f776e6560008201527f7200000000000000000000000000000000000000000000000000000000000000602082015250565b7f4552433732313a207472616e736665722063616c6c6572206973206e6f74206f60008201527f776e6572206e6f7220617070726f766564000000000000000000000000000000602082015250565b612ed6816127ef565b8114612ee157600080fd5b50565b612eed81612801565b8114612ef857600080fd5b50565b612f048161280d565b8114612f0f57600080fd5b50565b612f1b81612859565b8114612f2657600080fd5b5056fea2646970667358221220ff844ad549815467ac21afcc2b4fffc5dc16ce72f43aab450b3faa8df46a0fef64736f6c63430008040033",
  "linkReferences": {},
  "deployedLinkReferences": {}
}