{
  "_format": "hh-sol-artifact-1",
  "contractName": "NFT",
  "sourceName": "src/solidity/contracts/NFT.sol",
  "abi": [
    {
      "inputs": [],
      "stateMutability": "nonpayable",
      "type": "constructor"
    },
    {
      "anonymous": false,
      "inputs": [
        {
          "indexed": true,
          "internalType": "address",
          "name": "owner",
          "type": "address"
        },
        {
          "indexed": true,
          "internalType": "address",
          "name": "approved",
          "type": "address"
        },
        {
          "indexed": true,
          "internalType": "uint256",
          "name": "tokenId",
          "type": "uint256"
        }
      ],
      "name": "Approval",
      "type": "event"
    },
    {
      "anonymous": false,
      "inputs": [
        {
          "indexed": true,
          "internalType": "address",
          "name": "owner",
          "type": "address"
        },
        {
          "indexed": true,
          "internalType": "address",
          "name": "operator",
          "type": "address"
        },
        {
          "indexed": false,
          "internalType": "bool",
          "name": "approved",
          "type": "bool"
        }
      ],
      "name": "ApprovalForAll",
      "type": "event"
    },
    {
      "anonymous": false,
      "inputs": [
        {
          "indexed": true,
          "internalType": "address",
          "name": "from",
          "type": "address"
        },
        {
          "indexed": true,
          "internalType": "address",
          "name": "to",
          "type": "address"
        },
        {
          "indexed": true,
          "internalType": "uint256",
          "name": "tokenId",
          "type": "uint256"
        }
      ],
      "name": "Transfer",
      "type": "event"
    },
    {
      "inputs": [
        {
          "internalType": "address",
          "name": "to",
          "type": "address"
        },
        {
          "internalType": "uint256",
          "name": "tokenId",
          "type": "uint256"
        }
      ],
      "name": "approve",
      "outputs": [],
      "stateMutability": "nonpayable",
      "type": "function"
    },
    {
      "inputs": [
        {
          "internalType": "address",
          "name": "owner",
          "type": "address"
        }
      ],
      "name": "balanceOf",
      "outputs": [
        {
          "internalType": "uint256",
          "name": "",
          "type": "uint256"
        }
      ],
      "stateMutability": "view",
      "type": "function"
    },
    {
      "inputs": [
        {
          "internalType": "uint256",
          "name": "tokenId",
          "type": "uint256"
        }
      ],
      "name": "getApproved",
      "outputs": [
        {
          "internalType": "address",
          "name": "",
          "type": "address"
        }
      ],
      "stateMutability": "view",
      "type": "function"
    },
    {
      "inputs": [
        {
          "internalType": "address",
          "name": "owner",
          "type": "address"
        },
        {
          "internalType": "address",
          "name": "operator",
          "type": "address"
        }
      ],
      "name": "isApprovedForAll",
      "outputs": [
        {
          "internalType": "bool",
          "name": "",
          "type": "bool"
        }
      ],
      "stateMutability": "view",
      "type": "function"
    },
    {
      "inputs": [
        {
          "internalType": "string[]",
          "name": "_tokenURIS",
          "type": "string[]"
        },
        {
          "internalType": "address",
          "name": "_marketplaceContract",
          "type": "address"
        }
      ],
      "name": "mint",
      "outputs": [
        {
          "internalType": "uint256[]",
          "name": "",
          "type": "uint256[]"
        }
      ],
      "stateMutability": "nonpayable",
      "type": "function"
    },
    {
      "inputs": [],
      "name": "name",
      "outputs": [
        {
          "internalType": "string",
          "name": "",
          "type": "string"
        }
      ],
      "stateMutability": "view",
      "type": "function"
    },
    {
      "inputs": [
        {
          "internalType": "uint256",
          "name": "tokenId",
          "type": "uint256"
        }
      ],
      "name": "ownerOf",
      "outputs": [
        {
          "internalType": "address",
          "name": "",
          "type": "address"
        }
      ],
      "stateMutability": "view",
      "type": "function"
    },
    {
      "inputs": [
        {
          "internalType": "address",
          "name": "from",
          "type": "address"
        },
        {
          "internalType": "address",
          "name": "to",
          "type": "address"
        },
        {
          "internalType": "uint256",
          "name": "tokenId",
          "type": "uint256"
        }
      ],
      "name": "safeTransferFrom",
      "outputs": [],
      "stateMutability": "nonpayable",
      "type": "function"
    },
    {
      "inputs": [
        {
          "internalType": "address",
          "name": "from",
          "type": "address"
        },
        {
          "internalType": "address",
          "name": "to",
          "type": "address"
        },
        {
          "internalType": "uint256",
          "name": "tokenId",
          "type": "uint256"
        },
        {
          "internalType": "bytes",
          "name": "_data",
          "type": "bytes"
        }
      ],
      "name": "safeTransferFrom",
      "outputs": [],
      "stateMutability": "nonpayable",
      "type": "function"
    },
    {
      "inputs": [
        {
          "internalType": "address",
          "name": "operator",
          "type": "address"
        },
        {
          "internalType": "bool",
          "name": "approved",
          "type": "bool"
        }
      ],
      "name": "setApprovalForAll",
      "outputs": [],
      "stateMutability": "nonpayable",
      "type": "function"
    },
    {
      "inputs": [
        {
          "internalType": "bytes4",
          "name": "interfaceId",
          "type": "bytes4"
        }
      ],
      "name": "supportsInterface",
      "outputs": [
        {
          "internalType": "bool",
          "name": "",
          "type": "bool"
        }
      ],
      "stateMutability": "view",
      "type": "function"
    },
    {
      "inputs": [],
      "name": "symbol",
      "outputs": [
        {
          "internalType": "string",
          "name": "",
          "type": "string"
        }
      ],
      "stateMutability": "view",
      "type": "function"
    },
    {
      "inputs": [],
      "name": "tokenId",
      "outputs": [
        {
          "internalType": "uint256",
          "name": "",
          "type": "uint256"
        }
      ],
      "stateMutability": "view",
      "type": "function"
    },
    {
      "inputs": [
        {
          "internalType": "uint256",
          "name": "tokenId",
          "type": "uint256"
        }
      ],
      "name": "tokenURI",
      "outputs": [
        {
          "internalType": "string",
          "name": "",
          "type": "string"
        }
      ],
      "stateMutability": "view",
      "type": "function"
    },
    {
      "inputs": [
        {
          "internalType": "address",
          "name": "from",
          "type": "address"
        },
        {
          "internalType": "address",
          "name": "to",
          "type": "address"
        },
        {
          "internalType": "uint256",
          "name": "tokenId",
          "type": "uint256"
        }
      ],
      "name": "transferFrom",
      "outputs": [],
      "stateMutability": "nonpayable",
      "type": "function"
    }
  ],
  "bytecode": "0x60806040523480156200001157600080fd5b506040518060400160405280600b81526020017f47616d65722043617264730000000000000000000000000000000000000000008152506040518060400160405280600381526020017f4554480000000000000000000000000000000000000000000000000000000000815250816000908051906020019062000096929190620000b8565b508060019080519060200190620000af929190620000b8565b505050620001cd565b828054620000c69062000168565b90600052602060002090601f016020900481019282620000ea576000855562000136565b82601f106200010557805160ff191683800117855562000136565b8280016001018555821562000136579182015b828111156200013557825182559160200191906001019062000118565b5b50905062000145919062000149565b5090565b5b80821115620001645760008160009055506001016200014a565b5090565b600060028204905060018216806200018157607f821691505b602082108114156200019857620001976200019e565b5b50919050565b7f4e487b7100000000000000000000000000000000000000000000000000000000600052602260045260246000fd5b612f0580620001dd6000396000f3fe608060405234801561001057600080fd5b50600436106100f55760003560e01c80636352211e11610097578063b22c421f11610066578063b22c421f14610284578063b88d4fde146102b4578063c87b56dd146102d0578063e985e9c514610300576100f5565b80636352211e146101ea57806370a082311461021a57806395d89b411461024a578063a22cb46514610268576100f5565b8063095ea7b3116100d3578063095ea7b31461017857806317d70f7c1461019457806323b872dd146101b257806342842e0e146101ce576100f5565b806301ffc9a7146100fa57806306fdde031461012a578063081812fc14610148575b600080fd5b610114600480360381019061010f9190611ea6565b610330565b6040516101219190612353565b60405180910390f35b610132610412565b60405161013f919061236e565b60405180910390f35b610162600480360381019061015d9190611ef8565b6104a4565b60405161016f91906122ca565b60405180910390f35b610192600480360381019061018d9190611e16565b610529565b005b61019c610641565b6040516101a99190612590565b60405180910390f35b6101cc60048036038101906101c79190611d10565b610647565b005b6101e860048036038101906101e39190611d10565b6106a7565b005b61020460048036038101906101ff9190611ef8565b6106c7565b60405161021191906122ca565b60405180910390f35b610234600480360381019061022f9190611cab565b610779565b6040516102419190612590565b60405180910390f35b610252610831565b60405161025f919061236e565b60405180910390f35b610282600480360381019061027d9190611dda565b6108c3565b005b61029e60048036038101906102999190611e52565b6108d9565b6040516102ab9190612331565b60405180910390f35b6102ce60048036038101906102c99190611d5f565b610a3c565b005b6102ea60048036038101906102e59190611ef8565b610a9e565b6040516102f7919061236e565b60405180910390f35b61031a60048036038101906103159190611cd4565b610bf0565b6040516103279190612353565b60405180910390f35b60007f80ac58cd000000000000000000000000000000000000000000000000000000007bffffffffffffffffffffffffffffffffffffffffffffffffffffffff1916827bffffffffffffffffffffffffffffffffffffffffffffffffffffffff191614806103fb57507f5b5e139f000000000000000000000000000000000000000000000000000000007bffffffffffffffffffffffffffffffffffffffffffffffffffffffff1916827bffffffffffffffffffffffffffffffffffffffffffffffffffffffff1916145b8061040b575061040a82610c84565b5b9050919050565b6060600080546104219061284b565b80601f016020809104026020016040519081016040528092919081815260200182805461044d9061284b565b801561049a5780601f1061046f5761010080835404028352916020019161049a565b820191906000526020600020905b81548152906001019060200180831161047d57829003601f168201915b5050505050905090565b60006104af82610cee565b6104ee576040517f08c379a00000000000000000000000000000000000000000000000000000000081526004016104e590612510565b60405180910390fd5b6004600083815260200190815260200160002060009054906101000a900473ffffffffffffffffffffffffffffffffffffffff169050919050565b6000610534826106c7565b90508073ffffffffffffffffffffffffffffffffffffffff168373ffffffffffffffffffffffffffffffffffffffff1614156105a5576040517f08c379a000000000000000000000000000000000000000000000000000000000815260040161059c90612550565b60405180910390fd5b8073ffffffffffffffffffffffffffffffffffffffff166105c4610d5a565b73ffffffffffffffffffffffffffffffffffffffff1614806105f357506105f2816105ed610d5a565b610bf0565b5b610632576040517f08c379a000000000000000000000000000000000000000000000000000000000815260040161062990612450565b60405180910390fd5b61063c8383610d62565b505050565b60075481565b610658610652610d5a565b82610e1b565b610697576040517f08c379a000000000000000000000000000000000000000000000000000000000815260040161068e90612570565b60405180910390fd5b6106a2838383610ef9565b505050565b6106c283838360405180602001604052806000815250610a3c565b505050565b6000806002600084815260200190815260200160002060009054906101000a900473ffffffffffffffffffffffffffffffffffffffff169050600073ffffffffffffffffffffffffffffffffffffffff168173ffffffffffffffffffffffffffffffffffffffff161415610770576040517f08c379a000000000000000000000000000000000000000000000000000000000815260040161076790612490565b60405180910390fd5b80915050919050565b60008073ffffffffffffffffffffffffffffffffffffffff168273ffffffffffffffffffffffffffffffffffffffff1614156107ea576040517f08c379a00000000000000000000000000000000000000000000000000000000081526004016107e190612470565b60405180910390fd5b600360008373ffffffffffffffffffffffffffffffffffffffff1673ffffffffffffffffffffffffffffffffffffffff168152602001908152602001600020549050919050565b6060600180546108409061284b565b80601f016020809104026020016040519081016040528092919081815260200182805461086c9061284b565b80156108b95780601f1061088e576101008083540402835291602001916108b9565b820191906000526020600020905b81548152906001019060200180831161089c57829003601f168201915b5050505050905090565b6108d56108ce610d5a565b8383611160565b5050565b60606000835167ffffffffffffffff81111561091e577f4e487b7100000000000000000000000000000000000000000000000000000000600052604160045260246000fd5b60405190808252806020026020018201604052801561094c5781602001602082028036833780820191505090505b50905060005b8451811015610a31576007600081548092919061096e906128ae565b919050555061097f336007546112cd565b6109cb6007548683815181106109be577f4e487b7100000000000000000000000000000000000000000000000000000000600052603260045260246000fd5b60200260200101516112eb565b600754828281518110610a07577f4e487b7100000000000000000000000000000000000000000000000000000000600052603260045260246000fd5b602002602001018181525050610a1e8460016108c3565b8080610a29906128ae565b915050610952565b508091505092915050565b610a4d610a47610d5a565b83610e1b565b610a8c576040517f08c379a0000000000000000000000000000000000000000000000000000000008152600401610a8390612570565b60405180910390fd5b610a988484848461135f565b50505050565b6060610aa982610cee565b610ae8576040517f08c379a0000000000000000000000000000000000000000000000000000000008152600401610adf906124f0565b60405180910390fd5b6000600660008481526020019081526020016000208054610b089061284b565b80601f0160208091040260200160405190810160405280929190818152602001828054610b349061284b565b8015610b815780601f10610b5657610100808354040283529160200191610b81565b820191906000526020600020905b815481529060010190602001808311610b6457829003601f168201915b505050505090506000610b926113bb565b9050600081511415610ba8578192505050610beb565b600082511115610bdd578082604051602001610bc59291906122a6565b60405160208183030381529060405292505050610beb565b610be6846113d2565b925050505b919050565b6000600560008473ffffffffffffffffffffffffffffffffffffffff1673ffffffffffffffffffffffffffffffffffffffff16815260200190815260200160002060008373ffffffffffffffffffffffffffffffffffffffff1673ffffffffffffffffffffffffffffffffffffffff16815260200190815260200160002060009054906101000a900460ff16905092915050565b60007f01ffc9a7000000000000000000000000000000000000000000000000000000007bffffffffffffffffffffffffffffffffffffffffffffffffffffffff1916827bffffffffffffffffffffffffffffffffffffffffffffffffffffffff1916149050919050565b60008073ffffffffffffffffffffffffffffffffffffffff166002600084815260200190815260200160002060009054906101000a900473ffffffffffffffffffffffffffffffffffffffff1673ffffffffffffffffffffffffffffffffffffffff1614159050919050565b600033905090565b816004600083815260200190815260200160002060006101000a81548173ffffffffffffffffffffffffffffffffffffffff021916908373ffffffffffffffffffffffffffffffffffffffff160217905550808273ffffffffffffffffffffffffffffffffffffffff16610dd5836106c7565b73ffffffffffffffffffffffffffffffffffffffff167f8c5be1e5ebec7d5bd14f71427d1e84f3dd0314c0f7b2291e5b200ac8c7c3b92560405160405180910390a45050565b6000610e2682610cee565b610e65576040517f08c379a0000000000000000000000000000000000000000000000000000000008152600401610e5c90612430565b60405180910390fd5b6000610e70836106c7565b90508073ffffffffffffffffffffffffffffffffffffffff168473ffffffffffffffffffffffffffffffffffffffff161480610eb25750610eb18185610bf0565b5b80610ef057508373ffffffffffffffffffffffffffffffffffffffff16610ed8846104a4565b73ffffffffffffffffffffffffffffffffffffffff16145b91505092915050565b8273ffffffffffffffffffffffffffffffffffffffff16610f19826106c7565b73ffffffffffffffffffffffffffffffffffffffff1614610f6f576040517f08c379a0000000000000000000000000000000000000000000000000000000008152600401610f66906123b0565b60405180910390fd5b600073ffffffffffffffffffffffffffffffffffffffff168273ffffffffffffffffffffffffffffffffffffffff161415610fdf576040517f08c379a0000000000000000000000000000000000000000000000000000000008152600401610fd6906123f0565b60405180910390fd5b610fea838383611479565b610ff5600082610d62565b6001600360008573ffffffffffffffffffffffffffffffffffffffff1673ffffffffffffffffffffffffffffffffffffffff16815260200190815260200160002060008282546110459190612761565b925050819055506001600360008473ffffffffffffffffffffffffffffffffffffffff1673ffffffffffffffffffffffffffffffffffffffff168152602001908152602001600020600082825461109c91906126da565b92505081905550816002600083815260200190815260200160002060006101000a81548173ffffffffffffffffffffffffffffffffffffffff021916908373ffffffffffffffffffffffffffffffffffffffff160217905550808273ffffffffffffffffffffffffffffffffffffffff168473ffffffffffffffffffffffffffffffffffffffff167fddf252ad1be2c89b69c2b068fc378daa952ba7f163c4a11628f55a4df523b3ef60405160405180910390a461115b83838361147e565b505050565b8173ffffffffffffffffffffffffffffffffffffffff168373ffffffffffffffffffffffffffffffffffffffff1614156111cf576040517f08c379a00000000000000000000000000000000000000000000000000000000081526004016111c690612410565b60405180910390fd5b80600560008573ffffffffffffffffffffffffffffffffffffffff1673ffffffffffffffffffffffffffffffffffffffff16815260200190815260200160002060008473ffffffffffffffffffffffffffffffffffffffff1673ffffffffffffffffffffffffffffffffffffffff16815260200190815260200160002060006101000a81548160ff0219169083151502179055508173ffffffffffffffffffffffffffffffffffffffff168373ffffffffffffffffffffffffffffffffffffffff167f17307eab39ab6107e8899845ad3d59bd9653f200f220920489ca2b5937696c31836040516112c09190612353565b60405180910390a3505050565b6112e7828260405180602001604052806000815250611483565b5050565b6112f482610cee565b611333576040517f08c379a000000000000000000000000000000000000000000000000000000000815260040161132a906124b0565b60405180910390fd5b8060066000848152602001908152602001600020908051906020019061135a929190611a1f565b505050565b61136a848484610ef9565b611376848484846114de565b6113b5576040517f08c379a00000000000000000000000000000000000000000000000000000000081526004016113ac90612390565b60405180910390fd5b50505050565b606060405180602001604052806000815250905090565b60606113dd82610cee565b61141c576040517f08c379a000000000000000000000000000000000000000000000000000000000815260040161141390612530565b60405180910390fd5b60006114266113bb565b905060008151116114465760405180602001604052806000815250611471565b8061145084611675565b6040516020016114619291906122a6565b6040516020818303038152906040525b915050919050565b505050565b505050565b61148d8383611822565b61149a60008484846114de565b6114d9576040517f08c379a00000000000000000000000000000000000000000000000000000000081526004016114d090612390565b60405180910390fd5b505050565b60006114ff8473ffffffffffffffffffffffffffffffffffffffff166119fc565b15611668578373ffffffffffffffffffffffffffffffffffffffff1663150b7a02611528610d5a565b8786866040518563ffffffff1660e01b815260040161154a94939291906122e5565b602060405180830381600087803b15801561156457600080fd5b505af192505050801561159557506040513d601f19601f820116820180604052508101906115929190611ecf565b60015b611618573d80600081146115c5576040519150601f19603f3d011682016040523d82523d6000602084013e6115ca565b606091505b50600081511415611610576040517f08c379a000000000000000000000000000000000000000000000000000000000815260040161160790612390565b60405180910390fd5b805181602001fd5b63150b7a0260e01b7bffffffffffffffffffffffffffffffffffffffffffffffffffffffff1916817bffffffffffffffffffffffffffffffffffffffffffffffffffffffff19161491505061166d565b600190505b949350505050565b606060008214156116bd576040518060400160405280600181526020017f3000000000000000000000000000000000000000000000000000000000000000815250905061181d565b600082905060005b600082146116ef5780806116d8906128ae565b915050600a826116e89190612730565b91506116c5565b60008167ffffffffffffffff811115611731577f4e487b7100000000000000000000000000000000000000000000000000000000600052604160045260246000fd5b6040519080825280601f01601f1916602001820160405280156117635781602001600182028036833780820191505090505b5090505b600085146118165760018261177c9190612761565b9150600a8561178b91906128f7565b603061179791906126da565b60f81b8183815181106117d3577f4e487b7100000000000000000000000000000000000000000000000000000000600052603260045260246000fd5b60200101907effffffffffffffffffffffffffffffffffffffffffffffffffffffffffffff1916908160001a905350600a8561180f9190612730565b9450611767565b8093505050505b919050565b600073ffffffffffffffffffffffffffffffffffffffff168273ffffffffffffffffffffffffffffffffffffffff161415611892576040517f08c379a0000000000000000000000000000000000000000000000000000000008152600401611889906124d0565b60405180910390fd5b61189b81610cee565b156118db576040517f08c379a00000000000000000000000000000000000000000000000000000000081526004016118d2906123d0565b60405180910390fd5b6118e760008383611479565b6001600360008473ffffffffffffffffffffffffffffffffffffffff1673ffffffffffffffffffffffffffffffffffffffff168152602001908152602001600020600082825461193791906126da565b92505081905550816002600083815260200190815260200160002060006101000a81548173ffffffffffffffffffffffffffffffffffffffff021916908373ffffffffffffffffffffffffffffffffffffffff160217905550808273ffffffffffffffffffffffffffffffffffffffff16600073ffffffffffffffffffffffffffffffffffffffff167fddf252ad1be2c89b69c2b068fc378daa952ba7f163c4a11628f55a4df523b3ef60405160405180910390a46119f86000838361147e565b5050565b6000808273ffffffffffffffffffffffffffffffffffffffff163b119050919050565b828054611a2b9061284b565b90600052602060002090601f016020900481019282611a4d5760008555611a94565b82601f10611a6657805160ff1916838001178555611a94565b82800160010185558215611a94579182015b82811115611a93578251825591602001919060010190611a78565b5b509050611aa19190611aa5565b5090565b5b80821115611abe576000816000905550600101611aa6565b5090565b6000611ad5611ad0846125d0565b6125ab565b90508083825260208201905082856020860282011115611af457600080fd5b60005b85811015611b3e57813567ffffffffffffffff811115611b1657600080fd5b808601611b238982611c6c565b85526020850194506020840193505050600181019050611af7565b5050509392505050565b6000611b5b611b56846125fc565b6125ab565b905082815260208101848484011115611b7357600080fd5b611b7e848285612809565b509392505050565b6000611b99611b948461262d565b6125ab565b905082815260208101848484011115611bb157600080fd5b611bbc848285612809565b509392505050565b600081359050611bd381612e73565b92915050565b600082601f830112611bea57600080fd5b8135611bfa848260208601611ac2565b91505092915050565b600081359050611c1281612e8a565b92915050565b600081359050611c2781612ea1565b92915050565b600081519050611c3c81612ea1565b92915050565b600082601f830112611c5357600080fd5b8135611c63848260208601611b48565b91505092915050565b600082601f830112611c7d57600080fd5b8135611c8d848260208601611b86565b91505092915050565b600081359050611ca581612eb8565b92915050565b600060208284031215611cbd57600080fd5b6000611ccb84828501611bc4565b91505092915050565b60008060408385031215611ce757600080fd5b6000611cf585828601611bc4565b9250506020611d0685828601611bc4565b9150509250929050565b600080600060608486031215611d2557600080fd5b6000611d3386828701611bc4565b9350506020611d4486828701611bc4565b9250506040611d5586828701611c96565b9150509250925092565b60008060008060808587031215611d7557600080fd5b6000611d8387828801611bc4565b9450506020611d9487828801611bc4565b9350506040611da587828801611c96565b925050606085013567ffffffffffffffff811115611dc257600080fd5b611dce87828801611c42565b91505092959194509250565b60008060408385031215611ded57600080fd5b6000611dfb85828601611bc4565b9250506020611e0c85828601611c03565b9150509250929050565b60008060408385031215611e2957600080fd5b6000611e3785828601611bc4565b9250506020611e4885828601611c96565b9150509250929050565b60008060408385031215611e6557600080fd5b600083013567ffffffffffffffff811115611e7f57600080fd5b611e8b85828601611bd9565b9250506020611e9c85828601611bc4565b9150509250929050565b600060208284031215611eb857600080fd5b6000611ec684828501611c18565b91505092915050565b600060208284031215611ee157600080fd5b6000611eef84828501611c2d565b91505092915050565b600060208284031215611f0a57600080fd5b6000611f1884828501611c96565b91505092915050565b6000611f2d8383612288565b60208301905092915050565b611f4281612795565b82525050565b6000611f538261266e565b611f5d818561269c565b9350611f688361265e565b8060005b83811015611f99578151611f808882611f21565b9750611f8b8361268f565b925050600181019050611f6c565b5085935050505092915050565b611faf816127a7565b82525050565b6000611fc082612679565b611fca81856126ad565b9350611fda818560208601612818565b611fe3816129e4565b840191505092915050565b6000611ff982612684565b61200381856126be565b9350612013818560208601612818565b61201c816129e4565b840191505092915050565b600061203282612684565b61203c81856126cf565b935061204c818560208601612818565b80840191505092915050565b60006120656032836126be565b9150612070826129f5565b604082019050919050565b60006120886025836126be565b915061209382612a44565b604082019050919050565b60006120ab601c836126be565b91506120b682612a93565b602082019050919050565b60006120ce6024836126be565b91506120d982612abc565b604082019050919050565b60006120f16019836126be565b91506120fc82612b0b565b602082019050919050565b6000612114602c836126be565b915061211f82612b34565b604082019050919050565b60006121376038836126be565b915061214282612b83565b604082019050919050565b600061215a602a836126be565b915061216582612bd2565b604082019050919050565b600061217d6029836126be565b915061218882612c21565b604082019050919050565b60006121a0602e836126be565b91506121ab82612c70565b604082019050919050565b60006121c36020836126be565b91506121ce82612cbf565b602082019050919050565b60006121e66031836126be565b91506121f182612ce8565b604082019050919050565b6000612209602c836126be565b915061221482612d37565b604082019050919050565b600061222c602f836126be565b915061223782612d86565b604082019050919050565b600061224f6021836126be565b915061225a82612dd5565b604082019050919050565b60006122726031836126be565b915061227d82612e24565b604082019050919050565b612291816127ff565b82525050565b6122a0816127ff565b82525050565b60006122b28285612027565b91506122be8284612027565b91508190509392505050565b60006020820190506122df6000830184611f39565b92915050565b60006080820190506122fa6000830187611f39565b6123076020830186611f39565b6123146040830185612297565b81810360608301526123268184611fb5565b905095945050505050565b6000602082019050818103600083015261234b8184611f48565b905092915050565b60006020820190506123686000830184611fa6565b92915050565b600060208201905081810360008301526123888184611fee565b905092915050565b600060208201905081810360008301526123a981612058565b9050919050565b600060208201905081810360008301526123c98161207b565b9050919050565b600060208201905081810360008301526123e98161209e565b9050919050565b60006020820190508181036000830152612409816120c1565b9050919050565b60006020820190508181036000830152612429816120e4565b9050919050565b6000602082019050818103600083015261244981612107565b9050919050565b600060208201905081810360008301526124698161212a565b9050919050565b600060208201905081810360008301526124898161214d565b9050919050565b600060208201905081810360008301526124a981612170565b9050919050565b600060208201905081810360008301526124c981612193565b9050919050565b600060208201905081810360008301526124e9816121b6565b9050919050565b60006020820190508181036000830152612509816121d9565b9050919050565b60006020820190508181036000830152612529816121fc565b9050919050565b600060208201905081810360008301526125498161221f565b9050919050565b6000602082019050818103600083015261256981612242565b9050919050565b6000602082019050818103600083015261258981612265565b9050919050565b60006020820190506125a56000830184612297565b92915050565b60006125b56125c6565b90506125c1828261287d565b919050565b6000604051905090565b600067ffffffffffffffff8211156125eb576125ea6129b5565b5b602082029050602081019050919050565b600067ffffffffffffffff821115612617576126166129b5565b5b612620826129e4565b9050602081019050919050565b600067ffffffffffffffff821115612648576126476129b5565b5b612651826129e4565b9050602081019050919050565b6000819050602082019050919050565b600081519050919050565b600081519050919050565b600081519050919050565b6000602082019050919050565b600082825260208201905092915050565b600082825260208201905092915050565b600082825260208201905092915050565b600081905092915050565b60006126e5826127ff565b91506126f0836127ff565b9250827fffffffffffffffffffffffffffffffffffffffffffffffffffffffffffffffff0382111561272557612724612928565b5b828201905092915050565b600061273b826127ff565b9150612746836127ff565b92508261275657612755612957565b5b828204905092915050565b600061276c826127ff565b9150612777836127ff565b92508282101561278a57612789612928565b5b828203905092915050565b60006127a0826127df565b9050919050565b60008115159050919050565b60007fffffffff0000000000000000000000000000000000000000000000000000000082169050919050565b600073ffffffffffffffffffffffffffffffffffffffff82169050919050565b6000819050919050565b82818337600083830152505050565b60005b8381101561283657808201518184015260208101905061281b565b83811115612845576000848401525b50505050565b6000600282049050600182168061286357607f821691505b6020821081141561287757612876612986565b5b50919050565b612886826129e4565b810181811067ffffffffffffffff821117156128a5576128a46129b5565b5b80604052505050565b60006128b9826127ff565b91507fffffffffffffffffffffffffffffffffffffffffffffffffffffffffffffffff8214156128ec576128eb612928565b5b600182019050919050565b6000612902826127ff565b915061290d836127ff565b92508261291d5761291c612957565b5b828206905092915050565b7f4e487b7100000000000000000000000000000000000000000000000000000000600052601160045260246000fd5b7f4e487b7100000000000000000000000000000000000000000000000000000000600052601260045260246000fd5b7f4e487b7100000000000000000000000000000000000000000000000000000000600052602260045260246000fd5b7f4e487b7100000000000000000000000000000000000000000000000000000000600052604160045260246000fd5b6000601f19601f8301169050919050565b7f4552433732313a207472616e7366657220746f206e6f6e20455243373231526560008201527f63656976657220696d706c656d656e7465720000000000000000000000000000602082015250565b7f4552433732313a207472616e736665722066726f6d20696e636f72726563742060008201527f6f776e6572000000000000000000000000000000000000000000000000000000602082015250565b7f4552433732313a20746f6b656e20616c7265616479206d696e74656400000000600082015250565b7f4552433732313a207472616e7366657220746f20746865207a65726f2061646460008201527f7265737300000000000000000000000000000000000000000000000000000000602082015250565b7f4552433732313a20617070726f766520746f2063616c6c657200000000000000600082015250565b7f4552433732313a206f70657261746f7220717565727920666f72206e6f6e657860008201527f697374656e7420746f6b656e0000000000000000000000000000000000000000602082015250565b7f4552433732313a20617070726f76652063616c6c6572206973206e6f74206f7760008201527f6e6572206e6f7220617070726f76656420666f7220616c6c0000000000000000602082015250565b7f4552433732313a2062616c616e636520717565727920666f7220746865207a6560008201527f726f206164647265737300000000000000000000000000000000000000000000602082015250565b7f4552433732313a206f776e657220717565727920666f72206e6f6e657869737460008201527f656e7420746f6b656e0000000000000000000000000000000000000000000000602082015250565b7f45524337323155524953746f726167653a2055524920736574206f66206e6f6e60008201527f6578697374656e7420746f6b656e000000000000000000000000000000000000602082015250565b7f4552433732313a206d696e7420746f20746865207a65726f2061646472657373600082015250565b7f45524337323155524953746f726167653a2055524920717565727920666f722060008201527f6e6f6e6578697374656e7420746f6b656e000000000000000000000000000000602082015250565b7f4552433732313a20617070726f76656420717565727920666f72206e6f6e657860008201527f697374656e7420746f6b656e0000000000000000000000000000000000000000602082015250565b7f4552433732314d657461646174613a2055524920717565727920666f72206e6f60008201527f6e6578697374656e7420746f6b656e0000000000000000000000000000000000602082015250565b7f4552433732313a20617070726f76616c20746f2063757272656e74206f776e6560008201527f7200000000000000000000000000000000000000000000000000000000000000602082015250565b7f4552433732313a207472616e736665722063616c6c6572206973206e6f74206f60008201527f776e6572206e6f7220617070726f766564000000000000000000000000000000602082015250565b612e7c81612795565b8114612e8757600080fd5b50565b612e93816127a7565b8114612e9e57600080fd5b50565b612eaa816127b3565b8114612eb557600080fd5b50565b612ec1816127ff565b8114612ecc57600080fd5b5056fea2646970667358221220843c37f90eb3936eaa79bc34856cdf90466ffbd37cab375d52fc1859aeab73df64736f6c63430008040033",
  "linkReferences": {},
  "deployedLinkReferences": {}
}