{
  "_format": "hh-sol-artifact-1",
  "contractName": "NFT",
  "sourceName": "src/solidity/contracts/NFT.sol",
  "abi": [
    {
      "inputs": [],
      "stateMutability": "nonpayable",
      "type": "constructor"
    },
    {
      "anonymous": false,
      "inputs": [
        {
          "indexed": true,
          "internalType": "address",
          "name": "owner",
          "type": "address"
        },
        {
          "indexed": true,
          "internalType": "address",
          "name": "approved",
          "type": "address"
        },
        {
          "indexed": true,
          "internalType": "uint256",
          "name": "tokenId",
          "type": "uint256"
        }
      ],
      "name": "Approval",
      "type": "event"
    },
    {
      "anonymous": false,
      "inputs": [
        {
          "indexed": true,
          "internalType": "address",
          "name": "owner",
          "type": "address"
        },
        {
          "indexed": true,
          "internalType": "address",
          "name": "operator",
          "type": "address"
        },
        {
          "indexed": false,
          "internalType": "bool",
          "name": "approved",
          "type": "bool"
        }
      ],
      "name": "ApprovalForAll",
      "type": "event"
    },
    {
      "anonymous": false,
      "inputs": [
        {
          "indexed": true,
          "internalType": "address",
          "name": "from",
          "type": "address"
        },
        {
          "indexed": true,
          "internalType": "address",
          "name": "to",
          "type": "address"
        },
        {
          "indexed": true,
          "internalType": "uint256",
          "name": "tokenId",
          "type": "uint256"
        }
      ],
      "name": "Transfer",
      "type": "event"
    },
    {
      "inputs": [
        {
          "internalType": "address",
          "name": "to",
          "type": "address"
        },
        {
          "internalType": "uint256",
          "name": "tokenId",
          "type": "uint256"
        }
      ],
      "name": "approve",
      "outputs": [],
      "stateMutability": "nonpayable",
      "type": "function"
    },
    {
      "inputs": [
        {
          "internalType": "address",
          "name": "owner",
          "type": "address"
        }
      ],
      "name": "balanceOf",
      "outputs": [
        {
          "internalType": "uint256",
          "name": "",
          "type": "uint256"
        }
      ],
      "stateMutability": "view",
      "type": "function"
    },
    {
      "inputs": [
        {
          "internalType": "uint256",
          "name": "tokenId",
          "type": "uint256"
        }
      ],
      "name": "getApproved",
      "outputs": [
        {
          "internalType": "address",
          "name": "",
          "type": "address"
        }
      ],
      "stateMutability": "view",
      "type": "function"
    },
    {
      "inputs": [
        {
          "internalType": "uint256",
          "name": "_tokenId",
          "type": "uint256"
        },
        {
          "internalType": "address",
          "name": "_contractAddress",
          "type": "address"
        }
      ],
      "name": "giveResaleApproval",
      "outputs": [],
      "stateMutability": "nonpayable",
      "type": "function"
    },
    {
      "inputs": [
        {
          "internalType": "address",
          "name": "owner",
          "type": "address"
        },
        {
          "internalType": "address",
          "name": "operator",
          "type": "address"
        }
      ],
      "name": "isApprovedForAll",
      "outputs": [
        {
          "internalType": "bool",
          "name": "",
          "type": "bool"
        }
      ],
      "stateMutability": "view",
      "type": "function"
    },
    {
      "inputs": [
        {
          "internalType": "string[]",
          "name": "_tokenURIS",
          "type": "string[]"
        }
      ],
      "name": "mint",
      "outputs": [
        {
          "internalType": "uint256[]",
          "name": "",
          "type": "uint256[]"
        }
      ],
      "stateMutability": "nonpayable",
      "type": "function"
    },
    {
      "inputs": [],
      "name": "name",
      "outputs": [
        {
          "internalType": "string",
          "name": "",
          "type": "string"
        }
      ],
      "stateMutability": "view",
      "type": "function"
    },
    {
      "inputs": [
        {
          "internalType": "uint256",
          "name": "tokenId",
          "type": "uint256"
        }
      ],
      "name": "ownerOf",
      "outputs": [
        {
          "internalType": "address",
          "name": "",
          "type": "address"
        }
      ],
      "stateMutability": "view",
      "type": "function"
    },
    {
      "inputs": [
        {
          "internalType": "address",
          "name": "from",
          "type": "address"
        },
        {
          "internalType": "address",
          "name": "to",
          "type": "address"
        },
        {
          "internalType": "uint256",
          "name": "tokenId",
          "type": "uint256"
        }
      ],
      "name": "safeTransferFrom",
      "outputs": [],
      "stateMutability": "nonpayable",
      "type": "function"
    },
    {
      "inputs": [
        {
          "internalType": "address",
          "name": "from",
          "type": "address"
        },
        {
          "internalType": "address",
          "name": "to",
          "type": "address"
        },
        {
          "internalType": "uint256",
          "name": "tokenId",
          "type": "uint256"
        },
        {
          "internalType": "bytes",
          "name": "_data",
          "type": "bytes"
        }
      ],
      "name": "safeTransferFrom",
      "outputs": [],
      "stateMutability": "nonpayable",
      "type": "function"
    },
    {
      "inputs": [
        {
          "internalType": "address",
          "name": "operator",
          "type": "address"
        },
        {
          "internalType": "bool",
          "name": "approved",
          "type": "bool"
        }
      ],
      "name": "setApprovalForAll",
      "outputs": [],
      "stateMutability": "nonpayable",
      "type": "function"
    },
    {
      "inputs": [
        {
          "internalType": "bytes4",
          "name": "interfaceId",
          "type": "bytes4"
        }
      ],
      "name": "supportsInterface",
      "outputs": [
        {
          "internalType": "bool",
          "name": "",
          "type": "bool"
        }
      ],
      "stateMutability": "view",
      "type": "function"
    },
    {
      "inputs": [],
      "name": "symbol",
      "outputs": [
        {
          "internalType": "string",
          "name": "",
          "type": "string"
        }
      ],
      "stateMutability": "view",
      "type": "function"
    },
    {
      "inputs": [],
      "name": "tokenId",
      "outputs": [
        {
          "internalType": "uint256",
          "name": "",
          "type": "uint256"
        }
      ],
      "stateMutability": "view",
      "type": "function"
    },
    {
      "inputs": [
        {
          "internalType": "uint256",
          "name": "tokenId",
          "type": "uint256"
        }
      ],
      "name": "tokenURI",
      "outputs": [
        {
          "internalType": "string",
          "name": "",
          "type": "string"
        }
      ],
      "stateMutability": "view",
      "type": "function"
    },
    {
      "inputs": [
        {
          "internalType": "address",
          "name": "from",
          "type": "address"
        },
        {
          "internalType": "address",
          "name": "to",
          "type": "address"
        },
        {
          "internalType": "uint256",
          "name": "tokenId",
          "type": "uint256"
        }
      ],
      "name": "transferFrom",
      "outputs": [],
      "stateMutability": "nonpayable",
      "type": "function"
    }
  ],
  "bytecode": "0x60806040523480156200001157600080fd5b506040518060400160405280600b81526020017f47616d65722043617264730000000000000000000000000000000000000000008152506040518060400160405280600381526020017f4554480000000000000000000000000000000000000000000000000000000000815250816000908051906020019062000096929190620000b8565b508060019080519060200190620000af929190620000b8565b505050620001cd565b828054620000c69062000168565b90600052602060002090601f016020900481019282620000ea576000855562000136565b82601f106200010557805160ff191683800117855562000136565b8280016001018555821562000136579182015b828111156200013557825182559160200191906001019062000118565b5b50905062000145919062000149565b5090565b5b80821115620001645760008160009055506001016200014a565b5090565b600060028204905060018216806200018157607f821691505b602082108114156200019857620001976200019e565b5b50919050565b7f4e487b7100000000000000000000000000000000000000000000000000000000600052602260045260246000fd5b6131db80620001dd6000396000f3fe608060405234801561001057600080fd5b50600436106101005760003560e01c80636352211e11610097578063ad81302d11610066578063ad81302d146102bf578063b88d4fde146102db578063c87b56dd146102f7578063e985e9c51461032757610100565b80636352211e1461022557806370a082311461025557806395d89b4114610285578063a22cb465146102a357610100565b806317d70f7c116100d357806317d70f7c1461019f57806323b872dd146101bd57806342842e0e146101d95780635768f271146101f557610100565b806301ffc9a71461010557806306fdde0314610135578063081812fc14610153578063095ea7b314610183575b600080fd5b61011f600480360381019061011a919061207e565b610357565b60405161012c919061258a565b60405180910390f35b61013d610439565b60405161014a91906125a5565b60405180910390f35b61016d600480360381019061016891906120d0565b6104cb565b60405161017a9190612501565b60405180910390f35b61019d60048036038101906101989190612001565b610550565b005b6101a7610668565b6040516101b49190612817565b60405180910390f35b6101d760048036038101906101d29190611efb565b61066e565b005b6101f360048036038101906101ee9190611efb565b6106ce565b005b61020f600480360381019061020a919061203d565b6106ee565b60405161021c9190612568565b60405180910390f35b61023f600480360381019061023a91906120d0565b610845565b60405161024c9190612501565b60405180910390f35b61026f600480360381019061026a9190611e96565b6108f7565b60405161027c9190612817565b60405180910390f35b61028d6109af565b60405161029a91906125a5565b60405180910390f35b6102bd60048036038101906102b89190611fc5565b610a41565b005b6102d960048036038101906102d491906120f9565b610a57565b005b6102f560048036038101906102f09190611f4a565b610b62565b005b610311600480360381019061030c91906120d0565b610bc4565b60405161031e91906125a5565b60405180910390f35b610341600480360381019061033c9190611ebf565b610d16565b60405161034e919061258a565b60405180910390f35b60007f80ac58cd000000000000000000000000000000000000000000000000000000007bffffffffffffffffffffffffffffffffffffffffffffffffffffffff1916827bffffffffffffffffffffffffffffffffffffffffffffffffffffffff1916148061042257507f5b5e139f000000000000000000000000000000000000000000000000000000007bffffffffffffffffffffffffffffffffffffffffffffffffffffffff1916827bffffffffffffffffffffffffffffffffffffffffffffffffffffffff1916145b80610432575061043182610daa565b5b9050919050565b60606000805461044890612ad2565b80601f016020809104026020016040519081016040528092919081815260200182805461047490612ad2565b80156104c15780601f10610496576101008083540402835291602001916104c1565b820191906000526020600020905b8154815290600101906020018083116104a457829003601f168201915b5050505050905090565b60006104d682610e14565b610515576040517f08c379a000000000000000000000000000000000000000000000000000000000815260040161050c90612777565b60405180910390fd5b6004600083815260200190815260200160002060009054906101000a900473ffffffffffffffffffffffffffffffffffffffff169050919050565b600061055b82610845565b90508073ffffffffffffffffffffffffffffffffffffffff168373ffffffffffffffffffffffffffffffffffffffff1614156105cc576040517f08c379a00000000000000000000000000000000000000000000000000000000081526004016105c3906127d7565b60405180910390fd5b8073ffffffffffffffffffffffffffffffffffffffff166105eb610e80565b73ffffffffffffffffffffffffffffffffffffffff16148061061a575061061981610614610e80565b610d16565b5b610659576040517f08c379a0000000000000000000000000000000000000000000000000000000008152600401610650906126b7565b60405180910390fd5b6106638383610e88565b505050565b60075481565b61067f610679610e80565b82610f41565b6106be576040517f08c379a00000000000000000000000000000000000000000000000000000000081526004016106b5906127f7565b60405180910390fd5b6106c983838361101f565b505050565b6106e983838360405180602001604052806000815250610b62565b505050565b60606000825167ffffffffffffffff811115610733577f4e487b7100000000000000000000000000000000000000000000000000000000600052604160045260246000fd5b6040519080825280602002602001820160405280156107615781602001602082028036833780820191505090505b50905060005b835181101561083b576007600081548092919061078390612b35565b919050555061079433600754611286565b6107e06007548583815181106107d3577f4e487b7100000000000000000000000000000000000000000000000000000000600052603260045260246000fd5b60200260200101516112a4565b60075482828151811061081c577f4e487b7100000000000000000000000000000000000000000000000000000000600052603260045260246000fd5b602002602001018181525050808061083390612b35565b915050610767565b5080915050919050565b6000806002600084815260200190815260200160002060009054906101000a900473ffffffffffffffffffffffffffffffffffffffff169050600073ffffffffffffffffffffffffffffffffffffffff168173ffffffffffffffffffffffffffffffffffffffff1614156108ee576040517f08c379a00000000000000000000000000000000000000000000000000000000081526004016108e5906126f7565b60405180910390fd5b80915050919050565b60008073ffffffffffffffffffffffffffffffffffffffff168273ffffffffffffffffffffffffffffffffffffffff161415610968576040517f08c379a000000000000000000000000000000000000000000000000000000000815260040161095f906126d7565b60405180910390fd5b600360008373ffffffffffffffffffffffffffffffffffffffff1673ffffffffffffffffffffffffffffffffffffffff168152602001908152602001600020549050919050565b6060600180546109be90612ad2565b80601f01602080910402602001604051908101604052809291908181526020018280546109ea90612ad2565b8015610a375780601f10610a0c57610100808354040283529160200191610a37565b820191906000526020600020905b815481529060010190602001808311610a1a57829003601f168201915b5050505050905090565b610a53610a4c610e80565b8383611318565b5050565b610a9e6040518060400160405280601281526020017f5b4e46545d204f574e4552204f46204e46540000000000000000000000000000815250610a9984610845565b611485565b610add6040518060400160405280601181526020017f636f6e7472616374416464726573733a2000000000000000000000000000000081525082611485565b3373ffffffffffffffffffffffffffffffffffffffff16610afd83610845565b73ffffffffffffffffffffffffffffffffffffffff1614610b53576040517f08c379a0000000000000000000000000000000000000000000000000000000008152600401610b4a90612797565b60405180910390fd5b610b5e816001610a41565b5050565b610b73610b6d610e80565b83610f41565b610bb2576040517f08c379a0000000000000000000000000000000000000000000000000000000008152600401610ba9906127f7565b60405180910390fd5b610bbe84848484611521565b50505050565b6060610bcf82610e14565b610c0e576040517f08c379a0000000000000000000000000000000000000000000000000000000008152600401610c0590612757565b60405180910390fd5b6000600660008481526020019081526020016000208054610c2e90612ad2565b80601f0160208091040260200160405190810160405280929190818152602001828054610c5a90612ad2565b8015610ca75780601f10610c7c57610100808354040283529160200191610ca7565b820191906000526020600020905b815481529060010190602001808311610c8a57829003601f168201915b505050505090506000610cb861157d565b9050600081511415610cce578192505050610d11565b600082511115610d03578082604051602001610ceb9291906124dd565b60405160208183030381529060405292505050610d11565b610d0c84611594565b925050505b919050565b6000600560008473ffffffffffffffffffffffffffffffffffffffff1673ffffffffffffffffffffffffffffffffffffffff16815260200190815260200160002060008373ffffffffffffffffffffffffffffffffffffffff1673ffffffffffffffffffffffffffffffffffffffff16815260200190815260200160002060009054906101000a900460ff16905092915050565b60007f01ffc9a7000000000000000000000000000000000000000000000000000000007bffffffffffffffffffffffffffffffffffffffffffffffffffffffff1916827bffffffffffffffffffffffffffffffffffffffffffffffffffffffff1916149050919050565b60008073ffffffffffffffffffffffffffffffffffffffff166002600084815260200190815260200160002060009054906101000a900473ffffffffffffffffffffffffffffffffffffffff1673ffffffffffffffffffffffffffffffffffffffff1614159050919050565b600033905090565b816004600083815260200190815260200160002060006101000a81548173ffffffffffffffffffffffffffffffffffffffff021916908373ffffffffffffffffffffffffffffffffffffffff160217905550808273ffffffffffffffffffffffffffffffffffffffff16610efb83610845565b73ffffffffffffffffffffffffffffffffffffffff167f8c5be1e5ebec7d5bd14f71427d1e84f3dd0314c0f7b2291e5b200ac8c7c3b92560405160405180910390a45050565b6000610f4c82610e14565b610f8b576040517f08c379a0000000000000000000000000000000000000000000000000000000008152600401610f8290612697565b60405180910390fd5b6000610f9683610845565b90508073ffffffffffffffffffffffffffffffffffffffff168473ffffffffffffffffffffffffffffffffffffffff161480610fd85750610fd78185610d16565b5b8061101657508373ffffffffffffffffffffffffffffffffffffffff16610ffe846104cb565b73ffffffffffffffffffffffffffffffffffffffff16145b91505092915050565b8273ffffffffffffffffffffffffffffffffffffffff1661103f82610845565b73ffffffffffffffffffffffffffffffffffffffff1614611095576040517f08c379a000000000000000000000000000000000000000000000000000000000815260040161108c90612617565b60405180910390fd5b600073ffffffffffffffffffffffffffffffffffffffff168273ffffffffffffffffffffffffffffffffffffffff161415611105576040517f08c379a00000000000000000000000000000000000000000000000000000000081526004016110fc90612657565b60405180910390fd5b61111083838361163b565b61111b600082610e88565b6001600360008573ffffffffffffffffffffffffffffffffffffffff1673ffffffffffffffffffffffffffffffffffffffff168152602001908152602001600020600082825461116b91906129e8565b925050819055506001600360008473ffffffffffffffffffffffffffffffffffffffff1673ffffffffffffffffffffffffffffffffffffffff16815260200190815260200160002060008282546111c29190612961565b92505081905550816002600083815260200190815260200160002060006101000a81548173ffffffffffffffffffffffffffffffffffffffff021916908373ffffffffffffffffffffffffffffffffffffffff160217905550808273ffffffffffffffffffffffffffffffffffffffff168473ffffffffffffffffffffffffffffffffffffffff167fddf252ad1be2c89b69c2b068fc378daa952ba7f163c4a11628f55a4df523b3ef60405160405180910390a4611281838383611640565b505050565b6112a0828260405180602001604052806000815250611645565b5050565b6112ad82610e14565b6112ec576040517f08c379a00000000000000000000000000000000000000000000000000000000081526004016112e390612717565b60405180910390fd5b80600660008481526020019081526020016000209080519060200190611313929190611c0a565b505050565b8173ffffffffffffffffffffffffffffffffffffffff168373ffffffffffffffffffffffffffffffffffffffff161415611387576040517f08c379a000000000000000000000000000000000000000000000000000000000815260040161137e90612677565b60405180910390fd5b80600560008573ffffffffffffffffffffffffffffffffffffffff1673ffffffffffffffffffffffffffffffffffffffff16815260200190815260200160002060008473ffffffffffffffffffffffffffffffffffffffff1673ffffffffffffffffffffffffffffffffffffffff16815260200190815260200160002060006101000a81548160ff0219169083151502179055508173ffffffffffffffffffffffffffffffffffffffff168373ffffffffffffffffffffffffffffffffffffffff167f17307eab39ab6107e8899845ad3d59bd9653f200f220920489ca2b5937696c3183604051611478919061258a565b60405180910390a3505050565b61151d828260405160240161149b9291906125c7565b6040516020818303038152906040527f319af333000000000000000000000000000000000000000000000000000000007bffffffffffffffffffffffffffffffffffffffffffffffffffffffff19166020820180517bffffffffffffffffffffffffffffffffffffffffffffffffffffffff83818316178352505050506116a0565b5050565b61152c84848461101f565b611538848484846116c9565b611577576040517f08c379a000000000000000000000000000000000000000000000000000000000815260040161156e906125f7565b60405180910390fd5b50505050565b606060405180602001604052806000815250905090565b606061159f82610e14565b6115de576040517f08c379a00000000000000000000000000000000000000000000000000000000081526004016115d5906127b7565b60405180910390fd5b60006115e861157d565b905060008151116116085760405180602001604052806000815250611633565b8061161284611860565b6040516020016116239291906124dd565b6040516020818303038152906040525b915050919050565b505050565b505050565b61164f8383611a0d565b61165c60008484846116c9565b61169b576040517f08c379a0000000000000000000000000000000000000000000000000000000008152600401611692906125f7565b60405180910390fd5b505050565b60008151905060006a636f6e736f6c652e6c6f679050602083016000808483855afa5050505050565b60006116ea8473ffffffffffffffffffffffffffffffffffffffff16611be7565b15611853578373ffffffffffffffffffffffffffffffffffffffff1663150b7a02611713610e80565b8786866040518563ffffffff1660e01b8152600401611735949392919061251c565b602060405180830381600087803b15801561174f57600080fd5b505af192505050801561178057506040513d601f19601f8201168201806040525081019061177d91906120a7565b60015b611803573d80600081146117b0576040519150601f19603f3d011682016040523d82523d6000602084013e6117b5565b606091505b506000815114156117fb576040517f08c379a00000000000000000000000000000000000000000000000000000000081526004016117f2906125f7565b60405180910390fd5b805181602001fd5b63150b7a0260e01b7bffffffffffffffffffffffffffffffffffffffffffffffffffffffff1916817bffffffffffffffffffffffffffffffffffffffffffffffffffffffff191614915050611858565b600190505b949350505050565b606060008214156118a8576040518060400160405280600181526020017f30000000000000000000000000000000000000000000000000000000000000008152509050611a08565b600082905060005b600082146118da5780806118c390612b35565b915050600a826118d391906129b7565b91506118b0565b60008167ffffffffffffffff81111561191c577f4e487b7100000000000000000000000000000000000000000000000000000000600052604160045260246000fd5b6040519080825280601f01601f19166020018201604052801561194e5781602001600182028036833780820191505090505b5090505b60008514611a015760018261196791906129e8565b9150600a856119769190612b7e565b60306119829190612961565b60f81b8183815181106119be577f4e487b7100000000000000000000000000000000000000000000000000000000600052603260045260246000fd5b60200101907effffffffffffffffffffffffffffffffffffffffffffffffffffffffffffff1916908160001a905350600a856119fa91906129b7565b9450611952565b8093505050505b919050565b600073ffffffffffffffffffffffffffffffffffffffff168273ffffffffffffffffffffffffffffffffffffffff161415611a7d576040517f08c379a0000000000000000000000000000000000000000000000000000000008152600401611a7490612737565b60405180910390fd5b611a8681610e14565b15611ac6576040517f08c379a0000000000000000000000000000000000000000000000000000000008152600401611abd90612637565b60405180910390fd5b611ad26000838361163b565b6001600360008473ffffffffffffffffffffffffffffffffffffffff1673ffffffffffffffffffffffffffffffffffffffff1681526020019081526020016000206000828254611b229190612961565b92505081905550816002600083815260200190815260200160002060006101000a81548173ffffffffffffffffffffffffffffffffffffffff021916908373ffffffffffffffffffffffffffffffffffffffff160217905550808273ffffffffffffffffffffffffffffffffffffffff16600073ffffffffffffffffffffffffffffffffffffffff167fddf252ad1be2c89b69c2b068fc378daa952ba7f163c4a11628f55a4df523b3ef60405160405180910390a4611be360008383611640565b5050565b6000808273ffffffffffffffffffffffffffffffffffffffff163b119050919050565b828054611c1690612ad2565b90600052602060002090601f016020900481019282611c385760008555611c7f565b82601f10611c5157805160ff1916838001178555611c7f565b82800160010185558215611c7f579182015b82811115611c7e578251825591602001919060010190611c63565b5b509050611c8c9190611c90565b5090565b5b80821115611ca9576000816000905550600101611c91565b5090565b6000611cc0611cbb84612857565b612832565b90508083825260208201905082856020860282011115611cdf57600080fd5b60005b85811015611d2957813567ffffffffffffffff811115611d0157600080fd5b808601611d0e8982611e57565b85526020850194506020840193505050600181019050611ce2565b5050509392505050565b6000611d46611d4184612883565b612832565b905082815260208101848484011115611d5e57600080fd5b611d69848285612a90565b509392505050565b6000611d84611d7f846128b4565b612832565b905082815260208101848484011115611d9c57600080fd5b611da7848285612a90565b509392505050565b600081359050611dbe81613149565b92915050565b600082601f830112611dd557600080fd5b8135611de5848260208601611cad565b91505092915050565b600081359050611dfd81613160565b92915050565b600081359050611e1281613177565b92915050565b600081519050611e2781613177565b92915050565b600082601f830112611e3e57600080fd5b8135611e4e848260208601611d33565b91505092915050565b600082601f830112611e6857600080fd5b8135611e78848260208601611d71565b91505092915050565b600081359050611e908161318e565b92915050565b600060208284031215611ea857600080fd5b6000611eb684828501611daf565b91505092915050565b60008060408385031215611ed257600080fd5b6000611ee085828601611daf565b9250506020611ef185828601611daf565b9150509250929050565b600080600060608486031215611f1057600080fd5b6000611f1e86828701611daf565b9350506020611f2f86828701611daf565b9250506040611f4086828701611e81565b9150509250925092565b60008060008060808587031215611f6057600080fd5b6000611f6e87828801611daf565b9450506020611f7f87828801611daf565b9350506040611f9087828801611e81565b925050606085013567ffffffffffffffff811115611fad57600080fd5b611fb987828801611e2d565b91505092959194509250565b60008060408385031215611fd857600080fd5b6000611fe685828601611daf565b9250506020611ff785828601611dee565b9150509250929050565b6000806040838503121561201457600080fd5b600061202285828601611daf565b925050602061203385828601611e81565b9150509250929050565b60006020828403121561204f57600080fd5b600082013567ffffffffffffffff81111561206957600080fd5b61207584828501611dc4565b91505092915050565b60006020828403121561209057600080fd5b600061209e84828501611e03565b91505092915050565b6000602082840312156120b957600080fd5b60006120c784828501611e18565b91505092915050565b6000602082840312156120e257600080fd5b60006120f084828501611e81565b91505092915050565b6000806040838503121561210c57600080fd5b600061211a85828601611e81565b925050602061212b85828601611daf565b9150509250929050565b600061214183836124bf565b60208301905092915050565b61215681612a1c565b82525050565b6000612167826128f5565b6121718185612923565b935061217c836128e5565b8060005b838110156121ad5781516121948882612135565b975061219f83612916565b925050600181019050612180565b5085935050505092915050565b6121c381612a2e565b82525050565b60006121d482612900565b6121de8185612934565b93506121ee818560208601612a9f565b6121f781612c6b565b840191505092915050565b600061220d8261290b565b6122178185612945565b9350612227818560208601612a9f565b61223081612c6b565b840191505092915050565b60006122468261290b565b6122508185612956565b9350612260818560208601612a9f565b80840191505092915050565b6000612279603283612945565b915061228482612c7c565b604082019050919050565b600061229c602583612945565b91506122a782612ccb565b604082019050919050565b60006122bf601c83612945565b91506122ca82612d1a565b602082019050919050565b60006122e2602483612945565b91506122ed82612d43565b604082019050919050565b6000612305601983612945565b915061231082612d92565b602082019050919050565b6000612328602c83612945565b915061233382612dbb565b604082019050919050565b600061234b603883612945565b915061235682612e0a565b604082019050919050565b600061236e602a83612945565b915061237982612e59565b604082019050919050565b6000612391602983612945565b915061239c82612ea8565b604082019050919050565b60006123b4602e83612945565b91506123bf82612ef7565b604082019050919050565b60006123d7602083612945565b91506123e282612f46565b602082019050919050565b60006123fa603183612945565b915061240582612f6f565b604082019050919050565b600061241d602c83612945565b915061242882612fbe565b604082019050919050565b6000612440602b83612945565b915061244b8261300d565b604082019050919050565b6000612463602f83612945565b915061246e8261305c565b604082019050919050565b6000612486602183612945565b9150612491826130ab565b604082019050919050565b60006124a9603183612945565b91506124b4826130fa565b604082019050919050565b6124c881612a86565b82525050565b6124d781612a86565b82525050565b60006124e9828561223b565b91506124f5828461223b565b91508190509392505050565b6000602082019050612516600083018461214d565b92915050565b6000608082019050612531600083018761214d565b61253e602083018661214d565b61254b60408301856124ce565b818103606083015261255d81846121c9565b905095945050505050565b60006020820190508181036000830152612582818461215c565b905092915050565b600060208201905061259f60008301846121ba565b92915050565b600060208201905081810360008301526125bf8184612202565b905092915050565b600060408201905081810360008301526125e18185612202565b90506125f0602083018461214d565b9392505050565b600060208201905081810360008301526126108161226c565b9050919050565b600060208201905081810360008301526126308161228f565b9050919050565b60006020820190508181036000830152612650816122b2565b9050919050565b60006020820190508181036000830152612670816122d5565b9050919050565b60006020820190508181036000830152612690816122f8565b9050919050565b600060208201905081810360008301526126b08161231b565b9050919050565b600060208201905081810360008301526126d08161233e565b9050919050565b600060208201905081810360008301526126f081612361565b9050919050565b6000602082019050818103600083015261271081612384565b9050919050565b60006020820190508181036000830152612730816123a7565b9050919050565b60006020820190508181036000830152612750816123ca565b9050919050565b60006020820190508181036000830152612770816123ed565b9050919050565b6000602082019050818103600083015261279081612410565b9050919050565b600060208201905081810360008301526127b081612433565b9050919050565b600060208201905081810360008301526127d081612456565b9050919050565b600060208201905081810360008301526127f081612479565b9050919050565b600060208201905081810360008301526128108161249c565b9050919050565b600060208201905061282c60008301846124ce565b92915050565b600061283c61284d565b90506128488282612b04565b919050565b6000604051905090565b600067ffffffffffffffff82111561287257612871612c3c565b5b602082029050602081019050919050565b600067ffffffffffffffff82111561289e5761289d612c3c565b5b6128a782612c6b565b9050602081019050919050565b600067ffffffffffffffff8211156128cf576128ce612c3c565b5b6128d882612c6b565b9050602081019050919050565b6000819050602082019050919050565b600081519050919050565b600081519050919050565b600081519050919050565b6000602082019050919050565b600082825260208201905092915050565b600082825260208201905092915050565b600082825260208201905092915050565b600081905092915050565b600061296c82612a86565b915061297783612a86565b9250827fffffffffffffffffffffffffffffffffffffffffffffffffffffffffffffffff038211156129ac576129ab612baf565b5b828201905092915050565b60006129c282612a86565b91506129cd83612a86565b9250826129dd576129dc612bde565b5b828204905092915050565b60006129f382612a86565b91506129fe83612a86565b925082821015612a1157612a10612baf565b5b828203905092915050565b6000612a2782612a66565b9050919050565b60008115159050919050565b60007fffffffff0000000000000000000000000000000000000000000000000000000082169050919050565b600073ffffffffffffffffffffffffffffffffffffffff82169050919050565b6000819050919050565b82818337600083830152505050565b60005b83811015612abd578082015181840152602081019050612aa2565b83811115612acc576000848401525b50505050565b60006002820490506001821680612aea57607f821691505b60208210811415612afe57612afd612c0d565b5b50919050565b612b0d82612c6b565b810181811067ffffffffffffffff82111715612b2c57612b2b612c3c565b5b80604052505050565b6000612b4082612a86565b91507fffffffffffffffffffffffffffffffffffffffffffffffffffffffffffffffff821415612b7357612b72612baf565b5b600182019050919050565b6000612b8982612a86565b9150612b9483612a86565b925082612ba457612ba3612bde565b5b828206905092915050565b7f4e487b7100000000000000000000000000000000000000000000000000000000600052601160045260246000fd5b7f4e487b7100000000000000000000000000000000000000000000000000000000600052601260045260246000fd5b7f4e487b7100000000000000000000000000000000000000000000000000000000600052602260045260246000fd5b7f4e487b7100000000000000000000000000000000000000000000000000000000600052604160045260246000fd5b6000601f19601f8301169050919050565b7f4552433732313a207472616e7366657220746f206e6f6e20455243373231526560008201527f63656976657220696d706c656d656e7465720000000000000000000000000000602082015250565b7f4552433732313a207472616e736665722066726f6d20696e636f72726563742060008201527f6f776e6572000000000000000000000000000000000000000000000000000000602082015250565b7f4552433732313a20746f6b656e20616c7265616479206d696e74656400000000600082015250565b7f4552433732313a207472616e7366657220746f20746865207a65726f2061646460008201527f7265737300000000000000000000000000000000000000000000000000000000602082015250565b7f4552433732313a20617070726f766520746f2063616c6c657200000000000000600082015250565b7f4552433732313a206f70657261746f7220717565727920666f72206e6f6e657860008201527f697374656e7420746f6b656e0000000000000000000000000000000000000000602082015250565b7f4552433732313a20617070726f76652063616c6c6572206973206e6f74206f7760008201527f6e6572206e6f7220617070726f76656420666f7220616c6c0000000000000000602082015250565b7f4552433732313a2062616c616e636520717565727920666f7220746865207a6560008201527f726f206164647265737300000000000000000000000000000000000000000000602082015250565b7f4552433732313a206f776e657220717565727920666f72206e6f6e657869737460008201527f656e7420746f6b656e0000000000000000000000000000000000000000000000602082015250565b7f45524337323155524953746f726167653a2055524920736574206f66206e6f6e60008201527f6578697374656e7420746f6b656e000000000000000000000000000000000000602082015250565b7f4552433732313a206d696e7420746f20746865207a65726f2061646472657373600082015250565b7f45524337323155524953746f726167653a2055524920717565727920666f722060008201527f6e6f6e6578697374656e7420746f6b656e000000000000000000000000000000602082015250565b7f4552433732313a20617070726f76656420717565727920666f72206e6f6e657860008201527f697374656e7420746f6b656e0000000000000000000000000000000000000000602082015250565b7f596f75206d757374206f776e2074686973204e465420696e206f72646572207460008201527f6f20726573656c6c206974000000000000000000000000000000000000000000602082015250565b7f4552433732314d657461646174613a2055524920717565727920666f72206e6f60008201527f6e6578697374656e7420746f6b656e0000000000000000000000000000000000602082015250565b7f4552433732313a20617070726f76616c20746f2063757272656e74206f776e6560008201527f7200000000000000000000000000000000000000000000000000000000000000602082015250565b7f4552433732313a207472616e736665722063616c6c6572206973206e6f74206f60008201527f776e6572206e6f7220617070726f766564000000000000000000000000000000602082015250565b61315281612a1c565b811461315d57600080fd5b50565b61316981612a2e565b811461317457600080fd5b50565b61318081612a3a565b811461318b57600080fd5b50565b61319781612a86565b81146131a257600080fd5b5056fea2646970667358221220929a4defd15a471371f9c3c10070ed7294a4976a44f27d88550a3affd30b711164736f6c63430008040033",
  "linkReferences": {},
  "deployedLinkReferences": {}
}