{
  "_format": "hh-sol-artifact-1",
  "contractName": "NFT",
  "sourceName": "src/solidity/contracts/NFT.sol",
  "abi": [
    {
      "inputs": [],
      "stateMutability": "nonpayable",
      "type": "constructor"
    },
    {
      "anonymous": false,
      "inputs": [
        {
          "indexed": true,
          "internalType": "address",
          "name": "owner",
          "type": "address"
        },
        {
          "indexed": true,
          "internalType": "address",
          "name": "approved",
          "type": "address"
        },
        {
          "indexed": true,
          "internalType": "uint256",
          "name": "tokenId",
          "type": "uint256"
        }
      ],
      "name": "Approval",
      "type": "event"
    },
    {
      "anonymous": false,
      "inputs": [
        {
          "indexed": true,
          "internalType": "address",
          "name": "owner",
          "type": "address"
        },
        {
          "indexed": true,
          "internalType": "address",
          "name": "operator",
          "type": "address"
        },
        {
          "indexed": false,
          "internalType": "bool",
          "name": "approved",
          "type": "bool"
        }
      ],
      "name": "ApprovalForAll",
      "type": "event"
    },
    {
      "anonymous": false,
      "inputs": [
        {
          "indexed": true,
          "internalType": "address",
          "name": "from",
          "type": "address"
        },
        {
          "indexed": true,
          "internalType": "address",
          "name": "to",
          "type": "address"
        },
        {
          "indexed": true,
          "internalType": "uint256",
          "name": "tokenId",
          "type": "uint256"
        }
      ],
      "name": "Transfer",
      "type": "event"
    },
    {
      "inputs": [
        {
          "internalType": "address",
          "name": "to",
          "type": "address"
        },
        {
          "internalType": "uint256",
          "name": "tokenId",
          "type": "uint256"
        }
      ],
      "name": "approve",
      "outputs": [],
      "stateMutability": "nonpayable",
      "type": "function"
    },
    {
      "inputs": [
        {
          "internalType": "address",
          "name": "owner",
          "type": "address"
        }
      ],
      "name": "balanceOf",
      "outputs": [
        {
          "internalType": "uint256",
          "name": "",
          "type": "uint256"
        }
      ],
      "stateMutability": "view",
      "type": "function"
    },
    {
      "inputs": [
        {
          "internalType": "uint256",
          "name": "tokenId",
          "type": "uint256"
        }
      ],
      "name": "getApproved",
      "outputs": [
        {
          "internalType": "address",
          "name": "",
          "type": "address"
        }
      ],
      "stateMutability": "view",
      "type": "function"
    },
    {
      "inputs": [
        {
          "internalType": "uint256",
          "name": "_tokenId",
          "type": "uint256"
        },
        {
          "internalType": "address",
          "name": "_contractAddress",
          "type": "address"
        }
      ],
      "name": "giveResaleApproval",
      "outputs": [],
      "stateMutability": "nonpayable",
      "type": "function"
    },
    {
      "inputs": [
        {
          "internalType": "address",
          "name": "owner",
          "type": "address"
        },
        {
          "internalType": "address",
          "name": "operator",
          "type": "address"
        }
      ],
      "name": "isApprovedForAll",
      "outputs": [
        {
          "internalType": "bool",
          "name": "",
          "type": "bool"
        }
      ],
      "stateMutability": "view",
      "type": "function"
    },
    {
      "inputs": [
        {
          "internalType": "string[]",
          "name": "_tokenURIS",
          "type": "string[]"
        },
        {
          "internalType": "address",
          "name": "_marketplaceContract",
          "type": "address"
        }
      ],
      "name": "mint",
      "outputs": [
        {
          "internalType": "uint256[]",
          "name": "",
          "type": "uint256[]"
        }
      ],
      "stateMutability": "nonpayable",
      "type": "function"
    },
    {
      "inputs": [],
      "name": "name",
      "outputs": [
        {
          "internalType": "string",
          "name": "",
          "type": "string"
        }
      ],
      "stateMutability": "view",
      "type": "function"
    },
    {
      "inputs": [
        {
          "internalType": "uint256",
          "name": "tokenId",
          "type": "uint256"
        }
      ],
      "name": "ownerOf",
      "outputs": [
        {
          "internalType": "address",
          "name": "",
          "type": "address"
        }
      ],
      "stateMutability": "view",
      "type": "function"
    },
    {
      "inputs": [
        {
          "internalType": "address",
          "name": "from",
          "type": "address"
        },
        {
          "internalType": "address",
          "name": "to",
          "type": "address"
        },
        {
          "internalType": "uint256",
          "name": "tokenId",
          "type": "uint256"
        }
      ],
      "name": "safeTransferFrom",
      "outputs": [],
      "stateMutability": "nonpayable",
      "type": "function"
    },
    {
      "inputs": [
        {
          "internalType": "address",
          "name": "from",
          "type": "address"
        },
        {
          "internalType": "address",
          "name": "to",
          "type": "address"
        },
        {
          "internalType": "uint256",
          "name": "tokenId",
          "type": "uint256"
        },
        {
          "internalType": "bytes",
          "name": "_data",
          "type": "bytes"
        }
      ],
      "name": "safeTransferFrom",
      "outputs": [],
      "stateMutability": "nonpayable",
      "type": "function"
    },
    {
      "inputs": [
        {
          "internalType": "address",
          "name": "operator",
          "type": "address"
        },
        {
          "internalType": "bool",
          "name": "approved",
          "type": "bool"
        }
      ],
      "name": "setApprovalForAll",
      "outputs": [],
      "stateMutability": "nonpayable",
      "type": "function"
    },
    {
      "inputs": [
        {
          "internalType": "bytes4",
          "name": "interfaceId",
          "type": "bytes4"
        }
      ],
      "name": "supportsInterface",
      "outputs": [
        {
          "internalType": "bool",
          "name": "",
          "type": "bool"
        }
      ],
      "stateMutability": "view",
      "type": "function"
    },
    {
      "inputs": [],
      "name": "symbol",
      "outputs": [
        {
          "internalType": "string",
          "name": "",
          "type": "string"
        }
      ],
      "stateMutability": "view",
      "type": "function"
    },
    {
      "inputs": [],
      "name": "tokenId",
      "outputs": [
        {
          "internalType": "uint256",
          "name": "",
          "type": "uint256"
        }
      ],
      "stateMutability": "view",
      "type": "function"
    },
    {
      "inputs": [
        {
          "internalType": "uint256",
          "name": "tokenId",
          "type": "uint256"
        }
      ],
      "name": "tokenURI",
      "outputs": [
        {
          "internalType": "string",
          "name": "",
          "type": "string"
        }
      ],
      "stateMutability": "view",
      "type": "function"
    },
    {
      "inputs": [
        {
          "internalType": "address",
          "name": "from",
          "type": "address"
        },
        {
          "internalType": "address",
          "name": "to",
          "type": "address"
        },
        {
          "internalType": "uint256",
          "name": "tokenId",
          "type": "uint256"
        }
      ],
      "name": "transferFrom",
      "outputs": [],
      "stateMutability": "nonpayable",
      "type": "function"
    }
  ],
  "bytecode": "0x60806040523480156200001157600080fd5b506040518060400160405280600b81526020017f47616d65722043617264730000000000000000000000000000000000000000008152506040518060400160405280600381526020017f4554480000000000000000000000000000000000000000000000000000000000815250816000908051906020019062000096929190620001d3565b508060019080519060200190620000af929190620001d3565b505050620000fe6040518060400160405280601c81526020017f4144445245532044454c20434f4e545241544f204445204e46543a2000000000815250306200010460201b62000db61760201c565b62000405565b620001a682826040516024016200011d929190620002d5565b6040516020818303038152906040527f319af333000000000000000000000000000000000000000000000000000000007bffffffffffffffffffffffffffffffffffffffffffffffffffffffff19166020820180517bffffffffffffffffffffffffffffffffffffffffffffffffffffffff8381831617835250505050620001aa60201b60201c565b5050565b60008151905060006a636f6e736f6c652e6c6f679050602083016000808483855afa5050505050565b828054620001e1906200038f565b90600052602060002090601f01602090048101928262000205576000855562000251565b82601f106200022057805160ff191683800117855562000251565b8280016001018555821562000251579182015b828111156200025057825182559160200191906001019062000233565b5b50905062000260919062000264565b5090565b5b808211156200027f57600081600090555060010162000265565b5090565b6200028e8162000325565b82525050565b6000620002a18262000309565b620002ad818562000314565b9350620002bf81856020860162000359565b620002ca81620003f4565b840191505092915050565b60006040820190508181036000830152620002f1818562000294565b905062000302602083018462000283565b9392505050565b600081519050919050565b600082825260208201905092915050565b6000620003328262000339565b9050919050565b600073ffffffffffffffffffffffffffffffffffffffff82169050919050565b60005b83811015620003795780820151818401526020810190506200035c565b8381111562000389576000848401525b50505050565b60006002820490506001821680620003a857607f821691505b60208210811415620003bf57620003be620003c5565b5b50919050565b7f4e487b7100000000000000000000000000000000000000000000000000000000600052602260045260246000fd5b6000601f19601f8301169050919050565b6131fa80620004156000396000f3fe608060405234801561001057600080fd5b50600436106101005760003560e01c806370a0823111610097578063b22c421f11610066578063b22c421f146102ab578063b88d4fde146102db578063c87b56dd146102f7578063e985e9c51461032757610100565b806370a082311461022557806395d89b4114610255578063a22cb46514610273578063ad81302d1461028f57610100565b806317d70f7c116100d357806317d70f7c1461019f57806323b872dd146101bd57806342842e0e146101d95780636352211e146101f557610100565b806301ffc9a71461010557806306fdde0314610135578063081812fc14610153578063095ea7b314610183575b600080fd5b61011f600480360381019061011a919061209d565b610357565b60405161012c91906125a9565b60405180910390f35b61013d610439565b60405161014a91906125c4565b60405180910390f35b61016d600480360381019061016891906120ef565b6104cb565b60405161017a9190612520565b60405180910390f35b61019d6004803603810190610198919061200d565b610550565b005b6101a7610668565b6040516101b49190612836565b60405180910390f35b6101d760048036038101906101d29190611f07565b61066e565b005b6101f360048036038101906101ee9190611f07565b6106ce565b005b61020f600480360381019061020a91906120ef565b6106ee565b60405161021c9190612520565b60405180910390f35b61023f600480360381019061023a9190611ea2565b6107a0565b60405161024c9190612836565b60405180910390f35b61025d610858565b60405161026a91906125c4565b60405180910390f35b61028d60048036038101906102889190611fd1565b6108ea565b005b6102a960048036038101906102a49190612118565b610900565b005b6102c560048036038101906102c09190612049565b610a0b565b6040516102d29190612587565b60405180910390f35b6102f560048036038101906102f09190611f56565b610b6e565b005b610311600480360381019061030c91906120ef565b610bd0565b60405161031e91906125c4565b60405180910390f35b610341600480360381019061033c9190611ecb565b610d22565b60405161034e91906125a9565b60405180910390f35b60007f80ac58cd000000000000000000000000000000000000000000000000000000007bffffffffffffffffffffffffffffffffffffffffffffffffffffffff1916827bffffffffffffffffffffffffffffffffffffffffffffffffffffffff1916148061042257507f5b5e139f000000000000000000000000000000000000000000000000000000007bffffffffffffffffffffffffffffffffffffffffffffffffffffffff1916827bffffffffffffffffffffffffffffffffffffffffffffffffffffffff1916145b80610432575061043182610e52565b5b9050919050565b60606000805461044890612af1565b80601f016020809104026020016040519081016040528092919081815260200182805461047490612af1565b80156104c15780601f10610496576101008083540402835291602001916104c1565b820191906000526020600020905b8154815290600101906020018083116104a457829003601f168201915b5050505050905090565b60006104d682610ebc565b610515576040517f08c379a000000000000000000000000000000000000000000000000000000000815260040161050c90612796565b60405180910390fd5b6004600083815260200190815260200160002060009054906101000a900473ffffffffffffffffffffffffffffffffffffffff169050919050565b600061055b826106ee565b90508073ffffffffffffffffffffffffffffffffffffffff168373ffffffffffffffffffffffffffffffffffffffff1614156105cc576040517f08c379a00000000000000000000000000000000000000000000000000000000081526004016105c3906127f6565b60405180910390fd5b8073ffffffffffffffffffffffffffffffffffffffff166105eb610f28565b73ffffffffffffffffffffffffffffffffffffffff16148061061a575061061981610614610f28565b610d22565b5b610659576040517f08c379a0000000000000000000000000000000000000000000000000000000008152600401610650906126d6565b60405180910390fd5b6106638383610f30565b505050565b60075481565b61067f610679610f28565b82610fe9565b6106be576040517f08c379a00000000000000000000000000000000000000000000000000000000081526004016106b590612816565b60405180910390fd5b6106c98383836110c7565b505050565b6106e983838360405180602001604052806000815250610b6e565b505050565b6000806002600084815260200190815260200160002060009054906101000a900473ffffffffffffffffffffffffffffffffffffffff169050600073ffffffffffffffffffffffffffffffffffffffff168173ffffffffffffffffffffffffffffffffffffffff161415610797576040517f08c379a000000000000000000000000000000000000000000000000000000000815260040161078e90612716565b60405180910390fd5b80915050919050565b60008073ffffffffffffffffffffffffffffffffffffffff168273ffffffffffffffffffffffffffffffffffffffff161415610811576040517f08c379a0000000000000000000000000000000000000000000000000000000008152600401610808906126f6565b60405180910390fd5b600360008373ffffffffffffffffffffffffffffffffffffffff1673ffffffffffffffffffffffffffffffffffffffff168152602001908152602001600020549050919050565b60606001805461086790612af1565b80601f016020809104026020016040519081016040528092919081815260200182805461089390612af1565b80156108e05780601f106108b5576101008083540402835291602001916108e0565b820191906000526020600020905b8154815290600101906020018083116108c357829003601f168201915b5050505050905090565b6108fc6108f5610f28565b838361132e565b5050565b6109476040518060400160405280601281526020017f5b4e46545d204f574e4552204f46204e46540000000000000000000000000000815250610942846106ee565b610db6565b6109866040518060400160405280601181526020017f636f6e7472616374416464726573733a2000000000000000000000000000000081525082610db6565b3373ffffffffffffffffffffffffffffffffffffffff166109a6836106ee565b73ffffffffffffffffffffffffffffffffffffffff16146109fc576040517f08c379a00000000000000000000000000000000000000000000000000000000081526004016109f3906127b6565b60405180910390fd5b610a078160016108ea565b5050565b60606000835167ffffffffffffffff811115610a50577f4e487b7100000000000000000000000000000000000000000000000000000000600052604160045260246000fd5b604051908082528060200260200182016040528015610a7e5781602001602082028036833780820191505090505b50905060005b8451811015610b635760076000815480929190610aa090612b54565b9190505550610ab13360075461149b565b610afd600754868381518110610af0577f4e487b7100000000000000000000000000000000000000000000000000000000600052603260045260246000fd5b60200260200101516114b9565b600754828281518110610b39577f4e487b7100000000000000000000000000000000000000000000000000000000600052603260045260246000fd5b602002602001018181525050610b508460016108ea565b8080610b5b90612b54565b915050610a84565b508091505092915050565b610b7f610b79610f28565b83610fe9565b610bbe576040517f08c379a0000000000000000000000000000000000000000000000000000000008152600401610bb590612816565b60405180910390fd5b610bca8484848461152d565b50505050565b6060610bdb82610ebc565b610c1a576040517f08c379a0000000000000000000000000000000000000000000000000000000008152600401610c1190612776565b60405180910390fd5b6000600660008481526020019081526020016000208054610c3a90612af1565b80601f0160208091040260200160405190810160405280929190818152602001828054610c6690612af1565b8015610cb35780601f10610c8857610100808354040283529160200191610cb3565b820191906000526020600020905b815481529060010190602001808311610c9657829003601f168201915b505050505090506000610cc4611589565b9050600081511415610cda578192505050610d1d565b600082511115610d0f578082604051602001610cf79291906124fc565b60405160208183030381529060405292505050610d1d565b610d18846115a0565b925050505b919050565b6000600560008473ffffffffffffffffffffffffffffffffffffffff1673ffffffffffffffffffffffffffffffffffffffff16815260200190815260200160002060008373ffffffffffffffffffffffffffffffffffffffff1673ffffffffffffffffffffffffffffffffffffffff16815260200190815260200160002060009054906101000a900460ff16905092915050565b610e4e8282604051602401610dcc9291906125e6565b6040516020818303038152906040527f319af333000000000000000000000000000000000000000000000000000000007bffffffffffffffffffffffffffffffffffffffffffffffffffffffff19166020820180517bffffffffffffffffffffffffffffffffffffffffffffffffffffffff8381831617835250505050611647565b5050565b60007f01ffc9a7000000000000000000000000000000000000000000000000000000007bffffffffffffffffffffffffffffffffffffffffffffffffffffffff1916827bffffffffffffffffffffffffffffffffffffffffffffffffffffffff1916149050919050565b60008073ffffffffffffffffffffffffffffffffffffffff166002600084815260200190815260200160002060009054906101000a900473ffffffffffffffffffffffffffffffffffffffff1673ffffffffffffffffffffffffffffffffffffffff1614159050919050565b600033905090565b816004600083815260200190815260200160002060006101000a81548173ffffffffffffffffffffffffffffffffffffffff021916908373ffffffffffffffffffffffffffffffffffffffff160217905550808273ffffffffffffffffffffffffffffffffffffffff16610fa3836106ee565b73ffffffffffffffffffffffffffffffffffffffff167f8c5be1e5ebec7d5bd14f71427d1e84f3dd0314c0f7b2291e5b200ac8c7c3b92560405160405180910390a45050565b6000610ff482610ebc565b611033576040517f08c379a000000000000000000000000000000000000000000000000000000000815260040161102a906126b6565b60405180910390fd5b600061103e836106ee565b90508073ffffffffffffffffffffffffffffffffffffffff168473ffffffffffffffffffffffffffffffffffffffff161480611080575061107f8185610d22565b5b806110be57508373ffffffffffffffffffffffffffffffffffffffff166110a6846104cb565b73ffffffffffffffffffffffffffffffffffffffff16145b91505092915050565b8273ffffffffffffffffffffffffffffffffffffffff166110e7826106ee565b73ffffffffffffffffffffffffffffffffffffffff161461113d576040517f08c379a000000000000000000000000000000000000000000000000000000000815260040161113490612636565b60405180910390fd5b600073ffffffffffffffffffffffffffffffffffffffff168273ffffffffffffffffffffffffffffffffffffffff1614156111ad576040517f08c379a00000000000000000000000000000000000000000000000000000000081526004016111a490612676565b60405180910390fd5b6111b8838383611670565b6111c3600082610f30565b6001600360008573ffffffffffffffffffffffffffffffffffffffff1673ffffffffffffffffffffffffffffffffffffffff16815260200190815260200160002060008282546112139190612a07565b925050819055506001600360008473ffffffffffffffffffffffffffffffffffffffff1673ffffffffffffffffffffffffffffffffffffffff168152602001908152602001600020600082825461126a9190612980565b92505081905550816002600083815260200190815260200160002060006101000a81548173ffffffffffffffffffffffffffffffffffffffff021916908373ffffffffffffffffffffffffffffffffffffffff160217905550808273ffffffffffffffffffffffffffffffffffffffff168473ffffffffffffffffffffffffffffffffffffffff167fddf252ad1be2c89b69c2b068fc378daa952ba7f163c4a11628f55a4df523b3ef60405160405180910390a4611329838383611675565b505050565b8173ffffffffffffffffffffffffffffffffffffffff168373ffffffffffffffffffffffffffffffffffffffff16141561139d576040517f08c379a000000000000000000000000000000000000000000000000000000000815260040161139490612696565b60405180910390fd5b80600560008573ffffffffffffffffffffffffffffffffffffffff1673ffffffffffffffffffffffffffffffffffffffff16815260200190815260200160002060008473ffffffffffffffffffffffffffffffffffffffff1673ffffffffffffffffffffffffffffffffffffffff16815260200190815260200160002060006101000a81548160ff0219169083151502179055508173ffffffffffffffffffffffffffffffffffffffff168373ffffffffffffffffffffffffffffffffffffffff167f17307eab39ab6107e8899845ad3d59bd9653f200f220920489ca2b5937696c318360405161148e91906125a9565b60405180910390a3505050565b6114b582826040518060200160405280600081525061167a565b5050565b6114c282610ebc565b611501576040517f08c379a00000000000000000000000000000000000000000000000000000000081526004016114f890612736565b60405180910390fd5b80600660008481526020019081526020016000209080519060200190611528929190611c16565b505050565b6115388484846110c7565b611544848484846116d5565b611583576040517f08c379a000000000000000000000000000000000000000000000000000000000815260040161157a90612616565b60405180910390fd5b50505050565b606060405180602001604052806000815250905090565b60606115ab82610ebc565b6115ea576040517f08c379a00000000000000000000000000000000000000000000000000000000081526004016115e1906127d6565b60405180910390fd5b60006115f4611589565b90506000815111611614576040518060200160405280600081525061163f565b8061161e8461186c565b60405160200161162f9291906124fc565b6040516020818303038152906040525b915050919050565b60008151905060006a636f6e736f6c652e6c6f679050602083016000808483855afa5050505050565b505050565b505050565b6116848383611a19565b61169160008484846116d5565b6116d0576040517f08c379a00000000000000000000000000000000000000000000000000000000081526004016116c790612616565b60405180910390fd5b505050565b60006116f68473ffffffffffffffffffffffffffffffffffffffff16611bf3565b1561185f578373ffffffffffffffffffffffffffffffffffffffff1663150b7a0261171f610f28565b8786866040518563ffffffff1660e01b8152600401611741949392919061253b565b602060405180830381600087803b15801561175b57600080fd5b505af192505050801561178c57506040513d601f19601f8201168201806040525081019061178991906120c6565b60015b61180f573d80600081146117bc576040519150601f19603f3d011682016040523d82523d6000602084013e6117c1565b606091505b50600081511415611807576040517f08c379a00000000000000000000000000000000000000000000000000000000081526004016117fe90612616565b60405180910390fd5b805181602001fd5b63150b7a0260e01b7bffffffffffffffffffffffffffffffffffffffffffffffffffffffff1916817bffffffffffffffffffffffffffffffffffffffffffffffffffffffff191614915050611864565b600190505b949350505050565b606060008214156118b4576040518060400160405280600181526020017f30000000000000000000000000000000000000000000000000000000000000008152509050611a14565b600082905060005b600082146118e65780806118cf90612b54565b915050600a826118df91906129d6565b91506118bc565b60008167ffffffffffffffff811115611928577f4e487b7100000000000000000000000000000000000000000000000000000000600052604160045260246000fd5b6040519080825280601f01601f19166020018201604052801561195a5781602001600182028036833780820191505090505b5090505b60008514611a0d576001826119739190612a07565b9150600a856119829190612b9d565b603061198e9190612980565b60f81b8183815181106119ca577f4e487b7100000000000000000000000000000000000000000000000000000000600052603260045260246000fd5b60200101907effffffffffffffffffffffffffffffffffffffffffffffffffffffffffffff1916908160001a905350600a85611a0691906129d6565b945061195e565b8093505050505b919050565b600073ffffffffffffffffffffffffffffffffffffffff168273ffffffffffffffffffffffffffffffffffffffff161415611a89576040517f08c379a0000000000000000000000000000000000000000000000000000000008152600401611a8090612756565b60405180910390fd5b611a9281610ebc565b15611ad2576040517f08c379a0000000000000000000000000000000000000000000000000000000008152600401611ac990612656565b60405180910390fd5b611ade60008383611670565b6001600360008473ffffffffffffffffffffffffffffffffffffffff1673ffffffffffffffffffffffffffffffffffffffff1681526020019081526020016000206000828254611b2e9190612980565b92505081905550816002600083815260200190815260200160002060006101000a81548173ffffffffffffffffffffffffffffffffffffffff021916908373ffffffffffffffffffffffffffffffffffffffff160217905550808273ffffffffffffffffffffffffffffffffffffffff16600073ffffffffffffffffffffffffffffffffffffffff167fddf252ad1be2c89b69c2b068fc378daa952ba7f163c4a11628f55a4df523b3ef60405160405180910390a4611bef60008383611675565b5050565b6000808273ffffffffffffffffffffffffffffffffffffffff163b119050919050565b828054611c2290612af1565b90600052602060002090601f016020900481019282611c445760008555611c8b565b82601f10611c5d57805160ff1916838001178555611c8b565b82800160010185558215611c8b579182015b82811115611c8a578251825591602001919060010190611c6f565b5b509050611c989190611c9c565b5090565b5b80821115611cb5576000816000905550600101611c9d565b5090565b6000611ccc611cc784612876565b612851565b90508083825260208201905082856020860282011115611ceb57600080fd5b60005b85811015611d3557813567ffffffffffffffff811115611d0d57600080fd5b808601611d1a8982611e63565b85526020850194506020840193505050600181019050611cee565b5050509392505050565b6000611d52611d4d846128a2565b612851565b905082815260208101848484011115611d6a57600080fd5b611d75848285612aaf565b509392505050565b6000611d90611d8b846128d3565b612851565b905082815260208101848484011115611da857600080fd5b611db3848285612aaf565b509392505050565b600081359050611dca81613168565b92915050565b600082601f830112611de157600080fd5b8135611df1848260208601611cb9565b91505092915050565b600081359050611e098161317f565b92915050565b600081359050611e1e81613196565b92915050565b600081519050611e3381613196565b92915050565b600082601f830112611e4a57600080fd5b8135611e5a848260208601611d3f565b91505092915050565b600082601f830112611e7457600080fd5b8135611e84848260208601611d7d565b91505092915050565b600081359050611e9c816131ad565b92915050565b600060208284031215611eb457600080fd5b6000611ec284828501611dbb565b91505092915050565b60008060408385031215611ede57600080fd5b6000611eec85828601611dbb565b9250506020611efd85828601611dbb565b9150509250929050565b600080600060608486031215611f1c57600080fd5b6000611f2a86828701611dbb565b9350506020611f3b86828701611dbb565b9250506040611f4c86828701611e8d565b9150509250925092565b60008060008060808587031215611f6c57600080fd5b6000611f7a87828801611dbb565b9450506020611f8b87828801611dbb565b9350506040611f9c87828801611e8d565b925050606085013567ffffffffffffffff811115611fb957600080fd5b611fc587828801611e39565b91505092959194509250565b60008060408385031215611fe457600080fd5b6000611ff285828601611dbb565b925050602061200385828601611dfa565b9150509250929050565b6000806040838503121561202057600080fd5b600061202e85828601611dbb565b925050602061203f85828601611e8d565b9150509250929050565b6000806040838503121561205c57600080fd5b600083013567ffffffffffffffff81111561207657600080fd5b61208285828601611dd0565b925050602061209385828601611dbb565b9150509250929050565b6000602082840312156120af57600080fd5b60006120bd84828501611e0f565b91505092915050565b6000602082840312156120d857600080fd5b60006120e684828501611e24565b91505092915050565b60006020828403121561210157600080fd5b600061210f84828501611e8d565b91505092915050565b6000806040838503121561212b57600080fd5b600061213985828601611e8d565b925050602061214a85828601611dbb565b9150509250929050565b600061216083836124de565b60208301905092915050565b61217581612a3b565b82525050565b600061218682612914565b6121908185612942565b935061219b83612904565b8060005b838110156121cc5781516121b38882612154565b97506121be83612935565b92505060018101905061219f565b5085935050505092915050565b6121e281612a4d565b82525050565b60006121f38261291f565b6121fd8185612953565b935061220d818560208601612abe565b61221681612c8a565b840191505092915050565b600061222c8261292a565b6122368185612964565b9350612246818560208601612abe565b61224f81612c8a565b840191505092915050565b60006122658261292a565b61226f8185612975565b935061227f818560208601612abe565b80840191505092915050565b6000612298603283612964565b91506122a382612c9b565b604082019050919050565b60006122bb602583612964565b91506122c682612cea565b604082019050919050565b60006122de601c83612964565b91506122e982612d39565b602082019050919050565b6000612301602483612964565b915061230c82612d62565b604082019050919050565b6000612324601983612964565b915061232f82612db1565b602082019050919050565b6000612347602c83612964565b915061235282612dda565b604082019050919050565b600061236a603883612964565b915061237582612e29565b604082019050919050565b600061238d602a83612964565b915061239882612e78565b604082019050919050565b60006123b0602983612964565b91506123bb82612ec7565b604082019050919050565b60006123d3602e83612964565b91506123de82612f16565b604082019050919050565b60006123f6602083612964565b915061240182612f65565b602082019050919050565b6000612419603183612964565b915061242482612f8e565b604082019050919050565b600061243c602c83612964565b915061244782612fdd565b604082019050919050565b600061245f602b83612964565b915061246a8261302c565b604082019050919050565b6000612482602f83612964565b915061248d8261307b565b604082019050919050565b60006124a5602183612964565b91506124b0826130ca565b604082019050919050565b60006124c8603183612964565b91506124d382613119565b604082019050919050565b6124e781612aa5565b82525050565b6124f681612aa5565b82525050565b6000612508828561225a565b9150612514828461225a565b91508190509392505050565b6000602082019050612535600083018461216c565b92915050565b6000608082019050612550600083018761216c565b61255d602083018661216c565b61256a60408301856124ed565b818103606083015261257c81846121e8565b905095945050505050565b600060208201905081810360008301526125a1818461217b565b905092915050565b60006020820190506125be60008301846121d9565b92915050565b600060208201905081810360008301526125de8184612221565b905092915050565b600060408201905081810360008301526126008185612221565b905061260f602083018461216c565b9392505050565b6000602082019050818103600083015261262f8161228b565b9050919050565b6000602082019050818103600083015261264f816122ae565b9050919050565b6000602082019050818103600083015261266f816122d1565b9050919050565b6000602082019050818103600083015261268f816122f4565b9050919050565b600060208201905081810360008301526126af81612317565b9050919050565b600060208201905081810360008301526126cf8161233a565b9050919050565b600060208201905081810360008301526126ef8161235d565b9050919050565b6000602082019050818103600083015261270f81612380565b9050919050565b6000602082019050818103600083015261272f816123a3565b9050919050565b6000602082019050818103600083015261274f816123c6565b9050919050565b6000602082019050818103600083015261276f816123e9565b9050919050565b6000602082019050818103600083015261278f8161240c565b9050919050565b600060208201905081810360008301526127af8161242f565b9050919050565b600060208201905081810360008301526127cf81612452565b9050919050565b600060208201905081810360008301526127ef81612475565b9050919050565b6000602082019050818103600083015261280f81612498565b9050919050565b6000602082019050818103600083015261282f816124bb565b9050919050565b600060208201905061284b60008301846124ed565b92915050565b600061285b61286c565b90506128678282612b23565b919050565b6000604051905090565b600067ffffffffffffffff82111561289157612890612c5b565b5b602082029050602081019050919050565b600067ffffffffffffffff8211156128bd576128bc612c5b565b5b6128c682612c8a565b9050602081019050919050565b600067ffffffffffffffff8211156128ee576128ed612c5b565b5b6128f782612c8a565b9050602081019050919050565b6000819050602082019050919050565b600081519050919050565b600081519050919050565b600081519050919050565b6000602082019050919050565b600082825260208201905092915050565b600082825260208201905092915050565b600082825260208201905092915050565b600081905092915050565b600061298b82612aa5565b915061299683612aa5565b9250827fffffffffffffffffffffffffffffffffffffffffffffffffffffffffffffffff038211156129cb576129ca612bce565b5b828201905092915050565b60006129e182612aa5565b91506129ec83612aa5565b9250826129fc576129fb612bfd565b5b828204905092915050565b6000612a1282612aa5565b9150612a1d83612aa5565b925082821015612a3057612a2f612bce565b5b828203905092915050565b6000612a4682612a85565b9050919050565b60008115159050919050565b60007fffffffff0000000000000000000000000000000000000000000000000000000082169050919050565b600073ffffffffffffffffffffffffffffffffffffffff82169050919050565b6000819050919050565b82818337600083830152505050565b60005b83811015612adc578082015181840152602081019050612ac1565b83811115612aeb576000848401525b50505050565b60006002820490506001821680612b0957607f821691505b60208210811415612b1d57612b1c612c2c565b5b50919050565b612b2c82612c8a565b810181811067ffffffffffffffff82111715612b4b57612b4a612c5b565b5b80604052505050565b6000612b5f82612aa5565b91507fffffffffffffffffffffffffffffffffffffffffffffffffffffffffffffffff821415612b9257612b91612bce565b5b600182019050919050565b6000612ba882612aa5565b9150612bb383612aa5565b925082612bc357612bc2612bfd565b5b828206905092915050565b7f4e487b7100000000000000000000000000000000000000000000000000000000600052601160045260246000fd5b7f4e487b7100000000000000000000000000000000000000000000000000000000600052601260045260246000fd5b7f4e487b7100000000000000000000000000000000000000000000000000000000600052602260045260246000fd5b7f4e487b7100000000000000000000000000000000000000000000000000000000600052604160045260246000fd5b6000601f19601f8301169050919050565b7f4552433732313a207472616e7366657220746f206e6f6e20455243373231526560008201527f63656976657220696d706c656d656e7465720000000000000000000000000000602082015250565b7f4552433732313a207472616e736665722066726f6d20696e636f72726563742060008201527f6f776e6572000000000000000000000000000000000000000000000000000000602082015250565b7f4552433732313a20746f6b656e20616c7265616479206d696e74656400000000600082015250565b7f4552433732313a207472616e7366657220746f20746865207a65726f2061646460008201527f7265737300000000000000000000000000000000000000000000000000000000602082015250565b7f4552433732313a20617070726f766520746f2063616c6c657200000000000000600082015250565b7f4552433732313a206f70657261746f7220717565727920666f72206e6f6e657860008201527f697374656e7420746f6b656e0000000000000000000000000000000000000000602082015250565b7f4552433732313a20617070726f76652063616c6c6572206973206e6f74206f7760008201527f6e6572206e6f7220617070726f76656420666f7220616c6c0000000000000000602082015250565b7f4552433732313a2062616c616e636520717565727920666f7220746865207a6560008201527f726f206164647265737300000000000000000000000000000000000000000000602082015250565b7f4552433732313a206f776e657220717565727920666f72206e6f6e657869737460008201527f656e7420746f6b656e0000000000000000000000000000000000000000000000602082015250565b7f45524337323155524953746f726167653a2055524920736574206f66206e6f6e60008201527f6578697374656e7420746f6b656e000000000000000000000000000000000000602082015250565b7f4552433732313a206d696e7420746f20746865207a65726f2061646472657373600082015250565b7f45524337323155524953746f726167653a2055524920717565727920666f722060008201527f6e6f6e6578697374656e7420746f6b656e000000000000000000000000000000602082015250565b7f4552433732313a20617070726f76656420717565727920666f72206e6f6e657860008201527f697374656e7420746f6b656e0000000000000000000000000000000000000000602082015250565b7f596f75206d757374206f776e2074686973204e465420696e206f72646572207460008201527f6f20726573656c6c206974000000000000000000000000000000000000000000602082015250565b7f4552433732314d657461646174613a2055524920717565727920666f72206e6f60008201527f6e6578697374656e7420746f6b656e0000000000000000000000000000000000602082015250565b7f4552433732313a20617070726f76616c20746f2063757272656e74206f776e6560008201527f7200000000000000000000000000000000000000000000000000000000000000602082015250565b7f4552433732313a207472616e736665722063616c6c6572206973206e6f74206f60008201527f776e6572206e6f7220617070726f766564000000000000000000000000000000602082015250565b61317181612a3b565b811461317c57600080fd5b50565b61318881612a4d565b811461319357600080fd5b50565b61319f81612a59565b81146131aa57600080fd5b50565b6131b681612aa5565b81146131c157600080fd5b5056fea2646970667358221220696877fcdbb0285b68bb3069404d65ef7b37d2cb08f626407b63e500e797e0e464736f6c63430008040033",
  "linkReferences": {},
  "deployedLinkReferences": {}
}