{
  "_format": "hh-sol-artifact-1",
  "contractName": "NFT",
  "sourceName": "src/solidity/contracts/NFT.sol",
  "abi": [
    {
      "inputs": [],
      "stateMutability": "nonpayable",
      "type": "constructor"
    },
    {
      "anonymous": false,
      "inputs": [
        {
          "indexed": true,
          "internalType": "address",
          "name": "owner",
          "type": "address"
        },
        {
          "indexed": true,
          "internalType": "address",
          "name": "approved",
          "type": "address"
        },
        {
          "indexed": true,
          "internalType": "uint256",
          "name": "tokenId",
          "type": "uint256"
        }
      ],
      "name": "Approval",
      "type": "event"
    },
    {
      "anonymous": false,
      "inputs": [
        {
          "indexed": true,
          "internalType": "address",
          "name": "owner",
          "type": "address"
        },
        {
          "indexed": true,
          "internalType": "address",
          "name": "operator",
          "type": "address"
        },
        {
          "indexed": false,
          "internalType": "bool",
          "name": "approved",
          "type": "bool"
        }
      ],
      "name": "ApprovalForAll",
      "type": "event"
    },
    {
      "anonymous": false,
      "inputs": [
        {
          "indexed": true,
          "internalType": "address",
          "name": "from",
          "type": "address"
        },
        {
          "indexed": true,
          "internalType": "address",
          "name": "to",
          "type": "address"
        },
        {
          "indexed": true,
          "internalType": "uint256",
          "name": "tokenId",
          "type": "uint256"
        }
      ],
      "name": "Transfer",
      "type": "event"
    },
    {
      "inputs": [
        {
          "internalType": "address",
          "name": "to",
          "type": "address"
        },
        {
          "internalType": "uint256",
          "name": "tokenId",
          "type": "uint256"
        }
      ],
      "name": "approve",
      "outputs": [],
      "stateMutability": "nonpayable",
      "type": "function"
    },
    {
      "inputs": [
        {
          "internalType": "address",
          "name": "owner",
          "type": "address"
        }
      ],
      "name": "balanceOf",
      "outputs": [
        {
          "internalType": "uint256",
          "name": "",
          "type": "uint256"
        }
      ],
      "stateMutability": "view",
      "type": "function"
    },
    {
      "inputs": [
        {
          "internalType": "uint256",
          "name": "tokenId",
          "type": "uint256"
        }
      ],
      "name": "getApproved",
      "outputs": [
        {
          "internalType": "address",
          "name": "",
          "type": "address"
        }
      ],
      "stateMutability": "view",
      "type": "function"
    },
    {
      "inputs": [
        {
          "internalType": "address",
          "name": "owner",
          "type": "address"
        },
        {
          "internalType": "address",
          "name": "operator",
          "type": "address"
        }
      ],
      "name": "isApprovedForAll",
      "outputs": [
        {
          "internalType": "bool",
          "name": "",
          "type": "bool"
        }
      ],
      "stateMutability": "view",
      "type": "function"
    },
    {
      "inputs": [
        {
          "internalType": "string[]",
          "name": "_tokenURIS",
          "type": "string[]"
        }
      ],
      "name": "mint",
      "outputs": [
        {
          "internalType": "uint256[]",
          "name": "",
          "type": "uint256[]"
        }
      ],
      "stateMutability": "nonpayable",
      "type": "function"
    },
    {
      "inputs": [],
      "name": "name",
      "outputs": [
        {
          "internalType": "string",
          "name": "",
          "type": "string"
        }
      ],
      "stateMutability": "view",
      "type": "function"
    },
    {
      "inputs": [
        {
          "internalType": "uint256",
          "name": "tokenId",
          "type": "uint256"
        }
      ],
      "name": "ownerOf",
      "outputs": [
        {
          "internalType": "address",
          "name": "",
          "type": "address"
        }
      ],
      "stateMutability": "view",
      "type": "function"
    },
    {
      "inputs": [
        {
          "internalType": "address",
          "name": "from",
          "type": "address"
        },
        {
          "internalType": "address",
          "name": "to",
          "type": "address"
        },
        {
          "internalType": "uint256",
          "name": "tokenId",
          "type": "uint256"
        }
      ],
      "name": "safeTransferFrom",
      "outputs": [],
      "stateMutability": "nonpayable",
      "type": "function"
    },
    {
      "inputs": [
        {
          "internalType": "address",
          "name": "from",
          "type": "address"
        },
        {
          "internalType": "address",
          "name": "to",
          "type": "address"
        },
        {
          "internalType": "uint256",
          "name": "tokenId",
          "type": "uint256"
        },
        {
          "internalType": "bytes",
          "name": "_data",
          "type": "bytes"
        }
      ],
      "name": "safeTransferFrom",
      "outputs": [],
      "stateMutability": "nonpayable",
      "type": "function"
    },
    {
      "inputs": [
        {
          "internalType": "address",
          "name": "operator",
          "type": "address"
        },
        {
          "internalType": "bool",
          "name": "approved",
          "type": "bool"
        }
      ],
      "name": "setApprovalForAll",
      "outputs": [],
      "stateMutability": "nonpayable",
      "type": "function"
    },
    {
      "inputs": [
        {
          "internalType": "bytes4",
          "name": "interfaceId",
          "type": "bytes4"
        }
      ],
      "name": "supportsInterface",
      "outputs": [
        {
          "internalType": "bool",
          "name": "",
          "type": "bool"
        }
      ],
      "stateMutability": "view",
      "type": "function"
    },
    {
      "inputs": [],
      "name": "symbol",
      "outputs": [
        {
          "internalType": "string",
          "name": "",
          "type": "string"
        }
      ],
      "stateMutability": "view",
      "type": "function"
    },
    {
      "inputs": [],
      "name": "tokenId",
      "outputs": [
        {
          "internalType": "uint256",
          "name": "",
          "type": "uint256"
        }
      ],
      "stateMutability": "view",
      "type": "function"
    },
    {
      "inputs": [
        {
          "internalType": "uint256",
          "name": "tokenId",
          "type": "uint256"
        }
      ],
      "name": "tokenURI",
      "outputs": [
        {
          "internalType": "string",
          "name": "",
          "type": "string"
        }
      ],
      "stateMutability": "view",
      "type": "function"
    },
    {
      "inputs": [
        {
          "internalType": "address",
          "name": "from",
          "type": "address"
        },
        {
          "internalType": "address",
          "name": "to",
          "type": "address"
        },
        {
          "internalType": "uint256",
          "name": "tokenId",
          "type": "uint256"
        }
      ],
      "name": "transferFrom",
      "outputs": [],
      "stateMutability": "nonpayable",
      "type": "function"
    }
  ],
  "bytecode": "0x60806040523480156200001157600080fd5b506040518060400160405280600b81526020017f47616d65722043617264730000000000000000000000000000000000000000008152506040518060400160405280600381526020017f4554480000000000000000000000000000000000000000000000000000000000815250816000908051906020019062000096929190620000b8565b508060019080519060200190620000af929190620000b8565b505050620001cd565b828054620000c69062000168565b90600052602060002090601f016020900481019282620000ea576000855562000136565b82601f106200010557805160ff191683800117855562000136565b8280016001018555821562000136579182015b828111156200013557825182559160200191906001019062000118565b5b50905062000145919062000149565b5090565b5b80821115620001645760008160009055506001016200014a565b5090565b600060028204905060018216806200018157607f821691505b602082108114156200019857620001976200019e565b5b50919050565b7f4e487b7100000000000000000000000000000000000000000000000000000000600052602260045260246000fd5b612ee680620001dd6000396000f3fe608060405234801561001057600080fd5b50600436106100f55760003560e01c80635768f27111610097578063a22cb46511610066578063a22cb46514610298578063b88d4fde146102b4578063c87b56dd146102d0578063e985e9c514610300576100f5565b80635768f271146101ea5780636352211e1461021a57806370a082311461024a57806395d89b411461027a576100f5565b8063095ea7b3116100d3578063095ea7b31461017857806317d70f7c1461019457806323b872dd146101b257806342842e0e146101ce576100f5565b806301ffc9a7146100fa57806306fdde031461012a578063081812fc14610148575b600080fd5b610114600480360381019061010f9190611e87565b610330565b6040516101219190612334565b60405180910390f35b610132610412565b60405161013f919061234f565b60405180910390f35b610162600480360381019061015d9190611ed9565b6104a4565b60405161016f91906122ab565b60405180910390f35b610192600480360381019061018d9190611e0a565b610529565b005b61019c610641565b6040516101a99190612571565b60405180910390f35b6101cc60048036038101906101c79190611d04565b610647565b005b6101e860048036038101906101e39190611d04565b6106a7565b005b61020460048036038101906101ff9190611e46565b6106c7565b6040516102119190612312565b60405180910390f35b610234600480360381019061022f9190611ed9565b61081e565b60405161024191906122ab565b60405180910390f35b610264600480360381019061025f9190611c9f565b6108d0565b6040516102719190612571565b60405180910390f35b610282610988565b60405161028f919061234f565b60405180910390f35b6102b260048036038101906102ad9190611dce565b610a1a565b005b6102ce60048036038101906102c99190611d53565b610a30565b005b6102ea60048036038101906102e59190611ed9565b610a92565b6040516102f7919061234f565b60405180910390f35b61031a60048036038101906103159190611cc8565b610be4565b6040516103279190612334565b60405180910390f35b60007f80ac58cd000000000000000000000000000000000000000000000000000000007bffffffffffffffffffffffffffffffffffffffffffffffffffffffff1916827bffffffffffffffffffffffffffffffffffffffffffffffffffffffff191614806103fb57507f5b5e139f000000000000000000000000000000000000000000000000000000007bffffffffffffffffffffffffffffffffffffffffffffffffffffffff1916827bffffffffffffffffffffffffffffffffffffffffffffffffffffffff1916145b8061040b575061040a82610c78565b5b9050919050565b6060600080546104219061282c565b80601f016020809104026020016040519081016040528092919081815260200182805461044d9061282c565b801561049a5780601f1061046f5761010080835404028352916020019161049a565b820191906000526020600020905b81548152906001019060200180831161047d57829003601f168201915b5050505050905090565b60006104af82610ce2565b6104ee576040517f08c379a00000000000000000000000000000000000000000000000000000000081526004016104e5906124f1565b60405180910390fd5b6004600083815260200190815260200160002060009054906101000a900473ffffffffffffffffffffffffffffffffffffffff169050919050565b60006105348261081e565b90508073ffffffffffffffffffffffffffffffffffffffff168373ffffffffffffffffffffffffffffffffffffffff1614156105a5576040517f08c379a000000000000000000000000000000000000000000000000000000000815260040161059c90612531565b60405180910390fd5b8073ffffffffffffffffffffffffffffffffffffffff166105c4610d4e565b73ffffffffffffffffffffffffffffffffffffffff1614806105f357506105f2816105ed610d4e565b610be4565b5b610632576040517f08c379a000000000000000000000000000000000000000000000000000000000815260040161062990612431565b60405180910390fd5b61063c8383610d56565b505050565b60075481565b610658610652610d4e565b82610e0f565b610697576040517f08c379a000000000000000000000000000000000000000000000000000000000815260040161068e90612551565b60405180910390fd5b6106a2838383610eed565b505050565b6106c283838360405180602001604052806000815250610a30565b505050565b60606000825167ffffffffffffffff81111561070c577f4e487b7100000000000000000000000000000000000000000000000000000000600052604160045260246000fd5b60405190808252806020026020018201604052801561073a5781602001602082028036833780820191505090505b50905060005b8351811015610814576007600081548092919061075c9061288f565b919050555061076d33600754611154565b6107b96007548583815181106107ac577f4e487b7100000000000000000000000000000000000000000000000000000000600052603260045260246000fd5b6020026020010151611172565b6007548282815181106107f5577f4e487b7100000000000000000000000000000000000000000000000000000000600052603260045260246000fd5b602002602001018181525050808061080c9061288f565b915050610740565b5080915050919050565b6000806002600084815260200190815260200160002060009054906101000a900473ffffffffffffffffffffffffffffffffffffffff169050600073ffffffffffffffffffffffffffffffffffffffff168173ffffffffffffffffffffffffffffffffffffffff1614156108c7576040517f08c379a00000000000000000000000000000000000000000000000000000000081526004016108be90612471565b60405180910390fd5b80915050919050565b60008073ffffffffffffffffffffffffffffffffffffffff168273ffffffffffffffffffffffffffffffffffffffff161415610941576040517f08c379a000000000000000000000000000000000000000000000000000000000815260040161093890612451565b60405180910390fd5b600360008373ffffffffffffffffffffffffffffffffffffffff1673ffffffffffffffffffffffffffffffffffffffff168152602001908152602001600020549050919050565b6060600180546109979061282c565b80601f01602080910402602001604051908101604052809291908181526020018280546109c39061282c565b8015610a105780601f106109e557610100808354040283529160200191610a10565b820191906000526020600020905b8154815290600101906020018083116109f357829003601f168201915b5050505050905090565b610a2c610a25610d4e565b83836111e6565b5050565b610a41610a3b610d4e565b83610e0f565b610a80576040517f08c379a0000000000000000000000000000000000000000000000000000000008152600401610a7790612551565b60405180910390fd5b610a8c84848484611353565b50505050565b6060610a9d82610ce2565b610adc576040517f08c379a0000000000000000000000000000000000000000000000000000000008152600401610ad3906124d1565b60405180910390fd5b6000600660008481526020019081526020016000208054610afc9061282c565b80601f0160208091040260200160405190810160405280929190818152602001828054610b289061282c565b8015610b755780601f10610b4a57610100808354040283529160200191610b75565b820191906000526020600020905b815481529060010190602001808311610b5857829003601f168201915b505050505090506000610b866113af565b9050600081511415610b9c578192505050610bdf565b600082511115610bd1578082604051602001610bb9929190612287565b60405160208183030381529060405292505050610bdf565b610bda846113c6565b925050505b919050565b6000600560008473ffffffffffffffffffffffffffffffffffffffff1673ffffffffffffffffffffffffffffffffffffffff16815260200190815260200160002060008373ffffffffffffffffffffffffffffffffffffffff1673ffffffffffffffffffffffffffffffffffffffff16815260200190815260200160002060009054906101000a900460ff16905092915050565b60007f01ffc9a7000000000000000000000000000000000000000000000000000000007bffffffffffffffffffffffffffffffffffffffffffffffffffffffff1916827bffffffffffffffffffffffffffffffffffffffffffffffffffffffff1916149050919050565b60008073ffffffffffffffffffffffffffffffffffffffff166002600084815260200190815260200160002060009054906101000a900473ffffffffffffffffffffffffffffffffffffffff1673ffffffffffffffffffffffffffffffffffffffff1614159050919050565b600033905090565b816004600083815260200190815260200160002060006101000a81548173ffffffffffffffffffffffffffffffffffffffff021916908373ffffffffffffffffffffffffffffffffffffffff160217905550808273ffffffffffffffffffffffffffffffffffffffff16610dc98361081e565b73ffffffffffffffffffffffffffffffffffffffff167f8c5be1e5ebec7d5bd14f71427d1e84f3dd0314c0f7b2291e5b200ac8c7c3b92560405160405180910390a45050565b6000610e1a82610ce2565b610e59576040517f08c379a0000000000000000000000000000000000000000000000000000000008152600401610e5090612411565b60405180910390fd5b6000610e648361081e565b90508073ffffffffffffffffffffffffffffffffffffffff168473ffffffffffffffffffffffffffffffffffffffff161480610ea65750610ea58185610be4565b5b80610ee457508373ffffffffffffffffffffffffffffffffffffffff16610ecc846104a4565b73ffffffffffffffffffffffffffffffffffffffff16145b91505092915050565b8273ffffffffffffffffffffffffffffffffffffffff16610f0d8261081e565b73ffffffffffffffffffffffffffffffffffffffff1614610f63576040517f08c379a0000000000000000000000000000000000000000000000000000000008152600401610f5a90612391565b60405180910390fd5b600073ffffffffffffffffffffffffffffffffffffffff168273ffffffffffffffffffffffffffffffffffffffff161415610fd3576040517f08c379a0000000000000000000000000000000000000000000000000000000008152600401610fca906123d1565b60405180910390fd5b610fde83838361146d565b610fe9600082610d56565b6001600360008573ffffffffffffffffffffffffffffffffffffffff1673ffffffffffffffffffffffffffffffffffffffff16815260200190815260200160002060008282546110399190612742565b925050819055506001600360008473ffffffffffffffffffffffffffffffffffffffff1673ffffffffffffffffffffffffffffffffffffffff168152602001908152602001600020600082825461109091906126bb565b92505081905550816002600083815260200190815260200160002060006101000a81548173ffffffffffffffffffffffffffffffffffffffff021916908373ffffffffffffffffffffffffffffffffffffffff160217905550808273ffffffffffffffffffffffffffffffffffffffff168473ffffffffffffffffffffffffffffffffffffffff167fddf252ad1be2c89b69c2b068fc378daa952ba7f163c4a11628f55a4df523b3ef60405160405180910390a461114f838383611472565b505050565b61116e828260405180602001604052806000815250611477565b5050565b61117b82610ce2565b6111ba576040517f08c379a00000000000000000000000000000000000000000000000000000000081526004016111b190612491565b60405180910390fd5b806006600084815260200190815260200160002090805190602001906111e1929190611a13565b505050565b8173ffffffffffffffffffffffffffffffffffffffff168373ffffffffffffffffffffffffffffffffffffffff161415611255576040517f08c379a000000000000000000000000000000000000000000000000000000000815260040161124c906123f1565b60405180910390fd5b80600560008573ffffffffffffffffffffffffffffffffffffffff1673ffffffffffffffffffffffffffffffffffffffff16815260200190815260200160002060008473ffffffffffffffffffffffffffffffffffffffff1673ffffffffffffffffffffffffffffffffffffffff16815260200190815260200160002060006101000a81548160ff0219169083151502179055508173ffffffffffffffffffffffffffffffffffffffff168373ffffffffffffffffffffffffffffffffffffffff167f17307eab39ab6107e8899845ad3d59bd9653f200f220920489ca2b5937696c31836040516113469190612334565b60405180910390a3505050565b61135e848484610eed565b61136a848484846114d2565b6113a9576040517f08c379a00000000000000000000000000000000000000000000000000000000081526004016113a090612371565b60405180910390fd5b50505050565b606060405180602001604052806000815250905090565b60606113d182610ce2565b611410576040517f08c379a000000000000000000000000000000000000000000000000000000000815260040161140790612511565b60405180910390fd5b600061141a6113af565b9050600081511161143a5760405180602001604052806000815250611465565b8061144484611669565b604051602001611455929190612287565b6040516020818303038152906040525b915050919050565b505050565b505050565b6114818383611816565b61148e60008484846114d2565b6114cd576040517f08c379a00000000000000000000000000000000000000000000000000000000081526004016114c490612371565b60405180910390fd5b505050565b60006114f38473ffffffffffffffffffffffffffffffffffffffff166119f0565b1561165c578373ffffffffffffffffffffffffffffffffffffffff1663150b7a0261151c610d4e565b8786866040518563ffffffff1660e01b815260040161153e94939291906122c6565b602060405180830381600087803b15801561155857600080fd5b505af192505050801561158957506040513d601f19601f820116820180604052508101906115869190611eb0565b60015b61160c573d80600081146115b9576040519150601f19603f3d011682016040523d82523d6000602084013e6115be565b606091505b50600081511415611604576040517f08c379a00000000000000000000000000000000000000000000000000000000081526004016115fb90612371565b60405180910390fd5b805181602001fd5b63150b7a0260e01b7bffffffffffffffffffffffffffffffffffffffffffffffffffffffff1916817bffffffffffffffffffffffffffffffffffffffffffffffffffffffff191614915050611661565b600190505b949350505050565b606060008214156116b1576040518060400160405280600181526020017f30000000000000000000000000000000000000000000000000000000000000008152509050611811565b600082905060005b600082146116e35780806116cc9061288f565b915050600a826116dc9190612711565b91506116b9565b60008167ffffffffffffffff811115611725577f4e487b7100000000000000000000000000000000000000000000000000000000600052604160045260246000fd5b6040519080825280601f01601f1916602001820160405280156117575781602001600182028036833780820191505090505b5090505b6000851461180a576001826117709190612742565b9150600a8561177f91906128d8565b603061178b91906126bb565b60f81b8183815181106117c7577f4e487b7100000000000000000000000000000000000000000000000000000000600052603260045260246000fd5b60200101907effffffffffffffffffffffffffffffffffffffffffffffffffffffffffffff1916908160001a905350600a856118039190612711565b945061175b565b8093505050505b919050565b600073ffffffffffffffffffffffffffffffffffffffff168273ffffffffffffffffffffffffffffffffffffffff161415611886576040517f08c379a000000000000000000000000000000000000000000000000000000000815260040161187d906124b1565b60405180910390fd5b61188f81610ce2565b156118cf576040517f08c379a00000000000000000000000000000000000000000000000000000000081526004016118c6906123b1565b60405180910390fd5b6118db6000838361146d565b6001600360008473ffffffffffffffffffffffffffffffffffffffff1673ffffffffffffffffffffffffffffffffffffffff168152602001908152602001600020600082825461192b91906126bb565b92505081905550816002600083815260200190815260200160002060006101000a81548173ffffffffffffffffffffffffffffffffffffffff021916908373ffffffffffffffffffffffffffffffffffffffff160217905550808273ffffffffffffffffffffffffffffffffffffffff16600073ffffffffffffffffffffffffffffffffffffffff167fddf252ad1be2c89b69c2b068fc378daa952ba7f163c4a11628f55a4df523b3ef60405160405180910390a46119ec60008383611472565b5050565b6000808273ffffffffffffffffffffffffffffffffffffffff163b119050919050565b828054611a1f9061282c565b90600052602060002090601f016020900481019282611a415760008555611a88565b82601f10611a5a57805160ff1916838001178555611a88565b82800160010185558215611a88579182015b82811115611a87578251825591602001919060010190611a6c565b5b509050611a959190611a99565b5090565b5b80821115611ab2576000816000905550600101611a9a565b5090565b6000611ac9611ac4846125b1565b61258c565b90508083825260208201905082856020860282011115611ae857600080fd5b60005b85811015611b3257813567ffffffffffffffff811115611b0a57600080fd5b808601611b178982611c60565b85526020850194506020840193505050600181019050611aeb565b5050509392505050565b6000611b4f611b4a846125dd565b61258c565b905082815260208101848484011115611b6757600080fd5b611b728482856127ea565b509392505050565b6000611b8d611b888461260e565b61258c565b905082815260208101848484011115611ba557600080fd5b611bb08482856127ea565b509392505050565b600081359050611bc781612e54565b92915050565b600082601f830112611bde57600080fd5b8135611bee848260208601611ab6565b91505092915050565b600081359050611c0681612e6b565b92915050565b600081359050611c1b81612e82565b92915050565b600081519050611c3081612e82565b92915050565b600082601f830112611c4757600080fd5b8135611c57848260208601611b3c565b91505092915050565b600082601f830112611c7157600080fd5b8135611c81848260208601611b7a565b91505092915050565b600081359050611c9981612e99565b92915050565b600060208284031215611cb157600080fd5b6000611cbf84828501611bb8565b91505092915050565b60008060408385031215611cdb57600080fd5b6000611ce985828601611bb8565b9250506020611cfa85828601611bb8565b9150509250929050565b600080600060608486031215611d1957600080fd5b6000611d2786828701611bb8565b9350506020611d3886828701611bb8565b9250506040611d4986828701611c8a565b9150509250925092565b60008060008060808587031215611d6957600080fd5b6000611d7787828801611bb8565b9450506020611d8887828801611bb8565b9350506040611d9987828801611c8a565b925050606085013567ffffffffffffffff811115611db657600080fd5b611dc287828801611c36565b91505092959194509250565b60008060408385031215611de157600080fd5b6000611def85828601611bb8565b9250506020611e0085828601611bf7565b9150509250929050565b60008060408385031215611e1d57600080fd5b6000611e2b85828601611bb8565b9250506020611e3c85828601611c8a565b9150509250929050565b600060208284031215611e5857600080fd5b600082013567ffffffffffffffff811115611e7257600080fd5b611e7e84828501611bcd565b91505092915050565b600060208284031215611e9957600080fd5b6000611ea784828501611c0c565b91505092915050565b600060208284031215611ec257600080fd5b6000611ed084828501611c21565b91505092915050565b600060208284031215611eeb57600080fd5b6000611ef984828501611c8a565b91505092915050565b6000611f0e8383612269565b60208301905092915050565b611f2381612776565b82525050565b6000611f348261264f565b611f3e818561267d565b9350611f498361263f565b8060005b83811015611f7a578151611f618882611f02565b9750611f6c83612670565b925050600181019050611f4d565b5085935050505092915050565b611f9081612788565b82525050565b6000611fa18261265a565b611fab818561268e565b9350611fbb8185602086016127f9565b611fc4816129c5565b840191505092915050565b6000611fda82612665565b611fe4818561269f565b9350611ff48185602086016127f9565b611ffd816129c5565b840191505092915050565b600061201382612665565b61201d81856126b0565b935061202d8185602086016127f9565b80840191505092915050565b600061204660328361269f565b9150612051826129d6565b604082019050919050565b600061206960258361269f565b915061207482612a25565b604082019050919050565b600061208c601c8361269f565b915061209782612a74565b602082019050919050565b60006120af60248361269f565b91506120ba82612a9d565b604082019050919050565b60006120d260198361269f565b91506120dd82612aec565b602082019050919050565b60006120f5602c8361269f565b915061210082612b15565b604082019050919050565b600061211860388361269f565b915061212382612b64565b604082019050919050565b600061213b602a8361269f565b915061214682612bb3565b604082019050919050565b600061215e60298361269f565b915061216982612c02565b604082019050919050565b6000612181602e8361269f565b915061218c82612c51565b604082019050919050565b60006121a460208361269f565b91506121af82612ca0565b602082019050919050565b60006121c760318361269f565b91506121d282612cc9565b604082019050919050565b60006121ea602c8361269f565b91506121f582612d18565b604082019050919050565b600061220d602f8361269f565b915061221882612d67565b604082019050919050565b600061223060218361269f565b915061223b82612db6565b604082019050919050565b600061225360318361269f565b915061225e82612e05565b604082019050919050565b612272816127e0565b82525050565b612281816127e0565b82525050565b60006122938285612008565b915061229f8284612008565b91508190509392505050565b60006020820190506122c06000830184611f1a565b92915050565b60006080820190506122db6000830187611f1a565b6122e86020830186611f1a565b6122f56040830185612278565b81810360608301526123078184611f96565b905095945050505050565b6000602082019050818103600083015261232c8184611f29565b905092915050565b60006020820190506123496000830184611f87565b92915050565b600060208201905081810360008301526123698184611fcf565b905092915050565b6000602082019050818103600083015261238a81612039565b9050919050565b600060208201905081810360008301526123aa8161205c565b9050919050565b600060208201905081810360008301526123ca8161207f565b9050919050565b600060208201905081810360008301526123ea816120a2565b9050919050565b6000602082019050818103600083015261240a816120c5565b9050919050565b6000602082019050818103600083015261242a816120e8565b9050919050565b6000602082019050818103600083015261244a8161210b565b9050919050565b6000602082019050818103600083015261246a8161212e565b9050919050565b6000602082019050818103600083015261248a81612151565b9050919050565b600060208201905081810360008301526124aa81612174565b9050919050565b600060208201905081810360008301526124ca81612197565b9050919050565b600060208201905081810360008301526124ea816121ba565b9050919050565b6000602082019050818103600083015261250a816121dd565b9050919050565b6000602082019050818103600083015261252a81612200565b9050919050565b6000602082019050818103600083015261254a81612223565b9050919050565b6000602082019050818103600083015261256a81612246565b9050919050565b60006020820190506125866000830184612278565b92915050565b60006125966125a7565b90506125a2828261285e565b919050565b6000604051905090565b600067ffffffffffffffff8211156125cc576125cb612996565b5b602082029050602081019050919050565b600067ffffffffffffffff8211156125f8576125f7612996565b5b612601826129c5565b9050602081019050919050565b600067ffffffffffffffff82111561262957612628612996565b5b612632826129c5565b9050602081019050919050565b6000819050602082019050919050565b600081519050919050565b600081519050919050565b600081519050919050565b6000602082019050919050565b600082825260208201905092915050565b600082825260208201905092915050565b600082825260208201905092915050565b600081905092915050565b60006126c6826127e0565b91506126d1836127e0565b9250827fffffffffffffffffffffffffffffffffffffffffffffffffffffffffffffffff0382111561270657612705612909565b5b828201905092915050565b600061271c826127e0565b9150612727836127e0565b92508261273757612736612938565b5b828204905092915050565b600061274d826127e0565b9150612758836127e0565b92508282101561276b5761276a612909565b5b828203905092915050565b6000612781826127c0565b9050919050565b60008115159050919050565b60007fffffffff0000000000000000000000000000000000000000000000000000000082169050919050565b600073ffffffffffffffffffffffffffffffffffffffff82169050919050565b6000819050919050565b82818337600083830152505050565b60005b838110156128175780820151818401526020810190506127fc565b83811115612826576000848401525b50505050565b6000600282049050600182168061284457607f821691505b6020821081141561285857612857612967565b5b50919050565b612867826129c5565b810181811067ffffffffffffffff8211171561288657612885612996565b5b80604052505050565b600061289a826127e0565b91507fffffffffffffffffffffffffffffffffffffffffffffffffffffffffffffffff8214156128cd576128cc612909565b5b600182019050919050565b60006128e3826127e0565b91506128ee836127e0565b9250826128fe576128fd612938565b5b828206905092915050565b7f4e487b7100000000000000000000000000000000000000000000000000000000600052601160045260246000fd5b7f4e487b7100000000000000000000000000000000000000000000000000000000600052601260045260246000fd5b7f4e487b7100000000000000000000000000000000000000000000000000000000600052602260045260246000fd5b7f4e487b7100000000000000000000000000000000000000000000000000000000600052604160045260246000fd5b6000601f19601f8301169050919050565b7f4552433732313a207472616e7366657220746f206e6f6e20455243373231526560008201527f63656976657220696d706c656d656e7465720000000000000000000000000000602082015250565b7f4552433732313a207472616e736665722066726f6d20696e636f72726563742060008201527f6f776e6572000000000000000000000000000000000000000000000000000000602082015250565b7f4552433732313a20746f6b656e20616c7265616479206d696e74656400000000600082015250565b7f4552433732313a207472616e7366657220746f20746865207a65726f2061646460008201527f7265737300000000000000000000000000000000000000000000000000000000602082015250565b7f4552433732313a20617070726f766520746f2063616c6c657200000000000000600082015250565b7f4552433732313a206f70657261746f7220717565727920666f72206e6f6e657860008201527f697374656e7420746f6b656e0000000000000000000000000000000000000000602082015250565b7f4552433732313a20617070726f76652063616c6c6572206973206e6f74206f7760008201527f6e6572206e6f7220617070726f76656420666f7220616c6c0000000000000000602082015250565b7f4552433732313a2062616c616e636520717565727920666f7220746865207a6560008201527f726f206164647265737300000000000000000000000000000000000000000000602082015250565b7f4552433732313a206f776e657220717565727920666f72206e6f6e657869737460008201527f656e7420746f6b656e0000000000000000000000000000000000000000000000602082015250565b7f45524337323155524953746f726167653a2055524920736574206f66206e6f6e60008201527f6578697374656e7420746f6b656e000000000000000000000000000000000000602082015250565b7f4552433732313a206d696e7420746f20746865207a65726f2061646472657373600082015250565b7f45524337323155524953746f726167653a2055524920717565727920666f722060008201527f6e6f6e6578697374656e7420746f6b656e000000000000000000000000000000602082015250565b7f4552433732313a20617070726f76656420717565727920666f72206e6f6e657860008201527f697374656e7420746f6b656e0000000000000000000000000000000000000000602082015250565b7f4552433732314d657461646174613a2055524920717565727920666f72206e6f60008201527f6e6578697374656e7420746f6b656e0000000000000000000000000000000000602082015250565b7f4552433732313a20617070726f76616c20746f2063757272656e74206f776e6560008201527f7200000000000000000000000000000000000000000000000000000000000000602082015250565b7f4552433732313a207472616e736665722063616c6c6572206973206e6f74206f60008201527f776e6572206e6f7220617070726f766564000000000000000000000000000000602082015250565b612e5d81612776565b8114612e6857600080fd5b50565b612e7481612788565b8114612e7f57600080fd5b50565b612e8b81612794565b8114612e9657600080fd5b50565b612ea2816127e0565b8114612ead57600080fd5b5056fea26469706673582212205e6e46b12b78b99596cd4547d41d9dadcda22c61aac772b4c05dd17b59a67e4d64736f6c63430008040033",
  "linkReferences": {},
  "deployedLinkReferences": {}
}