{
  "_format": "hh-sol-artifact-1",
  "contractName": "NFT",
  "sourceName": "src/solidity/contracts/NFT.sol",
  "abi": [
    {
      "inputs": [
        {
          "internalType": "address",
          "name": "_owner",
          "type": "address"
        }
      ],
      "stateMutability": "nonpayable",
      "type": "constructor"
    },
    {
      "anonymous": false,
      "inputs": [
        {
          "indexed": true,
          "internalType": "address",
          "name": "owner",
          "type": "address"
        },
        {
          "indexed": true,
          "internalType": "address",
          "name": "approved",
          "type": "address"
        },
        {
          "indexed": true,
          "internalType": "uint256",
          "name": "tokenId",
          "type": "uint256"
        }
      ],
      "name": "Approval",
      "type": "event"
    },
    {
      "anonymous": false,
      "inputs": [
        {
          "indexed": true,
          "internalType": "address",
          "name": "owner",
          "type": "address"
        },
        {
          "indexed": true,
          "internalType": "address",
          "name": "operator",
          "type": "address"
        },
        {
          "indexed": false,
          "internalType": "bool",
          "name": "approved",
          "type": "bool"
        }
      ],
      "name": "ApprovalForAll",
      "type": "event"
    },
    {
      "anonymous": false,
      "inputs": [
        {
          "indexed": true,
          "internalType": "address",
          "name": "from",
          "type": "address"
        },
        {
          "indexed": true,
          "internalType": "address",
          "name": "to",
          "type": "address"
        },
        {
          "indexed": true,
          "internalType": "uint256",
          "name": "tokenId",
          "type": "uint256"
        }
      ],
      "name": "Transfer",
      "type": "event"
    },
    {
      "inputs": [
        {
          "internalType": "address",
          "name": "to",
          "type": "address"
        },
        {
          "internalType": "uint256",
          "name": "tokenId",
          "type": "uint256"
        }
      ],
      "name": "approve",
      "outputs": [],
      "stateMutability": "nonpayable",
      "type": "function"
    },
    {
      "inputs": [
        {
          "internalType": "address",
          "name": "owner",
          "type": "address"
        }
      ],
      "name": "balanceOf",
      "outputs": [
        {
          "internalType": "uint256",
          "name": "",
          "type": "uint256"
        }
      ],
      "stateMutability": "view",
      "type": "function"
    },
    {
      "inputs": [
        {
          "internalType": "uint256",
          "name": "tokenId",
          "type": "uint256"
        }
      ],
      "name": "getApproved",
      "outputs": [
        {
          "internalType": "address",
          "name": "",
          "type": "address"
        }
      ],
      "stateMutability": "view",
      "type": "function"
    },
    {
      "inputs": [
        {
          "internalType": "address",
          "name": "owner",
          "type": "address"
        },
        {
          "internalType": "address",
          "name": "operator",
          "type": "address"
        }
      ],
      "name": "isApprovedForAll",
      "outputs": [
        {
          "internalType": "bool",
          "name": "",
          "type": "bool"
        }
      ],
      "stateMutability": "view",
      "type": "function"
    },
    {
      "inputs": [
        {
          "internalType": "string[]",
          "name": "_tokenURIS",
          "type": "string[]"
        }
      ],
      "name": "mint",
      "outputs": [
        {
          "internalType": "uint256[]",
          "name": "",
          "type": "uint256[]"
        }
      ],
      "stateMutability": "nonpayable",
      "type": "function"
    },
    {
      "inputs": [],
      "name": "name",
      "outputs": [
        {
          "internalType": "string",
          "name": "",
          "type": "string"
        }
      ],
      "stateMutability": "view",
      "type": "function"
    },
    {
      "inputs": [
        {
          "internalType": "uint256",
          "name": "tokenId",
          "type": "uint256"
        }
      ],
      "name": "ownerOf",
      "outputs": [
        {
          "internalType": "address",
          "name": "",
          "type": "address"
        }
      ],
      "stateMutability": "view",
      "type": "function"
    },
    {
      "inputs": [
        {
          "internalType": "address",
          "name": "from",
          "type": "address"
        },
        {
          "internalType": "address",
          "name": "to",
          "type": "address"
        },
        {
          "internalType": "uint256",
          "name": "tokenId",
          "type": "uint256"
        }
      ],
      "name": "safeTransferFrom",
      "outputs": [],
      "stateMutability": "nonpayable",
      "type": "function"
    },
    {
      "inputs": [
        {
          "internalType": "address",
          "name": "from",
          "type": "address"
        },
        {
          "internalType": "address",
          "name": "to",
          "type": "address"
        },
        {
          "internalType": "uint256",
          "name": "tokenId",
          "type": "uint256"
        },
        {
          "internalType": "bytes",
          "name": "_data",
          "type": "bytes"
        }
      ],
      "name": "safeTransferFrom",
      "outputs": [],
      "stateMutability": "nonpayable",
      "type": "function"
    },
    {
      "inputs": [
        {
          "internalType": "address",
          "name": "operator",
          "type": "address"
        },
        {
          "internalType": "bool",
          "name": "approved",
          "type": "bool"
        }
      ],
      "name": "setApprovalForAll",
      "outputs": [],
      "stateMutability": "nonpayable",
      "type": "function"
    },
    {
      "inputs": [
        {
          "internalType": "bytes4",
          "name": "interfaceId",
          "type": "bytes4"
        }
      ],
      "name": "supportsInterface",
      "outputs": [
        {
          "internalType": "bool",
          "name": "",
          "type": "bool"
        }
      ],
      "stateMutability": "view",
      "type": "function"
    },
    {
      "inputs": [],
      "name": "symbol",
      "outputs": [
        {
          "internalType": "string",
          "name": "",
          "type": "string"
        }
      ],
      "stateMutability": "view",
      "type": "function"
    },
    {
      "inputs": [],
      "name": "tokenId",
      "outputs": [
        {
          "internalType": "uint256",
          "name": "",
          "type": "uint256"
        }
      ],
      "stateMutability": "view",
      "type": "function"
    },
    {
      "inputs": [
        {
          "internalType": "uint256",
          "name": "tokenId",
          "type": "uint256"
        }
      ],
      "name": "tokenURI",
      "outputs": [
        {
          "internalType": "string",
          "name": "",
          "type": "string"
        }
      ],
      "stateMutability": "view",
      "type": "function"
    },
    {
      "inputs": [
        {
          "internalType": "address",
          "name": "from",
          "type": "address"
        },
        {
          "internalType": "address",
          "name": "to",
          "type": "address"
        },
        {
          "internalType": "uint256",
          "name": "tokenId",
          "type": "uint256"
        }
      ],
      "name": "transferFrom",
      "outputs": [],
      "stateMutability": "nonpayable",
      "type": "function"
    }
  ],
  "bytecode": "0x60806040523480156200001157600080fd5b5060405162003215380380620032158339818101604052810190620000379190620001e6565b6040518060400160405280600b81526020017f47616d65722043617264730000000000000000000000000000000000000000008152506040518060400160405280600381526020017f45544800000000000000000000000000000000000000000000000000000000008152508160009080519060200190620000bb9291906200011f565b508060019080519060200190620000d49291906200011f565b50505080600860006101000a81548173ffffffffffffffffffffffffffffffffffffffff021916908373ffffffffffffffffffffffffffffffffffffffff16021790555050620002c5565b8280546200012d9062000246565b90600052602060002090601f0160209004810192826200015157600085556200019d565b82601f106200016c57805160ff19168380011785556200019d565b828001600101855582156200019d579182015b828111156200019c5782518255916020019190600101906200017f565b5b509050620001ac9190620001b0565b5090565b5b80821115620001cb576000816000905550600101620001b1565b5090565b600081519050620001e081620002ab565b92915050565b600060208284031215620001f957600080fd5b60006200020984828501620001cf565b91505092915050565b60006200021f8262000226565b9050919050565b600073ffffffffffffffffffffffffffffffffffffffff82169050919050565b600060028204905060018216806200025f57607f821691505b602082108114156200027657620002756200027c565b5b50919050565b7f4e487b7100000000000000000000000000000000000000000000000000000000600052602260045260246000fd5b620002b68162000212565b8114620002c257600080fd5b50565b612f4080620002d56000396000f3fe608060405234801561001057600080fd5b50600436106100f55760003560e01c80635768f27111610097578063a22cb46511610066578063a22cb46514610298578063b88d4fde146102b4578063c87b56dd146102d0578063e985e9c514610300576100f5565b80635768f271146101ea5780636352211e1461021a57806370a082311461024a57806395d89b411461027a576100f5565b8063095ea7b3116100d3578063095ea7b31461017857806317d70f7c1461019457806323b872dd146101b257806342842e0e146101ce576100f5565b806301ffc9a7146100fa57806306fdde031461012a578063081812fc14610148575b600080fd5b610114600480360381019061010f9190611ee1565b610330565b604051610121919061238e565b60405180910390f35b610132610412565b60405161013f91906123a9565b60405180910390f35b610162600480360381019061015d9190611f33565b6104a4565b60405161016f9190612305565b60405180910390f35b610192600480360381019061018d9190611e64565b610529565b005b61019c610641565b6040516101a991906125cb565b60405180910390f35b6101cc60048036038101906101c79190611d5e565b610647565b005b6101e860048036038101906101e39190611d5e565b6106a7565b005b61020460048036038101906101ff9190611ea0565b6106c7565b604051610211919061236c565b60405180910390f35b610234600480360381019061022f9190611f33565b610878565b6040516102419190612305565b60405180910390f35b610264600480360381019061025f9190611cf9565b61092a565b60405161027191906125cb565b60405180910390f35b6102826109e2565b60405161028f91906123a9565b60405180910390f35b6102b260048036038101906102ad9190611e28565b610a74565b005b6102ce60048036038101906102c99190611dad565b610a8a565b005b6102ea60048036038101906102e59190611f33565b610aec565b6040516102f791906123a9565b60405180910390f35b61031a60048036038101906103159190611d22565b610c3e565b604051610327919061238e565b60405180910390f35b60007f80ac58cd000000000000000000000000000000000000000000000000000000007bffffffffffffffffffffffffffffffffffffffffffffffffffffffff1916827bffffffffffffffffffffffffffffffffffffffffffffffffffffffff191614806103fb57507f5b5e139f000000000000000000000000000000000000000000000000000000007bffffffffffffffffffffffffffffffffffffffffffffffffffffffff1916827bffffffffffffffffffffffffffffffffffffffffffffffffffffffff1916145b8061040b575061040a82610cd2565b5b9050919050565b60606000805461042190612886565b80601f016020809104026020016040519081016040528092919081815260200182805461044d90612886565b801561049a5780601f1061046f5761010080835404028352916020019161049a565b820191906000526020600020905b81548152906001019060200180831161047d57829003601f168201915b5050505050905090565b60006104af82610d3c565b6104ee576040517f08c379a00000000000000000000000000000000000000000000000000000000081526004016104e59061254b565b60405180910390fd5b6004600083815260200190815260200160002060009054906101000a900473ffffffffffffffffffffffffffffffffffffffff169050919050565b600061053482610878565b90508073ffffffffffffffffffffffffffffffffffffffff168373ffffffffffffffffffffffffffffffffffffffff1614156105a5576040517f08c379a000000000000000000000000000000000000000000000000000000000815260040161059c9061258b565b60405180910390fd5b8073ffffffffffffffffffffffffffffffffffffffff166105c4610da8565b73ffffffffffffffffffffffffffffffffffffffff1614806105f357506105f2816105ed610da8565b610c3e565b5b610632576040517f08c379a00000000000000000000000000000000000000000000000000000000081526004016106299061248b565b60405180910390fd5b61063c8383610db0565b505050565b60075481565b610658610652610da8565b82610e69565b610697576040517f08c379a000000000000000000000000000000000000000000000000000000000815260040161068e906125ab565b60405180910390fd5b6106a2838383610f47565b505050565b6106c283838360405180602001604052806000815250610a8a565b505050565b6060600860009054906101000a900473ffffffffffffffffffffffffffffffffffffffff1673ffffffffffffffffffffffffffffffffffffffff163373ffffffffffffffffffffffffffffffffffffffff161461072357600080fd5b6000825167ffffffffffffffff811115610766577f4e487b7100000000000000000000000000000000000000000000000000000000600052604160045260246000fd5b6040519080825280602002602001820160405280156107945781602001602082028036833780820191505090505b50905060005b835181101561086e57600760008154809291906107b6906128e9565b91905055506107c7336007546111ae565b610813600754858381518110610806577f4e487b7100000000000000000000000000000000000000000000000000000000600052603260045260246000fd5b60200260200101516111cc565b60075482828151811061084f577f4e487b7100000000000000000000000000000000000000000000000000000000600052603260045260246000fd5b6020026020010181815250508080610866906128e9565b91505061079a565b5080915050919050565b6000806002600084815260200190815260200160002060009054906101000a900473ffffffffffffffffffffffffffffffffffffffff169050600073ffffffffffffffffffffffffffffffffffffffff168173ffffffffffffffffffffffffffffffffffffffff161415610921576040517f08c379a0000000000000000000000000000000000000000000000000000000008152600401610918906124cb565b60405180910390fd5b80915050919050565b60008073ffffffffffffffffffffffffffffffffffffffff168273ffffffffffffffffffffffffffffffffffffffff16141561099b576040517f08c379a0000000000000000000000000000000000000000000000000000000008152600401610992906124ab565b60405180910390fd5b600360008373ffffffffffffffffffffffffffffffffffffffff1673ffffffffffffffffffffffffffffffffffffffff168152602001908152602001600020549050919050565b6060600180546109f190612886565b80601f0160208091040260200160405190810160405280929190818152602001828054610a1d90612886565b8015610a6a5780601f10610a3f57610100808354040283529160200191610a6a565b820191906000526020600020905b815481529060010190602001808311610a4d57829003601f168201915b5050505050905090565b610a86610a7f610da8565b8383611240565b5050565b610a9b610a95610da8565b83610e69565b610ada576040517f08c379a0000000000000000000000000000000000000000000000000000000008152600401610ad1906125ab565b60405180910390fd5b610ae6848484846113ad565b50505050565b6060610af782610d3c565b610b36576040517f08c379a0000000000000000000000000000000000000000000000000000000008152600401610b2d9061252b565b60405180910390fd5b6000600660008481526020019081526020016000208054610b5690612886565b80601f0160208091040260200160405190810160405280929190818152602001828054610b8290612886565b8015610bcf5780601f10610ba457610100808354040283529160200191610bcf565b820191906000526020600020905b815481529060010190602001808311610bb257829003601f168201915b505050505090506000610be0611409565b9050600081511415610bf6578192505050610c39565b600082511115610c2b578082604051602001610c139291906122e1565b60405160208183030381529060405292505050610c39565b610c3484611420565b925050505b919050565b6000600560008473ffffffffffffffffffffffffffffffffffffffff1673ffffffffffffffffffffffffffffffffffffffff16815260200190815260200160002060008373ffffffffffffffffffffffffffffffffffffffff1673ffffffffffffffffffffffffffffffffffffffff16815260200190815260200160002060009054906101000a900460ff16905092915050565b60007f01ffc9a7000000000000000000000000000000000000000000000000000000007bffffffffffffffffffffffffffffffffffffffffffffffffffffffff1916827bffffffffffffffffffffffffffffffffffffffffffffffffffffffff1916149050919050565b60008073ffffffffffffffffffffffffffffffffffffffff166002600084815260200190815260200160002060009054906101000a900473ffffffffffffffffffffffffffffffffffffffff1673ffffffffffffffffffffffffffffffffffffffff1614159050919050565b600033905090565b816004600083815260200190815260200160002060006101000a81548173ffffffffffffffffffffffffffffffffffffffff021916908373ffffffffffffffffffffffffffffffffffffffff160217905550808273ffffffffffffffffffffffffffffffffffffffff16610e2383610878565b73ffffffffffffffffffffffffffffffffffffffff167f8c5be1e5ebec7d5bd14f71427d1e84f3dd0314c0f7b2291e5b200ac8c7c3b92560405160405180910390a45050565b6000610e7482610d3c565b610eb3576040517f08c379a0000000000000000000000000000000000000000000000000000000008152600401610eaa9061246b565b60405180910390fd5b6000610ebe83610878565b90508073ffffffffffffffffffffffffffffffffffffffff168473ffffffffffffffffffffffffffffffffffffffff161480610f005750610eff8185610c3e565b5b80610f3e57508373ffffffffffffffffffffffffffffffffffffffff16610f26846104a4565b73ffffffffffffffffffffffffffffffffffffffff16145b91505092915050565b8273ffffffffffffffffffffffffffffffffffffffff16610f6782610878565b73ffffffffffffffffffffffffffffffffffffffff1614610fbd576040517f08c379a0000000000000000000000000000000000000000000000000000000008152600401610fb4906123eb565b60405180910390fd5b600073ffffffffffffffffffffffffffffffffffffffff168273ffffffffffffffffffffffffffffffffffffffff16141561102d576040517f08c379a00000000000000000000000000000000000000000000000000000000081526004016110249061242b565b60405180910390fd5b6110388383836114c7565b611043600082610db0565b6001600360008573ffffffffffffffffffffffffffffffffffffffff1673ffffffffffffffffffffffffffffffffffffffff1681526020019081526020016000206000828254611093919061279c565b925050819055506001600360008473ffffffffffffffffffffffffffffffffffffffff1673ffffffffffffffffffffffffffffffffffffffff16815260200190815260200160002060008282546110ea9190612715565b92505081905550816002600083815260200190815260200160002060006101000a81548173ffffffffffffffffffffffffffffffffffffffff021916908373ffffffffffffffffffffffffffffffffffffffff160217905550808273ffffffffffffffffffffffffffffffffffffffff168473ffffffffffffffffffffffffffffffffffffffff167fddf252ad1be2c89b69c2b068fc378daa952ba7f163c4a11628f55a4df523b3ef60405160405180910390a46111a98383836114cc565b505050565b6111c88282604051806020016040528060008152506114d1565b5050565b6111d582610d3c565b611214576040517f08c379a000000000000000000000000000000000000000000000000000000000815260040161120b906124eb565b60405180910390fd5b8060066000848152602001908152602001600020908051906020019061123b929190611a6d565b505050565b8173ffffffffffffffffffffffffffffffffffffffff168373ffffffffffffffffffffffffffffffffffffffff1614156112af576040517f08c379a00000000000000000000000000000000000000000000000000000000081526004016112a69061244b565b60405180910390fd5b80600560008573ffffffffffffffffffffffffffffffffffffffff1673ffffffffffffffffffffffffffffffffffffffff16815260200190815260200160002060008473ffffffffffffffffffffffffffffffffffffffff1673ffffffffffffffffffffffffffffffffffffffff16815260200190815260200160002060006101000a81548160ff0219169083151502179055508173ffffffffffffffffffffffffffffffffffffffff168373ffffffffffffffffffffffffffffffffffffffff167f17307eab39ab6107e8899845ad3d59bd9653f200f220920489ca2b5937696c31836040516113a0919061238e565b60405180910390a3505050565b6113b8848484610f47565b6113c48484848461152c565b611403576040517f08c379a00000000000000000000000000000000000000000000000000000000081526004016113fa906123cb565b60405180910390fd5b50505050565b606060405180602001604052806000815250905090565b606061142b82610d3c565b61146a576040517f08c379a00000000000000000000000000000000000000000000000000000000081526004016114619061256b565b60405180910390fd5b6000611474611409565b9050600081511161149457604051806020016040528060008152506114bf565b8061149e846116c3565b6040516020016114af9291906122e1565b6040516020818303038152906040525b915050919050565b505050565b505050565b6114db8383611870565b6114e8600084848461152c565b611527576040517f08c379a000000000000000000000000000000000000000000000000000000000815260040161151e906123cb565b60405180910390fd5b505050565b600061154d8473ffffffffffffffffffffffffffffffffffffffff16611a4a565b156116b6578373ffffffffffffffffffffffffffffffffffffffff1663150b7a02611576610da8565b8786866040518563ffffffff1660e01b81526004016115989493929190612320565b602060405180830381600087803b1580156115b257600080fd5b505af19250505080156115e357506040513d601f19601f820116820180604052508101906115e09190611f0a565b60015b611666573d8060008114611613576040519150601f19603f3d011682016040523d82523d6000602084013e611618565b606091505b5060008151141561165e576040517f08c379a0000000000000000000000000000000000000000000000000000000008152600401611655906123cb565b60405180910390fd5b805181602001fd5b63150b7a0260e01b7bffffffffffffffffffffffffffffffffffffffffffffffffffffffff1916817bffffffffffffffffffffffffffffffffffffffffffffffffffffffff1916149150506116bb565b600190505b949350505050565b6060600082141561170b576040518060400160405280600181526020017f3000000000000000000000000000000000000000000000000000000000000000815250905061186b565b600082905060005b6000821461173d578080611726906128e9565b915050600a82611736919061276b565b9150611713565b60008167ffffffffffffffff81111561177f577f4e487b7100000000000000000000000000000000000000000000000000000000600052604160045260246000fd5b6040519080825280601f01601f1916602001820160405280156117b15781602001600182028036833780820191505090505b5090505b60008514611864576001826117ca919061279c565b9150600a856117d99190612932565b60306117e59190612715565b60f81b818381518110611821577f4e487b7100000000000000000000000000000000000000000000000000000000600052603260045260246000fd5b60200101907effffffffffffffffffffffffffffffffffffffffffffffffffffffffffffff1916908160001a905350600a8561185d919061276b565b94506117b5565b8093505050505b919050565b600073ffffffffffffffffffffffffffffffffffffffff168273ffffffffffffffffffffffffffffffffffffffff1614156118e0576040517f08c379a00000000000000000000000000000000000000000000000000000000081526004016118d79061250b565b60405180910390fd5b6118e981610d3c565b15611929576040517f08c379a00000000000000000000000000000000000000000000000000000000081526004016119209061240b565b60405180910390fd5b611935600083836114c7565b6001600360008473ffffffffffffffffffffffffffffffffffffffff1673ffffffffffffffffffffffffffffffffffffffff16815260200190815260200160002060008282546119859190612715565b92505081905550816002600083815260200190815260200160002060006101000a81548173ffffffffffffffffffffffffffffffffffffffff021916908373ffffffffffffffffffffffffffffffffffffffff160217905550808273ffffffffffffffffffffffffffffffffffffffff16600073ffffffffffffffffffffffffffffffffffffffff167fddf252ad1be2c89b69c2b068fc378daa952ba7f163c4a11628f55a4df523b3ef60405160405180910390a4611a46600083836114cc565b5050565b6000808273ffffffffffffffffffffffffffffffffffffffff163b119050919050565b828054611a7990612886565b90600052602060002090601f016020900481019282611a9b5760008555611ae2565b82601f10611ab457805160ff1916838001178555611ae2565b82800160010185558215611ae2579182015b82811115611ae1578251825591602001919060010190611ac6565b5b509050611aef9190611af3565b5090565b5b80821115611b0c576000816000905550600101611af4565b5090565b6000611b23611b1e8461260b565b6125e6565b90508083825260208201905082856020860282011115611b4257600080fd5b60005b85811015611b8c57813567ffffffffffffffff811115611b6457600080fd5b808601611b718982611cba565b85526020850194506020840193505050600181019050611b45565b5050509392505050565b6000611ba9611ba484612637565b6125e6565b905082815260208101848484011115611bc157600080fd5b611bcc848285612844565b509392505050565b6000611be7611be284612668565b6125e6565b905082815260208101848484011115611bff57600080fd5b611c0a848285612844565b509392505050565b600081359050611c2181612eae565b92915050565b600082601f830112611c3857600080fd5b8135611c48848260208601611b10565b91505092915050565b600081359050611c6081612ec5565b92915050565b600081359050611c7581612edc565b92915050565b600081519050611c8a81612edc565b92915050565b600082601f830112611ca157600080fd5b8135611cb1848260208601611b96565b91505092915050565b600082601f830112611ccb57600080fd5b8135611cdb848260208601611bd4565b91505092915050565b600081359050611cf381612ef3565b92915050565b600060208284031215611d0b57600080fd5b6000611d1984828501611c12565b91505092915050565b60008060408385031215611d3557600080fd5b6000611d4385828601611c12565b9250506020611d5485828601611c12565b9150509250929050565b600080600060608486031215611d7357600080fd5b6000611d8186828701611c12565b9350506020611d9286828701611c12565b9250506040611da386828701611ce4565b9150509250925092565b60008060008060808587031215611dc357600080fd5b6000611dd187828801611c12565b9450506020611de287828801611c12565b9350506040611df387828801611ce4565b925050606085013567ffffffffffffffff811115611e1057600080fd5b611e1c87828801611c90565b91505092959194509250565b60008060408385031215611e3b57600080fd5b6000611e4985828601611c12565b9250506020611e5a85828601611c51565b9150509250929050565b60008060408385031215611e7757600080fd5b6000611e8585828601611c12565b9250506020611e9685828601611ce4565b9150509250929050565b600060208284031215611eb257600080fd5b600082013567ffffffffffffffff811115611ecc57600080fd5b611ed884828501611c27565b91505092915050565b600060208284031215611ef357600080fd5b6000611f0184828501611c66565b91505092915050565b600060208284031215611f1c57600080fd5b6000611f2a84828501611c7b565b91505092915050565b600060208284031215611f4557600080fd5b6000611f5384828501611ce4565b91505092915050565b6000611f6883836122c3565b60208301905092915050565b611f7d816127d0565b82525050565b6000611f8e826126a9565b611f9881856126d7565b9350611fa383612699565b8060005b83811015611fd4578151611fbb8882611f5c565b9750611fc6836126ca565b925050600181019050611fa7565b5085935050505092915050565b611fea816127e2565b82525050565b6000611ffb826126b4565b61200581856126e8565b9350612015818560208601612853565b61201e81612a1f565b840191505092915050565b6000612034826126bf565b61203e81856126f9565b935061204e818560208601612853565b61205781612a1f565b840191505092915050565b600061206d826126bf565b612077818561270a565b9350612087818560208601612853565b80840191505092915050565b60006120a06032836126f9565b91506120ab82612a30565b604082019050919050565b60006120c36025836126f9565b91506120ce82612a7f565b604082019050919050565b60006120e6601c836126f9565b91506120f182612ace565b602082019050919050565b60006121096024836126f9565b915061211482612af7565b604082019050919050565b600061212c6019836126f9565b915061213782612b46565b602082019050919050565b600061214f602c836126f9565b915061215a82612b6f565b604082019050919050565b60006121726038836126f9565b915061217d82612bbe565b604082019050919050565b6000612195602a836126f9565b91506121a082612c0d565b604082019050919050565b60006121b86029836126f9565b91506121c382612c5c565b604082019050919050565b60006121db602e836126f9565b91506121e682612cab565b604082019050919050565b60006121fe6020836126f9565b915061220982612cfa565b602082019050919050565b60006122216031836126f9565b915061222c82612d23565b604082019050919050565b6000612244602c836126f9565b915061224f82612d72565b604082019050919050565b6000612267602f836126f9565b915061227282612dc1565b604082019050919050565b600061228a6021836126f9565b915061229582612e10565b604082019050919050565b60006122ad6031836126f9565b91506122b882612e5f565b604082019050919050565b6122cc8161283a565b82525050565b6122db8161283a565b82525050565b60006122ed8285612062565b91506122f98284612062565b91508190509392505050565b600060208201905061231a6000830184611f74565b92915050565b60006080820190506123356000830187611f74565b6123426020830186611f74565b61234f60408301856122d2565b81810360608301526123618184611ff0565b905095945050505050565b600060208201905081810360008301526123868184611f83565b905092915050565b60006020820190506123a36000830184611fe1565b92915050565b600060208201905081810360008301526123c38184612029565b905092915050565b600060208201905081810360008301526123e481612093565b9050919050565b60006020820190508181036000830152612404816120b6565b9050919050565b60006020820190508181036000830152612424816120d9565b9050919050565b60006020820190508181036000830152612444816120fc565b9050919050565b600060208201905081810360008301526124648161211f565b9050919050565b6000602082019050818103600083015261248481612142565b9050919050565b600060208201905081810360008301526124a481612165565b9050919050565b600060208201905081810360008301526124c481612188565b9050919050565b600060208201905081810360008301526124e4816121ab565b9050919050565b60006020820190508181036000830152612504816121ce565b9050919050565b60006020820190508181036000830152612524816121f1565b9050919050565b6000602082019050818103600083015261254481612214565b9050919050565b6000602082019050818103600083015261256481612237565b9050919050565b600060208201905081810360008301526125848161225a565b9050919050565b600060208201905081810360008301526125a48161227d565b9050919050565b600060208201905081810360008301526125c4816122a0565b9050919050565b60006020820190506125e060008301846122d2565b92915050565b60006125f0612601565b90506125fc82826128b8565b919050565b6000604051905090565b600067ffffffffffffffff821115612626576126256129f0565b5b602082029050602081019050919050565b600067ffffffffffffffff821115612652576126516129f0565b5b61265b82612a1f565b9050602081019050919050565b600067ffffffffffffffff821115612683576126826129f0565b5b61268c82612a1f565b9050602081019050919050565b6000819050602082019050919050565b600081519050919050565b600081519050919050565b600081519050919050565b6000602082019050919050565b600082825260208201905092915050565b600082825260208201905092915050565b600082825260208201905092915050565b600081905092915050565b60006127208261283a565b915061272b8361283a565b9250827fffffffffffffffffffffffffffffffffffffffffffffffffffffffffffffffff038211156127605761275f612963565b5b828201905092915050565b60006127768261283a565b91506127818361283a565b92508261279157612790612992565b5b828204905092915050565b60006127a78261283a565b91506127b28361283a565b9250828210156127c5576127c4612963565b5b828203905092915050565b60006127db8261281a565b9050919050565b60008115159050919050565b60007fffffffff0000000000000000000000000000000000000000000000000000000082169050919050565b600073ffffffffffffffffffffffffffffffffffffffff82169050919050565b6000819050919050565b82818337600083830152505050565b60005b83811015612871578082015181840152602081019050612856565b83811115612880576000848401525b50505050565b6000600282049050600182168061289e57607f821691505b602082108114156128b2576128b16129c1565b5b50919050565b6128c182612a1f565b810181811067ffffffffffffffff821117156128e0576128df6129f0565b5b80604052505050565b60006128f48261283a565b91507fffffffffffffffffffffffffffffffffffffffffffffffffffffffffffffffff82141561292757612926612963565b5b600182019050919050565b600061293d8261283a565b91506129488361283a565b92508261295857612957612992565b5b828206905092915050565b7f4e487b7100000000000000000000000000000000000000000000000000000000600052601160045260246000fd5b7f4e487b7100000000000000000000000000000000000000000000000000000000600052601260045260246000fd5b7f4e487b7100000000000000000000000000000000000000000000000000000000600052602260045260246000fd5b7f4e487b7100000000000000000000000000000000000000000000000000000000600052604160045260246000fd5b6000601f19601f8301169050919050565b7f4552433732313a207472616e7366657220746f206e6f6e20455243373231526560008201527f63656976657220696d706c656d656e7465720000000000000000000000000000602082015250565b7f4552433732313a207472616e736665722066726f6d20696e636f72726563742060008201527f6f776e6572000000000000000000000000000000000000000000000000000000602082015250565b7f4552433732313a20746f6b656e20616c7265616479206d696e74656400000000600082015250565b7f4552433732313a207472616e7366657220746f20746865207a65726f2061646460008201527f7265737300000000000000000000000000000000000000000000000000000000602082015250565b7f4552433732313a20617070726f766520746f2063616c6c657200000000000000600082015250565b7f4552433732313a206f70657261746f7220717565727920666f72206e6f6e657860008201527f697374656e7420746f6b656e0000000000000000000000000000000000000000602082015250565b7f4552433732313a20617070726f76652063616c6c6572206973206e6f74206f7760008201527f6e6572206e6f7220617070726f76656420666f7220616c6c0000000000000000602082015250565b7f4552433732313a2062616c616e636520717565727920666f7220746865207a6560008201527f726f206164647265737300000000000000000000000000000000000000000000602082015250565b7f4552433732313a206f776e657220717565727920666f72206e6f6e657869737460008201527f656e7420746f6b656e0000000000000000000000000000000000000000000000602082015250565b7f45524337323155524953746f726167653a2055524920736574206f66206e6f6e60008201527f6578697374656e7420746f6b656e000000000000000000000000000000000000602082015250565b7f4552433732313a206d696e7420746f20746865207a65726f2061646472657373600082015250565b7f45524337323155524953746f726167653a2055524920717565727920666f722060008201527f6e6f6e6578697374656e7420746f6b656e000000000000000000000000000000602082015250565b7f4552433732313a20617070726f76656420717565727920666f72206e6f6e657860008201527f697374656e7420746f6b656e0000000000000000000000000000000000000000602082015250565b7f4552433732314d657461646174613a2055524920717565727920666f72206e6f60008201527f6e6578697374656e7420746f6b656e0000000000000000000000000000000000602082015250565b7f4552433732313a20617070726f76616c20746f2063757272656e74206f776e6560008201527f7200000000000000000000000000000000000000000000000000000000000000602082015250565b7f4552433732313a207472616e736665722063616c6c6572206973206e6f74206f60008201527f776e6572206e6f7220617070726f766564000000000000000000000000000000602082015250565b612eb7816127d0565b8114612ec257600080fd5b50565b612ece816127e2565b8114612ed957600080fd5b50565b612ee5816127ee565b8114612ef057600080fd5b50565b612efc8161283a565b8114612f0757600080fd5b5056fea2646970667358221220b95ecd5c641df93ad96d67c335c895099d3c5748d0b1664114cc9f565c13c6e064736f6c63430008040033",
  "linkReferences": {},
  "deployedLinkReferences": {}
}