{
  "_format": "hh-sol-artifact-1",
  "contractName": "Marketplace",
  "sourceName": "src/solidity/contracts/Marketplace.sol",
  "abi": [
    {
      "inputs": [
        {
          "internalType": "address",
          "name": "_accountOwnerMarketplace",
          "type": "address"
        },
        {
          "internalType": "address",
          "name": "_accountGamerOrganization",
          "type": "address"
        },
        {
          "internalType": "uint256",
          "name": "_feeMarketplacePercent",
          "type": "uint256"
        },
        {
          "internalType": "uint256",
          "name": "_feeGamerOrganizationPercent",
          "type": "uint256"
        },
        {
          "internalType": "uint256",
          "name": "_feeDiamondPercent",
          "type": "uint256"
        },
        {
          "internalType": "uint256",
          "name": "_feeGoldPercent",
          "type": "uint256"
        },
        {
          "internalType": "uint256",
          "name": "_feeSilverPercent",
          "type": "uint256"
        }
      ],
      "stateMutability": "nonpayable",
      "type": "constructor"
    },
    {
      "anonymous": false,
      "inputs": [
        {
          "indexed": false,
          "internalType": "uint256",
          "name": "itemId",
          "type": "uint256"
        },
        {
          "indexed": true,
          "internalType": "address",
          "name": "nft",
          "type": "address"
        },
        {
          "indexed": false,
          "internalType": "uint256",
          "name": "tokenId",
          "type": "uint256"
        },
        {
          "indexed": false,
          "internalType": "uint256",
          "name": "price",
          "type": "uint256"
        },
        {
          "indexed": true,
          "internalType": "address",
          "name": "seller",
          "type": "address"
        },
        {
          "indexed": true,
          "internalType": "address",
          "name": "buyer",
          "type": "address"
        }
      ],
      "name": "Bought",
      "type": "event"
    },
    {
      "anonymous": false,
      "inputs": [
        {
          "indexed": false,
          "internalType": "uint256",
          "name": "itemId",
          "type": "uint256"
        },
        {
          "indexed": true,
          "internalType": "address",
          "name": "nft",
          "type": "address"
        },
        {
          "indexed": false,
          "internalType": "uint256[]",
          "name": "tokenIds",
          "type": "uint256[]"
        },
        {
          "indexed": false,
          "internalType": "uint256[]",
          "name": "prices",
          "type": "uint256[]"
        },
        {
          "indexed": true,
          "internalType": "address",
          "name": "seller",
          "type": "address"
        }
      ],
      "name": "Offered",
      "type": "event"
    },
    {
      "anonymous": false,
      "inputs": [
        {
          "indexed": false,
          "internalType": "uint256",
          "name": "itemId",
          "type": "uint256"
        },
        {
          "indexed": false,
          "internalType": "uint256",
          "name": "tokenId",
          "type": "uint256"
        },
        {
          "indexed": false,
          "internalType": "uint256",
          "name": "price",
          "type": "uint256"
        },
        {
          "indexed": true,
          "internalType": "address",
          "name": "seller",
          "type": "address"
        }
      ],
      "name": "Published",
      "type": "event"
    },
    {
      "inputs": [],
      "name": "accountGamerOrganization",
      "outputs": [
        {
          "internalType": "address payable",
          "name": "",
          "type": "address"
        }
      ],
      "stateMutability": "view",
      "type": "function"
    },
    {
      "inputs": [],
      "name": "accountOwnerMarketplace",
      "outputs": [
        {
          "internalType": "address payable",
          "name": "",
          "type": "address"
        }
      ],
      "stateMutability": "view",
      "type": "function"
    },
    {
      "inputs": [
        {
          "internalType": "uint256",
          "name": "",
          "type": "uint256"
        }
      ],
      "name": "accountsLevels",
      "outputs": [
        {
          "internalType": "address payable",
          "name": "diamond",
          "type": "address"
        },
        {
          "internalType": "address payable",
          "name": "gold",
          "type": "address"
        },
        {
          "internalType": "address payable",
          "name": "silver",
          "type": "address"
        }
      ],
      "stateMutability": "view",
      "type": "function"
    },
    {
      "inputs": [],
      "name": "feeDiamondPercent",
      "outputs": [
        {
          "internalType": "uint256",
          "name": "",
          "type": "uint256"
        }
      ],
      "stateMutability": "view",
      "type": "function"
    },
    {
      "inputs": [],
      "name": "feeGamerOrganizationPercent",
      "outputs": [
        {
          "internalType": "uint256",
          "name": "",
          "type": "uint256"
        }
      ],
      "stateMutability": "view",
      "type": "function"
    },
    {
      "inputs": [],
      "name": "feeGoldPercent",
      "outputs": [
        {
          "internalType": "uint256",
          "name": "",
          "type": "uint256"
        }
      ],
      "stateMutability": "view",
      "type": "function"
    },
    {
      "inputs": [],
      "name": "feeMarketplacePercent",
      "outputs": [
        {
          "internalType": "uint256",
          "name": "",
          "type": "uint256"
        }
      ],
      "stateMutability": "view",
      "type": "function"
    },
    {
      "inputs": [],
      "name": "feeSilverPercent",
      "outputs": [
        {
          "internalType": "uint256",
          "name": "",
          "type": "uint256"
        }
      ],
      "stateMutability": "view",
      "type": "function"
    },
    {
      "inputs": [
        {
          "internalType": "uint256",
          "name": "_itemId",
          "type": "uint256"
        }
      ],
      "name": "getTotalPrice",
      "outputs": [
        {
          "internalType": "uint256",
          "name": "",
          "type": "uint256"
        }
      ],
      "stateMutability": "view",
      "type": "function"
    },
    {
      "inputs": [],
      "name": "itemCount",
      "outputs": [
        {
          "internalType": "uint256",
          "name": "",
          "type": "uint256"
        }
      ],
      "stateMutability": "view",
      "type": "function"
    },
    {
      "inputs": [
        {
          "internalType": "uint256",
          "name": "",
          "type": "uint256"
        }
      ],
      "name": "itemCountOfPurchases",
      "outputs": [
        {
          "internalType": "uint256",
          "name": "",
          "type": "uint256"
        }
      ],
      "stateMutability": "view",
      "type": "function"
    },
    {
      "inputs": [
        {
          "internalType": "uint256",
          "name": "",
          "type": "uint256"
        }
      ],
      "name": "items",
      "outputs": [
        {
          "internalType": "uint256",
          "name": "itemId",
          "type": "uint256"
        },
        {
          "internalType": "contract IERC721",
          "name": "nft",
          "type": "address"
        },
        {
          "internalType": "uint256",
          "name": "tokenId",
          "type": "uint256"
        },
        {
          "internalType": "uint256",
          "name": "price",
          "type": "uint256"
        },
        {
          "internalType": "string",
          "name": "nick",
          "type": "string"
        },
        {
          "internalType": "string",
          "name": "team",
          "type": "string"
        },
        {
          "internalType": "address payable",
          "name": "seller",
          "type": "address"
        },
        {
          "internalType": "bool",
          "name": "onSale",
          "type": "bool"
        }
      ],
      "stateMutability": "view",
      "type": "function"
    },
    {
      "inputs": [
        {
          "internalType": "contract IERC721",
          "name": "_nft",
          "type": "address"
        },
        {
          "internalType": "uint256[]",
          "name": "_tokensId",
          "type": "uint256[]"
        },
        {
          "internalType": "uint256[]",
          "name": "_prices",
          "type": "uint256[]"
        },
        {
          "internalType": "string[]",
          "name": "_nicks",
          "type": "string[]"
        },
        {
          "internalType": "string[]",
          "name": "_teams",
          "type": "string[]"
        }
      ],
      "name": "makeItem",
      "outputs": [],
      "stateMutability": "nonpayable",
      "type": "function"
    },
    {
      "inputs": [
        {
          "internalType": "contract IERC721",
          "name": "_nft",
          "type": "address"
        },
        {
          "internalType": "uint256",
          "name": "_tokenId",
          "type": "uint256"
        },
        {
          "internalType": "uint256",
          "name": "_price",
          "type": "uint256"
        }
      ],
      "name": "publishItem",
      "outputs": [],
      "stateMutability": "nonpayable",
      "type": "function"
    },
    {
      "inputs": [
        {
          "internalType": "uint256",
          "name": "_itemId",
          "type": "uint256"
        }
      ],
      "name": "purchaseItem",
      "outputs": [],
      "stateMutability": "payable",
      "type": "function"
    }
  ],
  "bytecode": "0x6101606040523480156200001257600080fd5b5060405162002fa638038062002fa6833981810160405281019062000038919062000155565b600160008190555086600160006101000a81548173ffffffffffffffffffffffffffffffffffffffff021916908373ffffffffffffffffffffffffffffffffffffffff1602179055508673ffffffffffffffffffffffffffffffffffffffff1660808173ffffffffffffffffffffffffffffffffffffffff1660601b815250508573ffffffffffffffffffffffffffffffffffffffff1660a08173ffffffffffffffffffffffffffffffffffffffff1660601b815250508460c081815250508360e081815250508261010081815250508161012081815250508061014081815250505050505050505062000274565b600081519050620001388162000240565b92915050565b6000815190506200014f816200025a565b92915050565b600080600080600080600060e0888a0312156200017157600080fd5b6000620001818a828b0162000127565b9750506020620001948a828b0162000127565b9650506040620001a78a828b016200013e565b9550506060620001ba8a828b016200013e565b9450506080620001cd8a828b016200013e565b93505060a0620001e08a828b016200013e565b92505060c0620001f38a828b016200013e565b91505092959891949750929550565b60006200020f8262000216565b9050919050565b600073ffffffffffffffffffffffffffffffffffffffff82169050919050565b6000819050919050565b6200024b8162000202565b81146200025757600080fd5b50565b620002658162000236565b81146200027157600080fd5b50565b60805160601c60a05160601c60c05160e051610100516101205161014051612c3e620003686000396000818161050e0152818161105b01528181611925015281816119cf0152611a790152600081816104c001528181610ff40152818161107c015281816117b0015261185a01526000818161041201528181610fb8015281816110150152818161109d01526116e50152600081816103ca01528181610f5401526116200152600081816104e401528181610f80015261158c0152600081816103ee01526115e30152600081816107260152818161092001528181610a950152818161154f0152611c6b0152612c3e6000f3fe6080604052600436106100e85760003560e01c80636bfb0d011161008a578063bfb231d211610059578063bfb231d2146102e8578063ca7dd3751461032c578063d38ea5bf14610369578063e3ab781b14610385576100e8565b80636bfb0d011461024057806385de5ecc1461026b578063870592c0146102965780639e555090146102bf576100e8565b8063239bbf5b116100c6578063239bbf5b146101805780633b1d198c146101ab578063427a0b22146101ea578063662fc08814610215576100e8565b806308a31216146100ed578063158cb02a1461012a5780631f5044a714610155575b600080fd5b3480156100f957600080fd5b50610114600480360381019061010f919061208e565b6103b0565b60405161012191906124a7565b60405180910390f35b34801561013657600080fd5b5061013f6103c8565b60405161014c91906124a7565b60405180910390f35b34801561016157600080fd5b5061016a6103ec565b60405161017791906122e7565b60405180910390f35b34801561018c57600080fd5b50610195610410565b6040516101a291906124a7565b60405180910390f35b3480156101b757600080fd5b506101d260048036038101906101cd919061208e565b610434565b6040516101e193929190612302565b60405180910390f35b3480156101f657600080fd5b506101ff6104be565b60405161020c91906124a7565b60405180910390f35b34801561022157600080fd5b5061022a6104e2565b60405161023791906124a7565b60405180910390f35b34801561024c57600080fd5b50610255610506565b60405161026291906124a7565b60405180910390f35b34801561027757600080fd5b5061028061050c565b60405161028d91906124a7565b60405180910390f35b3480156102a257600080fd5b506102bd60048036038101906102b89190611f68565b610530565b005b3480156102cb57600080fd5b506102e660048036038101906102e1919061203f565b610b2d565b005b3480156102f457600080fd5b5061030f600480360381019061030a919061208e565b610d92565b604051610323989796959493929190612507565b60405180910390f35b34801561033857600080fd5b50610353600480360381019061034e919061208e565b610f37565b60405161036091906124a7565b60405180910390f35b610383600480360381019061037e919061208e565b611123565b005b34801561039157600080fd5b5061039a611c69565b6040516103a791906122e7565b60405180910390f35b60036020528060005260406000206000915090505481565b7f000000000000000000000000000000000000000000000000000000000000000081565b7f000000000000000000000000000000000000000000000000000000000000000081565b7f000000000000000000000000000000000000000000000000000000000000000081565b60056020528060005260406000206000915090508060000160009054906101000a900473ffffffffffffffffffffffffffffffffffffffff16908060010160009054906101000a900473ffffffffffffffffffffffffffffffffffffffff16908060020160009054906101000a900473ffffffffffffffffffffffffffffffffffffffff16905083565b7f000000000000000000000000000000000000000000000000000000000000000081565b7f000000000000000000000000000000000000000000000000000000000000000081565b60025481565b7f000000000000000000000000000000000000000000000000000000000000000081565b600160009054906101000a900473ffffffffffffffffffffffffffffffffffffffff1673ffffffffffffffffffffffffffffffffffffffff163373ffffffffffffffffffffffffffffffffffffffff161461058a57600080fd5b600260005414156105d0576040517f08c379a00000000000000000000000000000000000000000000000000000000081526004016105c790612487565b60405180910390fd5b6002600081905550600084511161061c576040517f08c379a000000000000000000000000000000000000000000000000000000000815260040161061390612447565b60405180910390fd5b8251845114610660576040517f08c379a000000000000000000000000000000000000000000000000000000000815260040161065790612467565b60405180910390fd5b60005b8451811015610a925760008482815181106106a7577f4e487b7100000000000000000000000000000000000000000000000000000000600052603260045260246000fd5b6020026020010151116106ef576040517f08c379a00000000000000000000000000000000000000000000000000000000081526004016106e6906123a7565b60405180910390fd5b6002600081548092919061070290612919565b91905055508573ffffffffffffffffffffffffffffffffffffffff166323b872dd337f000000000000000000000000000000000000000000000000000000000000000088858151811061077e577f4e487b7100000000000000000000000000000000000000000000000000000000600052603260045260246000fd5b60200260200101516040518463ffffffff1660e01b81526004016107a493929190612370565b600060405180830381600087803b1580156107be57600080fd5b505af11580156107d2573d6000803e3d6000fd5b5050505060405180610100016040528060025481526020018773ffffffffffffffffffffffffffffffffffffffff16815260200186838151811061083f577f4e487b7100000000000000000000000000000000000000000000000000000000600052603260045260246000fd5b60200260200101518152602001858381518110610885577f4e487b7100000000000000000000000000000000000000000000000000000000600052603260045260246000fd5b602002602001015181526020018483815181106108cb577f4e487b7100000000000000000000000000000000000000000000000000000000600052603260045260246000fd5b60200260200101518152602001838381518110610911577f4e487b7100000000000000000000000000000000000000000000000000000000600052603260045260246000fd5b602002602001015181526020017f000000000000000000000000000000000000000000000000000000000000000073ffffffffffffffffffffffffffffffffffffffff168152602001600115158152506004600060025481526020019081526020016000206000820151816000015560208201518160010160006101000a81548173ffffffffffffffffffffffffffffffffffffffff021916908373ffffffffffffffffffffffffffffffffffffffff160217905550604082015181600201556060820151816003015560808201518160040190805190602001906109f7929190611caf565b5060a0820151816005019080519060200190610a14929190611caf565b5060c08201518160060160006101000a81548173ffffffffffffffffffffffffffffffffffffffff021916908373ffffffffffffffffffffffffffffffffffffffff16021790555060e08201518160060160146101000a81548160ff0219169083151502179055509050508080610a8a90612919565b915050610663565b507f000000000000000000000000000000000000000000000000000000000000000073ffffffffffffffffffffffffffffffffffffffff168573ffffffffffffffffffffffffffffffffffffffff167fa7a25a41bf2dd955eec8125fce9de171ecd45961064d3c59d983c026cbbcfd806002548787604051610b16939291906124c2565b60405180910390a360016000819055505050505050565b60026000541415610b73576040517f08c379a0000000000000000000000000000000000000000000000000000000008152600401610b6a90612487565b60405180910390fd5b60026000819055508273ffffffffffffffffffffffffffffffffffffffff16636352211e836040518263ffffffff1660e01b8152600401610bb491906124a7565b60206040518083038186803b158015610bcc57600080fd5b505afa158015610be0573d6000803e3d6000fd5b505050506040513d601f19601f82011682018060405250810190610c049190611f3f565b73ffffffffffffffffffffffffffffffffffffffff163373ffffffffffffffffffffffffffffffffffffffff1614610c3b57600080fd5b60008111610c7e576040517f08c379a0000000000000000000000000000000000000000000000000000000008152600401610c75906123a7565b60405180910390fd5b336004600084815260200190815260200160002060060160006101000a81548173ffffffffffffffffffffffffffffffffffffffff021916908373ffffffffffffffffffffffffffffffffffffffff16021790555080600460008481526020019081526020016000206003018190555060016004600084815260200190815260200160002060060160146101000a81548160ff0219169083151502179055503373ffffffffffffffffffffffffffffffffffffffff167f342e849466ccf2dfb594dafa5f75bbf8f84cc6fa4e0c6ca1620bfcaeeabc623260046000858152602001908152602001600020600001548484604051610d7d93929190612593565b60405180910390a26001600081905550505050565b60046020528060005260406000206000915090508060000154908060010160009054906101000a900473ffffffffffffffffffffffffffffffffffffffff1690806002015490806003015490806004018054610ded906128b6565b80601f0160208091040260200160405190810160405280929190818152602001828054610e19906128b6565b8015610e665780601f10610e3b57610100808354040283529160200191610e66565b820191906000526020600020905b815481529060010190602001808311610e4957829003601f168201915b505050505090806005018054610e7b906128b6565b80601f0160208091040260200160405190810160405280929190818152602001828054610ea7906128b6565b8015610ef45780601f10610ec957610100808354040283529160200191610ef4565b820191906000526020600020905b815481529060010190602001808311610ed757829003601f168201915b5050505050908060060160009054906101000a900473ffffffffffffffffffffffffffffffffffffffff16908060060160149054906101000a900460ff16905088565b6000806003600084815260200190815260200160002054905060007f000000000000000000000000000000000000000000000000000000000000000090506000821115610fad577f000000000000000000000000000000000000000000000000000000000000000081610faa91906126cd565b90505b6003821415610fe9577f000000000000000000000000000000000000000000000000000000000000000081610fe291906126cd565b90506110e0565b6004821415611050577f00000000000000000000000000000000000000000000000000000000000000007f000000000000000000000000000000000000000000000000000000000000000061103e91906126cd565b8161104991906126cd565b90506110df565b60058214156110de577f00000000000000000000000000000000000000000000000000000000000000007f00000000000000000000000000000000000000000000000000000000000000007f00000000000000000000000000000000000000000000000000000000000000006110c691906126cd565b6110d091906126cd565b816110db91906126cd565b90505b5b5b60648160646110ef91906126cd565b60046000878152602001908152602001600020600301546111109190612754565b61111a9190612723565b92505050919050565b60026000541415611169576040517f08c379a000000000000000000000000000000000000000000000000000000000815260040161116090612487565b60405180910390fd5b6002600081905550600061117c82610f37565b905060008211801561119057506002548211155b6111cf576040517f08c379a00000000000000000000000000000000000000000000000000000000081526004016111c690612427565b60405180910390fd5b80341015611212576040517f08c379a0000000000000000000000000000000000000000000000000000000008152600401611209906123e7565b60405180910390fd5b600115156004600084815260200190815260200160002060060160149054906101000a900460ff1615151461127c576040517f08c379a000000000000000000000000000000000000000000000000000000000815260040161127390612407565b60405180910390fd5b3373ffffffffffffffffffffffffffffffffffffffff166004600084815260200190815260200160002060060160009054906101000a900473ffffffffffffffffffffffffffffffffffffffff1673ffffffffffffffffffffffffffffffffffffffff161415611321576040517f08c379a0000000000000000000000000000000000000000000000000000000008152600401611318906123c7565b60405180910390fd5b60006003600084815260200190815260200160002054141561139757336005600084815260200190815260200160002060000160006101000a81548173ffffffffffffffffffffffffffffffffffffffff021916908373ffffffffffffffffffffffffffffffffffffffff160217905550611481565b60016003600084815260200190815260200160002054141561140d57336005600084815260200190815260200160002060010160006101000a81548173ffffffffffffffffffffffffffffffffffffffff021916908373ffffffffffffffffffffffffffffffffffffffff160217905550611480565b60026003600084815260200190815260200160002054141561147f57336005600084815260200190815260200160002060020160006101000a81548173ffffffffffffffffffffffffffffffffffffffff021916908373ffffffffffffffffffffffffffffffffffffffff1602179055505b5b5b60006004600084815260200190815260200160002090508060060160009054906101000a900473ffffffffffffffffffffffffffffffffffffffff1673ffffffffffffffffffffffffffffffffffffffff166108fc82600301549081150290604051600060405180830381858888f19350505050158015611506573d6000803e3d6000fd5b5060008160060160146101000a81548160ff02191690831515021790555060036000848152602001908152602001600020600081548092919061154890612919565b91905055507f000000000000000000000000000000000000000000000000000000000000000073ffffffffffffffffffffffffffffffffffffffff166108fc6115b57f00000000000000000000000000000000000000000000000000000000000000008460030154611c8d565b9081150290604051600060405180830381858888f193505050501580156115e0573d6000803e3d6000fd5b507f000000000000000000000000000000000000000000000000000000000000000073ffffffffffffffffffffffffffffffffffffffff166108fc6116497f00000000000000000000000000000000000000000000000000000000000000008460030154611c8d565b9081150290604051600060405180830381858888f19350505050158015611674573d6000803e3d6000fd5b50600380600085815260200190815260200160002054141561173f576005600084815260200190815260200160002060000160009054906101000a900473ffffffffffffffffffffffffffffffffffffffff1673ffffffffffffffffffffffffffffffffffffffff166108fc61170e7f00000000000000000000000000000000000000000000000000000000000000008460030154611c8d565b9081150290604051600060405180830381858888f19350505050158015611739573d6000803e3d6000fd5b50611ad1565b6004600360008581526020019081526020016000205414156118b4576005600084815260200190815260200160002060000160009054906101000a900473ffffffffffffffffffffffffffffffffffffffff1673ffffffffffffffffffffffffffffffffffffffff166108fc6117d97f00000000000000000000000000000000000000000000000000000000000000008460030154611c8d565b9081150290604051600060405180830381858888f19350505050158015611804573d6000803e3d6000fd5b506005600084815260200190815260200160002060010160009054906101000a900473ffffffffffffffffffffffffffffffffffffffff1673ffffffffffffffffffffffffffffffffffffffff166108fc6118837f00000000000000000000000000000000000000000000000000000000000000008460030154611c8d565b9081150290604051600060405180830381858888f193505050501580156118ae573d6000803e3d6000fd5b50611ad0565b600560036000858152602001908152602001600020541415611acf576005600084815260200190815260200160002060000160009054906101000a900473ffffffffffffffffffffffffffffffffffffffff1673ffffffffffffffffffffffffffffffffffffffff166108fc61194e7f00000000000000000000000000000000000000000000000000000000000000008460030154611c8d565b9081150290604051600060405180830381858888f19350505050158015611979573d6000803e3d6000fd5b506005600084815260200190815260200160002060010160009054906101000a900473ffffffffffffffffffffffffffffffffffffffff1673ffffffffffffffffffffffffffffffffffffffff166108fc6119f87f00000000000000000000000000000000000000000000000000000000000000008460030154611c8d565b9081150290604051600060405180830381858888f19350505050158015611a23573d6000803e3d6000fd5b506005600084815260200190815260200160002060020160009054906101000a900473ffffffffffffffffffffffffffffffffffffffff1673ffffffffffffffffffffffffffffffffffffffff166108fc611aa27f00000000000000000000000000000000000000000000000000000000000000008460030154611c8d565b9081150290604051600060405180830381858888f19350505050158015611acd573d6000803e3d6000fd5b505b5b5b8060010160009054906101000a900473ffffffffffffffffffffffffffffffffffffffff1673ffffffffffffffffffffffffffffffffffffffff166323b872dd8260060160009054906101000a900473ffffffffffffffffffffffffffffffffffffffff163384600201546040518463ffffffff1660e01b8152600401611b5a93929190612339565b600060405180830381600087803b158015611b7457600080fd5b505af1158015611b88573d6000803e3d6000fd5b505050503373ffffffffffffffffffffffffffffffffffffffff168160060160009054906101000a900473ffffffffffffffffffffffffffffffffffffffff1673ffffffffffffffffffffffffffffffffffffffff168260010160009054906101000a900473ffffffffffffffffffffffffffffffffffffffff1673ffffffffffffffffffffffffffffffffffffffff167f8b4c9c8a607d67b321582dd8461041b1dc2ceeca70c8b7f37f8e02095cf2e76d8685600201548660030154604051611c5493929190612593565b60405180910390a45050600160008190555050565b7f000000000000000000000000000000000000000000000000000000000000000081565b600060648284611c9d9190612754565b611ca79190612723565b905092915050565b828054611cbb906128b6565b90600052602060002090601f016020900481019282611cdd5760008555611d24565b82601f10611cf657805160ff1916838001178555611d24565b82800160010185558215611d24579182015b82811115611d23578251825591602001919060010190611d08565b5b509050611d319190611d35565b5090565b5b80821115611d4e576000816000905550600101611d36565b5090565b6000611d65611d60846125ef565b6125ca565b90508083825260208201905082856020860282011115611d8457600080fd5b60005b85811015611dce57813567ffffffffffffffff811115611da657600080fd5b808601611db38982611f00565b85526020850194506020840193505050600181019050611d87565b5050509392505050565b6000611deb611de68461261b565b6125ca565b90508083825260208201905082856020860282011115611e0a57600080fd5b60005b85811015611e3a5781611e208882611f2a565b845260208401935060208301925050600181019050611e0d565b5050509392505050565b6000611e57611e5284612647565b6125ca565b905082815260208101848484011115611e6f57600080fd5b611e7a848285612874565b509392505050565b600081519050611e9181612bc3565b92915050565b600082601f830112611ea857600080fd5b8135611eb8848260208601611d52565b91505092915050565b600082601f830112611ed257600080fd5b8135611ee2848260208601611dd8565b91505092915050565b600081359050611efa81612bda565b92915050565b600082601f830112611f1157600080fd5b8135611f21848260208601611e44565b91505092915050565b600081359050611f3981612bf1565b92915050565b600060208284031215611f5157600080fd5b6000611f5f84828501611e82565b91505092915050565b600080600080600060a08688031215611f8057600080fd5b6000611f8e88828901611eeb565b955050602086013567ffffffffffffffff811115611fab57600080fd5b611fb788828901611ec1565b945050604086013567ffffffffffffffff811115611fd457600080fd5b611fe088828901611ec1565b935050606086013567ffffffffffffffff811115611ffd57600080fd5b61200988828901611e97565b925050608086013567ffffffffffffffff81111561202657600080fd5b61203288828901611e97565b9150509295509295909350565b60008060006060848603121561205457600080fd5b600061206286828701611eeb565b935050602061207386828701611f2a565b925050604061208486828701611f2a565b9150509250925092565b6000602082840312156120a057600080fd5b60006120ae84828501611f2a565b91505092915050565b60006120c383836122c9565b60208301905092915050565b6120d88161281a565b82525050565b6120e7816127c0565b82525050565b6120f6816127ae565b82525050565b600061210782612688565b61211181856126ab565b935061211c83612678565b8060005b8381101561214d57815161213488826120b7565b975061213f8361269e565b925050600181019050612120565b5085935050505092915050565b612163816127d2565b82525050565b6121728161282c565b82525050565b600061218382612693565b61218d81856126bc565b935061219d818560208601612883565b6121a681612a1e565b840191505092915050565b60006121be601f836126bc565b91506121c982612a2f565b602082019050919050565b60006121e16020836126bc565b91506121ec82612a58565b602082019050919050565b60006122046033836126bc565b915061220f82612a81565b604082019050919050565b60006122276012836126bc565b915061223282612ad0565b602082019050919050565b600061224a6012836126bc565b915061225582612af9565b602082019050919050565b600061226d601c836126bc565b915061227882612b22565b602082019050919050565b60006122906037836126bc565b915061229b82612b4b565b604082019050919050565b60006122b3601f836126bc565b91506122be82612b9a565b602082019050919050565b6122d281612810565b82525050565b6122e181612810565b82525050565b60006020820190506122fc60008301846120de565b92915050565b600060608201905061231760008301866120de565b61232460208301856120de565b61233160408301846120de565b949350505050565b600060608201905061234e60008301866120cf565b61235b60208301856120ed565b61236860408301846122d8565b949350505050565b600060608201905061238560008301866120ed565b61239260208301856120cf565b61239f60408301846122d8565b949350505050565b600060208201905081810360008301526123c0816121b1565b9050919050565b600060208201905081810360008301526123e0816121d4565b9050919050565b60006020820190508181036000830152612400816121f7565b9050919050565b600060208201905081810360008301526124208161221a565b9050919050565b600060208201905081810360008301526124408161223d565b9050919050565b6000602082019050818103600083015261246081612260565b9050919050565b6000602082019050818103600083015261248081612283565b9050919050565b600060208201905081810360008301526124a0816122a6565b9050919050565b60006020820190506124bc60008301846122d8565b92915050565b60006060820190506124d760008301866122d8565b81810360208301526124e981856120fc565b905081810360408301526124fd81846120fc565b9050949350505050565b60006101008201905061251d600083018b6122d8565b61252a602083018a612169565b61253760408301896122d8565b61254460608301886122d8565b81810360808301526125568187612178565b905081810360a083015261256a8186612178565b905061257960c08301856120de565b61258660e083018461215a565b9998505050505050505050565b60006060820190506125a860008301866122d8565b6125b560208301856122d8565b6125c260408301846122d8565b949350505050565b60006125d46125e5565b90506125e082826128e8565b919050565b6000604051905090565b600067ffffffffffffffff82111561260a576126096129ef565b5b602082029050602081019050919050565b600067ffffffffffffffff821115612636576126356129ef565b5b602082029050602081019050919050565b600067ffffffffffffffff821115612662576126616129ef565b5b61266b82612a1e565b9050602081019050919050565b6000819050602082019050919050565b600081519050919050565b600081519050919050565b6000602082019050919050565b600082825260208201905092915050565b600082825260208201905092915050565b60006126d882612810565b91506126e383612810565b9250827fffffffffffffffffffffffffffffffffffffffffffffffffffffffffffffffff0382111561271857612717612962565b5b828201905092915050565b600061272e82612810565b915061273983612810565b92508261274957612748612991565b5b828204905092915050565b600061275f82612810565b915061276a83612810565b9250817fffffffffffffffffffffffffffffffffffffffffffffffffffffffffffffffff04831182151516156127a3576127a2612962565b5b828202905092915050565b60006127b9826127f0565b9050919050565b60006127cb826127f0565b9050919050565b60008115159050919050565b60006127e9826127ae565b9050919050565b600073ffffffffffffffffffffffffffffffffffffffff82169050919050565b6000819050919050565b600061282582612850565b9050919050565b60006128378261283e565b9050919050565b6000612849826127f0565b9050919050565b600061285b82612862565b9050919050565b600061286d826127f0565b9050919050565b82818337600083830152505050565b60005b838110156128a1578082015181840152602081019050612886565b838111156128b0576000848401525b50505050565b600060028204905060018216806128ce57607f821691505b602082108114156128e2576128e16129c0565b5b50919050565b6128f182612a1e565b810181811067ffffffffffffffff821117156129105761290f6129ef565b5b80604052505050565b600061292482612810565b91507fffffffffffffffffffffffffffffffffffffffffffffffffffffffffffffffff82141561295757612956612962565b5b600182019050919050565b7f4e487b7100000000000000000000000000000000000000000000000000000000600052601160045260246000fd5b7f4e487b7100000000000000000000000000000000000000000000000000000000600052601260045260246000fd5b7f4e487b7100000000000000000000000000000000000000000000000000000000600052602260045260246000fd5b7f4e487b7100000000000000000000000000000000000000000000000000000000600052604160045260246000fd5b6000601f19601f8301169050919050565b7f5072696365206d7573742062652067726561746572207468616e207a65726f00600082015250565b7f4f776e6572732063616e277420627579207468656972206f776e206974656d73600082015250565b7f6e6f7420656e6f75676820657468657220746f20636f766572206974656d207060008201527f7269636520616e64206d61726b65742066656500000000000000000000000000602082015250565b7f4974656d2069736e2774206f6e2073616c650000000000000000000000000000600082015250565b7f6974656d20646f65736e27742065786973740000000000000000000000000000600082015250565b7f5468657265206973206e6f20746f6b656e7320746f2063726561746500000000600082015250565b7f546f6b656e7320616e6420707269636573206d7573742068617665207468652060008201527f73616d6520616d6f756e74206f6620656c656d656e7473000000000000000000602082015250565b7f5265656e7472616e637947756172643a207265656e7472616e742063616c6c00600082015250565b612bcc816127ae565b8114612bd757600080fd5b50565b612be3816127de565b8114612bee57600080fd5b50565b612bfa81612810565b8114612c0557600080fd5b5056fea26469706673582212206768c5dd492538b27d818f9792cdb665b692f2e3417b05ee3bd24fb1c795c60364736f6c63430008040033",
  "linkReferences": {},
  "deployedLinkReferences": {}
}