{
  "_format": "hh-sol-artifact-1",
  "contractName": "NFT",
  "sourceName": "src/solidity/contracts/NFT.sol",
  "abi": [
    {
      "inputs": [
        {
          "internalType": "address",
          "name": "_owner",
          "type": "address"
        }
      ],
      "stateMutability": "nonpayable",
      "type": "constructor"
    },
    {
      "anonymous": false,
      "inputs": [
        {
          "indexed": true,
          "internalType": "address",
          "name": "owner",
          "type": "address"
        },
        {
          "indexed": true,
          "internalType": "address",
          "name": "approved",
          "type": "address"
        },
        {
          "indexed": true,
          "internalType": "uint256",
          "name": "tokenId",
          "type": "uint256"
        }
      ],
      "name": "Approval",
      "type": "event"
    },
    {
      "anonymous": false,
      "inputs": [
        {
          "indexed": true,
          "internalType": "address",
          "name": "owner",
          "type": "address"
        },
        {
          "indexed": true,
          "internalType": "address",
          "name": "operator",
          "type": "address"
        },
        {
          "indexed": false,
          "internalType": "bool",
          "name": "approved",
          "type": "bool"
        }
      ],
      "name": "ApprovalForAll",
      "type": "event"
    },
    {
      "anonymous": false,
      "inputs": [
        {
          "indexed": true,
          "internalType": "address",
          "name": "from",
          "type": "address"
        },
        {
          "indexed": true,
          "internalType": "address",
          "name": "to",
          "type": "address"
        },
        {
          "indexed": true,
          "internalType": "uint256",
          "name": "tokenId",
          "type": "uint256"
        }
      ],
      "name": "Transfer",
      "type": "event"
    },
    {
      "inputs": [
        {
          "internalType": "address",
          "name": "to",
          "type": "address"
        },
        {
          "internalType": "uint256",
          "name": "tokenId",
          "type": "uint256"
        }
      ],
      "name": "approve",
      "outputs": [],
      "stateMutability": "nonpayable",
      "type": "function"
    },
    {
      "inputs": [
        {
          "internalType": "address",
          "name": "owner",
          "type": "address"
        }
      ],
      "name": "balanceOf",
      "outputs": [
        {
          "internalType": "uint256",
          "name": "",
          "type": "uint256"
        }
      ],
      "stateMutability": "view",
      "type": "function"
    },
    {
      "inputs": [
        {
          "internalType": "uint256",
          "name": "tokenId",
          "type": "uint256"
        }
      ],
      "name": "getApproved",
      "outputs": [
        {
          "internalType": "address",
          "name": "",
          "type": "address"
        }
      ],
      "stateMutability": "view",
      "type": "function"
    },
    {
      "inputs": [
        {
          "internalType": "address",
          "name": "owner",
          "type": "address"
        },
        {
          "internalType": "address",
          "name": "operator",
          "type": "address"
        }
      ],
      "name": "isApprovedForAll",
      "outputs": [
        {
          "internalType": "bool",
          "name": "",
          "type": "bool"
        }
      ],
      "stateMutability": "view",
      "type": "function"
    },
    {
      "inputs": [
        {
          "internalType": "string[]",
          "name": "_tokenURIS",
          "type": "string[]"
        }
      ],
      "name": "mint",
      "outputs": [
        {
          "internalType": "uint256[]",
          "name": "",
          "type": "uint256[]"
        }
      ],
      "stateMutability": "nonpayable",
      "type": "function"
    },
    {
      "inputs": [],
      "name": "name",
      "outputs": [
        {
          "internalType": "string",
          "name": "",
          "type": "string"
        }
      ],
      "stateMutability": "view",
      "type": "function"
    },
    {
      "inputs": [
        {
          "internalType": "uint256",
          "name": "tokenId",
          "type": "uint256"
        }
      ],
      "name": "ownerOf",
      "outputs": [
        {
          "internalType": "address",
          "name": "",
          "type": "address"
        }
      ],
      "stateMutability": "view",
      "type": "function"
    },
    {
      "inputs": [
        {
          "internalType": "address",
          "name": "from",
          "type": "address"
        },
        {
          "internalType": "address",
          "name": "to",
          "type": "address"
        },
        {
          "internalType": "uint256",
          "name": "tokenId",
          "type": "uint256"
        }
      ],
      "name": "safeTransferFrom",
      "outputs": [],
      "stateMutability": "nonpayable",
      "type": "function"
    },
    {
      "inputs": [
        {
          "internalType": "address",
          "name": "from",
          "type": "address"
        },
        {
          "internalType": "address",
          "name": "to",
          "type": "address"
        },
        {
          "internalType": "uint256",
          "name": "tokenId",
          "type": "uint256"
        },
        {
          "internalType": "bytes",
          "name": "_data",
          "type": "bytes"
        }
      ],
      "name": "safeTransferFrom",
      "outputs": [],
      "stateMutability": "nonpayable",
      "type": "function"
    },
    {
      "inputs": [
        {
          "internalType": "address",
          "name": "operator",
          "type": "address"
        },
        {
          "internalType": "bool",
          "name": "approved",
          "type": "bool"
        }
      ],
      "name": "setApprovalForAll",
      "outputs": [],
      "stateMutability": "nonpayable",
      "type": "function"
    },
    {
      "inputs": [
        {
          "internalType": "bytes4",
          "name": "interfaceId",
          "type": "bytes4"
        }
      ],
      "name": "supportsInterface",
      "outputs": [
        {
          "internalType": "bool",
          "name": "",
          "type": "bool"
        }
      ],
      "stateMutability": "view",
      "type": "function"
    },
    {
      "inputs": [],
      "name": "symbol",
      "outputs": [
        {
          "internalType": "string",
          "name": "",
          "type": "string"
        }
      ],
      "stateMutability": "view",
      "type": "function"
    },
    {
      "inputs": [],
      "name": "tokenCount",
      "outputs": [
        {
          "internalType": "uint256",
          "name": "",
          "type": "uint256"
        }
      ],
      "stateMutability": "view",
      "type": "function"
    },
    {
      "inputs": [
        {
          "internalType": "uint256",
          "name": "tokenId",
          "type": "uint256"
        }
      ],
      "name": "tokenURI",
      "outputs": [
        {
          "internalType": "string",
          "name": "",
          "type": "string"
        }
      ],
      "stateMutability": "view",
      "type": "function"
    },
    {
      "inputs": [
        {
          "internalType": "address",
          "name": "from",
          "type": "address"
        },
        {
          "internalType": "address",
          "name": "to",
          "type": "address"
        },
        {
          "internalType": "uint256",
          "name": "tokenId",
          "type": "uint256"
        }
      ],
      "name": "transferFrom",
      "outputs": [],
      "stateMutability": "nonpayable",
      "type": "function"
    }
  ],
  "bytecode": "0x60806040523480156200001157600080fd5b50604051620030de380380620030de8339818101604052810190620000379190620001a5565b6040518060400160405280600b81526020017f47616d65722043617264730000000000000000000000000000000000000000008152506040518060400160405280600381526020017f45544800000000000000000000000000000000000000000000000000000000008152508160009080519060200190620000bb929190620000de565b508060019080519060200190620000d4929190620000de565b5050505062000284565b828054620000ec9062000205565b90600052602060002090601f0160209004810192826200011057600085556200015c565b82601f106200012b57805160ff19168380011785556200015c565b828001600101855582156200015c579182015b828111156200015b5782518255916020019190600101906200013e565b5b5090506200016b91906200016f565b5090565b5b808211156200018a57600081600090555060010162000170565b5090565b6000815190506200019f816200026a565b92915050565b600060208284031215620001b857600080fd5b6000620001c8848285016200018e565b91505092915050565b6000620001de82620001e5565b9050919050565b600073ffffffffffffffffffffffffffffffffffffffff82169050919050565b600060028204905060018216806200021e57607f821691505b602082108114156200023557620002346200023b565b5b50919050565b7f4e487b7100000000000000000000000000000000000000000000000000000000600052602260045260246000fd5b6200027581620001d1565b81146200028157600080fd5b50565b612e4a80620002946000396000f3fe608060405234801561001057600080fd5b50600436106100f55760003560e01c80636352211e11610097578063a22cb46511610066578063a22cb46514610298578063b88d4fde146102b4578063c87b56dd146102d0578063e985e9c514610300576100f5565b80636352211e146101fc57806370a082311461022c57806395d89b411461025c5780639f181b5e1461027a576100f5565b8063095ea7b3116100d3578063095ea7b31461017857806323b872dd1461019457806342842e0e146101b05780635768f271146101cc576100f5565b806301ffc9a7146100fa57806306fdde031461012a578063081812fc14610148575b600080fd5b610114600480360381019061010f9190611deb565b610330565b6040516101219190612298565b60405180910390f35b610132610412565b60405161013f91906122b3565b60405180910390f35b610162600480360381019061015d9190611e3d565b6104a4565b60405161016f919061220f565b60405180910390f35b610192600480360381019061018d9190611d6e565b610529565b005b6101ae60048036038101906101a99190611c68565b610641565b005b6101ca60048036038101906101c59190611c68565b610651565b005b6101e660048036038101906101e19190611daa565b610671565b6040516101f39190612276565b60405180910390f35b61021660048036038101906102119190611e3d565b6107c8565b604051610223919061220f565b60405180910390f35b61024660048036038101906102419190611c03565b61087a565b60405161025391906124d5565b60405180910390f35b610264610932565b60405161027191906122b3565b60405180910390f35b6102826109c4565b60405161028f91906124d5565b60405180910390f35b6102b260048036038101906102ad9190611d32565b6109ca565b005b6102ce60048036038101906102c99190611cb7565b6109e0565b005b6102ea60048036038101906102e59190611e3d565b610a42565b6040516102f791906122b3565b60405180910390f35b61031a60048036038101906103159190611c2c565b610b94565b6040516103279190612298565b60405180910390f35b60007f80ac58cd000000000000000000000000000000000000000000000000000000007bffffffffffffffffffffffffffffffffffffffffffffffffffffffff1916827bffffffffffffffffffffffffffffffffffffffffffffffffffffffff191614806103fb57507f5b5e139f000000000000000000000000000000000000000000000000000000007bffffffffffffffffffffffffffffffffffffffffffffffffffffffff1916827bffffffffffffffffffffffffffffffffffffffffffffffffffffffff1916145b8061040b575061040a82610c28565b5b9050919050565b60606000805461042190612790565b80601f016020809104026020016040519081016040528092919081815260200182805461044d90612790565b801561049a5780601f1061046f5761010080835404028352916020019161049a565b820191906000526020600020905b81548152906001019060200180831161047d57829003601f168201915b5050505050905090565b60006104af82610c92565b6104ee576040517f08c379a00000000000000000000000000000000000000000000000000000000081526004016104e590612455565b60405180910390fd5b6004600083815260200190815260200160002060009054906101000a900473ffffffffffffffffffffffffffffffffffffffff169050919050565b6000610534826107c8565b90508073ffffffffffffffffffffffffffffffffffffffff168373ffffffffffffffffffffffffffffffffffffffff1614156105a5576040517f08c379a000000000000000000000000000000000000000000000000000000000815260040161059c90612495565b60405180910390fd5b8073ffffffffffffffffffffffffffffffffffffffff166105c4610cfe565b73ffffffffffffffffffffffffffffffffffffffff1614806105f357506105f2816105ed610cfe565b610b94565b5b610632576040517f08c379a000000000000000000000000000000000000000000000000000000000815260040161062990612395565b60405180910390fd5b61063c8383610d06565b505050565b61064c838383610dbf565b505050565b61066c838383604051806020016040528060008152506109e0565b505050565b60606000825167ffffffffffffffff8111156106b6577f4e487b7100000000000000000000000000000000000000000000000000000000600052604160045260246000fd5b6040519080825280602002602001820160405280156106e45781602001602082028036833780820191505090505b50905060005b83518110156107be5760076000815480929190610706906127f3565b919050555061071733600754611026565b610763600754858381518110610756577f4e487b7100000000000000000000000000000000000000000000000000000000600052603260045260246000fd5b6020026020010151611044565b60075482828151811061079f577f4e487b7100000000000000000000000000000000000000000000000000000000600052603260045260246000fd5b60200260200101818152505080806107b6906127f3565b9150506106ea565b5080915050919050565b6000806002600084815260200190815260200160002060009054906101000a900473ffffffffffffffffffffffffffffffffffffffff169050600073ffffffffffffffffffffffffffffffffffffffff168173ffffffffffffffffffffffffffffffffffffffff161415610871576040517f08c379a0000000000000000000000000000000000000000000000000000000008152600401610868906123d5565b60405180910390fd5b80915050919050565b60008073ffffffffffffffffffffffffffffffffffffffff168273ffffffffffffffffffffffffffffffffffffffff1614156108eb576040517f08c379a00000000000000000000000000000000000000000000000000000000081526004016108e2906123b5565b60405180910390fd5b600360008373ffffffffffffffffffffffffffffffffffffffff1673ffffffffffffffffffffffffffffffffffffffff168152602001908152602001600020549050919050565b60606001805461094190612790565b80601f016020809104026020016040519081016040528092919081815260200182805461096d90612790565b80156109ba5780601f1061098f576101008083540402835291602001916109ba565b820191906000526020600020905b81548152906001019060200180831161099d57829003601f168201915b5050505050905090565b60075481565b6109dc6109d5610cfe565b83836110b8565b5050565b6109f16109eb610cfe565b83611225565b610a30576040517f08c379a0000000000000000000000000000000000000000000000000000000008152600401610a27906124b5565b60405180910390fd5b610a3c84848484611303565b50505050565b6060610a4d82610c92565b610a8c576040517f08c379a0000000000000000000000000000000000000000000000000000000008152600401610a8390612435565b60405180910390fd5b6000600660008481526020019081526020016000208054610aac90612790565b80601f0160208091040260200160405190810160405280929190818152602001828054610ad890612790565b8015610b255780601f10610afa57610100808354040283529160200191610b25565b820191906000526020600020905b815481529060010190602001808311610b0857829003601f168201915b505050505090506000610b3661135f565b9050600081511415610b4c578192505050610b8f565b600082511115610b81578082604051602001610b699291906121eb565b60405160208183030381529060405292505050610b8f565b610b8a84611376565b925050505b919050565b6000600560008473ffffffffffffffffffffffffffffffffffffffff1673ffffffffffffffffffffffffffffffffffffffff16815260200190815260200160002060008373ffffffffffffffffffffffffffffffffffffffff1673ffffffffffffffffffffffffffffffffffffffff16815260200190815260200160002060009054906101000a900460ff16905092915050565b60007f01ffc9a7000000000000000000000000000000000000000000000000000000007bffffffffffffffffffffffffffffffffffffffffffffffffffffffff1916827bffffffffffffffffffffffffffffffffffffffffffffffffffffffff1916149050919050565b60008073ffffffffffffffffffffffffffffffffffffffff166002600084815260200190815260200160002060009054906101000a900473ffffffffffffffffffffffffffffffffffffffff1673ffffffffffffffffffffffffffffffffffffffff1614159050919050565b600033905090565b816004600083815260200190815260200160002060006101000a81548173ffffffffffffffffffffffffffffffffffffffff021916908373ffffffffffffffffffffffffffffffffffffffff160217905550808273ffffffffffffffffffffffffffffffffffffffff16610d79836107c8565b73ffffffffffffffffffffffffffffffffffffffff167f8c5be1e5ebec7d5bd14f71427d1e84f3dd0314c0f7b2291e5b200ac8c7c3b92560405160405180910390a45050565b8273ffffffffffffffffffffffffffffffffffffffff16610ddf826107c8565b73ffffffffffffffffffffffffffffffffffffffff1614610e35576040517f08c379a0000000000000000000000000000000000000000000000000000000008152600401610e2c906122f5565b60405180910390fd5b600073ffffffffffffffffffffffffffffffffffffffff168273ffffffffffffffffffffffffffffffffffffffff161415610ea5576040517f08c379a0000000000000000000000000000000000000000000000000000000008152600401610e9c90612335565b60405180910390fd5b610eb083838361141d565b610ebb600082610d06565b6001600360008573ffffffffffffffffffffffffffffffffffffffff1673ffffffffffffffffffffffffffffffffffffffff1681526020019081526020016000206000828254610f0b91906126a6565b925050819055506001600360008473ffffffffffffffffffffffffffffffffffffffff1673ffffffffffffffffffffffffffffffffffffffff1681526020019081526020016000206000828254610f62919061261f565b92505081905550816002600083815260200190815260200160002060006101000a81548173ffffffffffffffffffffffffffffffffffffffff021916908373ffffffffffffffffffffffffffffffffffffffff160217905550808273ffffffffffffffffffffffffffffffffffffffff168473ffffffffffffffffffffffffffffffffffffffff167fddf252ad1be2c89b69c2b068fc378daa952ba7f163c4a11628f55a4df523b3ef60405160405180910390a4611021838383611422565b505050565b611040828260405180602001604052806000815250611427565b5050565b61104d82610c92565b61108c576040517f08c379a0000000000000000000000000000000000000000000000000000000008152600401611083906123f5565b60405180910390fd5b806006600084815260200190815260200160002090805190602001906110b3929190611977565b505050565b8173ffffffffffffffffffffffffffffffffffffffff168373ffffffffffffffffffffffffffffffffffffffff161415611127576040517f08c379a000000000000000000000000000000000000000000000000000000000815260040161111e90612355565b60405180910390fd5b80600560008573ffffffffffffffffffffffffffffffffffffffff1673ffffffffffffffffffffffffffffffffffffffff16815260200190815260200160002060008473ffffffffffffffffffffffffffffffffffffffff1673ffffffffffffffffffffffffffffffffffffffff16815260200190815260200160002060006101000a81548160ff0219169083151502179055508173ffffffffffffffffffffffffffffffffffffffff168373ffffffffffffffffffffffffffffffffffffffff167f17307eab39ab6107e8899845ad3d59bd9653f200f220920489ca2b5937696c31836040516112189190612298565b60405180910390a3505050565b600061123082610c92565b61126f576040517f08c379a000000000000000000000000000000000000000000000000000000000815260040161126690612375565b60405180910390fd5b600061127a836107c8565b90508073ffffffffffffffffffffffffffffffffffffffff168473ffffffffffffffffffffffffffffffffffffffff1614806112bc57506112bb8185610b94565b5b806112fa57508373ffffffffffffffffffffffffffffffffffffffff166112e2846104a4565b73ffffffffffffffffffffffffffffffffffffffff16145b91505092915050565b61130e848484610dbf565b61131a84848484611436565b611359576040517f08c379a0000000000000000000000000000000000000000000000000000000008152600401611350906122d5565b60405180910390fd5b50505050565b606060405180602001604052806000815250905090565b606061138182610c92565b6113c0576040517f08c379a00000000000000000000000000000000000000000000000000000000081526004016113b790612475565b60405180910390fd5b60006113ca61135f565b905060008151116113ea5760405180602001604052806000815250611415565b806113f4846115cd565b6040516020016114059291906121eb565b6040516020818303038152906040525b915050919050565b505050565b505050565b611431838361177a565b505050565b60006114578473ffffffffffffffffffffffffffffffffffffffff16611954565b156115c0578373ffffffffffffffffffffffffffffffffffffffff1663150b7a02611480610cfe565b8786866040518563ffffffff1660e01b81526004016114a2949392919061222a565b602060405180830381600087803b1580156114bc57600080fd5b505af19250505080156114ed57506040513d601f19601f820116820180604052508101906114ea9190611e14565b60015b611570573d806000811461151d576040519150601f19603f3d011682016040523d82523d6000602084013e611522565b606091505b50600081511415611568576040517f08c379a000000000000000000000000000000000000000000000000000000000815260040161155f906122d5565b60405180910390fd5b805181602001fd5b63150b7a0260e01b7bffffffffffffffffffffffffffffffffffffffffffffffffffffffff1916817bffffffffffffffffffffffffffffffffffffffffffffffffffffffff1916149150506115c5565b600190505b949350505050565b60606000821415611615576040518060400160405280600181526020017f30000000000000000000000000000000000000000000000000000000000000008152509050611775565b600082905060005b60008214611647578080611630906127f3565b915050600a826116409190612675565b915061161d565b60008167ffffffffffffffff811115611689577f4e487b7100000000000000000000000000000000000000000000000000000000600052604160045260246000fd5b6040519080825280601f01601f1916602001820160405280156116bb5781602001600182028036833780820191505090505b5090505b6000851461176e576001826116d491906126a6565b9150600a856116e3919061283c565b60306116ef919061261f565b60f81b81838151811061172b577f4e487b7100000000000000000000000000000000000000000000000000000000600052603260045260246000fd5b60200101907effffffffffffffffffffffffffffffffffffffffffffffffffffffffffffff1916908160001a905350600a856117679190612675565b94506116bf565b8093505050505b919050565b600073ffffffffffffffffffffffffffffffffffffffff168273ffffffffffffffffffffffffffffffffffffffff1614156117ea576040517f08c379a00000000000000000000000000000000000000000000000000000000081526004016117e190612415565b60405180910390fd5b6117f381610c92565b15611833576040517f08c379a000000000000000000000000000000000000000000000000000000000815260040161182a90612315565b60405180910390fd5b61183f6000838361141d565b6001600360008473ffffffffffffffffffffffffffffffffffffffff1673ffffffffffffffffffffffffffffffffffffffff168152602001908152602001600020600082825461188f919061261f565b92505081905550816002600083815260200190815260200160002060006101000a81548173ffffffffffffffffffffffffffffffffffffffff021916908373ffffffffffffffffffffffffffffffffffffffff160217905550808273ffffffffffffffffffffffffffffffffffffffff16600073ffffffffffffffffffffffffffffffffffffffff167fddf252ad1be2c89b69c2b068fc378daa952ba7f163c4a11628f55a4df523b3ef60405160405180910390a461195060008383611422565b5050565b6000808273ffffffffffffffffffffffffffffffffffffffff163b119050919050565b82805461198390612790565b90600052602060002090601f0160209004810192826119a557600085556119ec565b82601f106119be57805160ff19168380011785556119ec565b828001600101855582156119ec579182015b828111156119eb5782518255916020019190600101906119d0565b5b5090506119f991906119fd565b5090565b5b80821115611a165760008160009055506001016119fe565b5090565b6000611a2d611a2884612515565b6124f0565b90508083825260208201905082856020860282011115611a4c57600080fd5b60005b85811015611a9657813567ffffffffffffffff811115611a6e57600080fd5b808601611a7b8982611bc4565b85526020850194506020840193505050600181019050611a4f565b5050509392505050565b6000611ab3611aae84612541565b6124f0565b905082815260208101848484011115611acb57600080fd5b611ad684828561274e565b509392505050565b6000611af1611aec84612572565b6124f0565b905082815260208101848484011115611b0957600080fd5b611b1484828561274e565b509392505050565b600081359050611b2b81612db8565b92915050565b600082601f830112611b4257600080fd5b8135611b52848260208601611a1a565b91505092915050565b600081359050611b6a81612dcf565b92915050565b600081359050611b7f81612de6565b92915050565b600081519050611b9481612de6565b92915050565b600082601f830112611bab57600080fd5b8135611bbb848260208601611aa0565b91505092915050565b600082601f830112611bd557600080fd5b8135611be5848260208601611ade565b91505092915050565b600081359050611bfd81612dfd565b92915050565b600060208284031215611c1557600080fd5b6000611c2384828501611b1c565b91505092915050565b60008060408385031215611c3f57600080fd5b6000611c4d85828601611b1c565b9250506020611c5e85828601611b1c565b9150509250929050565b600080600060608486031215611c7d57600080fd5b6000611c8b86828701611b1c565b9350506020611c9c86828701611b1c565b9250506040611cad86828701611bee565b9150509250925092565b60008060008060808587031215611ccd57600080fd5b6000611cdb87828801611b1c565b9450506020611cec87828801611b1c565b9350506040611cfd87828801611bee565b925050606085013567ffffffffffffffff811115611d1a57600080fd5b611d2687828801611b9a565b91505092959194509250565b60008060408385031215611d4557600080fd5b6000611d5385828601611b1c565b9250506020611d6485828601611b5b565b9150509250929050565b60008060408385031215611d8157600080fd5b6000611d8f85828601611b1c565b9250506020611da085828601611bee565b9150509250929050565b600060208284031215611dbc57600080fd5b600082013567ffffffffffffffff811115611dd657600080fd5b611de284828501611b31565b91505092915050565b600060208284031215611dfd57600080fd5b6000611e0b84828501611b70565b91505092915050565b600060208284031215611e2657600080fd5b6000611e3484828501611b85565b91505092915050565b600060208284031215611e4f57600080fd5b6000611e5d84828501611bee565b91505092915050565b6000611e7283836121cd565b60208301905092915050565b611e87816126da565b82525050565b6000611e98826125b3565b611ea281856125e1565b9350611ead836125a3565b8060005b83811015611ede578151611ec58882611e66565b9750611ed0836125d4565b925050600181019050611eb1565b5085935050505092915050565b611ef4816126ec565b82525050565b6000611f05826125be565b611f0f81856125f2565b9350611f1f81856020860161275d565b611f2881612929565b840191505092915050565b6000611f3e826125c9565b611f488185612603565b9350611f5881856020860161275d565b611f6181612929565b840191505092915050565b6000611f77826125c9565b611f818185612614565b9350611f9181856020860161275d565b80840191505092915050565b6000611faa603283612603565b9150611fb58261293a565b604082019050919050565b6000611fcd602583612603565b9150611fd882612989565b604082019050919050565b6000611ff0601c83612603565b9150611ffb826129d8565b602082019050919050565b6000612013602483612603565b915061201e82612a01565b604082019050919050565b6000612036601983612603565b915061204182612a50565b602082019050919050565b6000612059602c83612603565b915061206482612a79565b604082019050919050565b600061207c603883612603565b915061208782612ac8565b604082019050919050565b600061209f602a83612603565b91506120aa82612b17565b604082019050919050565b60006120c2602983612603565b91506120cd82612b66565b604082019050919050565b60006120e5602e83612603565b91506120f082612bb5565b604082019050919050565b6000612108602083612603565b915061211382612c04565b602082019050919050565b600061212b603183612603565b915061213682612c2d565b604082019050919050565b600061214e602c83612603565b915061215982612c7c565b604082019050919050565b6000612171602f83612603565b915061217c82612ccb565b604082019050919050565b6000612194602183612603565b915061219f82612d1a565b604082019050919050565b60006121b7603183612603565b91506121c282612d69565b604082019050919050565b6121d681612744565b82525050565b6121e581612744565b82525050565b60006121f78285611f6c565b91506122038284611f6c565b91508190509392505050565b60006020820190506122246000830184611e7e565b92915050565b600060808201905061223f6000830187611e7e565b61224c6020830186611e7e565b61225960408301856121dc565b818103606083015261226b8184611efa565b905095945050505050565b600060208201905081810360008301526122908184611e8d565b905092915050565b60006020820190506122ad6000830184611eeb565b92915050565b600060208201905081810360008301526122cd8184611f33565b905092915050565b600060208201905081810360008301526122ee81611f9d565b9050919050565b6000602082019050818103600083015261230e81611fc0565b9050919050565b6000602082019050818103600083015261232e81611fe3565b9050919050565b6000602082019050818103600083015261234e81612006565b9050919050565b6000602082019050818103600083015261236e81612029565b9050919050565b6000602082019050818103600083015261238e8161204c565b9050919050565b600060208201905081810360008301526123ae8161206f565b9050919050565b600060208201905081810360008301526123ce81612092565b9050919050565b600060208201905081810360008301526123ee816120b5565b9050919050565b6000602082019050818103600083015261240e816120d8565b9050919050565b6000602082019050818103600083015261242e816120fb565b9050919050565b6000602082019050818103600083015261244e8161211e565b9050919050565b6000602082019050818103600083015261246e81612141565b9050919050565b6000602082019050818103600083015261248e81612164565b9050919050565b600060208201905081810360008301526124ae81612187565b9050919050565b600060208201905081810360008301526124ce816121aa565b9050919050565b60006020820190506124ea60008301846121dc565b92915050565b60006124fa61250b565b905061250682826127c2565b919050565b6000604051905090565b600067ffffffffffffffff8211156125305761252f6128fa565b5b602082029050602081019050919050565b600067ffffffffffffffff82111561255c5761255b6128fa565b5b61256582612929565b9050602081019050919050565b600067ffffffffffffffff82111561258d5761258c6128fa565b5b61259682612929565b9050602081019050919050565b6000819050602082019050919050565b600081519050919050565b600081519050919050565b600081519050919050565b6000602082019050919050565b600082825260208201905092915050565b600082825260208201905092915050565b600082825260208201905092915050565b600081905092915050565b600061262a82612744565b915061263583612744565b9250827fffffffffffffffffffffffffffffffffffffffffffffffffffffffffffffffff0382111561266a5761266961286d565b5b828201905092915050565b600061268082612744565b915061268b83612744565b92508261269b5761269a61289c565b5b828204905092915050565b60006126b182612744565b91506126bc83612744565b9250828210156126cf576126ce61286d565b5b828203905092915050565b60006126e582612724565b9050919050565b60008115159050919050565b60007fffffffff0000000000000000000000000000000000000000000000000000000082169050919050565b600073ffffffffffffffffffffffffffffffffffffffff82169050919050565b6000819050919050565b82818337600083830152505050565b60005b8381101561277b578082015181840152602081019050612760565b8381111561278a576000848401525b50505050565b600060028204905060018216806127a857607f821691505b602082108114156127bc576127bb6128cb565b5b50919050565b6127cb82612929565b810181811067ffffffffffffffff821117156127ea576127e96128fa565b5b80604052505050565b60006127fe82612744565b91507fffffffffffffffffffffffffffffffffffffffffffffffffffffffffffffffff8214156128315761283061286d565b5b600182019050919050565b600061284782612744565b915061285283612744565b9250826128625761286161289c565b5b828206905092915050565b7f4e487b7100000000000000000000000000000000000000000000000000000000600052601160045260246000fd5b7f4e487b7100000000000000000000000000000000000000000000000000000000600052601260045260246000fd5b7f4e487b7100000000000000000000000000000000000000000000000000000000600052602260045260246000fd5b7f4e487b7100000000000000000000000000000000000000000000000000000000600052604160045260246000fd5b6000601f19601f8301169050919050565b7f4552433732313a207472616e7366657220746f206e6f6e20455243373231526560008201527f63656976657220696d706c656d656e7465720000000000000000000000000000602082015250565b7f4552433732313a207472616e736665722066726f6d20696e636f72726563742060008201527f6f776e6572000000000000000000000000000000000000000000000000000000602082015250565b7f4552433732313a20746f6b656e20616c7265616479206d696e74656400000000600082015250565b7f4552433732313a207472616e7366657220746f20746865207a65726f2061646460008201527f7265737300000000000000000000000000000000000000000000000000000000602082015250565b7f4552433732313a20617070726f766520746f2063616c6c657200000000000000600082015250565b7f4552433732313a206f70657261746f7220717565727920666f72206e6f6e657860008201527f697374656e7420746f6b656e0000000000000000000000000000000000000000602082015250565b7f4552433732313a20617070726f76652063616c6c6572206973206e6f74206f7760008201527f6e6572206e6f7220617070726f76656420666f7220616c6c0000000000000000602082015250565b7f4552433732313a2062616c616e636520717565727920666f7220746865207a6560008201527f726f206164647265737300000000000000000000000000000000000000000000602082015250565b7f4552433732313a206f776e657220717565727920666f72206e6f6e657869737460008201527f656e7420746f6b656e0000000000000000000000000000000000000000000000602082015250565b7f45524337323155524953746f726167653a2055524920736574206f66206e6f6e60008201527f6578697374656e7420746f6b656e000000000000000000000000000000000000602082015250565b7f4552433732313a206d696e7420746f20746865207a65726f2061646472657373600082015250565b7f45524337323155524953746f726167653a2055524920717565727920666f722060008201527f6e6f6e6578697374656e7420746f6b656e000000000000000000000000000000602082015250565b7f4552433732313a20617070726f76656420717565727920666f72206e6f6e657860008201527f697374656e7420746f6b656e0000000000000000000000000000000000000000602082015250565b7f4552433732314d657461646174613a2055524920717565727920666f72206e6f60008201527f6e6578697374656e7420746f6b656e0000000000000000000000000000000000602082015250565b7f4552433732313a20617070726f76616c20746f2063757272656e74206f776e6560008201527f7200000000000000000000000000000000000000000000000000000000000000602082015250565b7f4552433732313a207472616e736665722063616c6c6572206973206e6f74206f60008201527f776e6572206e6f7220617070726f766564000000000000000000000000000000602082015250565b612dc1816126da565b8114612dcc57600080fd5b50565b612dd8816126ec565b8114612de357600080fd5b50565b612def816126f8565b8114612dfa57600080fd5b50565b612e0681612744565b8114612e1157600080fd5b5056fea264697066735822122016909cf5ccae41ca4300ee66e550f7f0cf9df4f0a7a17ed413548ca70a3d9d1564736f6c63430008040033",
  "linkReferences": {},
  "deployedLinkReferences": {}
}