{
  "_format": "hh-sol-artifact-1",
  "contractName": "NFT",
  "sourceName": "src/solidity/contracts/NFT.sol",
  "abi": [
    {
      "inputs": [
        {
          "internalType": "address",
          "name": "_owner",
          "type": "address"
        }
      ],
      "stateMutability": "nonpayable",
      "type": "constructor"
    },
    {
      "anonymous": false,
      "inputs": [
        {
          "indexed": true,
          "internalType": "address",
          "name": "owner",
          "type": "address"
        },
        {
          "indexed": true,
          "internalType": "address",
          "name": "approved",
          "type": "address"
        },
        {
          "indexed": true,
          "internalType": "uint256",
          "name": "tokenId",
          "type": "uint256"
        }
      ],
      "name": "Approval",
      "type": "event"
    },
    {
      "anonymous": false,
      "inputs": [
        {
          "indexed": true,
          "internalType": "address",
          "name": "owner",
          "type": "address"
        },
        {
          "indexed": true,
          "internalType": "address",
          "name": "operator",
          "type": "address"
        },
        {
          "indexed": false,
          "internalType": "bool",
          "name": "approved",
          "type": "bool"
        }
      ],
      "name": "ApprovalForAll",
      "type": "event"
    },
    {
      "anonymous": false,
      "inputs": [
        {
          "indexed": true,
          "internalType": "address",
          "name": "from",
          "type": "address"
        },
        {
          "indexed": true,
          "internalType": "address",
          "name": "to",
          "type": "address"
        },
        {
          "indexed": true,
          "internalType": "uint256",
          "name": "tokenId",
          "type": "uint256"
        }
      ],
      "name": "Transfer",
      "type": "event"
    },
    {
      "inputs": [
        {
          "internalType": "address",
          "name": "to",
          "type": "address"
        },
        {
          "internalType": "uint256",
          "name": "tokenId",
          "type": "uint256"
        }
      ],
      "name": "approve",
      "outputs": [],
      "stateMutability": "nonpayable",
      "type": "function"
    },
    {
      "inputs": [
        {
          "internalType": "address",
          "name": "owner",
          "type": "address"
        }
      ],
      "name": "balanceOf",
      "outputs": [
        {
          "internalType": "uint256",
          "name": "",
          "type": "uint256"
        }
      ],
      "stateMutability": "view",
      "type": "function"
    },
    {
      "inputs": [
        {
          "internalType": "uint256",
          "name": "tokenId",
          "type": "uint256"
        }
      ],
      "name": "getApproved",
      "outputs": [
        {
          "internalType": "address",
          "name": "",
          "type": "address"
        }
      ],
      "stateMutability": "view",
      "type": "function"
    },
    {
      "inputs": [
        {
          "internalType": "address",
          "name": "owner",
          "type": "address"
        },
        {
          "internalType": "address",
          "name": "operator",
          "type": "address"
        }
      ],
      "name": "isApprovedForAll",
      "outputs": [
        {
          "internalType": "bool",
          "name": "",
          "type": "bool"
        }
      ],
      "stateMutability": "view",
      "type": "function"
    },
    {
      "inputs": [
        {
          "internalType": "uint256",
          "name": "",
          "type": "uint256"
        }
      ],
      "name": "lastTokensMinted",
      "outputs": [
        {
          "internalType": "uint256",
          "name": "",
          "type": "uint256"
        }
      ],
      "stateMutability": "view",
      "type": "function"
    },
    {
      "inputs": [
        {
          "internalType": "string[]",
          "name": "_tokenURIS",
          "type": "string[]"
        }
      ],
      "name": "mint",
      "outputs": [
        {
          "internalType": "uint256[]",
          "name": "",
          "type": "uint256[]"
        }
      ],
      "stateMutability": "nonpayable",
      "type": "function"
    },
    {
      "inputs": [],
      "name": "name",
      "outputs": [
        {
          "internalType": "string",
          "name": "",
          "type": "string"
        }
      ],
      "stateMutability": "view",
      "type": "function"
    },
    {
      "inputs": [
        {
          "internalType": "uint256",
          "name": "tokenId",
          "type": "uint256"
        }
      ],
      "name": "ownerOf",
      "outputs": [
        {
          "internalType": "address",
          "name": "",
          "type": "address"
        }
      ],
      "stateMutability": "view",
      "type": "function"
    },
    {
      "inputs": [
        {
          "internalType": "address",
          "name": "from",
          "type": "address"
        },
        {
          "internalType": "address",
          "name": "to",
          "type": "address"
        },
        {
          "internalType": "uint256",
          "name": "tokenId",
          "type": "uint256"
        }
      ],
      "name": "safeTransferFrom",
      "outputs": [],
      "stateMutability": "nonpayable",
      "type": "function"
    },
    {
      "inputs": [
        {
          "internalType": "address",
          "name": "from",
          "type": "address"
        },
        {
          "internalType": "address",
          "name": "to",
          "type": "address"
        },
        {
          "internalType": "uint256",
          "name": "tokenId",
          "type": "uint256"
        },
        {
          "internalType": "bytes",
          "name": "_data",
          "type": "bytes"
        }
      ],
      "name": "safeTransferFrom",
      "outputs": [],
      "stateMutability": "nonpayable",
      "type": "function"
    },
    {
      "inputs": [
        {
          "internalType": "address",
          "name": "operator",
          "type": "address"
        },
        {
          "internalType": "bool",
          "name": "approved",
          "type": "bool"
        }
      ],
      "name": "setApprovalForAll",
      "outputs": [],
      "stateMutability": "nonpayable",
      "type": "function"
    },
    {
      "inputs": [
        {
          "internalType": "bytes4",
          "name": "interfaceId",
          "type": "bytes4"
        }
      ],
      "name": "supportsInterface",
      "outputs": [
        {
          "internalType": "bool",
          "name": "",
          "type": "bool"
        }
      ],
      "stateMutability": "view",
      "type": "function"
    },
    {
      "inputs": [],
      "name": "symbol",
      "outputs": [
        {
          "internalType": "string",
          "name": "",
          "type": "string"
        }
      ],
      "stateMutability": "view",
      "type": "function"
    },
    {
      "inputs": [],
      "name": "tokenId",
      "outputs": [
        {
          "internalType": "uint256",
          "name": "",
          "type": "uint256"
        }
      ],
      "stateMutability": "view",
      "type": "function"
    },
    {
      "inputs": [
        {
          "internalType": "uint256",
          "name": "tokenId",
          "type": "uint256"
        }
      ],
      "name": "tokenURI",
      "outputs": [
        {
          "internalType": "string",
          "name": "",
          "type": "string"
        }
      ],
      "stateMutability": "view",
      "type": "function"
    },
    {
      "inputs": [
        {
          "internalType": "address",
          "name": "from",
          "type": "address"
        },
        {
          "internalType": "address",
          "name": "to",
          "type": "address"
        },
        {
          "internalType": "uint256",
          "name": "tokenId",
          "type": "uint256"
        }
      ],
      "name": "transferFrom",
      "outputs": [],
      "stateMutability": "nonpayable",
      "type": "function"
    }
  ],
  "bytecode": "0x60806040523480156200001157600080fd5b50604051620032d8380380620032d88339818101604052810190620000379190620001e6565b6040518060400160405280600b81526020017f47616d65722043617264730000000000000000000000000000000000000000008152506040518060400160405280600381526020017f45544800000000000000000000000000000000000000000000000000000000008152508160009080519060200190620000bb9291906200011f565b508060019080519060200190620000d49291906200011f565b50505080600960006101000a81548173ffffffffffffffffffffffffffffffffffffffff021916908373ffffffffffffffffffffffffffffffffffffffff16021790555050620002c5565b8280546200012d9062000246565b90600052602060002090601f0160209004810192826200015157600085556200019d565b82601f106200016c57805160ff19168380011785556200019d565b828001600101855582156200019d579182015b828111156200019c5782518255916020019190600101906200017f565b5b509050620001ac9190620001b0565b5090565b5b80821115620001cb576000816000905550600101620001b1565b5090565b600081519050620001e081620002ab565b92915050565b600060208284031215620001f957600080fd5b60006200020984828501620001cf565b91505092915050565b60006200021f8262000226565b9050919050565b600073ffffffffffffffffffffffffffffffffffffffff82169050919050565b600060028204905060018216806200025f57607f821691505b602082108114156200027657620002756200027c565b5b50919050565b7f4e487b7100000000000000000000000000000000000000000000000000000000600052602260045260246000fd5b620002b68162000212565b8114620002c257600080fd5b50565b61300380620002d56000396000f3fe608060405234801561001057600080fd5b50600436106101005760003560e01c80636352211e11610097578063b88d4fde11610066578063b88d4fde146102bf578063c1792e51146102db578063c87b56dd1461030b578063e985e9c51461033b57610100565b80636352211e1461022557806370a082311461025557806395d89b4114610285578063a22cb465146102a357610100565b806317d70f7c116100d357806317d70f7c1461019f57806323b872dd146101bd57806342842e0e146101d95780635768f271146101f557610100565b806301ffc9a71461010557806306fdde0314610135578063081812fc14610153578063095ea7b314610183575b600080fd5b61011f600480360381019061011a9190611fa4565b61036b565b60405161012c9190612451565b60405180910390f35b61013d61044d565b60405161014a919061246c565b60405180910390f35b61016d60048036038101906101689190611ff6565b6104df565b60405161017a91906123c8565b60405180910390f35b61019d60048036038101906101989190611f27565b610564565b005b6101a761067c565b6040516101b4919061268e565b60405180910390f35b6101d760048036038101906101d29190611e21565b610682565b005b6101f360048036038101906101ee9190611e21565b6106e2565b005b61020f600480360381019061020a9190611f63565b610702565b60405161021c919061242f565b60405180910390f35b61023f600480360381019061023a9190611ff6565b6108ca565b60405161024c91906123c8565b60405180910390f35b61026f600480360381019061026a9190611dbc565b61097c565b60405161027c919061268e565b60405180910390f35b61028d610a34565b60405161029a919061246c565b60405180910390f35b6102bd60048036038101906102b89190611eeb565b610ac6565b005b6102d960048036038101906102d49190611e70565b610adc565b005b6102f560048036038101906102f09190611ff6565b610b3e565b604051610302919061268e565b60405180910390f35b61032560048036038101906103209190611ff6565b610b62565b604051610332919061246c565b60405180910390f35b61035560048036038101906103509190611de5565b610cb4565b6040516103629190612451565b60405180910390f35b60007f80ac58cd000000000000000000000000000000000000000000000000000000007bffffffffffffffffffffffffffffffffffffffffffffffffffffffff1916827bffffffffffffffffffffffffffffffffffffffffffffffffffffffff1916148061043657507f5b5e139f000000000000000000000000000000000000000000000000000000007bffffffffffffffffffffffffffffffffffffffffffffffffffffffff1916827bffffffffffffffffffffffffffffffffffffffffffffffffffffffff1916145b80610446575061044582610d48565b5b9050919050565b60606000805461045c90612949565b80601f016020809104026020016040519081016040528092919081815260200182805461048890612949565b80156104d55780601f106104aa576101008083540402835291602001916104d5565b820191906000526020600020905b8154815290600101906020018083116104b857829003601f168201915b5050505050905090565b60006104ea82610db2565b610529576040517f08c379a00000000000000000000000000000000000000000000000000000000081526004016105209061260e565b60405180910390fd5b6004600083815260200190815260200160002060009054906101000a900473ffffffffffffffffffffffffffffffffffffffff169050919050565b600061056f826108ca565b90508073ffffffffffffffffffffffffffffffffffffffff168373ffffffffffffffffffffffffffffffffffffffff1614156105e0576040517f08c379a00000000000000000000000000000000000000000000000000000000081526004016105d79061264e565b60405180910390fd5b8073ffffffffffffffffffffffffffffffffffffffff166105ff610e1e565b73ffffffffffffffffffffffffffffffffffffffff16148061062e575061062d81610628610e1e565b610cb4565b5b61066d576040517f08c379a00000000000000000000000000000000000000000000000000000000081526004016106649061254e565b60405180910390fd5b6106778383610e26565b505050565b60075481565b61069361068d610e1e565b82610edf565b6106d2576040517f08c379a00000000000000000000000000000000000000000000000000000000081526004016106c99061266e565b60405180910390fd5b6106dd838383610fbd565b505050565b6106fd83838360405180602001604052806000815250610adc565b505050565b6060600960009054906101000a900473ffffffffffffffffffffffffffffffffffffffff1673ffffffffffffffffffffffffffffffffffffffff163373ffffffffffffffffffffffffffffffffffffffff161461075e57600080fd5b6000825167ffffffffffffffff8111156107a1577f4e487b7100000000000000000000000000000000000000000000000000000000600052604160045260246000fd5b6040519080825280602002602001820160405280156107cf5781602001602082028036833780820191505090505b50905060005b83518110156108a957600760008154809291906107f1906129ac565b919050555061080233600754611224565b61084e600754858381518110610841577f4e487b7100000000000000000000000000000000000000000000000000000000600052603260045260246000fd5b6020026020010151611242565b60075482828151811061088a577f4e487b7100000000000000000000000000000000000000000000000000000000600052603260045260246000fd5b60200260200101818152505080806108a1906129ac565b9150506107d5565b5080600890805190602001906108c0929190611ae3565b5080915050919050565b6000806002600084815260200190815260200160002060009054906101000a900473ffffffffffffffffffffffffffffffffffffffff169050600073ffffffffffffffffffffffffffffffffffffffff168173ffffffffffffffffffffffffffffffffffffffff161415610973576040517f08c379a000000000000000000000000000000000000000000000000000000000815260040161096a9061258e565b60405180910390fd5b80915050919050565b60008073ffffffffffffffffffffffffffffffffffffffff168273ffffffffffffffffffffffffffffffffffffffff1614156109ed576040517f08c379a00000000000000000000000000000000000000000000000000000000081526004016109e49061256e565b60405180910390fd5b600360008373ffffffffffffffffffffffffffffffffffffffff1673ffffffffffffffffffffffffffffffffffffffff168152602001908152602001600020549050919050565b606060018054610a4390612949565b80601f0160208091040260200160405190810160405280929190818152602001828054610a6f90612949565b8015610abc5780601f10610a9157610100808354040283529160200191610abc565b820191906000526020600020905b815481529060010190602001808311610a9f57829003601f168201915b5050505050905090565b610ad8610ad1610e1e565b83836112b6565b5050565b610aed610ae7610e1e565b83610edf565b610b2c576040517f08c379a0000000000000000000000000000000000000000000000000000000008152600401610b239061266e565b60405180910390fd5b610b3884848484611423565b50505050565b60088181548110610b4e57600080fd5b906000526020600020016000915090505481565b6060610b6d82610db2565b610bac576040517f08c379a0000000000000000000000000000000000000000000000000000000008152600401610ba3906125ee565b60405180910390fd5b6000600660008481526020019081526020016000208054610bcc90612949565b80601f0160208091040260200160405190810160405280929190818152602001828054610bf890612949565b8015610c455780601f10610c1a57610100808354040283529160200191610c45565b820191906000526020600020905b815481529060010190602001808311610c2857829003601f168201915b505050505090506000610c5661147f565b9050600081511415610c6c578192505050610caf565b600082511115610ca1578082604051602001610c899291906123a4565b60405160208183030381529060405292505050610caf565b610caa84611496565b925050505b919050565b6000600560008473ffffffffffffffffffffffffffffffffffffffff1673ffffffffffffffffffffffffffffffffffffffff16815260200190815260200160002060008373ffffffffffffffffffffffffffffffffffffffff1673ffffffffffffffffffffffffffffffffffffffff16815260200190815260200160002060009054906101000a900460ff16905092915050565b60007f01ffc9a7000000000000000000000000000000000000000000000000000000007bffffffffffffffffffffffffffffffffffffffffffffffffffffffff1916827bffffffffffffffffffffffffffffffffffffffffffffffffffffffff1916149050919050565b60008073ffffffffffffffffffffffffffffffffffffffff166002600084815260200190815260200160002060009054906101000a900473ffffffffffffffffffffffffffffffffffffffff1673ffffffffffffffffffffffffffffffffffffffff1614159050919050565b600033905090565b816004600083815260200190815260200160002060006101000a81548173ffffffffffffffffffffffffffffffffffffffff021916908373ffffffffffffffffffffffffffffffffffffffff160217905550808273ffffffffffffffffffffffffffffffffffffffff16610e99836108ca565b73ffffffffffffffffffffffffffffffffffffffff167f8c5be1e5ebec7d5bd14f71427d1e84f3dd0314c0f7b2291e5b200ac8c7c3b92560405160405180910390a45050565b6000610eea82610db2565b610f29576040517f08c379a0000000000000000000000000000000000000000000000000000000008152600401610f209061252e565b60405180910390fd5b6000610f34836108ca565b90508073ffffffffffffffffffffffffffffffffffffffff168473ffffffffffffffffffffffffffffffffffffffff161480610f765750610f758185610cb4565b5b80610fb457508373ffffffffffffffffffffffffffffffffffffffff16610f9c846104df565b73ffffffffffffffffffffffffffffffffffffffff16145b91505092915050565b8273ffffffffffffffffffffffffffffffffffffffff16610fdd826108ca565b73ffffffffffffffffffffffffffffffffffffffff1614611033576040517f08c379a000000000000000000000000000000000000000000000000000000000815260040161102a906124ae565b60405180910390fd5b600073ffffffffffffffffffffffffffffffffffffffff168273ffffffffffffffffffffffffffffffffffffffff1614156110a3576040517f08c379a000000000000000000000000000000000000000000000000000000000815260040161109a906124ee565b60405180910390fd5b6110ae83838361153d565b6110b9600082610e26565b6001600360008573ffffffffffffffffffffffffffffffffffffffff1673ffffffffffffffffffffffffffffffffffffffff1681526020019081526020016000206000828254611109919061285f565b925050819055506001600360008473ffffffffffffffffffffffffffffffffffffffff1673ffffffffffffffffffffffffffffffffffffffff168152602001908152602001600020600082825461116091906127d8565b92505081905550816002600083815260200190815260200160002060006101000a81548173ffffffffffffffffffffffffffffffffffffffff021916908373ffffffffffffffffffffffffffffffffffffffff160217905550808273ffffffffffffffffffffffffffffffffffffffff168473ffffffffffffffffffffffffffffffffffffffff167fddf252ad1be2c89b69c2b068fc378daa952ba7f163c4a11628f55a4df523b3ef60405160405180910390a461121f838383611542565b505050565b61123e828260405180602001604052806000815250611547565b5050565b61124b82610db2565b61128a576040517f08c379a0000000000000000000000000000000000000000000000000000000008152600401611281906125ae565b60405180910390fd5b806006600084815260200190815260200160002090805190602001906112b1929190611b30565b505050565b8173ffffffffffffffffffffffffffffffffffffffff168373ffffffffffffffffffffffffffffffffffffffff161415611325576040517f08c379a000000000000000000000000000000000000000000000000000000000815260040161131c9061250e565b60405180910390fd5b80600560008573ffffffffffffffffffffffffffffffffffffffff1673ffffffffffffffffffffffffffffffffffffffff16815260200190815260200160002060008473ffffffffffffffffffffffffffffffffffffffff1673ffffffffffffffffffffffffffffffffffffffff16815260200190815260200160002060006101000a81548160ff0219169083151502179055508173ffffffffffffffffffffffffffffffffffffffff168373ffffffffffffffffffffffffffffffffffffffff167f17307eab39ab6107e8899845ad3d59bd9653f200f220920489ca2b5937696c31836040516114169190612451565b60405180910390a3505050565b61142e848484610fbd565b61143a848484846115a2565b611479576040517f08c379a00000000000000000000000000000000000000000000000000000000081526004016114709061248e565b60405180910390fd5b50505050565b606060405180602001604052806000815250905090565b60606114a182610db2565b6114e0576040517f08c379a00000000000000000000000000000000000000000000000000000000081526004016114d79061262e565b60405180910390fd5b60006114ea61147f565b9050600081511161150a5760405180602001604052806000815250611535565b8061151484611739565b6040516020016115259291906123a4565b6040516020818303038152906040525b915050919050565b505050565b505050565b61155183836118e6565b61155e60008484846115a2565b61159d576040517f08c379a00000000000000000000000000000000000000000000000000000000081526004016115949061248e565b60405180910390fd5b505050565b60006115c38473ffffffffffffffffffffffffffffffffffffffff16611ac0565b1561172c578373ffffffffffffffffffffffffffffffffffffffff1663150b7a026115ec610e1e565b8786866040518563ffffffff1660e01b815260040161160e94939291906123e3565b602060405180830381600087803b15801561162857600080fd5b505af192505050801561165957506040513d601f19601f820116820180604052508101906116569190611fcd565b60015b6116dc573d8060008114611689576040519150601f19603f3d011682016040523d82523d6000602084013e61168e565b606091505b506000815114156116d4576040517f08c379a00000000000000000000000000000000000000000000000000000000081526004016116cb9061248e565b60405180910390fd5b805181602001fd5b63150b7a0260e01b7bffffffffffffffffffffffffffffffffffffffffffffffffffffffff1916817bffffffffffffffffffffffffffffffffffffffffffffffffffffffff191614915050611731565b600190505b949350505050565b60606000821415611781576040518060400160405280600181526020017f300000000000000000000000000000000000000000000000000000000000000081525090506118e1565b600082905060005b600082146117b357808061179c906129ac565b915050600a826117ac919061282e565b9150611789565b60008167ffffffffffffffff8111156117f5577f4e487b7100000000000000000000000000000000000000000000000000000000600052604160045260246000fd5b6040519080825280601f01601f1916602001820160405280156118275781602001600182028036833780820191505090505b5090505b600085146118da57600182611840919061285f565b9150600a8561184f91906129f5565b603061185b91906127d8565b60f81b818381518110611897577f4e487b7100000000000000000000000000000000000000000000000000000000600052603260045260246000fd5b60200101907effffffffffffffffffffffffffffffffffffffffffffffffffffffffffffff1916908160001a905350600a856118d3919061282e565b945061182b565b8093505050505b919050565b600073ffffffffffffffffffffffffffffffffffffffff168273ffffffffffffffffffffffffffffffffffffffff161415611956576040517f08c379a000000000000000000000000000000000000000000000000000000000815260040161194d906125ce565b60405180910390fd5b61195f81610db2565b1561199f576040517f08c379a0000000000000000000000000000000000000000000000000000000008152600401611996906124ce565b60405180910390fd5b6119ab6000838361153d565b6001600360008473ffffffffffffffffffffffffffffffffffffffff1673ffffffffffffffffffffffffffffffffffffffff16815260200190815260200160002060008282546119fb91906127d8565b92505081905550816002600083815260200190815260200160002060006101000a81548173ffffffffffffffffffffffffffffffffffffffff021916908373ffffffffffffffffffffffffffffffffffffffff160217905550808273ffffffffffffffffffffffffffffffffffffffff16600073ffffffffffffffffffffffffffffffffffffffff167fddf252ad1be2c89b69c2b068fc378daa952ba7f163c4a11628f55a4df523b3ef60405160405180910390a4611abc60008383611542565b5050565b6000808273ffffffffffffffffffffffffffffffffffffffff163b119050919050565b828054828255906000526020600020908101928215611b1f579160200282015b82811115611b1e578251825591602001919060010190611b03565b5b509050611b2c9190611bb6565b5090565b828054611b3c90612949565b90600052602060002090601f016020900481019282611b5e5760008555611ba5565b82601f10611b7757805160ff1916838001178555611ba5565b82800160010185558215611ba5579182015b82811115611ba4578251825591602001919060010190611b89565b5b509050611bb29190611bb6565b5090565b5b80821115611bcf576000816000905550600101611bb7565b5090565b6000611be6611be1846126ce565b6126a9565b90508083825260208201905082856020860282011115611c0557600080fd5b60005b85811015611c4f57813567ffffffffffffffff811115611c2757600080fd5b808601611c348982611d7d565b85526020850194506020840193505050600181019050611c08565b5050509392505050565b6000611c6c611c67846126fa565b6126a9565b905082815260208101848484011115611c8457600080fd5b611c8f848285612907565b509392505050565b6000611caa611ca58461272b565b6126a9565b905082815260208101848484011115611cc257600080fd5b611ccd848285612907565b509392505050565b600081359050611ce481612f71565b92915050565b600082601f830112611cfb57600080fd5b8135611d0b848260208601611bd3565b91505092915050565b600081359050611d2381612f88565b92915050565b600081359050611d3881612f9f565b92915050565b600081519050611d4d81612f9f565b92915050565b600082601f830112611d6457600080fd5b8135611d74848260208601611c59565b91505092915050565b600082601f830112611d8e57600080fd5b8135611d9e848260208601611c97565b91505092915050565b600081359050611db681612fb6565b92915050565b600060208284031215611dce57600080fd5b6000611ddc84828501611cd5565b91505092915050565b60008060408385031215611df857600080fd5b6000611e0685828601611cd5565b9250506020611e1785828601611cd5565b9150509250929050565b600080600060608486031215611e3657600080fd5b6000611e4486828701611cd5565b9350506020611e5586828701611cd5565b9250506040611e6686828701611da7565b9150509250925092565b60008060008060808587031215611e8657600080fd5b6000611e9487828801611cd5565b9450506020611ea587828801611cd5565b9350506040611eb687828801611da7565b925050606085013567ffffffffffffffff811115611ed357600080fd5b611edf87828801611d53565b91505092959194509250565b60008060408385031215611efe57600080fd5b6000611f0c85828601611cd5565b9250506020611f1d85828601611d14565b9150509250929050565b60008060408385031215611f3a57600080fd5b6000611f4885828601611cd5565b9250506020611f5985828601611da7565b9150509250929050565b600060208284031215611f7557600080fd5b600082013567ffffffffffffffff811115611f8f57600080fd5b611f9b84828501611cea565b91505092915050565b600060208284031215611fb657600080fd5b6000611fc484828501611d29565b91505092915050565b600060208284031215611fdf57600080fd5b6000611fed84828501611d3e565b91505092915050565b60006020828403121561200857600080fd5b600061201684828501611da7565b91505092915050565b600061202b8383612386565b60208301905092915050565b61204081612893565b82525050565b60006120518261276c565b61205b818561279a565b93506120668361275c565b8060005b8381101561209757815161207e888261201f565b97506120898361278d565b92505060018101905061206a565b5085935050505092915050565b6120ad816128a5565b82525050565b60006120be82612777565b6120c881856127ab565b93506120d8818560208601612916565b6120e181612ae2565b840191505092915050565b60006120f782612782565b61210181856127bc565b9350612111818560208601612916565b61211a81612ae2565b840191505092915050565b600061213082612782565b61213a81856127cd565b935061214a818560208601612916565b80840191505092915050565b60006121636032836127bc565b915061216e82612af3565b604082019050919050565b60006121866025836127bc565b915061219182612b42565b604082019050919050565b60006121a9601c836127bc565b91506121b482612b91565b602082019050919050565b60006121cc6024836127bc565b91506121d782612bba565b604082019050919050565b60006121ef6019836127bc565b91506121fa82612c09565b602082019050919050565b6000612212602c836127bc565b915061221d82612c32565b604082019050919050565b60006122356038836127bc565b915061224082612c81565b604082019050919050565b6000612258602a836127bc565b915061226382612cd0565b604082019050919050565b600061227b6029836127bc565b915061228682612d1f565b604082019050919050565b600061229e602e836127bc565b91506122a982612d6e565b604082019050919050565b60006122c16020836127bc565b91506122cc82612dbd565b602082019050919050565b60006122e46031836127bc565b91506122ef82612de6565b604082019050919050565b6000612307602c836127bc565b915061231282612e35565b604082019050919050565b600061232a602f836127bc565b915061233582612e84565b604082019050919050565b600061234d6021836127bc565b915061235882612ed3565b604082019050919050565b60006123706031836127bc565b915061237b82612f22565b604082019050919050565b61238f816128fd565b82525050565b61239e816128fd565b82525050565b60006123b08285612125565b91506123bc8284612125565b91508190509392505050565b60006020820190506123dd6000830184612037565b92915050565b60006080820190506123f86000830187612037565b6124056020830186612037565b6124126040830185612395565b818103606083015261242481846120b3565b905095945050505050565b600060208201905081810360008301526124498184612046565b905092915050565b600060208201905061246660008301846120a4565b92915050565b6000602082019050818103600083015261248681846120ec565b905092915050565b600060208201905081810360008301526124a781612156565b9050919050565b600060208201905081810360008301526124c781612179565b9050919050565b600060208201905081810360008301526124e78161219c565b9050919050565b60006020820190508181036000830152612507816121bf565b9050919050565b60006020820190508181036000830152612527816121e2565b9050919050565b6000602082019050818103600083015261254781612205565b9050919050565b6000602082019050818103600083015261256781612228565b9050919050565b600060208201905081810360008301526125878161224b565b9050919050565b600060208201905081810360008301526125a78161226e565b9050919050565b600060208201905081810360008301526125c781612291565b9050919050565b600060208201905081810360008301526125e7816122b4565b9050919050565b60006020820190508181036000830152612607816122d7565b9050919050565b60006020820190508181036000830152612627816122fa565b9050919050565b600060208201905081810360008301526126478161231d565b9050919050565b6000602082019050818103600083015261266781612340565b9050919050565b6000602082019050818103600083015261268781612363565b9050919050565b60006020820190506126a36000830184612395565b92915050565b60006126b36126c4565b90506126bf828261297b565b919050565b6000604051905090565b600067ffffffffffffffff8211156126e9576126e8612ab3565b5b602082029050602081019050919050565b600067ffffffffffffffff82111561271557612714612ab3565b5b61271e82612ae2565b9050602081019050919050565b600067ffffffffffffffff82111561274657612745612ab3565b5b61274f82612ae2565b9050602081019050919050565b6000819050602082019050919050565b600081519050919050565b600081519050919050565b600081519050919050565b6000602082019050919050565b600082825260208201905092915050565b600082825260208201905092915050565b600082825260208201905092915050565b600081905092915050565b60006127e3826128fd565b91506127ee836128fd565b9250827fffffffffffffffffffffffffffffffffffffffffffffffffffffffffffffffff0382111561282357612822612a26565b5b828201905092915050565b6000612839826128fd565b9150612844836128fd565b92508261285457612853612a55565b5b828204905092915050565b600061286a826128fd565b9150612875836128fd565b92508282101561288857612887612a26565b5b828203905092915050565b600061289e826128dd565b9050919050565b60008115159050919050565b60007fffffffff0000000000000000000000000000000000000000000000000000000082169050919050565b600073ffffffffffffffffffffffffffffffffffffffff82169050919050565b6000819050919050565b82818337600083830152505050565b60005b83811015612934578082015181840152602081019050612919565b83811115612943576000848401525b50505050565b6000600282049050600182168061296157607f821691505b6020821081141561297557612974612a84565b5b50919050565b61298482612ae2565b810181811067ffffffffffffffff821117156129a3576129a2612ab3565b5b80604052505050565b60006129b7826128fd565b91507fffffffffffffffffffffffffffffffffffffffffffffffffffffffffffffffff8214156129ea576129e9612a26565b5b600182019050919050565b6000612a00826128fd565b9150612a0b836128fd565b925082612a1b57612a1a612a55565b5b828206905092915050565b7f4e487b7100000000000000000000000000000000000000000000000000000000600052601160045260246000fd5b7f4e487b7100000000000000000000000000000000000000000000000000000000600052601260045260246000fd5b7f4e487b7100000000000000000000000000000000000000000000000000000000600052602260045260246000fd5b7f4e487b7100000000000000000000000000000000000000000000000000000000600052604160045260246000fd5b6000601f19601f8301169050919050565b7f4552433732313a207472616e7366657220746f206e6f6e20455243373231526560008201527f63656976657220696d706c656d656e7465720000000000000000000000000000602082015250565b7f4552433732313a207472616e736665722066726f6d20696e636f72726563742060008201527f6f776e6572000000000000000000000000000000000000000000000000000000602082015250565b7f4552433732313a20746f6b656e20616c7265616479206d696e74656400000000600082015250565b7f4552433732313a207472616e7366657220746f20746865207a65726f2061646460008201527f7265737300000000000000000000000000000000000000000000000000000000602082015250565b7f4552433732313a20617070726f766520746f2063616c6c657200000000000000600082015250565b7f4552433732313a206f70657261746f7220717565727920666f72206e6f6e657860008201527f697374656e7420746f6b656e0000000000000000000000000000000000000000602082015250565b7f4552433732313a20617070726f76652063616c6c6572206973206e6f74206f7760008201527f6e6572206e6f7220617070726f76656420666f7220616c6c0000000000000000602082015250565b7f4552433732313a2062616c616e636520717565727920666f7220746865207a6560008201527f726f206164647265737300000000000000000000000000000000000000000000602082015250565b7f4552433732313a206f776e657220717565727920666f72206e6f6e657869737460008201527f656e7420746f6b656e0000000000000000000000000000000000000000000000602082015250565b7f45524337323155524953746f726167653a2055524920736574206f66206e6f6e60008201527f6578697374656e7420746f6b656e000000000000000000000000000000000000602082015250565b7f4552433732313a206d696e7420746f20746865207a65726f2061646472657373600082015250565b7f45524337323155524953746f726167653a2055524920717565727920666f722060008201527f6e6f6e6578697374656e7420746f6b656e000000000000000000000000000000602082015250565b7f4552433732313a20617070726f76656420717565727920666f72206e6f6e657860008201527f697374656e7420746f6b656e0000000000000000000000000000000000000000602082015250565b7f4552433732314d657461646174613a2055524920717565727920666f72206e6f60008201527f6e6578697374656e7420746f6b656e0000000000000000000000000000000000602082015250565b7f4552433732313a20617070726f76616c20746f2063757272656e74206f776e6560008201527f7200000000000000000000000000000000000000000000000000000000000000602082015250565b7f4552433732313a207472616e736665722063616c6c6572206973206e6f74206f60008201527f776e6572206e6f7220617070726f766564000000000000000000000000000000602082015250565b612f7a81612893565b8114612f8557600080fd5b50565b612f91816128a5565b8114612f9c57600080fd5b50565b612fa8816128b1565b8114612fb357600080fd5b50565b612fbf816128fd565b8114612fca57600080fd5b5056fea26469706673582212209bcdf1d334a187625f30f3414f7b69c20cbda578248de459ac580fb469e002ec64736f6c63430008040033",
  "linkReferences": {},
  "deployedLinkReferences": {}
}