{
  "_format": "hh-sol-artifact-1",
  "contractName": "NFT",
  "sourceName": "src/solidity/contracts/NFT.sol",
  "abi": [
    {
      "inputs": [
        {
          "internalType": "address",
          "name": "_owner",
          "type": "address"
        }
      ],
      "stateMutability": "nonpayable",
      "type": "constructor"
    },
    {
      "anonymous": false,
      "inputs": [
        {
          "indexed": true,
          "internalType": "address",
          "name": "owner",
          "type": "address"
        },
        {
          "indexed": true,
          "internalType": "address",
          "name": "approved",
          "type": "address"
        },
        {
          "indexed": true,
          "internalType": "uint256",
          "name": "tokenId",
          "type": "uint256"
        }
      ],
      "name": "Approval",
      "type": "event"
    },
    {
      "anonymous": false,
      "inputs": [
        {
          "indexed": true,
          "internalType": "address",
          "name": "owner",
          "type": "address"
        },
        {
          "indexed": true,
          "internalType": "address",
          "name": "operator",
          "type": "address"
        },
        {
          "indexed": false,
          "internalType": "bool",
          "name": "approved",
          "type": "bool"
        }
      ],
      "name": "ApprovalForAll",
      "type": "event"
    },
    {
      "anonymous": false,
      "inputs": [
        {
          "indexed": true,
          "internalType": "address",
          "name": "from",
          "type": "address"
        },
        {
          "indexed": true,
          "internalType": "address",
          "name": "to",
          "type": "address"
        },
        {
          "indexed": true,
          "internalType": "uint256",
          "name": "tokenId",
          "type": "uint256"
        }
      ],
      "name": "Transfer",
      "type": "event"
    },
    {
      "inputs": [
        {
          "internalType": "address",
          "name": "to",
          "type": "address"
        },
        {
          "internalType": "uint256",
          "name": "tokenId",
          "type": "uint256"
        }
      ],
      "name": "approve",
      "outputs": [],
      "stateMutability": "nonpayable",
      "type": "function"
    },
    {
      "inputs": [
        {
          "internalType": "address",
          "name": "owner",
          "type": "address"
        }
      ],
      "name": "balanceOf",
      "outputs": [
        {
          "internalType": "uint256",
          "name": "",
          "type": "uint256"
        }
      ],
      "stateMutability": "view",
      "type": "function"
    },
    {
      "inputs": [
        {
          "internalType": "uint256",
          "name": "tokenId",
          "type": "uint256"
        }
      ],
      "name": "getApproved",
      "outputs": [
        {
          "internalType": "address",
          "name": "",
          "type": "address"
        }
      ],
      "stateMutability": "view",
      "type": "function"
    },
    {
      "inputs": [
        {
          "internalType": "address",
          "name": "owner",
          "type": "address"
        },
        {
          "internalType": "address",
          "name": "operator",
          "type": "address"
        }
      ],
      "name": "isApprovedForAll",
      "outputs": [
        {
          "internalType": "bool",
          "name": "",
          "type": "bool"
        }
      ],
      "stateMutability": "view",
      "type": "function"
    },
    {
      "inputs": [
        {
          "internalType": "string[]",
          "name": "_tokenURIS",
          "type": "string[]"
        }
      ],
      "name": "mint",
      "outputs": [
        {
          "internalType": "uint256[]",
          "name": "",
          "type": "uint256[]"
        }
      ],
      "stateMutability": "nonpayable",
      "type": "function"
    },
    {
      "inputs": [],
      "name": "name",
      "outputs": [
        {
          "internalType": "string",
          "name": "",
          "type": "string"
        }
      ],
      "stateMutability": "view",
      "type": "function"
    },
    {
      "inputs": [
        {
          "internalType": "uint256",
          "name": "tokenId",
          "type": "uint256"
        }
      ],
      "name": "ownerOf",
      "outputs": [
        {
          "internalType": "address",
          "name": "",
          "type": "address"
        }
      ],
      "stateMutability": "view",
      "type": "function"
    },
    {
      "inputs": [
        {
          "internalType": "address",
          "name": "from",
          "type": "address"
        },
        {
          "internalType": "address",
          "name": "to",
          "type": "address"
        },
        {
          "internalType": "uint256",
          "name": "tokenId",
          "type": "uint256"
        }
      ],
      "name": "safeTransferFrom",
      "outputs": [],
      "stateMutability": "nonpayable",
      "type": "function"
    },
    {
      "inputs": [
        {
          "internalType": "address",
          "name": "from",
          "type": "address"
        },
        {
          "internalType": "address",
          "name": "to",
          "type": "address"
        },
        {
          "internalType": "uint256",
          "name": "tokenId",
          "type": "uint256"
        },
        {
          "internalType": "bytes",
          "name": "_data",
          "type": "bytes"
        }
      ],
      "name": "safeTransferFrom",
      "outputs": [],
      "stateMutability": "nonpayable",
      "type": "function"
    },
    {
      "inputs": [
        {
          "internalType": "address",
          "name": "operator",
          "type": "address"
        },
        {
          "internalType": "bool",
          "name": "approved",
          "type": "bool"
        }
      ],
      "name": "setApprovalForAll",
      "outputs": [],
      "stateMutability": "nonpayable",
      "type": "function"
    },
    {
      "inputs": [
        {
          "internalType": "bytes4",
          "name": "interfaceId",
          "type": "bytes4"
        }
      ],
      "name": "supportsInterface",
      "outputs": [
        {
          "internalType": "bool",
          "name": "",
          "type": "bool"
        }
      ],
      "stateMutability": "view",
      "type": "function"
    },
    {
      "inputs": [],
      "name": "symbol",
      "outputs": [
        {
          "internalType": "string",
          "name": "",
          "type": "string"
        }
      ],
      "stateMutability": "view",
      "type": "function"
    },
    {
      "inputs": [],
      "name": "tokenCount",
      "outputs": [
        {
          "internalType": "uint256",
          "name": "",
          "type": "uint256"
        }
      ],
      "stateMutability": "view",
      "type": "function"
    },
    {
      "inputs": [
        {
          "internalType": "uint256",
          "name": "tokenId",
          "type": "uint256"
        }
      ],
      "name": "tokenURI",
      "outputs": [
        {
          "internalType": "string",
          "name": "",
          "type": "string"
        }
      ],
      "stateMutability": "view",
      "type": "function"
    },
    {
      "inputs": [
        {
          "internalType": "address",
          "name": "from",
          "type": "address"
        },
        {
          "internalType": "address",
          "name": "to",
          "type": "address"
        },
        {
          "internalType": "uint256",
          "name": "tokenId",
          "type": "uint256"
        }
      ],
      "name": "transferFrom",
      "outputs": [],
      "stateMutability": "nonpayable",
      "type": "function"
    }
  ],
  "bytecode": "0x60806040523480156200001157600080fd5b5060405162003510380380620035108339818101604052810190620000379190620001e6565b6040518060400160405280600b81526020017f47616d65722043617264730000000000000000000000000000000000000000008152506040518060400160405280600381526020017f45544800000000000000000000000000000000000000000000000000000000008152508160009080519060200190620000bb9291906200011f565b508060019080519060200190620000d49291906200011f565b50505080600860006101000a81548173ffffffffffffffffffffffffffffffffffffffff021916908373ffffffffffffffffffffffffffffffffffffffff16021790555050620002c5565b8280546200012d9062000246565b90600052602060002090601f0160209004810192826200015157600085556200019d565b82601f106200016c57805160ff19168380011785556200019d565b828001600101855582156200019d579182015b828111156200019c5782518255916020019190600101906200017f565b5b509050620001ac9190620001b0565b5090565b5b80821115620001cb576000816000905550600101620001b1565b5090565b600081519050620001e081620002ab565b92915050565b600060208284031215620001f957600080fd5b60006200020984828501620001cf565b91505092915050565b60006200021f8262000226565b9050919050565b600073ffffffffffffffffffffffffffffffffffffffff82169050919050565b600060028204905060018216806200025f57607f821691505b602082108114156200027657620002756200027c565b5b50919050565b7f4e487b7100000000000000000000000000000000000000000000000000000000600052602260045260246000fd5b620002b68162000212565b8114620002c257600080fd5b50565b61323b80620002d56000396000f3fe608060405234801561001057600080fd5b50600436106100f55760003560e01c80636352211e11610097578063a22cb46511610066578063a22cb46514610298578063b88d4fde146102b4578063c87b56dd146102d0578063e985e9c514610300576100f5565b80636352211e146101fc57806370a082311461022c57806395d89b411461025c5780639f181b5e1461027a576100f5565b8063095ea7b3116100d3578063095ea7b31461017857806323b872dd1461019457806342842e0e146101b05780635768f271146101cc576100f5565b806301ffc9a7146100fa57806306fdde031461012a578063081812fc14610148575b600080fd5b610114600480360381019061010f919061217c565b610330565b6040516101219190612629565b60405180910390f35b610132610412565b60405161013f9190612644565b60405180910390f35b610162600480360381019061015d91906121ce565b6104a4565b60405161016f91906125a0565b60405180910390f35b610192600480360381019061018d91906120ff565b610529565b005b6101ae60048036038101906101a99190611ff9565b610641565b005b6101ca60048036038101906101c59190611ff9565b6106a1565b005b6101e660048036038101906101e1919061213b565b6106c1565b6040516101f39190612607565b60405180910390f35b610216600480360381019061021191906121ce565b610913565b60405161022391906125a0565b60405180910390f35b61024660048036038101906102419190611f94565b6109c5565b60405161025391906128c6565b60405180910390f35b610264610a7d565b6040516102719190612644565b60405180910390f35b610282610b0f565b60405161028f91906128c6565b60405180910390f35b6102b260048036038101906102ad91906120c3565b610b15565b005b6102ce60048036038101906102c99190612048565b610b2b565b005b6102ea60048036038101906102e591906121ce565b610b8d565b6040516102f79190612644565b60405180910390f35b61031a60048036038101906103159190611fbd565b610cdf565b6040516103279190612629565b60405180910390f35b60007f80ac58cd000000000000000000000000000000000000000000000000000000007bffffffffffffffffffffffffffffffffffffffffffffffffffffffff1916827bffffffffffffffffffffffffffffffffffffffffffffffffffffffff191614806103fb57507f5b5e139f000000000000000000000000000000000000000000000000000000007bffffffffffffffffffffffffffffffffffffffffffffffffffffffff1916827bffffffffffffffffffffffffffffffffffffffffffffffffffffffff1916145b8061040b575061040a82610d73565b5b9050919050565b60606000805461042190612b81565b80601f016020809104026020016040519081016040528092919081815260200182805461044d90612b81565b801561049a5780601f1061046f5761010080835404028352916020019161049a565b820191906000526020600020905b81548152906001019060200180831161047d57829003601f168201915b5050505050905090565b60006104af82610ddd565b6104ee576040517f08c379a00000000000000000000000000000000000000000000000000000000081526004016104e590612846565b60405180910390fd5b6004600083815260200190815260200160002060009054906101000a900473ffffffffffffffffffffffffffffffffffffffff169050919050565b600061053482610913565b90508073ffffffffffffffffffffffffffffffffffffffff168373ffffffffffffffffffffffffffffffffffffffff1614156105a5576040517f08c379a000000000000000000000000000000000000000000000000000000000815260040161059c90612886565b60405180910390fd5b8073ffffffffffffffffffffffffffffffffffffffff166105c4610e49565b73ffffffffffffffffffffffffffffffffffffffff1614806105f357506105f2816105ed610e49565b610cdf565b5b610632576040517f08c379a000000000000000000000000000000000000000000000000000000000815260040161062990612786565b60405180910390fd5b61063c8383610e51565b505050565b61065261064c610e49565b82610f0a565b610691576040517f08c379a0000000000000000000000000000000000000000000000000000000008152600401610688906128a6565b60405180910390fd5b61069c838383610fe8565b505050565b6106bc83838360405180602001604052806000815250610b2b565b505050565b60606107016040518060400160405280601181526020017f45454545454e54524f20414c204d494e5400000000000000000000000000000081525061124f565b6107416040518060400160405280601381526020017f5f746f6b656e555249532e6c656e6774683a200000000000000000000000000081525083516112e8565b6000825167ffffffffffffffff811115610784577f4e487b7100000000000000000000000000000000000000000000000000000000600052604160045260246000fd5b6040519080825280602002602001820160405280156107b25781602001602082028036833780820191505090505b50905060005b8351811015610909576107ff6040518060400160405280601081526020017f454e54524f20414c20464f4f4f4f4f520000000000000000000000000000000081525061124f565b61083e6040518060400160405280601681526020017f6d73672e73656e64657220656e20656c204e46543a200000000000000000000081525033611384565b6007600081548092919061085190612be4565b919050555061086233600754611420565b6108ae6007548583815181106108a1577f4e487b7100000000000000000000000000000000000000000000000000000000600052603260045260246000fd5b602002602001015161143e565b6007548282815181106108ea577f4e487b7100000000000000000000000000000000000000000000000000000000600052603260045260246000fd5b602002602001018181525050808061090190612be4565b9150506107b8565b5080915050919050565b6000806002600084815260200190815260200160002060009054906101000a900473ffffffffffffffffffffffffffffffffffffffff169050600073ffffffffffffffffffffffffffffffffffffffff168173ffffffffffffffffffffffffffffffffffffffff1614156109bc576040517f08c379a00000000000000000000000000000000000000000000000000000000081526004016109b3906127c6565b60405180910390fd5b80915050919050565b60008073ffffffffffffffffffffffffffffffffffffffff168273ffffffffffffffffffffffffffffffffffffffff161415610a36576040517f08c379a0000000000000000000000000000000000000000000000000000000008152600401610a2d906127a6565b60405180910390fd5b600360008373ffffffffffffffffffffffffffffffffffffffff1673ffffffffffffffffffffffffffffffffffffffff168152602001908152602001600020549050919050565b606060018054610a8c90612b81565b80601f0160208091040260200160405190810160405280929190818152602001828054610ab890612b81565b8015610b055780601f10610ada57610100808354040283529160200191610b05565b820191906000526020600020905b815481529060010190602001808311610ae857829003601f168201915b5050505050905090565b60075481565b610b27610b20610e49565b83836114b2565b5050565b610b3c610b36610e49565b83610f0a565b610b7b576040517f08c379a0000000000000000000000000000000000000000000000000000000008152600401610b72906128a6565b60405180910390fd5b610b878484848461161f565b50505050565b6060610b9882610ddd565b610bd7576040517f08c379a0000000000000000000000000000000000000000000000000000000008152600401610bce90612826565b60405180910390fd5b6000600660008481526020019081526020016000208054610bf790612b81565b80601f0160208091040260200160405190810160405280929190818152602001828054610c2390612b81565b8015610c705780601f10610c4557610100808354040283529160200191610c70565b820191906000526020600020905b815481529060010190602001808311610c5357829003601f168201915b505050505090506000610c8161167b565b9050600081511415610c97578192505050610cda565b600082511115610ccc578082604051602001610cb492919061257c565b60405160208183030381529060405292505050610cda565b610cd584611692565b925050505b919050565b6000600560008473ffffffffffffffffffffffffffffffffffffffff1673ffffffffffffffffffffffffffffffffffffffff16815260200190815260200160002060008373ffffffffffffffffffffffffffffffffffffffff1673ffffffffffffffffffffffffffffffffffffffff16815260200190815260200160002060009054906101000a900460ff16905092915050565b60007f01ffc9a7000000000000000000000000000000000000000000000000000000007bffffffffffffffffffffffffffffffffffffffffffffffffffffffff1916827bffffffffffffffffffffffffffffffffffffffffffffffffffffffff1916149050919050565b60008073ffffffffffffffffffffffffffffffffffffffff166002600084815260200190815260200160002060009054906101000a900473ffffffffffffffffffffffffffffffffffffffff1673ffffffffffffffffffffffffffffffffffffffff1614159050919050565b600033905090565b816004600083815260200190815260200160002060006101000a81548173ffffffffffffffffffffffffffffffffffffffff021916908373ffffffffffffffffffffffffffffffffffffffff160217905550808273ffffffffffffffffffffffffffffffffffffffff16610ec483610913565b73ffffffffffffffffffffffffffffffffffffffff167f8c5be1e5ebec7d5bd14f71427d1e84f3dd0314c0f7b2291e5b200ac8c7c3b92560405160405180910390a45050565b6000610f1582610ddd565b610f54576040517f08c379a0000000000000000000000000000000000000000000000000000000008152600401610f4b90612766565b60405180910390fd5b6000610f5f83610913565b90508073ffffffffffffffffffffffffffffffffffffffff168473ffffffffffffffffffffffffffffffffffffffff161480610fa15750610fa08185610cdf565b5b80610fdf57508373ffffffffffffffffffffffffffffffffffffffff16610fc7846104a4565b73ffffffffffffffffffffffffffffffffffffffff16145b91505092915050565b8273ffffffffffffffffffffffffffffffffffffffff1661100882610913565b73ffffffffffffffffffffffffffffffffffffffff161461105e576040517f08c379a0000000000000000000000000000000000000000000000000000000008152600401611055906126e6565b60405180910390fd5b600073ffffffffffffffffffffffffffffffffffffffff168273ffffffffffffffffffffffffffffffffffffffff1614156110ce576040517f08c379a00000000000000000000000000000000000000000000000000000000081526004016110c590612726565b60405180910390fd5b6110d9838383611739565b6110e4600082610e51565b6001600360008573ffffffffffffffffffffffffffffffffffffffff1673ffffffffffffffffffffffffffffffffffffffff16815260200190815260200160002060008282546111349190612a97565b925050819055506001600360008473ffffffffffffffffffffffffffffffffffffffff1673ffffffffffffffffffffffffffffffffffffffff168152602001908152602001600020600082825461118b9190612a10565b92505081905550816002600083815260200190815260200160002060006101000a81548173ffffffffffffffffffffffffffffffffffffffff021916908373ffffffffffffffffffffffffffffffffffffffff160217905550808273ffffffffffffffffffffffffffffffffffffffff168473ffffffffffffffffffffffffffffffffffffffff167fddf252ad1be2c89b69c2b068fc378daa952ba7f163c4a11628f55a4df523b3ef60405160405180910390a461124a83838361173e565b505050565b6112e5816040516024016112639190612644565b6040516020818303038152906040527f41304fac000000000000000000000000000000000000000000000000000000007bffffffffffffffffffffffffffffffffffffffffffffffffffffffff19166020820180517bffffffffffffffffffffffffffffffffffffffffffffffffffffffff8381831617835250505050611743565b50565b61138082826040516024016112fe929190612696565b6040516020818303038152906040527f9710a9d0000000000000000000000000000000000000000000000000000000007bffffffffffffffffffffffffffffffffffffffffffffffffffffffff19166020820180517bffffffffffffffffffffffffffffffffffffffffffffffffffffffff8381831617835250505050611743565b5050565b61141c828260405160240161139a929190612666565b6040516020818303038152906040527f319af333000000000000000000000000000000000000000000000000000000007bffffffffffffffffffffffffffffffffffffffffffffffffffffffff19166020820180517bffffffffffffffffffffffffffffffffffffffffffffffffffffffff8381831617835250505050611743565b5050565b61143a82826040518060200160405280600081525061176c565b5050565b61144782610ddd565b611486576040517f08c379a000000000000000000000000000000000000000000000000000000000815260040161147d906127e6565b60405180910390fd5b806006600084815260200190815260200160002090805190602001906114ad929190611d08565b505050565b8173ffffffffffffffffffffffffffffffffffffffff168373ffffffffffffffffffffffffffffffffffffffff161415611521576040517f08c379a000000000000000000000000000000000000000000000000000000000815260040161151890612746565b60405180910390fd5b80600560008573ffffffffffffffffffffffffffffffffffffffff1673ffffffffffffffffffffffffffffffffffffffff16815260200190815260200160002060008473ffffffffffffffffffffffffffffffffffffffff1673ffffffffffffffffffffffffffffffffffffffff16815260200190815260200160002060006101000a81548160ff0219169083151502179055508173ffffffffffffffffffffffffffffffffffffffff168373ffffffffffffffffffffffffffffffffffffffff167f17307eab39ab6107e8899845ad3d59bd9653f200f220920489ca2b5937696c31836040516116129190612629565b60405180910390a3505050565b61162a848484610fe8565b611636848484846117c7565b611675576040517f08c379a000000000000000000000000000000000000000000000000000000000815260040161166c906126c6565b60405180910390fd5b50505050565b606060405180602001604052806000815250905090565b606061169d82610ddd565b6116dc576040517f08c379a00000000000000000000000000000000000000000000000000000000081526004016116d390612866565b60405180910390fd5b60006116e661167b565b905060008151116117065760405180602001604052806000815250611731565b806117108461195e565b60405160200161172192919061257c565b6040516020818303038152906040525b915050919050565b505050565b505050565b60008151905060006a636f6e736f6c652e6c6f679050602083016000808483855afa5050505050565b6117768383611b0b565b61178360008484846117c7565b6117c2576040517f08c379a00000000000000000000000000000000000000000000000000000000081526004016117b9906126c6565b60405180910390fd5b505050565b60006117e88473ffffffffffffffffffffffffffffffffffffffff16611ce5565b15611951578373ffffffffffffffffffffffffffffffffffffffff1663150b7a02611811610e49565b8786866040518563ffffffff1660e01b815260040161183394939291906125bb565b602060405180830381600087803b15801561184d57600080fd5b505af192505050801561187e57506040513d601f19601f8201168201806040525081019061187b91906121a5565b60015b611901573d80600081146118ae576040519150601f19603f3d011682016040523d82523d6000602084013e6118b3565b606091505b506000815114156118f9576040517f08c379a00000000000000000000000000000000000000000000000000000000081526004016118f0906126c6565b60405180910390fd5b805181602001fd5b63150b7a0260e01b7bffffffffffffffffffffffffffffffffffffffffffffffffffffffff1916817bffffffffffffffffffffffffffffffffffffffffffffffffffffffff191614915050611956565b600190505b949350505050565b606060008214156119a6576040518060400160405280600181526020017f30000000000000000000000000000000000000000000000000000000000000008152509050611b06565b600082905060005b600082146119d85780806119c190612be4565b915050600a826119d19190612a66565b91506119ae565b60008167ffffffffffffffff811115611a1a577f4e487b7100000000000000000000000000000000000000000000000000000000600052604160045260246000fd5b6040519080825280601f01601f191660200182016040528015611a4c5781602001600182028036833780820191505090505b5090505b60008514611aff57600182611a659190612a97565b9150600a85611a749190612c2d565b6030611a809190612a10565b60f81b818381518110611abc577f4e487b7100000000000000000000000000000000000000000000000000000000600052603260045260246000fd5b60200101907effffffffffffffffffffffffffffffffffffffffffffffffffffffffffffff1916908160001a905350600a85611af89190612a66565b9450611a50565b8093505050505b919050565b600073ffffffffffffffffffffffffffffffffffffffff168273ffffffffffffffffffffffffffffffffffffffff161415611b7b576040517f08c379a0000000000000000000000000000000000000000000000000000000008152600401611b7290612806565b60405180910390fd5b611b8481610ddd565b15611bc4576040517f08c379a0000000000000000000000000000000000000000000000000000000008152600401611bbb90612706565b60405180910390fd5b611bd060008383611739565b6001600360008473ffffffffffffffffffffffffffffffffffffffff1673ffffffffffffffffffffffffffffffffffffffff1681526020019081526020016000206000828254611c209190612a10565b92505081905550816002600083815260200190815260200160002060006101000a81548173ffffffffffffffffffffffffffffffffffffffff021916908373ffffffffffffffffffffffffffffffffffffffff160217905550808273ffffffffffffffffffffffffffffffffffffffff16600073ffffffffffffffffffffffffffffffffffffffff167fddf252ad1be2c89b69c2b068fc378daa952ba7f163c4a11628f55a4df523b3ef60405160405180910390a4611ce16000838361173e565b5050565b6000808273ffffffffffffffffffffffffffffffffffffffff163b119050919050565b828054611d1490612b81565b90600052602060002090601f016020900481019282611d365760008555611d7d565b82601f10611d4f57805160ff1916838001178555611d7d565b82800160010185558215611d7d579182015b82811115611d7c578251825591602001919060010190611d61565b5b509050611d8a9190611d8e565b5090565b5b80821115611da7576000816000905550600101611d8f565b5090565b6000611dbe611db984612906565b6128e1565b90508083825260208201905082856020860282011115611ddd57600080fd5b60005b85811015611e2757813567ffffffffffffffff811115611dff57600080fd5b808601611e0c8982611f55565b85526020850194506020840193505050600181019050611de0565b5050509392505050565b6000611e44611e3f84612932565b6128e1565b905082815260208101848484011115611e5c57600080fd5b611e67848285612b3f565b509392505050565b6000611e82611e7d84612963565b6128e1565b905082815260208101848484011115611e9a57600080fd5b611ea5848285612b3f565b509392505050565b600081359050611ebc816131a9565b92915050565b600082601f830112611ed357600080fd5b8135611ee3848260208601611dab565b91505092915050565b600081359050611efb816131c0565b92915050565b600081359050611f10816131d7565b92915050565b600081519050611f25816131d7565b92915050565b600082601f830112611f3c57600080fd5b8135611f4c848260208601611e31565b91505092915050565b600082601f830112611f6657600080fd5b8135611f76848260208601611e6f565b91505092915050565b600081359050611f8e816131ee565b92915050565b600060208284031215611fa657600080fd5b6000611fb484828501611ead565b91505092915050565b60008060408385031215611fd057600080fd5b6000611fde85828601611ead565b9250506020611fef85828601611ead565b9150509250929050565b60008060006060848603121561200e57600080fd5b600061201c86828701611ead565b935050602061202d86828701611ead565b925050604061203e86828701611f7f565b9150509250925092565b6000806000806080858703121561205e57600080fd5b600061206c87828801611ead565b945050602061207d87828801611ead565b935050604061208e87828801611f7f565b925050606085013567ffffffffffffffff8111156120ab57600080fd5b6120b787828801611f2b565b91505092959194509250565b600080604083850312156120d657600080fd5b60006120e485828601611ead565b92505060206120f585828601611eec565b9150509250929050565b6000806040838503121561211257600080fd5b600061212085828601611ead565b925050602061213185828601611f7f565b9150509250929050565b60006020828403121561214d57600080fd5b600082013567ffffffffffffffff81111561216757600080fd5b61217384828501611ec2565b91505092915050565b60006020828403121561218e57600080fd5b600061219c84828501611f01565b91505092915050565b6000602082840312156121b757600080fd5b60006121c584828501611f16565b91505092915050565b6000602082840312156121e057600080fd5b60006121ee84828501611f7f565b91505092915050565b6000612203838361255e565b60208301905092915050565b61221881612acb565b82525050565b6000612229826129a4565b61223381856129d2565b935061223e83612994565b8060005b8381101561226f57815161225688826121f7565b9750612261836129c5565b925050600181019050612242565b5085935050505092915050565b61228581612add565b82525050565b6000612296826129af565b6122a081856129e3565b93506122b0818560208601612b4e565b6122b981612d1a565b840191505092915050565b60006122cf826129ba565b6122d981856129f4565b93506122e9818560208601612b4e565b6122f281612d1a565b840191505092915050565b6000612308826129ba565b6123128185612a05565b9350612322818560208601612b4e565b80840191505092915050565b600061233b6032836129f4565b915061234682612d2b565b604082019050919050565b600061235e6025836129f4565b915061236982612d7a565b604082019050919050565b6000612381601c836129f4565b915061238c82612dc9565b602082019050919050565b60006123a46024836129f4565b91506123af82612df2565b604082019050919050565b60006123c76019836129f4565b91506123d282612e41565b602082019050919050565b60006123ea602c836129f4565b91506123f582612e6a565b604082019050919050565b600061240d6038836129f4565b915061241882612eb9565b604082019050919050565b6000612430602a836129f4565b915061243b82612f08565b604082019050919050565b60006124536029836129f4565b915061245e82612f57565b604082019050919050565b6000612476602e836129f4565b915061248182612fa6565b604082019050919050565b60006124996020836129f4565b91506124a482612ff5565b602082019050919050565b60006124bc6031836129f4565b91506124c78261301e565b604082019050919050565b60006124df602c836129f4565b91506124ea8261306d565b604082019050919050565b6000612502602f836129f4565b915061250d826130bc565b604082019050919050565b60006125256021836129f4565b91506125308261310b565b604082019050919050565b60006125486031836129f4565b91506125538261315a565b604082019050919050565b61256781612b35565b82525050565b61257681612b35565b82525050565b600061258882856122fd565b915061259482846122fd565b91508190509392505050565b60006020820190506125b5600083018461220f565b92915050565b60006080820190506125d0600083018761220f565b6125dd602083018661220f565b6125ea604083018561256d565b81810360608301526125fc818461228b565b905095945050505050565b60006020820190508181036000830152612621818461221e565b905092915050565b600060208201905061263e600083018461227c565b92915050565b6000602082019050818103600083015261265e81846122c4565b905092915050565b6000604082019050818103600083015261268081856122c4565b905061268f602083018461220f565b9392505050565b600060408201905081810360008301526126b081856122c4565b90506126bf602083018461256d565b9392505050565b600060208201905081810360008301526126df8161232e565b9050919050565b600060208201905081810360008301526126ff81612351565b9050919050565b6000602082019050818103600083015261271f81612374565b9050919050565b6000602082019050818103600083015261273f81612397565b9050919050565b6000602082019050818103600083015261275f816123ba565b9050919050565b6000602082019050818103600083015261277f816123dd565b9050919050565b6000602082019050818103600083015261279f81612400565b9050919050565b600060208201905081810360008301526127bf81612423565b9050919050565b600060208201905081810360008301526127df81612446565b9050919050565b600060208201905081810360008301526127ff81612469565b9050919050565b6000602082019050818103600083015261281f8161248c565b9050919050565b6000602082019050818103600083015261283f816124af565b9050919050565b6000602082019050818103600083015261285f816124d2565b9050919050565b6000602082019050818103600083015261287f816124f5565b9050919050565b6000602082019050818103600083015261289f81612518565b9050919050565b600060208201905081810360008301526128bf8161253b565b9050919050565b60006020820190506128db600083018461256d565b92915050565b60006128eb6128fc565b90506128f78282612bb3565b919050565b6000604051905090565b600067ffffffffffffffff82111561292157612920612ceb565b5b602082029050602081019050919050565b600067ffffffffffffffff82111561294d5761294c612ceb565b5b61295682612d1a565b9050602081019050919050565b600067ffffffffffffffff82111561297e5761297d612ceb565b5b61298782612d1a565b9050602081019050919050565b6000819050602082019050919050565b600081519050919050565b600081519050919050565b600081519050919050565b6000602082019050919050565b600082825260208201905092915050565b600082825260208201905092915050565b600082825260208201905092915050565b600081905092915050565b6000612a1b82612b35565b9150612a2683612b35565b9250827fffffffffffffffffffffffffffffffffffffffffffffffffffffffffffffffff03821115612a5b57612a5a612c5e565b5b828201905092915050565b6000612a7182612b35565b9150612a7c83612b35565b925082612a8c57612a8b612c8d565b5b828204905092915050565b6000612aa282612b35565b9150612aad83612b35565b925082821015612ac057612abf612c5e565b5b828203905092915050565b6000612ad682612b15565b9050919050565b60008115159050919050565b60007fffffffff0000000000000000000000000000000000000000000000000000000082169050919050565b600073ffffffffffffffffffffffffffffffffffffffff82169050919050565b6000819050919050565b82818337600083830152505050565b60005b83811015612b6c578082015181840152602081019050612b51565b83811115612b7b576000848401525b50505050565b60006002820490506001821680612b9957607f821691505b60208210811415612bad57612bac612cbc565b5b50919050565b612bbc82612d1a565b810181811067ffffffffffffffff82111715612bdb57612bda612ceb565b5b80604052505050565b6000612bef82612b35565b91507fffffffffffffffffffffffffffffffffffffffffffffffffffffffffffffffff821415612c2257612c21612c5e565b5b600182019050919050565b6000612c3882612b35565b9150612c4383612b35565b925082612c5357612c52612c8d565b5b828206905092915050565b7f4e487b7100000000000000000000000000000000000000000000000000000000600052601160045260246000fd5b7f4e487b7100000000000000000000000000000000000000000000000000000000600052601260045260246000fd5b7f4e487b7100000000000000000000000000000000000000000000000000000000600052602260045260246000fd5b7f4e487b7100000000000000000000000000000000000000000000000000000000600052604160045260246000fd5b6000601f19601f8301169050919050565b7f4552433732313a207472616e7366657220746f206e6f6e20455243373231526560008201527f63656976657220696d706c656d656e7465720000000000000000000000000000602082015250565b7f4552433732313a207472616e736665722066726f6d20696e636f72726563742060008201527f6f776e6572000000000000000000000000000000000000000000000000000000602082015250565b7f4552433732313a20746f6b656e20616c7265616479206d696e74656400000000600082015250565b7f4552433732313a207472616e7366657220746f20746865207a65726f2061646460008201527f7265737300000000000000000000000000000000000000000000000000000000602082015250565b7f4552433732313a20617070726f766520746f2063616c6c657200000000000000600082015250565b7f4552433732313a206f70657261746f7220717565727920666f72206e6f6e657860008201527f697374656e7420746f6b656e0000000000000000000000000000000000000000602082015250565b7f4552433732313a20617070726f76652063616c6c6572206973206e6f74206f7760008201527f6e6572206e6f7220617070726f76656420666f7220616c6c0000000000000000602082015250565b7f4552433732313a2062616c616e636520717565727920666f7220746865207a6560008201527f726f206164647265737300000000000000000000000000000000000000000000602082015250565b7f4552433732313a206f776e657220717565727920666f72206e6f6e657869737460008201527f656e7420746f6b656e0000000000000000000000000000000000000000000000602082015250565b7f45524337323155524953746f726167653a2055524920736574206f66206e6f6e60008201527f6578697374656e7420746f6b656e000000000000000000000000000000000000602082015250565b7f4552433732313a206d696e7420746f20746865207a65726f2061646472657373600082015250565b7f45524337323155524953746f726167653a2055524920717565727920666f722060008201527f6e6f6e6578697374656e7420746f6b656e000000000000000000000000000000602082015250565b7f4552433732313a20617070726f76656420717565727920666f72206e6f6e657860008201527f697374656e7420746f6b656e0000000000000000000000000000000000000000602082015250565b7f4552433732314d657461646174613a2055524920717565727920666f72206e6f60008201527f6e6578697374656e7420746f6b656e0000000000000000000000000000000000602082015250565b7f4552433732313a20617070726f76616c20746f2063757272656e74206f776e6560008201527f7200000000000000000000000000000000000000000000000000000000000000602082015250565b7f4552433732313a207472616e736665722063616c6c6572206973206e6f74206f60008201527f776e6572206e6f7220617070726f766564000000000000000000000000000000602082015250565b6131b281612acb565b81146131bd57600080fd5b50565b6131c981612add565b81146131d457600080fd5b50565b6131e081612ae9565b81146131eb57600080fd5b50565b6131f781612b35565b811461320257600080fd5b5056fea2646970667358221220210eb617b380f596d50fc568f343acfda51ca78f92c869bb2c42f527e95df25b64736f6c63430008040033",
  "linkReferences": {},
  "deployedLinkReferences": {}
}